{
  "contracts/CrossGrid.sol": {
    "CrossEnergy": {
      "abi": [
        {
          "inputs": [
            {
              "internalType": "uint256",
              "name": "initialPrice",
              "type": "uint256"
            },
            {
              "internalType": "address",
              "name": "_token",
              "type": "address"
            }
          ],
          "stateMutability": "nonpayable",
          "type": "constructor"
        },
        {
          "anonymous": false,
          "inputs": [
            {
              "indexed": true,
              "internalType": "address",
              "name": "user",
              "type": "address"
            },
            {
              "indexed": false,
              "internalType": "uint256",
              "name": "timestamp",
              "type": "uint256"
            }
          ],
          "name": "DataReset",
          "type": "event"
        },
        {
          "anonymous": false,
          "inputs": [
            {
              "indexed": true,
              "internalType": "address",
              "name": "initiator",
              "type": "address"
            },
            {
              "indexed": true,
              "internalType": "address",
              "name": "respondent",
              "type": "address"
            },
            {
              "indexed": false,
              "internalType": "string",
              "name": "reason",
              "type": "string"
            }
          ],
          "name": "DisputeInitiated",
          "type": "event"
        },
        {
          "anonymous": false,
          "inputs": [
            {
              "indexed": true,
              "internalType": "uint256",
              "name": "disputeId",
              "type": "uint256"
            },
            {
              "indexed": false,
              "internalType": "string",
              "name": "resolutionDetails",
              "type": "string"
            }
          ],
          "name": "DisputeResolved",
          "type": "event"
        },
        {
          "anonymous": false,
          "inputs": [
            {
              "indexed": true,
              "internalType": "address",
              "name": "producer",
              "type": "address"
            },
            {
              "indexed": true,
              "internalType": "address",
              "name": "consumer",
              "type": "address"
            },
            {
              "indexed": false,
              "internalType": "uint256",
              "name": "amount",
              "type": "uint256"
            },
            {
              "indexed": false,
              "internalType": "uint256",
              "name": "price",
              "type": "uint256"
            }
          ],
          "name": "EnergyBought",
          "type": "event"
        },
        {
          "anonymous": false,
          "inputs": [
            {
              "indexed": true,
              "internalType": "address",
              "name": "consumer",
              "type": "address"
            },
            {
              "indexed": false,
              "internalType": "uint256",
              "name": "amount",
              "type": "uint256"
            },
            {
              "indexed": false,
              "internalType": "uint256",
              "name": "timestamp",
              "type": "uint256"
            }
          ],
          "name": "EnergyConsumed",
          "type": "event"
        },
        {
          "anonymous": false,
          "inputs": [
            {
              "indexed": true,
              "internalType": "address",
              "name": "producer",
              "type": "address"
            },
            {
              "indexed": false,
              "internalType": "uint256",
              "name": "amount",
              "type": "uint256"
            },
            {
              "indexed": false,
              "internalType": "uint256",
              "name": "price",
              "type": "uint256"
            },
            {
              "indexed": false,
              "internalType": "string",
              "name": "energyType",
              "type": "string"
            }
          ],
          "name": "EnergyListed",
          "type": "event"
        },
        {
          "anonymous": false,
          "inputs": [
            {
              "indexed": true,
              "internalType": "address",
              "name": "producer",
              "type": "address"
            },
            {
              "indexed": false,
              "internalType": "uint256",
              "name": "amount",
              "type": "uint256"
            },
            {
              "indexed": false,
              "internalType": "enum CrossEnergy.EnergyType",
              "name": "energyType",
              "type": "uint8"
            },
            {
              "indexed": false,
              "internalType": "uint256",
              "name": "timestamp",
              "type": "uint256"
            }
          ],
          "name": "EnergyProduced",
          "type": "event"
        },
        {
          "anonymous": false,
          "inputs": [
            {
              "indexed": false,
              "internalType": "uint256",
              "name": "oldPrice",
              "type": "uint256"
            },
            {
              "indexed": false,
              "internalType": "uint256",
              "name": "newPrice",
              "type": "uint256"
            }
          ],
          "name": "PriceUpdated",
          "type": "event"
        },
        {
          "anonymous": false,
          "inputs": [
            {
              "indexed": true,
              "internalType": "address",
              "name": "user",
              "type": "address"
            },
            {
              "indexed": false,
              "internalType": "enum CrossEnergy.UserType",
              "name": "userType",
              "type": "uint8"
            }
          ],
          "name": "UserRegistered",
          "type": "event"
        },
        {
          "inputs": [
            {
              "internalType": "address",
              "name": "producer",
              "type": "address"
            },
            {
              "internalType": "uint256",
              "name": "price",
              "type": "uint256"
            }
          ],
          "name": "buyEnergy",
          "outputs": [],
          "stateMutability": "nonpayable",
          "type": "function"
        },
        {
          "inputs": [
            {
              "internalType": "address",
              "name": "",
              "type": "address"
            }
          ],
          "name": "customerDemand",
          "outputs": [
            {
              "internalType": "uint256",
              "name": "",
              "type": "uint256"
            }
          ],
          "stateMutability": "view",
          "type": "function"
        },
        {
          "inputs": [
            {
              "internalType": "uint256",
              "name": "",
              "type": "uint256"
            }
          ],
          "name": "disputes",
          "outputs": [
            {
              "internalType": "address",
              "name": "initiator",
              "type": "address"
            },
            {
              "internalType": "address",
              "name": "respondent",
              "type": "address"
            },
            {
              "internalType": "string",
              "name": "reason",
              "type": "string"
            },
            {
              "internalType": "string",
              "name": "resolutionDetails",
              "type": "string"
            },
            {
              "internalType": "bool",
              "name": "resolved",
              "type": "bool"
            },
            {
              "internalType": "uint256",
              "name": "timestamp",
              "type": "uint256"
            }
          ],
          "stateMutability": "view",
          "type": "function"
        },
        {
          "inputs": [],
          "name": "dynamicPrice",
          "outputs": [
            {
              "internalType": "uint256",
              "name": "",
              "type": "uint256"
            }
          ],
          "stateMutability": "view",
          "type": "function"
        },
        {
          "inputs": [
            {
              "internalType": "address",
              "name": "",
              "type": "address"
            }
          ],
          "name": "energyListings",
          "outputs": [
            {
              "internalType": "address",
              "name": "producer",
              "type": "address"
            },
            {
              "internalType": "uint256",
              "name": "amount",
              "type": "uint256"
            },
            {
              "internalType": "uint256",
              "name": "price",
              "type": "uint256"
            },
            {
              "internalType": "enum CrossEnergy.EnergyType",
              "name": "energyType",
              "type": "uint8"
            },
            {
              "internalType": "bool",
              "name": "active",
              "type": "bool"
            }
          ],
          "stateMutability": "view",
          "type": "function"
        },
        {
          "inputs": [],
          "name": "getAllUsers",
          "outputs": [
            {
              "internalType": "address[]",
              "name": "",
              "type": "address[]"
            }
          ],
          "stateMutability": "view",
          "type": "function"
        },
        {
          "inputs": [
            {
              "internalType": "uint256",
              "name": "disputeId",
              "type": "uint256"
            }
          ],
          "name": "getDispute",
          "outputs": [
            {
              "components": [
                {
                  "internalType": "address",
                  "name": "initiator",
                  "type": "address"
                },
                {
                  "internalType": "address",
                  "name": "respondent",
                  "type": "address"
                },
                {
                  "internalType": "string",
                  "name": "reason",
                  "type": "string"
                },
                {
                  "internalType": "string",
                  "name": "resolutionDetails",
                  "type": "string"
                },
                {
                  "internalType": "bool",
                  "name": "resolved",
                  "type": "bool"
                },
                {
                  "internalType": "uint256",
                  "name": "timestamp",
                  "type": "uint256"
                }
              ],
              "internalType": "struct CrossEnergy.Dispute",
              "name": "",
              "type": "tuple"
            }
          ],
          "stateMutability": "view",
          "type": "function"
        },
        {
          "inputs": [],
          "name": "getDisputes",
          "outputs": [
            {
              "components": [
                {
                  "internalType": "address",
                  "name": "initiator",
                  "type": "address"
                },
                {
                  "internalType": "address",
                  "name": "respondent",
                  "type": "address"
                },
                {
                  "internalType": "string",
                  "name": "reason",
                  "type": "string"
                },
                {
                  "internalType": "string",
                  "name": "resolutionDetails",
                  "type": "string"
                },
                {
                  "internalType": "bool",
                  "name": "resolved",
                  "type": "bool"
                },
                {
                  "internalType": "uint256",
                  "name": "timestamp",
                  "type": "uint256"
                }
              ],
              "internalType": "struct CrossEnergy.Dispute[]",
              "name": "",
              "type": "tuple[]"
            }
          ],
          "stateMutability": "view",
          "type": "function"
        },
        {
          "inputs": [
            {
              "internalType": "address",
              "name": "user",
              "type": "address"
            }
          ],
          "name": "getRecords",
          "outputs": [
            {
              "components": [
                {
                  "internalType": "uint256",
                  "name": "produced",
                  "type": "uint256"
                },
                {
                  "internalType": "uint256",
                  "name": "consumed",
                  "type": "uint256"
                },
                {
                  "internalType": "uint256",
                  "name": "timestamp",
                  "type": "uint256"
                },
                {
                  "internalType": "enum CrossEnergy.EnergyType",
                  "name": "energyType",
                  "type": "uint8"
                }
              ],
              "internalType": "struct CrossEnergy.EnergyRecord[]",
              "name": "",
              "type": "tuple[]"
            }
          ],
          "stateMutability": "view",
          "type": "function"
        },
        {
          "inputs": [
            {
              "internalType": "address",
              "name": "user",
              "type": "address"
            }
          ],
          "name": "getUserType",
          "outputs": [
            {
              "internalType": "enum CrossEnergy.UserType",
              "name": "",
              "type": "uint8"
            }
          ],
          "stateMutability": "view",
          "type": "function"
        },
        {
          "inputs": [
            {
              "internalType": "address",
              "name": "respondent",
              "type": "address"
            },
            {
              "internalType": "string",
              "name": "reason",
              "type": "string"
            }
          ],
          "name": "initiateDispute",
          "outputs": [],
          "stateMutability": "nonpayable",
          "type": "function"
        },
        {
          "inputs": [
            {
              "internalType": "address",
              "name": "user",
              "type": "address"
            }
          ],
          "name": "isRegistered",
          "outputs": [
            {
              "internalType": "bool",
              "name": "",
              "type": "bool"
            }
          ],
          "stateMutability": "view",
          "type": "function"
        },
        {
          "inputs": [
            {
              "internalType": "uint256",
              "name": "amount",
              "type": "uint256"
            },
            {
              "internalType": "uint256",
              "name": "price",
              "type": "uint256"
            },
            {
              "internalType": "enum CrossEnergy.EnergyType",
              "name": "energyType",
              "type": "uint8"
            }
          ],
          "name": "listEnergy",
          "outputs": [],
          "stateMutability": "nonpayable",
          "type": "function"
        },
        {
          "inputs": [],
          "name": "owner",
          "outputs": [
            {
              "internalType": "address",
              "name": "",
              "type": "address"
            }
          ],
          "stateMutability": "view",
          "type": "function"
        },
        {
          "inputs": [
            {
              "internalType": "address",
              "name": "user",
              "type": "address"
            },
            {
              "internalType": "enum CrossEnergy.UserType",
              "name": "userType",
              "type": "uint8"
            }
          ],
          "name": "registerUser",
          "outputs": [],
          "stateMutability": "nonpayable",
          "type": "function"
        },
        {
          "inputs": [
            {
              "internalType": "address",
              "name": "user",
              "type": "address"
            }
          ],
          "name": "resetData",
          "outputs": [],
          "stateMutability": "nonpayable",
          "type": "function"
        },
        {
          "inputs": [
            {
              "internalType": "uint256",
              "name": "disputeId",
              "type": "uint256"
            },
            {
              "internalType": "string",
              "name": "resolutionDetails",
              "type": "string"
            }
          ],
          "name": "resolveDispute",
          "outputs": [],
          "stateMutability": "nonpayable",
          "type": "function"
        },
        {
          "inputs": [],
          "name": "token",
          "outputs": [
            {
              "internalType": "contract IEnergy",
              "name": "",
              "type": "address"
            }
          ],
          "stateMutability": "view",
          "type": "function"
        },
        {
          "inputs": [
            {
              "internalType": "address",
              "name": "",
              "type": "address"
            }
          ],
          "name": "totalConsumed",
          "outputs": [
            {
              "internalType": "uint256",
              "name": "",
              "type": "uint256"
            }
          ],
          "stateMutability": "view",
          "type": "function"
        },
        {
          "inputs": [
            {
              "internalType": "address",
              "name": "",
              "type": "address"
            }
          ],
          "name": "totalProduced",
          "outputs": [
            {
              "internalType": "uint256",
              "name": "",
              "type": "uint256"
            }
          ],
          "stateMutability": "view",
          "type": "function"
        },
        {
          "inputs": [],
          "name": "updatePrice",
          "outputs": [],
          "stateMutability": "nonpayable",
          "type": "function"
        },
        {
          "inputs": [
            {
              "internalType": "address",
              "name": "",
              "type": "address"
            }
          ],
          "name": "users",
          "outputs": [
            {
              "internalType": "enum CrossEnergy.UserType",
              "name": "userType",
              "type": "uint8"
            },
            {
              "internalType": "bool",
              "name": "registered",
              "type": "bool"
            }
          ],
          "stateMutability": "view",
          "type": "function"
        }
      ],
      "evm": {
        "bytecode": {
          "linkReferences": {},
          "object": "608060405234801561001057600080fd5b506040516147f73803806147f78339818101604052810190610032919061019e565b60008211610075576040517f08c379a000000000000000000000000000000000000000000000000000000000815260040161006c90610261565b60405180910390fd5b8160008190555080600160006101000a81548173ffffffffffffffffffffffffffffffffffffffff021916908373ffffffffffffffffffffffffffffffffffffffff16021790555033600260006101000a81548173ffffffffffffffffffffffffffffffffffffffff021916908373ffffffffffffffffffffffffffffffffffffffff1602179055505050610281565b600080fd5b6000819050919050565b61011d8161010a565b811461012857600080fd5b50565b60008151905061013a81610114565b92915050565b600073ffffffffffffffffffffffffffffffffffffffff82169050919050565b600061016b82610140565b9050919050565b61017b81610160565b811461018657600080fd5b50565b60008151905061019881610172565b92915050565b600080604083850312156101b5576101b4610105565b5b60006101c38582860161012b565b92505060206101d485828601610189565b9150509250929050565b600082825260208201905092915050565b7f496e697469616c207072696365206d757374206265206772656174657220746860008201527f616e207a65726f00000000000000000000000000000000000000000000000000602082015250565b600061024b6027836101de565b9150610256826101ef565b604082019050919050565b6000602082019050818103600083015261027a8161023e565b9050919050565b614567806102906000396000f3fe608060405234801561001057600080fd5b50600436106101425760003560e01c80639e9fa097116100b8578063baa15f6f1161007c578063baa15f6f14610391578063c3c5a547146103c1578063cf51b45d146103f1578063e2842d791461040d578063e3a96cbd1461042b578063fc0c546a1461045b57610142565b80639e9fa097146102c6578063a0076e84146102e2578063a87430ba14610312578063b0c6eb0c14610343578063b1ca72a61461037357610142565b8063564a565d1161010a578063564a565d146101e9578063629faf8a1461021e5780636582f06e1461023a578063673a7e281461026e5780638b3f863f146102785780638da5cb5b146102a857610142565b80631a68e9431461014757806336fd7e1b146101635780633d06a9691461017f57806345f870af1461019d5780634a63705b146101b9575b600080fd5b610161600480360381019061015c91906129e1565b610479565b005b61017d60048036038101906101789190612a92565b610914565b005b610187610e19565b6040516101949190612ae1565b60405180910390f35b6101b760048036038101906101b29190612c42565b610e1f565b005b6101d360048036038101906101ce9190612c9e565b611004565b6040516101e09190612ae1565b60405180910390f35b61020360048036038101906101fe9190612ccb565b61101c565b60405161021596959493929190612da1565b60405180910390f35b61023860048036038101906102339190612c9e565b6111c5565b005b610254600480360381019061024f9190612c9e565b61137b565b604051610265959493929190612e87565b60405180910390f35b6102766113eb565b005b610292600480360381019061028d9190612c9e565b611630565b60405161029f9190612f22565b60405180910390f35b6102b0611718565b6040516102bd9190612f3d565b60405180910390f35b6102e060048036038101906102db9190612f7d565b61173e565b005b6102fc60048036038101906102f79190612c9e565b611a15565b60405161030991906130df565b60405180910390f35b61032c60048036038101906103279190612c9e565b611b0c565b60405161033a929190613101565b60405180910390f35b61035d60048036038101906103589190612c9e565b611b4a565b60405161036a9190612ae1565b60405180910390f35b61037b611b62565b60405161038891906132e4565b60405180910390f35b6103ab60048036038101906103a69190612c9e565b611db6565b6040516103b89190612ae1565b60405180910390f35b6103db60048036038101906103d69190612c9e565b611dce565b6040516103e89190613306565b60405180910390f35b61040b60048036038101906104069190613321565b611e27565b005b610415611fe2565b604051610422919061342c565b60405180910390f35b61044560048036038101906104409190612ccb565b612070565b60405161045291906134de565b60405180910390f35b6104636122e8565b604051610470919061355f565b60405180910390f35b600460009054906101000a900460ff16156104c9576040517f08c379a00000000000000000000000000000000000000000000000000000000081526004016104c0906135c6565b60405180910390fd5b6001600460006101000a81548160ff021916908315150217905550600860003373ffffffffffffffffffffffffffffffffffffffff1673ffffffffffffffffffffffffffffffffffffffff16815260200190815260200160002060000160019054906101000a900460ff1680156105b357506001600281111561054f5761054e612e10565b5b600860003373ffffffffffffffffffffffffffffffffffffffff1673ffffffffffffffffffffffffffffffffffffffff16815260200190815260200160002060000160009054906101000a900460ff1660028111156105b1576105b0612e10565b5b145b6105f2576040517f08c379a00000000000000000000000000000000000000000000000000000000081526004016105e990613658565b60405180910390fd5b60008311610635576040517f08c379a000000000000000000000000000000000000000000000000000000000815260040161062c906136c4565b60405180910390fd5b60008211610678576040517f08c379a000000000000000000000000000000000000000000000000000000000815260040161066f90613730565b60405180910390fd5b60001515600660003373ffffffffffffffffffffffffffffffffffffffff1673ffffffffffffffffffffffffffffffffffffffff16815260200190815260200160002060030160019054906101000a900460ff1615151461070e576040517f08c379a0000000000000000000000000000000000000000000000000000000008152600401610705906137c2565b60405180910390fd5b600a60003373ffffffffffffffffffffffffffffffffffffffff1673ffffffffffffffffffffffffffffffffffffffff168152602001908152602001600020506040518060a001604052803373ffffffffffffffffffffffffffffffffffffffff16815260200184815260200183815260200182600381111561079457610793612e10565b5b815260200160011515815250600660003373ffffffffffffffffffffffffffffffffffffffff1673ffffffffffffffffffffffffffffffffffffffff16815260200190815260200160002060008201518160000160006101000a81548173ffffffffffffffffffffffffffffffffffffffff021916908373ffffffffffffffffffffffffffffffffffffffff160217905550602082015181600101556040820151816002015560608201518160030160006101000a81548160ff0219169083600381111561086557610864612e10565b5b021790555060808201518160030160016101000a81548160ff02191690831515021790555090505061089833848361230e565b3373ffffffffffffffffffffffffffffffffffffffff167f2f8d01920f10cc9dcd6eb2ba04b84f6345aba87751d7e5a2650bdba1b106860e846000546108dd856124ea565b6040516108ec939291906137e2565b60405180910390a26000600460006101000a81548160ff021916908315150217905550505050565b600460009054906101000a900460ff1615610964576040517f08c379a000000000000000000000000000000000000000000000000000000000815260040161095b906135c6565b60405180910390fd5b6001600460006101000a81548160ff0219169083151502179055506000600660008473ffffffffffffffffffffffffffffffffffffffff1673ffffffffffffffffffffffffffffffffffffffff16815260200190815260200160002090508060030160019054906101000a900460ff16610a13576040517f08c379a0000000000000000000000000000000000000000000000000000000008152600401610a0a9061386c565b60405180910390fd5b600082118015610a36575080600201548160010154610a3291906138bb565b8211155b610a75576040517f08c379a0000000000000000000000000000000000000000000000000000000008152600401610a6c9061396f565b60405180910390fd5b600081600201546103e884610a8a91906138bb565b610a9491906139be565b90508160010154811115610add576040517f08c379a0000000000000000000000000000000000000000000000000000000008152600401610ad490613a61565b60405180910390fd5b82600160009054906101000a900473ffffffffffffffffffffffffffffffffffffffff1673ffffffffffffffffffffffffffffffffffffffff1663dd62ed3e33306040518363ffffffff1660e01b8152600401610b3b929190613a81565b602060405180830381865afa158015610b58573d6000803e3d6000fd5b505050506040513d601f19601f82011682018060405250810190610b7c9190613abf565b1015610bbd576040517f08c379a0000000000000000000000000000000000000000000000000000000008152600401610bb490613b38565b60405180910390fd5b82600160009054906101000a900473ffffffffffffffffffffffffffffffffffffffff1673ffffffffffffffffffffffffffffffffffffffff166370a08231336040518263ffffffff1660e01b8152600401610c199190612f3d565b602060405180830381865afa158015610c36573d6000803e3d6000fd5b505050506040513d601f19601f82011682018060405250810190610c5a9190613abf565b1015610c9b576040517f08c379a0000000000000000000000000000000000000000000000000000000008152600401610c9290613ba4565b60405180910390fd5b600160009054906101000a900473ffffffffffffffffffffffffffffffffffffffff1673ffffffffffffffffffffffffffffffffffffffff166323b872dd3386866040518463ffffffff1660e01b8152600401610cfa93929190613bc4565b6020604051808303816000875af1158015610d19573d6000803e3d6000fd5b505050506040513d601f19601f82011682018060405250810190610d3d9190613c27565b5080826001016000828254610d529190613c54565b925050819055506000826001015403610d835760008260030160016101000a81548160ff0219169083151502179055505b610d8d33826126cd565b3373ffffffffffffffffffffffffffffffffffffffff168473ffffffffffffffffffffffffffffffffffffffff167f942439e1850cccb8201680164759092629ebc0519531d3aeea6a5d9b3578529d838560020154604051610df0929190613c88565b60405180910390a350506000600460006101000a81548160ff0219169083151502179055505050565b60005481565b60056040518060c001604052803373ffffffffffffffffffffffffffffffffffffffff1681526020018473ffffffffffffffffffffffffffffffffffffffff16815260200183815260200160405180602001604052806000815250815260200160001515815260200142815250908060018154018082558091505060019003906000526020600020906006020160009091909190915060008201518160000160006101000a81548173ffffffffffffffffffffffffffffffffffffffff021916908373ffffffffffffffffffffffffffffffffffffffff16021790555060208201518160010160006101000a81548173ffffffffffffffffffffffffffffffffffffffff021916908373ffffffffffffffffffffffffffffffffffffffff1602179055506040820151816002019081610f589190613eb3565b506060820151816003019081610f6e9190613eb3565b5060808201518160040160006101000a81548160ff02191690831515021790555060a0820151816005015550508173ffffffffffffffffffffffffffffffffffffffff163373ffffffffffffffffffffffffffffffffffffffff167fed910a45fad35ddd97267fbd397fde8f27d5c4cc9e5b54803e2c594b1211cab783604051610ff89190613f85565b60405180910390a35050565b600a6020528060005260406000206000915090505481565b6005818154811061102c57600080fd5b90600052602060002090600602016000915090508060000160009054906101000a900473ffffffffffffffffffffffffffffffffffffffff16908060010160009054906101000a900473ffffffffffffffffffffffffffffffffffffffff169080600201805461109b90613ce0565b80601f01602080910402602001604051908101604052809291908181526020018280546110c790613ce0565b80156111145780601f106110e957610100808354040283529160200191611114565b820191906000526020600020905b8154815290600101906020018083116110f757829003601f168201915b50505050509080600301805461112990613ce0565b80601f016020809104026020016040519081016040528092919081815260200182805461115590613ce0565b80156111a25780601f10611177576101008083540402835291602001916111a2565b820191906000526020600020905b81548152906001019060200180831161118557829003601f168201915b5050505050908060040160009054906101000a900460ff16908060050154905086565b600260009054906101000a900473ffffffffffffffffffffffffffffffffffffffff1673ffffffffffffffffffffffffffffffffffffffff163373ffffffffffffffffffffffffffffffffffffffff1614611255576040517f08c379a000000000000000000000000000000000000000000000000000000000815260040161124c90613ff3565b60405180910390fd5b600960008273ffffffffffffffffffffffffffffffffffffffff1673ffffffffffffffffffffffffffffffffffffffff16815260200190815260200160002060006112a091906128a7565b6000600a60008373ffffffffffffffffffffffffffffffffffffffff1673ffffffffffffffffffffffffffffffffffffffff168152602001908152602001600020819055506000600b60008373ffffffffffffffffffffffffffffffffffffffff1673ffffffffffffffffffffffffffffffffffffffff168152602001908152602001600020819055508073ffffffffffffffffffffffffffffffffffffffff167f65480cbdb2e256d00b7bf08f60e0726e75f27b97559cbfdb74a37e4c80086fcd426040516113709190612ae1565b60405180910390a250565b60066020528060005260406000206000915090508060000160009054906101000a900473ffffffffffffffffffffffffffffffffffffffff16908060010154908060020154908060030160009054906101000a900460ff16908060030160019054906101000a900460ff16905085565b600260009054906101000a900473ffffffffffffffffffffffffffffffffffffffff1673ffffffffffffffffffffffffffffffffffffffff163373ffffffffffffffffffffffffffffffffffffffff161461147b576040517f08c379a000000000000000000000000000000000000000000000000000000000815260040161147290613ff3565b60405180910390fd5b6000600a6000600260009054906101000a900473ffffffffffffffffffffffffffffffffffffffff1673ffffffffffffffffffffffffffffffffffffffff1673ffffffffffffffffffffffffffffffffffffffff1681526020019081526020016000205490506000600b6000600260009054906101000a900473ffffffffffffffffffffffffffffffffffffffff1673ffffffffffffffffffffffffffffffffffffffff1673ffffffffffffffffffffffffffffffffffffffff1681526020019081526020016000205490506000821161158a576040517f08c379a00000000000000000000000000000000000000000000000000000000081526004016115819061405f565b60405180910390fd5b600081116115cd576040517f08c379a00000000000000000000000000000000000000000000000000000000081526004016115c4906140cb565b60405180910390fd5b6000805490508281836115e091906138bb565b6115ea91906139be565b6000819055507f945c1c4e99aa89f648fbfe3df471b916f719e16d960fcec0737d4d56bd69683881600054604051611623929190613c88565b60405180910390a1505050565b6000600860008373ffffffffffffffffffffffffffffffffffffffff1673ffffffffffffffffffffffffffffffffffffffff16815260200190815260200160002060000160019054906101000a900460ff166116c1576040517f08c379a00000000000000000000000000000000000000000000000000000000081526004016116b890614137565b60405180910390fd5b600860008373ffffffffffffffffffffffffffffffffffffffff1673ffffffffffffffffffffffffffffffffffffffff16815260200190815260200160002060000160009054906101000a900460ff169050919050565b600260009054906101000a900473ffffffffffffffffffffffffffffffffffffffff1681565b600073ffffffffffffffffffffffffffffffffffffffff168273ffffffffffffffffffffffffffffffffffffffff16036117ad576040517f08c379a00000000000000000000000000000000000000000000000000000000081526004016117a4906141a3565b60405180910390fd5b600060028111156117c1576117c0612e10565b5b8160028111156117d4576117d3612e10565b5b03611814576040517f08c379a000000000000000000000000000000000000000000000000000000000815260040161180b9061420f565b60405180910390fd5b600860008373ffffffffffffffffffffffffffffffffffffffff1673ffffffffffffffffffffffffffffffffffffffff16815260200190815260200160002060000160019054906101000a900460ff16156118a4576040517f08c379a000000000000000000000000000000000000000000000000000000000815260040161189b9061427b565b60405180910390fd5b60405180604001604052808260028111156118c2576118c1612e10565b5b815260200160011515815250600860008473ffffffffffffffffffffffffffffffffffffffff1673ffffffffffffffffffffffffffffffffffffffff16815260200190815260200160002060008201518160000160006101000a81548160ff0219169083600281111561193857611937612e10565b5b021790555060208201518160000160016101000a81548160ff0219169083151502179055509050506003829080600181540180825580915050600190039060005260206000200160009091909190916101000a81548173ffffffffffffffffffffffffffffffffffffffff021916908373ffffffffffffffffffffffffffffffffffffffff1602179055508173ffffffffffffffffffffffffffffffffffffffff167f8e18574f8a7333e6a87112742a55853a643e2f0550f4e1a3a2c3f1bb2994441d82604051611a099190612f22565b60405180910390a25050565b6060600960008373ffffffffffffffffffffffffffffffffffffffff1673ffffffffffffffffffffffffffffffffffffffff168152602001908152602001600020805480602002602001604051908101604052809291908181526020016000905b82821015611b0157838290600052602060002090600402016040518060800160405290816000820154815260200160018201548152602001600282015481526020016003820160009054906101000a900460ff166003811115611adc57611adb612e10565b5b6003811115611aee57611aed612e10565b5b8152505081526020019060010190611a76565b505050509050919050565b60086020528060005260406000206000915090508060000160009054906101000a900460ff16908060000160019054906101000a900460ff16905082565b600b6020528060005260406000206000915090505481565b60606005805480602002602001604051908101604052809291908181526020016000905b82821015611dad57838290600052602060002090600602016040518060c00160405290816000820160009054906101000a900473ffffffffffffffffffffffffffffffffffffffff1673ffffffffffffffffffffffffffffffffffffffff1673ffffffffffffffffffffffffffffffffffffffff1681526020016001820160009054906101000a900473ffffffffffffffffffffffffffffffffffffffff1673ffffffffffffffffffffffffffffffffffffffff1673ffffffffffffffffffffffffffffffffffffffff168152602001600282018054611c6590613ce0565b80601f0160208091040260200160405190810160405280929190818152602001828054611c9190613ce0565b8015611cde5780601f10611cb357610100808354040283529160200191611cde565b820191906000526020600020905b815481529060010190602001808311611cc157829003601f168201915b50505050508152602001600382018054611cf790613ce0565b80601f0160208091040260200160405190810160405280929190818152602001828054611d2390613ce0565b8015611d705780601f10611d4557610100808354040283529160200191611d70565b820191906000526020600020905b815481529060010190602001808311611d5357829003601f168201915b505050505081526020016004820160009054906101000a900460ff1615151515815260200160058201548152505081526020019060010190611b86565b50505050905090565b60076020528060005260406000206000915090505481565b6000600860008373ffffffffffffffffffffffffffffffffffffffff1673ffffffffffffffffffffffffffffffffffffffff16815260200190815260200160002060000160019054906101000a900460ff169050919050565b600260009054906101000a900473ffffffffffffffffffffffffffffffffffffffff1673ffffffffffffffffffffffffffffffffffffffff163373ffffffffffffffffffffffffffffffffffffffff1614611eb7576040517f08c379a0000000000000000000000000000000000000000000000000000000008152600401611eae90613ff3565b60405180910390fd5b6005805490508210611efe576040517f08c379a0000000000000000000000000000000000000000000000000000000008152600401611ef5906142e7565b60405180910390fd5b600060058381548110611f1457611f13614307565b5b906000526020600020906006020190508060040160009054906101000a900460ff1615611f76576040517f08c379a0000000000000000000000000000000000000000000000000000000008152600401611f6d90614382565b60405180910390fd5b81816003019081611f879190613eb3565b5060018160040160006101000a81548160ff021916908315150217905550827f831764ac02a33c193cba23a0de34c986e9b50402bf3c9febf6ff2f63d4c0435d83604051611fd59190613f85565b60405180910390a2505050565b6060600380548060200260200160405190810160405280929190818152602001828054801561206657602002820191906000526020600020905b8160009054906101000a900473ffffffffffffffffffffffffffffffffffffffff1673ffffffffffffffffffffffffffffffffffffffff168152602001906001019080831161201c575b5050505050905090565b6120786128cb565b60058054905082106120bf576040517f08c379a00000000000000000000000000000000000000000000000000000000081526004016120b6906142e7565b60405180910390fd5b600582815481106120d3576120d2614307565b5b90600052602060002090600602016040518060c00160405290816000820160009054906101000a900473ffffffffffffffffffffffffffffffffffffffff1673ffffffffffffffffffffffffffffffffffffffff1673ffffffffffffffffffffffffffffffffffffffff1681526020016001820160009054906101000a900473ffffffffffffffffffffffffffffffffffffffff1673ffffffffffffffffffffffffffffffffffffffff1673ffffffffffffffffffffffffffffffffffffffff1681526020016002820180546121a890613ce0565b80601f01602080910402602001604051908101604052809291908181526020018280546121d490613ce0565b80156122215780601f106121f657610100808354040283529160200191612221565b820191906000526020600020905b81548152906001019060200180831161220457829003601f168201915b5050505050815260200160038201805461223a90613ce0565b80601f016020809104026020016040519081016040528092919081815260200182805461226690613ce0565b80156122b35780601f10612288576101008083540402835291602001916122b3565b820191906000526020600020905b81548152906001019060200180831161229657829003601f168201915b505050505081526020016004820160009054906101000a900460ff161515151581526020016005820154815250509050919050565b600160009054906101000a900473ffffffffffffffffffffffffffffffffffffffff1681565b60008211612351576040517f08c379a000000000000000000000000000000000000000000000000000000000815260040161234890614414565b60405180910390fd5b81600a60008573ffffffffffffffffffffffffffffffffffffffff1673ffffffffffffffffffffffffffffffffffffffff16815260200190815260200160002060008282546123a09190614434565b92505081905550600960008473ffffffffffffffffffffffffffffffffffffffff1673ffffffffffffffffffffffffffffffffffffffff16815260200190815260200160002060405180608001604052808481526020016000815260200142815260200183600381111561241757612416612e10565b5b815250908060018154018082558091505060019003906000526020600020906004020160009091909190915060008201518160000155602082015181600101556040820151816002015560608201518160030160006101000a81548160ff0219169083600381111561248c5761248b612e10565b5b021790555050508273ffffffffffffffffffffffffffffffffffffffff167f5cfb307666c302e735ed249671512540e5ef8425fb38f73e416e0fcab716eac78383426040516124dd93929190614468565b60405180910390a2505050565b606060006003811115612500576124ff612e10565b5b82600381111561251357612512612e10565b5b03612555576040518060400160405280600581526020017f536f6c617200000000000000000000000000000000000000000000000000000081525090506126c8565b6001600381111561256957612568612e10565b5b82600381111561257c5761257b612e10565b5b036125be576040518060400160405280600481526020017f57696e640000000000000000000000000000000000000000000000000000000081525090506126c8565b600260038111156125d2576125d1612e10565b5b8260038111156125e5576125e4612e10565b5b03612627576040518060400160405280600781526020017f42696f6d6173730000000000000000000000000000000000000000000000000081525090506126c8565b60038081111561263a57612639612e10565b5b82600381111561264d5761264c612e10565b5b0361268f576040518060400160405280600581526020017f546964616c00000000000000000000000000000000000000000000000000000081525090506126c8565b6040518060400160405280600781526020017f556e6b6e6f776e0000000000000000000000000000000000000000000000000081525090505b919050565b60008111612710576040517f08c379a000000000000000000000000000000000000000000000000000000000815260040161270790614511565b60405180910390fd5b80600b60008473ffffffffffffffffffffffffffffffffffffffff1673ffffffffffffffffffffffffffffffffffffffff168152602001908152602001600020600082825461275f9190614434565b92505081905550600960008373ffffffffffffffffffffffffffffffffffffffff1673ffffffffffffffffffffffffffffffffffffffff168152602001908152602001600020604051806080016040528060008152602001838152602001428152602001600060038111156127d7576127d6612e10565b5b815250908060018154018082558091505060019003906000526020600020906004020160009091909190915060008201518160000155602082015181600101556040820151816002015560608201518160030160006101000a81548160ff0219169083600381111561284c5761284b612e10565b5b021790555050508173ffffffffffffffffffffffffffffffffffffffff167fadf60b50812cf8de7ced51caa9256fb7531ef821c63929aa890ab3123387d246824260405161289b929190613c88565b60405180910390a25050565b50805460008255600402906000526020600020908101906128c8919061292f565b50565b6040518060c00160405280600073ffffffffffffffffffffffffffffffffffffffff168152602001600073ffffffffffffffffffffffffffffffffffffffff1681526020016060815260200160608152602001600015158152602001600081525090565b5b8082111561296e57600080820160009055600182016000905560028201600090556003820160006101000a81549060ff021916905550600401612930565b5090565b6000604051905090565b600080fd5b600080fd5b6000819050919050565b61299981612986565b81146129a457600080fd5b50565b6000813590506129b681612990565b92915050565b600481106129c957600080fd5b50565b6000813590506129db816129bc565b92915050565b6000806000606084860312156129fa576129f961297c565b5b6000612a08868287016129a7565b9350506020612a19868287016129a7565b9250506040612a2a868287016129cc565b9150509250925092565b600073ffffffffffffffffffffffffffffffffffffffff82169050919050565b6000612a5f82612a34565b9050919050565b612a6f81612a54565b8114612a7a57600080fd5b50565b600081359050612a8c81612a66565b92915050565b60008060408385031215612aa957612aa861297c565b5b6000612ab785828601612a7d565b9250506020612ac8858286016129a7565b9150509250929050565b612adb81612986565b82525050565b6000602082019050612af66000830184612ad2565b92915050565b600080fd5b600080fd5b6000601f19601f8301169050919050565b7f4e487b7100000000000000000000000000000000000000000000000000000000600052604160045260246000fd5b612b4f82612b06565b810181811067ffffffffffffffff82111715612b6e57612b6d612b17565b5b80604052505050565b6000612b81612972565b9050612b8d8282612b46565b919050565b600067ffffffffffffffff821115612bad57612bac612b17565b5b612bb682612b06565b9050602081019050919050565b82818337600083830152505050565b6000612be5612be084612b92565b612b77565b905082815260208101848484011115612c0157612c00612b01565b5b612c0c848285612bc3565b509392505050565b600082601f830112612c2957612c28612afc565b5b8135612c39848260208601612bd2565b91505092915050565b60008060408385031215612c5957612c5861297c565b5b6000612c6785828601612a7d565b925050602083013567ffffffffffffffff811115612c8857612c87612981565b5b612c9485828601612c14565b9150509250929050565b600060208284031215612cb457612cb361297c565b5b6000612cc284828501612a7d565b91505092915050565b600060208284031215612ce157612ce061297c565b5b6000612cef848285016129a7565b91505092915050565b612d0181612a54565b82525050565b600081519050919050565b600082825260208201905092915050565b60005b83811015612d41578082015181840152602081019050612d26565b60008484015250505050565b6000612d5882612d07565b612d628185612d12565b9350612d72818560208601612d23565b612d7b81612b06565b840191505092915050565b60008115159050919050565b612d9b81612d86565b82525050565b600060c082019050612db66000830189612cf8565b612dc36020830188612cf8565b8181036040830152612dd58187612d4d565b90508181036060830152612de98186612d4d565b9050612df86080830185612d92565b612e0560a0830184612ad2565b979650505050505050565b7f4e487b7100000000000000000000000000000000000000000000000000000000600052602160045260246000fd5b60048110612e5057612e4f612e10565b5b50565b6000819050612e6182612e3f565b919050565b6000612e7182612e53565b9050919050565b612e8181612e66565b82525050565b600060a082019050612e9c6000830188612cf8565b612ea96020830187612ad2565b612eb66040830186612ad2565b612ec36060830185612e78565b612ed06080830184612d92565b9695505050505050565b60038110612eeb57612eea612e10565b5b50565b6000819050612efc82612eda565b919050565b6000612f0c82612eee565b9050919050565b612f1c81612f01565b82525050565b6000602082019050612f376000830184612f13565b92915050565b6000602082019050612f526000830184612cf8565b92915050565b60038110612f6557600080fd5b50565b600081359050612f7781612f58565b92915050565b60008060408385031215612f9457612f9361297c565b5b6000612fa285828601612a7d565b9250506020612fb385828601612f68565b9150509250929050565b600081519050919050565b600082825260208201905092915050565b6000819050602082019050919050565b612ff281612986565b82525050565b61300181612e66565b82525050565b60808201600082015161301d6000850182612fe9565b5060208201516130306020850182612fe9565b5060408201516130436040850182612fe9565b5060608201516130566060850182612ff8565b50505050565b60006130688383613007565b60808301905092915050565b6000602082019050919050565b600061308c82612fbd565b6130968185612fc8565b93506130a183612fd9565b8060005b838110156130d25781516130b9888261305c565b97506130c483613074565b9250506001810190506130a5565b5085935050505092915050565b600060208201905081810360008301526130f98184613081565b905092915050565b60006040820190506131166000830185612f13565b6131236020830184612d92565b9392505050565b600081519050919050565b600082825260208201905092915050565b6000819050602082019050919050565b61315f81612a54565b82525050565b600082825260208201905092915050565b600061318182612d07565b61318b8185613165565b935061319b818560208601612d23565b6131a481612b06565b840191505092915050565b6131b881612d86565b82525050565b600060c0830160008301516131d66000860182613156565b5060208301516131e96020860182613156565b50604083015184820360408601526132018282613176565b9150506060830151848203606086015261321b8282613176565b915050608083015161323060808601826131af565b5060a083015161324360a0860182612fe9565b508091505092915050565b600061325a83836131be565b905092915050565b6000602082019050919050565b600061327a8261312a565b6132848185613135565b93508360208202850161329685613146565b8060005b858110156132d257848403895281516132b3858261324e565b94506132be83613262565b925060208a0199505060018101905061329a565b50829750879550505050505092915050565b600060208201905081810360008301526132fe818461326f565b905092915050565b600060208201905061331b6000830184612d92565b92915050565b600080604083850312156133385761333761297c565b5b6000613346858286016129a7565b925050602083013567ffffffffffffffff81111561336757613366612981565b5b61337385828601612c14565b9150509250929050565b600081519050919050565b600082825260208201905092915050565b6000819050602082019050919050565b60006133b58383613156565b60208301905092915050565b6000602082019050919050565b60006133d98261337d565b6133e38185613388565b93506133ee83613399565b8060005b8381101561341f57815161340688826133a9565b9750613411836133c1565b9250506001810190506133f2565b5085935050505092915050565b6000602082019050818103600083015261344681846133ce565b905092915050565b600060c0830160008301516134666000860182613156565b5060208301516134796020860182613156565b50604083015184820360408601526134918282613176565b915050606083015184820360608601526134ab8282613176565b91505060808301516134c060808601826131af565b5060a08301516134d360a0860182612fe9565b508091505092915050565b600060208201905081810360008301526134f8818461344e565b905092915050565b6000819050919050565b600061352561352061351b84612a34565b613500565b612a34565b9050919050565b60006135378261350a565b9050919050565b60006135498261352c565b9050919050565b6135598161353e565b82525050565b60006020820190506135746000830184613550565b92915050565b7f5265656e7472616e6379206973206e6f7420616c6c6f77656400000000000000600082015250565b60006135b0601983612d12565b91506135bb8261357a565b602082019050919050565b600060208201905081810360008301526135df816135a3565b9050919050565b7f4f6e6c7920726567697374657265642070726f6475636572732063616e20706560008201527f72666f726d207468697320616374696f6e000000000000000000000000000000602082015250565b6000613642603183612d12565b915061364d826135e6565b604082019050919050565b6000602082019050818103600083015261367181613635565b9050919050565b7f416d6f756e74206d7573742062652067726561746572207468616e207a65726f600082015250565b60006136ae602083612d12565b91506136b982613678565b602082019050919050565b600060208201905081810360008301526136dd816136a1565b9050919050565b7f5072696365206d7573742062652067726561746572207468616e207a65726f00600082015250565b600061371a601f83612d12565b9150613725826136e4565b602082019050919050565b600060208201905081810360008301526137498161370d565b9050919050565b7f4578697374696e67206c697374696e67206d75737420626520696e616374697660008201527f6500000000000000000000000000000000000000000000000000000000000000602082015250565b60006137ac602183612d12565b91506137b782613750565b604082019050919050565b600060208201905081810360008301526137db8161379f565b9050919050565b60006060820190506137f76000830186612ad2565b6138046020830185612ad2565b81810360408301526138168184612d4d565b9050949350505050565b7f456e65726779206973206e6f7420617661696c61626c6520666f722073616c65600082015250565b6000613856602083612d12565b915061386182613820565b602082019050919050565b6000602082019050818103600083015261388581613849565b9050919050565b7f4e487b7100000000000000000000000000000000000000000000000000000000600052601160045260246000fd5b60006138c682612986565b91506138d183612986565b92508282026138df81612986565b915082820484148315176138f6576138f561388c565b5b5092915050565b7f496e76616c6964207072696365206f7220657863656564732070726f6475636560008201527f72277320737570706c7900000000000000000000000000000000000000000000602082015250565b6000613959602a83612d12565b9150613964826138fd565b604082019050919050565b600060208201905081810360008301526139888161394c565b9050919050565b7f4e487b7100000000000000000000000000000000000000000000000000000000600052601260045260246000fd5b60006139c982612986565b91506139d483612986565b9250826139e4576139e361398f565b5b828204905092915050565b7f50726f647563657220646f6573206e6f74206861766520656e6f75676820656e60008201527f6572677900000000000000000000000000000000000000000000000000000000602082015250565b6000613a4b602483612d12565b9150613a56826139ef565b604082019050919050565b60006020820190508181036000830152613a7a81613a3e565b9050919050565b6000604082019050613a966000830185612cf8565b613aa36020830184612cf8565b9392505050565b600081519050613ab981612990565b92915050565b600060208284031215613ad557613ad461297c565b5b6000613ae384828501613aaa565b91505092915050565b7f416c6c6f77616e636520696e73756666696369656e7400000000000000000000600082015250565b6000613b22601683612d12565b9150613b2d82613aec565b602082019050919050565b60006020820190508181036000830152613b5181613b15565b9050919050565b7f496e73756666696369656e7420746f6b656e2062616c616e6365000000000000600082015250565b6000613b8e601a83612d12565b9150613b9982613b58565b602082019050919050565b60006020820190508181036000830152613bbd81613b81565b9050919050565b6000606082019050613bd96000830186612cf8565b613be66020830185612cf8565b613bf36040830184612ad2565b949350505050565b613c0481612d86565b8114613c0f57600080fd5b50565b600081519050613c2181613bfb565b92915050565b600060208284031215613c3d57613c3c61297c565b5b6000613c4b84828501613c12565b91505092915050565b6000613c5f82612986565b9150613c6a83612986565b9250828203905081811115613c8257613c8161388c565b5b92915050565b6000604082019050613c9d6000830185612ad2565b613caa6020830184612ad2565b9392505050565b7f4e487b7100000000000000000000000000000000000000000000000000000000600052602260045260246000fd5b60006002820490506001821680613cf857607f821691505b602082108103613d0b57613d0a613cb1565b5b50919050565b60008190508160005260206000209050919050565b60006020601f8301049050919050565b600082821b905092915050565b600060088302613d737fffffffffffffffffffffffffffffffffffffffffffffffffffffffffffffffff82613d36565b613d7d8683613d36565b95508019841693508086168417925050509392505050565b6000613db0613dab613da684612986565b613500565b612986565b9050919050565b6000819050919050565b613dca83613d95565b613dde613dd682613db7565b848454613d43565b825550505050565b600090565b613df3613de6565b613dfe818484613dc1565b505050565b5b81811015613e2257613e17600082613deb565b600181019050613e04565b5050565b601f821115613e6757613e3881613d11565b613e4184613d26565b81016020851015613e50578190505b613e64613e5c85613d26565b830182613e03565b50505b505050565b600082821c905092915050565b6000613e8a60001984600802613e6c565b1980831691505092915050565b6000613ea38383613e79565b9150826002028217905092915050565b613ebc82612d07565b67ffffffffffffffff811115613ed557613ed4612b17565b5b613edf8254613ce0565b613eea828285613e26565b600060209050601f831160018114613f1d5760008415613f0b578287015190505b613f158582613e97565b865550613f7d565b601f198416613f2b86613d11565b60005b82811015613f5357848901518255600182019150602085019450602081019050613f2e565b86831015613f705784890151613f6c601f891682613e79565b8355505b6001600288020188555050505b505050505050565b60006020820190508181036000830152613f9f8184612d4d565b905092915050565b7f4f6e6c79206f776e65722063616e2063616c6c20746869730000000000000000600082015250565b6000613fdd601883612d12565b9150613fe882613fa7565b602082019050919050565b6000602082019050818103600083015261400c81613fd0565b9050919050565b7f537570706c79206d7573742062652067726561746572207468616e207a65726f600082015250565b6000614049602083612d12565b915061405482614013565b602082019050919050565b600060208201905081810360008301526140788161403c565b9050919050565b7f44656d616e64206d7573742062652067726561746572207468616e207a65726f600082015250565b60006140b5602083612d12565b91506140c08261407f565b602082019050919050565b600060208201905081810360008301526140e4816140a8565b9050919050565b7f55736572206973206e6f74207265676973746572656400000000000000000000600082015250565b6000614121601683612d12565b915061412c826140eb565b602082019050919050565b6000602082019050818103600083015261415081614114565b9050919050565b7f496e76616c696420757365722061646472657373000000000000000000000000600082015250565b600061418d601483612d12565b915061419882614157565b602082019050919050565b600060208201905081810360008301526141bc81614180565b9050919050565b7f496e76616c696420757365722074797065000000000000000000000000000000600082015250565b60006141f9601183612d12565b9150614204826141c3565b602082019050919050565b60006020820190508181036000830152614228816141ec565b9050919050565b7f5573657220697320616c72656164792072656769737465726564000000000000600082015250565b6000614265601a83612d12565b91506142708261422f565b602082019050919050565b6000602082019050818103600083015261429481614258565b9050919050565b7f4469737075746520494420646f6573206e6f7420657869737400000000000000600082015250565b60006142d1601983612d12565b91506142dc8261429b565b602082019050919050565b60006020820190508181036000830152614300816142c4565b9050919050565b7f4e487b7100000000000000000000000000000000000000000000000000000000600052603260045260246000fd5b7f4469737075746520616c7265616479207265736f6c7665640000000000000000600082015250565b600061436c601883612d12565b915061437782614336565b602082019050919050565b6000602082019050818103600083015261439b8161435f565b9050919050565b7f50726f647563656420616d6f756e74206d75737420626520677265617465722060008201527f7468616e207a65726f0000000000000000000000000000000000000000000000602082015250565b60006143fe602983612d12565b9150614409826143a2565b604082019050919050565b6000602082019050818103600083015261442d816143f1565b9050919050565b600061443f82612986565b915061444a83612986565b92508282019050808211156144625761446161388c565b5b92915050565b600060608201905061447d6000830186612ad2565b61448a6020830185612e78565b6144976040830184612ad2565b949350505050565b7f436f6e73756d656420616d6f756e74206d75737420626520677265617465722060008201527f7468616e207a65726f0000000000000000000000000000000000000000000000602082015250565b60006144fb602983612d12565b91506145068261449f565b604082019050919050565b6000602082019050818103600083015261452a816144ee565b905091905056fea2646970667358221220a4f452905bedfd90d07d40826136f8e1c4e56fbf4335e071037091e578c4eaa964736f6c634300081a0033",
          "opcodes": "PUSH1 0x80 PUSH1 0x40 MSTORE CALLVALUE DUP1 ISZERO PUSH2 0x10 JUMPI PUSH1 0x0 DUP1 REVERT JUMPDEST POP PUSH1 0x40 MLOAD PUSH2 0x47F7 CODESIZE SUB DUP1 PUSH2 0x47F7 DUP4 CODECOPY DUP2 DUP2 ADD PUSH1 0x40 MSTORE DUP2 ADD SWAP1 PUSH2 0x32 SWAP2 SWAP1 PUSH2 0x19E JUMP JUMPDEST PUSH1 0x0 DUP3 GT PUSH2 0x75 JUMPI PUSH1 0x40 MLOAD PUSH32 0x8C379A000000000000000000000000000000000000000000000000000000000 DUP2 MSTORE PUSH1 0x4 ADD PUSH2 0x6C SWAP1 PUSH2 0x261 JUMP JUMPDEST PUSH1 0x40 MLOAD DUP1 SWAP2 SUB SWAP1 REVERT JUMPDEST DUP2 PUSH1 0x0 DUP2 SWAP1 SSTORE POP DUP1 PUSH1 0x1 PUSH1 0x0 PUSH2 0x100 EXP DUP2 SLOAD DUP2 PUSH20 0xFFFFFFFFFFFFFFFFFFFFFFFFFFFFFFFFFFFFFFFF MUL NOT AND SWAP1 DUP4 PUSH20 0xFFFFFFFFFFFFFFFFFFFFFFFFFFFFFFFFFFFFFFFF AND MUL OR SWAP1 SSTORE POP CALLER PUSH1 0x2 PUSH1 0x0 PUSH2 0x100 EXP DUP2 SLOAD DUP2 PUSH20 0xFFFFFFFFFFFFFFFFFFFFFFFFFFFFFFFFFFFFFFFF MUL NOT AND SWAP1 DUP4 PUSH20 0xFFFFFFFFFFFFFFFFFFFFFFFFFFFFFFFFFFFFFFFF AND MUL OR SWAP1 SSTORE POP POP POP PUSH2 0x281 JUMP JUMPDEST PUSH1 0x0 DUP1 REVERT JUMPDEST PUSH1 0x0 DUP2 SWAP1 POP SWAP2 SWAP1 POP JUMP JUMPDEST PUSH2 0x11D DUP2 PUSH2 0x10A JUMP JUMPDEST DUP2 EQ PUSH2 0x128 JUMPI PUSH1 0x0 DUP1 REVERT JUMPDEST POP JUMP JUMPDEST PUSH1 0x0 DUP2 MLOAD SWAP1 POP PUSH2 0x13A DUP2 PUSH2 0x114 JUMP JUMPDEST SWAP3 SWAP2 POP POP JUMP JUMPDEST PUSH1 0x0 PUSH20 0xFFFFFFFFFFFFFFFFFFFFFFFFFFFFFFFFFFFFFFFF DUP3 AND SWAP1 POP SWAP2 SWAP1 POP JUMP JUMPDEST PUSH1 0x0 PUSH2 0x16B DUP3 PUSH2 0x140 JUMP JUMPDEST SWAP1 POP SWAP2 SWAP1 POP JUMP JUMPDEST PUSH2 0x17B DUP2 PUSH2 0x160 JUMP JUMPDEST DUP2 EQ PUSH2 0x186 JUMPI PUSH1 0x0 DUP1 REVERT JUMPDEST POP JUMP JUMPDEST PUSH1 0x0 DUP2 MLOAD SWAP1 POP PUSH2 0x198 DUP2 PUSH2 0x172 JUMP JUMPDEST SWAP3 SWAP2 POP POP JUMP JUMPDEST PUSH1 0x0 DUP1 PUSH1 0x40 DUP4 DUP6 SUB SLT ISZERO PUSH2 0x1B5 JUMPI PUSH2 0x1B4 PUSH2 0x105 JUMP JUMPDEST JUMPDEST PUSH1 0x0 PUSH2 0x1C3 DUP6 DUP3 DUP7 ADD PUSH2 0x12B JUMP JUMPDEST SWAP3 POP POP PUSH1 0x20 PUSH2 0x1D4 DUP6 DUP3 DUP7 ADD PUSH2 0x189 JUMP JUMPDEST SWAP2 POP POP SWAP3 POP SWAP3 SWAP1 POP JUMP JUMPDEST PUSH1 0x0 DUP3 DUP3 MSTORE PUSH1 0x20 DUP3 ADD SWAP1 POP SWAP3 SWAP2 POP POP JUMP JUMPDEST PUSH32 0x496E697469616C207072696365206D7573742062652067726561746572207468 PUSH1 0x0 DUP3 ADD MSTORE PUSH32 0x616E207A65726F00000000000000000000000000000000000000000000000000 PUSH1 0x20 DUP3 ADD MSTORE POP JUMP JUMPDEST PUSH1 0x0 PUSH2 0x24B PUSH1 0x27 DUP4 PUSH2 0x1DE JUMP JUMPDEST SWAP2 POP PUSH2 0x256 DUP3 PUSH2 0x1EF JUMP JUMPDEST PUSH1 0x40 DUP3 ADD SWAP1 POP SWAP2 SWAP1 POP JUMP JUMPDEST PUSH1 0x0 PUSH1 0x20 DUP3 ADD SWAP1 POP DUP2 DUP2 SUB PUSH1 0x0 DUP4 ADD MSTORE PUSH2 0x27A DUP2 PUSH2 0x23E JUMP JUMPDEST SWAP1 POP SWAP2 SWAP1 POP JUMP JUMPDEST PUSH2 0x4567 DUP1 PUSH2 0x290 PUSH1 0x0 CODECOPY PUSH1 0x0 RETURN INVALID PUSH1 0x80 PUSH1 0x40 MSTORE CALLVALUE DUP1 ISZERO PUSH2 0x10 JUMPI PUSH1 0x0 DUP1 REVERT JUMPDEST POP PUSH1 0x4 CALLDATASIZE LT PUSH2 0x142 JUMPI PUSH1 0x0 CALLDATALOAD PUSH1 0xE0 SHR DUP1 PUSH4 0x9E9FA097 GT PUSH2 0xB8 JUMPI DUP1 PUSH4 0xBAA15F6F GT PUSH2 0x7C JUMPI DUP1 PUSH4 0xBAA15F6F EQ PUSH2 0x391 JUMPI DUP1 PUSH4 0xC3C5A547 EQ PUSH2 0x3C1 JUMPI DUP1 PUSH4 0xCF51B45D EQ PUSH2 0x3F1 JUMPI DUP1 PUSH4 0xE2842D79 EQ PUSH2 0x40D JUMPI DUP1 PUSH4 0xE3A96CBD EQ PUSH2 0x42B JUMPI DUP1 PUSH4 0xFC0C546A EQ PUSH2 0x45B JUMPI PUSH2 0x142 JUMP JUMPDEST DUP1 PUSH4 0x9E9FA097 EQ PUSH2 0x2C6 JUMPI DUP1 PUSH4 0xA0076E84 EQ PUSH2 0x2E2 JUMPI DUP1 PUSH4 0xA87430BA EQ PUSH2 0x312 JUMPI DUP1 PUSH4 0xB0C6EB0C EQ PUSH2 0x343 JUMPI DUP1 PUSH4 0xB1CA72A6 EQ PUSH2 0x373 JUMPI PUSH2 0x142 JUMP JUMPDEST DUP1 PUSH4 0x564A565D GT PUSH2 0x10A JUMPI DUP1 PUSH4 0x564A565D EQ PUSH2 0x1E9 JUMPI DUP1 PUSH4 0x629FAF8A EQ PUSH2 0x21E JUMPI DUP1 PUSH4 0x6582F06E EQ PUSH2 0x23A JUMPI DUP1 PUSH4 0x673A7E28 EQ PUSH2 0x26E JUMPI DUP1 PUSH4 0x8B3F863F EQ PUSH2 0x278 JUMPI DUP1 PUSH4 0x8DA5CB5B EQ PUSH2 0x2A8 JUMPI PUSH2 0x142 JUMP JUMPDEST DUP1 PUSH4 0x1A68E943 EQ PUSH2 0x147 JUMPI DUP1 PUSH4 0x36FD7E1B EQ PUSH2 0x163 JUMPI DUP1 PUSH4 0x3D06A969 EQ PUSH2 0x17F JUMPI DUP1 PUSH4 0x45F870AF EQ PUSH2 0x19D JUMPI DUP1 PUSH4 0x4A63705B EQ PUSH2 0x1B9 JUMPI JUMPDEST PUSH1 0x0 DUP1 REVERT JUMPDEST PUSH2 0x161 PUSH1 0x4 DUP1 CALLDATASIZE SUB DUP2 ADD SWAP1 PUSH2 0x15C SWAP2 SWAP1 PUSH2 0x29E1 JUMP JUMPDEST PUSH2 0x479 JUMP JUMPDEST STOP JUMPDEST PUSH2 0x17D PUSH1 0x4 DUP1 CALLDATASIZE SUB DUP2 ADD SWAP1 PUSH2 0x178 SWAP2 SWAP1 PUSH2 0x2A92 JUMP JUMPDEST PUSH2 0x914 JUMP JUMPDEST STOP JUMPDEST PUSH2 0x187 PUSH2 0xE19 JUMP JUMPDEST PUSH1 0x40 MLOAD PUSH2 0x194 SWAP2 SWAP1 PUSH2 0x2AE1 JUMP JUMPDEST PUSH1 0x40 MLOAD DUP1 SWAP2 SUB SWAP1 RETURN JUMPDEST PUSH2 0x1B7 PUSH1 0x4 DUP1 CALLDATASIZE SUB DUP2 ADD SWAP1 PUSH2 0x1B2 SWAP2 SWAP1 PUSH2 0x2C42 JUMP JUMPDEST PUSH2 0xE1F JUMP JUMPDEST STOP JUMPDEST PUSH2 0x1D3 PUSH1 0x4 DUP1 CALLDATASIZE SUB DUP2 ADD SWAP1 PUSH2 0x1CE SWAP2 SWAP1 PUSH2 0x2C9E JUMP JUMPDEST PUSH2 0x1004 JUMP JUMPDEST PUSH1 0x40 MLOAD PUSH2 0x1E0 SWAP2 SWAP1 PUSH2 0x2AE1 JUMP JUMPDEST PUSH1 0x40 MLOAD DUP1 SWAP2 SUB SWAP1 RETURN JUMPDEST PUSH2 0x203 PUSH1 0x4 DUP1 CALLDATASIZE SUB DUP2 ADD SWAP1 PUSH2 0x1FE SWAP2 SWAP1 PUSH2 0x2CCB JUMP JUMPDEST PUSH2 0x101C JUMP JUMPDEST PUSH1 0x40 MLOAD PUSH2 0x215 SWAP7 SWAP6 SWAP5 SWAP4 SWAP3 SWAP2 SWAP1 PUSH2 0x2DA1 JUMP JUMPDEST PUSH1 0x40 MLOAD DUP1 SWAP2 SUB SWAP1 RETURN JUMPDEST PUSH2 0x238 PUSH1 0x4 DUP1 CALLDATASIZE SUB DUP2 ADD SWAP1 PUSH2 0x233 SWAP2 SWAP1 PUSH2 0x2C9E JUMP JUMPDEST PUSH2 0x11C5 JUMP JUMPDEST STOP JUMPDEST PUSH2 0x254 PUSH1 0x4 DUP1 CALLDATASIZE SUB DUP2 ADD SWAP1 PUSH2 0x24F SWAP2 SWAP1 PUSH2 0x2C9E JUMP JUMPDEST PUSH2 0x137B JUMP JUMPDEST PUSH1 0x40 MLOAD PUSH2 0x265 SWAP6 SWAP5 SWAP4 SWAP3 SWAP2 SWAP1 PUSH2 0x2E87 JUMP JUMPDEST PUSH1 0x40 MLOAD DUP1 SWAP2 SUB SWAP1 RETURN JUMPDEST PUSH2 0x276 PUSH2 0x13EB JUMP JUMPDEST STOP JUMPDEST PUSH2 0x292 PUSH1 0x4 DUP1 CALLDATASIZE SUB DUP2 ADD SWAP1 PUSH2 0x28D SWAP2 SWAP1 PUSH2 0x2C9E JUMP JUMPDEST PUSH2 0x1630 JUMP JUMPDEST PUSH1 0x40 MLOAD PUSH2 0x29F SWAP2 SWAP1 PUSH2 0x2F22 JUMP JUMPDEST PUSH1 0x40 MLOAD DUP1 SWAP2 SUB SWAP1 RETURN JUMPDEST PUSH2 0x2B0 PUSH2 0x1718 JUMP JUMPDEST PUSH1 0x40 MLOAD PUSH2 0x2BD SWAP2 SWAP1 PUSH2 0x2F3D JUMP JUMPDEST PUSH1 0x40 MLOAD DUP1 SWAP2 SUB SWAP1 RETURN JUMPDEST PUSH2 0x2E0 PUSH1 0x4 DUP1 CALLDATASIZE SUB DUP2 ADD SWAP1 PUSH2 0x2DB SWAP2 SWAP1 PUSH2 0x2F7D JUMP JUMPDEST PUSH2 0x173E JUMP JUMPDEST STOP JUMPDEST PUSH2 0x2FC PUSH1 0x4 DUP1 CALLDATASIZE SUB DUP2 ADD SWAP1 PUSH2 0x2F7 SWAP2 SWAP1 PUSH2 0x2C9E JUMP JUMPDEST PUSH2 0x1A15 JUMP JUMPDEST PUSH1 0x40 MLOAD PUSH2 0x309 SWAP2 SWAP1 PUSH2 0x30DF JUMP JUMPDEST PUSH1 0x40 MLOAD DUP1 SWAP2 SUB SWAP1 RETURN JUMPDEST PUSH2 0x32C PUSH1 0x4 DUP1 CALLDATASIZE SUB DUP2 ADD SWAP1 PUSH2 0x327 SWAP2 SWAP1 PUSH2 0x2C9E JUMP JUMPDEST PUSH2 0x1B0C JUMP JUMPDEST PUSH1 0x40 MLOAD PUSH2 0x33A SWAP3 SWAP2 SWAP1 PUSH2 0x3101 JUMP JUMPDEST PUSH1 0x40 MLOAD DUP1 SWAP2 SUB SWAP1 RETURN JUMPDEST PUSH2 0x35D PUSH1 0x4 DUP1 CALLDATASIZE SUB DUP2 ADD SWAP1 PUSH2 0x358 SWAP2 SWAP1 PUSH2 0x2C9E JUMP JUMPDEST PUSH2 0x1B4A JUMP JUMPDEST PUSH1 0x40 MLOAD PUSH2 0x36A SWAP2 SWAP1 PUSH2 0x2AE1 JUMP JUMPDEST PUSH1 0x40 MLOAD DUP1 SWAP2 SUB SWAP1 RETURN JUMPDEST PUSH2 0x37B PUSH2 0x1B62 JUMP JUMPDEST PUSH1 0x40 MLOAD PUSH2 0x388 SWAP2 SWAP1 PUSH2 0x32E4 JUMP JUMPDEST PUSH1 0x40 MLOAD DUP1 SWAP2 SUB SWAP1 RETURN JUMPDEST PUSH2 0x3AB PUSH1 0x4 DUP1 CALLDATASIZE SUB DUP2 ADD SWAP1 PUSH2 0x3A6 SWAP2 SWAP1 PUSH2 0x2C9E JUMP JUMPDEST PUSH2 0x1DB6 JUMP JUMPDEST PUSH1 0x40 MLOAD PUSH2 0x3B8 SWAP2 SWAP1 PUSH2 0x2AE1 JUMP JUMPDEST PUSH1 0x40 MLOAD DUP1 SWAP2 SUB SWAP1 RETURN JUMPDEST PUSH2 0x3DB PUSH1 0x4 DUP1 CALLDATASIZE SUB DUP2 ADD SWAP1 PUSH2 0x3D6 SWAP2 SWAP1 PUSH2 0x2C9E JUMP JUMPDEST PUSH2 0x1DCE JUMP JUMPDEST PUSH1 0x40 MLOAD PUSH2 0x3E8 SWAP2 SWAP1 PUSH2 0x3306 JUMP JUMPDEST PUSH1 0x40 MLOAD DUP1 SWAP2 SUB SWAP1 RETURN JUMPDEST PUSH2 0x40B PUSH1 0x4 DUP1 CALLDATASIZE SUB DUP2 ADD SWAP1 PUSH2 0x406 SWAP2 SWAP1 PUSH2 0x3321 JUMP JUMPDEST PUSH2 0x1E27 JUMP JUMPDEST STOP JUMPDEST PUSH2 0x415 PUSH2 0x1FE2 JUMP JUMPDEST PUSH1 0x40 MLOAD PUSH2 0x422 SWAP2 SWAP1 PUSH2 0x342C JUMP JUMPDEST PUSH1 0x40 MLOAD DUP1 SWAP2 SUB SWAP1 RETURN JUMPDEST PUSH2 0x445 PUSH1 0x4 DUP1 CALLDATASIZE SUB DUP2 ADD SWAP1 PUSH2 0x440 SWAP2 SWAP1 PUSH2 0x2CCB JUMP JUMPDEST PUSH2 0x2070 JUMP JUMPDEST PUSH1 0x40 MLOAD PUSH2 0x452 SWAP2 SWAP1 PUSH2 0x34DE JUMP JUMPDEST PUSH1 0x40 MLOAD DUP1 SWAP2 SUB SWAP1 RETURN JUMPDEST PUSH2 0x463 PUSH2 0x22E8 JUMP JUMPDEST PUSH1 0x40 MLOAD PUSH2 0x470 SWAP2 SWAP1 PUSH2 0x355F JUMP JUMPDEST PUSH1 0x40 MLOAD DUP1 SWAP2 SUB SWAP1 RETURN JUMPDEST PUSH1 0x4 PUSH1 0x0 SWAP1 SLOAD SWAP1 PUSH2 0x100 EXP SWAP1 DIV PUSH1 0xFF AND ISZERO PUSH2 0x4C9 JUMPI PUSH1 0x40 MLOAD PUSH32 0x8C379A000000000000000000000000000000000000000000000000000000000 DUP2 MSTORE PUSH1 0x4 ADD PUSH2 0x4C0 SWAP1 PUSH2 0x35C6 JUMP JUMPDEST PUSH1 0x40 MLOAD DUP1 SWAP2 SUB SWAP1 REVERT JUMPDEST PUSH1 0x1 PUSH1 0x4 PUSH1 0x0 PUSH2 0x100 EXP DUP2 SLOAD DUP2 PUSH1 0xFF MUL NOT AND SWAP1 DUP4 ISZERO ISZERO MUL OR SWAP1 SSTORE POP PUSH1 0x8 PUSH1 0x0 CALLER PUSH20 0xFFFFFFFFFFFFFFFFFFFFFFFFFFFFFFFFFFFFFFFF AND PUSH20 0xFFFFFFFFFFFFFFFFFFFFFFFFFFFFFFFFFFFFFFFF AND DUP2 MSTORE PUSH1 0x20 ADD SWAP1 DUP2 MSTORE PUSH1 0x20 ADD PUSH1 0x0 KECCAK256 PUSH1 0x0 ADD PUSH1 0x1 SWAP1 SLOAD SWAP1 PUSH2 0x100 EXP SWAP1 DIV PUSH1 0xFF AND DUP1 ISZERO PUSH2 0x5B3 JUMPI POP PUSH1 0x1 PUSH1 0x2 DUP2 GT ISZERO PUSH2 0x54F JUMPI PUSH2 0x54E PUSH2 0x2E10 JUMP JUMPDEST JUMPDEST PUSH1 0x8 PUSH1 0x0 CALLER PUSH20 0xFFFFFFFFFFFFFFFFFFFFFFFFFFFFFFFFFFFFFFFF AND PUSH20 0xFFFFFFFFFFFFFFFFFFFFFFFFFFFFFFFFFFFFFFFF AND DUP2 MSTORE PUSH1 0x20 ADD SWAP1 DUP2 MSTORE PUSH1 0x20 ADD PUSH1 0x0 KECCAK256 PUSH1 0x0 ADD PUSH1 0x0 SWAP1 SLOAD SWAP1 PUSH2 0x100 EXP SWAP1 DIV PUSH1 0xFF AND PUSH1 0x2 DUP2 GT ISZERO PUSH2 0x5B1 JUMPI PUSH2 0x5B0 PUSH2 0x2E10 JUMP JUMPDEST JUMPDEST EQ JUMPDEST PUSH2 0x5F2 JUMPI PUSH1 0x40 MLOAD PUSH32 0x8C379A000000000000000000000000000000000000000000000000000000000 DUP2 MSTORE PUSH1 0x4 ADD PUSH2 0x5E9 SWAP1 PUSH2 0x3658 JUMP JUMPDEST PUSH1 0x40 MLOAD DUP1 SWAP2 SUB SWAP1 REVERT JUMPDEST PUSH1 0x0 DUP4 GT PUSH2 0x635 JUMPI PUSH1 0x40 MLOAD PUSH32 0x8C379A000000000000000000000000000000000000000000000000000000000 DUP2 MSTORE PUSH1 0x4 ADD PUSH2 0x62C SWAP1 PUSH2 0x36C4 JUMP JUMPDEST PUSH1 0x40 MLOAD DUP1 SWAP2 SUB SWAP1 REVERT JUMPDEST PUSH1 0x0 DUP3 GT PUSH2 0x678 JUMPI PUSH1 0x40 MLOAD PUSH32 0x8C379A000000000000000000000000000000000000000000000000000000000 DUP2 MSTORE PUSH1 0x4 ADD PUSH2 0x66F SWAP1 PUSH2 0x3730 JUMP JUMPDEST PUSH1 0x40 MLOAD DUP1 SWAP2 SUB SWAP1 REVERT JUMPDEST PUSH1 0x0 ISZERO ISZERO PUSH1 0x6 PUSH1 0x0 CALLER PUSH20 0xFFFFFFFFFFFFFFFFFFFFFFFFFFFFFFFFFFFFFFFF AND PUSH20 0xFFFFFFFFFFFFFFFFFFFFFFFFFFFFFFFFFFFFFFFF AND DUP2 MSTORE PUSH1 0x20 ADD SWAP1 DUP2 MSTORE PUSH1 0x20 ADD PUSH1 0x0 KECCAK256 PUSH1 0x3 ADD PUSH1 0x1 SWAP1 SLOAD SWAP1 PUSH2 0x100 EXP SWAP1 DIV PUSH1 0xFF AND ISZERO ISZERO EQ PUSH2 0x70E JUMPI PUSH1 0x40 MLOAD PUSH32 0x8C379A000000000000000000000000000000000000000000000000000000000 DUP2 MSTORE PUSH1 0x4 ADD PUSH2 0x705 SWAP1 PUSH2 0x37C2 JUMP JUMPDEST PUSH1 0x40 MLOAD DUP1 SWAP2 SUB SWAP1 REVERT JUMPDEST PUSH1 0xA PUSH1 0x0 CALLER PUSH20 0xFFFFFFFFFFFFFFFFFFFFFFFFFFFFFFFFFFFFFFFF AND PUSH20 0xFFFFFFFFFFFFFFFFFFFFFFFFFFFFFFFFFFFFFFFF AND DUP2 MSTORE PUSH1 0x20 ADD SWAP1 DUP2 MSTORE PUSH1 0x20 ADD PUSH1 0x0 KECCAK256 POP PUSH1 0x40 MLOAD DUP1 PUSH1 0xA0 ADD PUSH1 0x40 MSTORE DUP1 CALLER PUSH20 0xFFFFFFFFFFFFFFFFFFFFFFFFFFFFFFFFFFFFFFFF AND DUP2 MSTORE PUSH1 0x20 ADD DUP5 DUP2 MSTORE PUSH1 0x20 ADD DUP4 DUP2 MSTORE PUSH1 0x20 ADD DUP3 PUSH1 0x3 DUP2 GT ISZERO PUSH2 0x794 JUMPI PUSH2 0x793 PUSH2 0x2E10 JUMP JUMPDEST JUMPDEST DUP2 MSTORE PUSH1 0x20 ADD PUSH1 0x1 ISZERO ISZERO DUP2 MSTORE POP PUSH1 0x6 PUSH1 0x0 CALLER PUSH20 0xFFFFFFFFFFFFFFFFFFFFFFFFFFFFFFFFFFFFFFFF AND PUSH20 0xFFFFFFFFFFFFFFFFFFFFFFFFFFFFFFFFFFFFFFFF AND DUP2 MSTORE PUSH1 0x20 ADD SWAP1 DUP2 MSTORE PUSH1 0x20 ADD PUSH1 0x0 KECCAK256 PUSH1 0x0 DUP3 ADD MLOAD DUP2 PUSH1 0x0 ADD PUSH1 0x0 PUSH2 0x100 EXP DUP2 SLOAD DUP2 PUSH20 0xFFFFFFFFFFFFFFFFFFFFFFFFFFFFFFFFFFFFFFFF MUL NOT AND SWAP1 DUP4 PUSH20 0xFFFFFFFFFFFFFFFFFFFFFFFFFFFFFFFFFFFFFFFF AND MUL OR SWAP1 SSTORE POP PUSH1 0x20 DUP3 ADD MLOAD DUP2 PUSH1 0x1 ADD SSTORE PUSH1 0x40 DUP3 ADD MLOAD DUP2 PUSH1 0x2 ADD SSTORE PUSH1 0x60 DUP3 ADD MLOAD DUP2 PUSH1 0x3 ADD PUSH1 0x0 PUSH2 0x100 EXP DUP2 SLOAD DUP2 PUSH1 0xFF MUL NOT AND SWAP1 DUP4 PUSH1 0x3 DUP2 GT ISZERO PUSH2 0x865 JUMPI PUSH2 0x864 PUSH2 0x2E10 JUMP JUMPDEST JUMPDEST MUL OR SWAP1 SSTORE POP PUSH1 0x80 DUP3 ADD MLOAD DUP2 PUSH1 0x3 ADD PUSH1 0x1 PUSH2 0x100 EXP DUP2 SLOAD DUP2 PUSH1 0xFF MUL NOT AND SWAP1 DUP4 ISZERO ISZERO MUL OR SWAP1 SSTORE POP SWAP1 POP POP PUSH2 0x898 CALLER DUP5 DUP4 PUSH2 0x230E JUMP JUMPDEST CALLER PUSH20 0xFFFFFFFFFFFFFFFFFFFFFFFFFFFFFFFFFFFFFFFF AND PUSH32 0x2F8D01920F10CC9DCD6EB2BA04B84F6345ABA87751D7E5A2650BDBA1B106860E DUP5 PUSH1 0x0 SLOAD PUSH2 0x8DD DUP6 PUSH2 0x24EA JUMP JUMPDEST PUSH1 0x40 MLOAD PUSH2 0x8EC SWAP4 SWAP3 SWAP2 SWAP1 PUSH2 0x37E2 JUMP JUMPDEST PUSH1 0x40 MLOAD DUP1 SWAP2 SUB SWAP1 LOG2 PUSH1 0x0 PUSH1 0x4 PUSH1 0x0 PUSH2 0x100 EXP DUP2 SLOAD DUP2 PUSH1 0xFF MUL NOT AND SWAP1 DUP4 ISZERO ISZERO MUL OR SWAP1 SSTORE POP POP POP POP JUMP JUMPDEST PUSH1 0x4 PUSH1 0x0 SWAP1 SLOAD SWAP1 PUSH2 0x100 EXP SWAP1 DIV PUSH1 0xFF AND ISZERO PUSH2 0x964 JUMPI PUSH1 0x40 MLOAD PUSH32 0x8C379A000000000000000000000000000000000000000000000000000000000 DUP2 MSTORE PUSH1 0x4 ADD PUSH2 0x95B SWAP1 PUSH2 0x35C6 JUMP JUMPDEST PUSH1 0x40 MLOAD DUP1 SWAP2 SUB SWAP1 REVERT JUMPDEST PUSH1 0x1 PUSH1 0x4 PUSH1 0x0 PUSH2 0x100 EXP DUP2 SLOAD DUP2 PUSH1 0xFF MUL NOT AND SWAP1 DUP4 ISZERO ISZERO MUL OR SWAP1 SSTORE POP PUSH1 0x0 PUSH1 0x6 PUSH1 0x0 DUP5 PUSH20 0xFFFFFFFFFFFFFFFFFFFFFFFFFFFFFFFFFFFFFFFF AND PUSH20 0xFFFFFFFFFFFFFFFFFFFFFFFFFFFFFFFFFFFFFFFF AND DUP2 MSTORE PUSH1 0x20 ADD SWAP1 DUP2 MSTORE PUSH1 0x20 ADD PUSH1 0x0 KECCAK256 SWAP1 POP DUP1 PUSH1 0x3 ADD PUSH1 0x1 SWAP1 SLOAD SWAP1 PUSH2 0x100 EXP SWAP1 DIV PUSH1 0xFF AND PUSH2 0xA13 JUMPI PUSH1 0x40 MLOAD PUSH32 0x8C379A000000000000000000000000000000000000000000000000000000000 DUP2 MSTORE PUSH1 0x4 ADD PUSH2 0xA0A SWAP1 PUSH2 0x386C JUMP JUMPDEST PUSH1 0x40 MLOAD DUP1 SWAP2 SUB SWAP1 REVERT JUMPDEST PUSH1 0x0 DUP3 GT DUP1 ISZERO PUSH2 0xA36 JUMPI POP DUP1 PUSH1 0x2 ADD SLOAD DUP2 PUSH1 0x1 ADD SLOAD PUSH2 0xA32 SWAP2 SWAP1 PUSH2 0x38BB JUMP JUMPDEST DUP3 GT ISZERO JUMPDEST PUSH2 0xA75 JUMPI PUSH1 0x40 MLOAD PUSH32 0x8C379A000000000000000000000000000000000000000000000000000000000 DUP2 MSTORE PUSH1 0x4 ADD PUSH2 0xA6C SWAP1 PUSH2 0x396F JUMP JUMPDEST PUSH1 0x40 MLOAD DUP1 SWAP2 SUB SWAP1 REVERT JUMPDEST PUSH1 0x0 DUP2 PUSH1 0x2 ADD SLOAD PUSH2 0x3E8 DUP5 PUSH2 0xA8A SWAP2 SWAP1 PUSH2 0x38BB JUMP JUMPDEST PUSH2 0xA94 SWAP2 SWAP1 PUSH2 0x39BE JUMP JUMPDEST SWAP1 POP DUP2 PUSH1 0x1 ADD SLOAD DUP2 GT ISZERO PUSH2 0xADD JUMPI PUSH1 0x40 MLOAD PUSH32 0x8C379A000000000000000000000000000000000000000000000000000000000 DUP2 MSTORE PUSH1 0x4 ADD PUSH2 0xAD4 SWAP1 PUSH2 0x3A61 JUMP JUMPDEST PUSH1 0x40 MLOAD DUP1 SWAP2 SUB SWAP1 REVERT JUMPDEST DUP3 PUSH1 0x1 PUSH1 0x0 SWAP1 SLOAD SWAP1 PUSH2 0x100 EXP SWAP1 DIV PUSH20 0xFFFFFFFFFFFFFFFFFFFFFFFFFFFFFFFFFFFFFFFF AND PUSH20 0xFFFFFFFFFFFFFFFFFFFFFFFFFFFFFFFFFFFFFFFF AND PUSH4 0xDD62ED3E CALLER ADDRESS PUSH1 0x40 MLOAD DUP4 PUSH4 0xFFFFFFFF AND PUSH1 0xE0 SHL DUP2 MSTORE PUSH1 0x4 ADD PUSH2 0xB3B SWAP3 SWAP2 SWAP1 PUSH2 0x3A81 JUMP JUMPDEST PUSH1 0x20 PUSH1 0x40 MLOAD DUP1 DUP4 SUB DUP2 DUP7 GAS STATICCALL ISZERO DUP1 ISZERO PUSH2 0xB58 JUMPI RETURNDATASIZE PUSH1 0x0 DUP1 RETURNDATACOPY RETURNDATASIZE PUSH1 0x0 REVERT JUMPDEST POP POP POP POP PUSH1 0x40 MLOAD RETURNDATASIZE PUSH1 0x1F NOT PUSH1 0x1F DUP3 ADD AND DUP3 ADD DUP1 PUSH1 0x40 MSTORE POP DUP2 ADD SWAP1 PUSH2 0xB7C SWAP2 SWAP1 PUSH2 0x3ABF JUMP JUMPDEST LT ISZERO PUSH2 0xBBD JUMPI PUSH1 0x40 MLOAD PUSH32 0x8C379A000000000000000000000000000000000000000000000000000000000 DUP2 MSTORE PUSH1 0x4 ADD PUSH2 0xBB4 SWAP1 PUSH2 0x3B38 JUMP JUMPDEST PUSH1 0x40 MLOAD DUP1 SWAP2 SUB SWAP1 REVERT JUMPDEST DUP3 PUSH1 0x1 PUSH1 0x0 SWAP1 SLOAD SWAP1 PUSH2 0x100 EXP SWAP1 DIV PUSH20 0xFFFFFFFFFFFFFFFFFFFFFFFFFFFFFFFFFFFFFFFF AND PUSH20 0xFFFFFFFFFFFFFFFFFFFFFFFFFFFFFFFFFFFFFFFF AND PUSH4 0x70A08231 CALLER PUSH1 0x40 MLOAD DUP3 PUSH4 0xFFFFFFFF AND PUSH1 0xE0 SHL DUP2 MSTORE PUSH1 0x4 ADD PUSH2 0xC19 SWAP2 SWAP1 PUSH2 0x2F3D JUMP JUMPDEST PUSH1 0x20 PUSH1 0x40 MLOAD DUP1 DUP4 SUB DUP2 DUP7 GAS STATICCALL ISZERO DUP1 ISZERO PUSH2 0xC36 JUMPI RETURNDATASIZE PUSH1 0x0 DUP1 RETURNDATACOPY RETURNDATASIZE PUSH1 0x0 REVERT JUMPDEST POP POP POP POP PUSH1 0x40 MLOAD RETURNDATASIZE PUSH1 0x1F NOT PUSH1 0x1F DUP3 ADD AND DUP3 ADD DUP1 PUSH1 0x40 MSTORE POP DUP2 ADD SWAP1 PUSH2 0xC5A SWAP2 SWAP1 PUSH2 0x3ABF JUMP JUMPDEST LT ISZERO PUSH2 0xC9B JUMPI PUSH1 0x40 MLOAD PUSH32 0x8C379A000000000000000000000000000000000000000000000000000000000 DUP2 MSTORE PUSH1 0x4 ADD PUSH2 0xC92 SWAP1 PUSH2 0x3BA4 JUMP JUMPDEST PUSH1 0x40 MLOAD DUP1 SWAP2 SUB SWAP1 REVERT JUMPDEST PUSH1 0x1 PUSH1 0x0 SWAP1 SLOAD SWAP1 PUSH2 0x100 EXP SWAP1 DIV PUSH20 0xFFFFFFFFFFFFFFFFFFFFFFFFFFFFFFFFFFFFFFFF AND PUSH20 0xFFFFFFFFFFFFFFFFFFFFFFFFFFFFFFFFFFFFFFFF AND PUSH4 0x23B872DD CALLER DUP7 DUP7 PUSH1 0x40 MLOAD DUP5 PUSH4 0xFFFFFFFF AND PUSH1 0xE0 SHL DUP2 MSTORE PUSH1 0x4 ADD PUSH2 0xCFA SWAP4 SWAP3 SWAP2 SWAP1 PUSH2 0x3BC4 JUMP JUMPDEST PUSH1 0x20 PUSH1 0x40 MLOAD DUP1 DUP4 SUB DUP2 PUSH1 0x0 DUP8 GAS CALL ISZERO DUP1 ISZERO PUSH2 0xD19 JUMPI RETURNDATASIZE PUSH1 0x0 DUP1 RETURNDATACOPY RETURNDATASIZE PUSH1 0x0 REVERT JUMPDEST POP POP POP POP PUSH1 0x40 MLOAD RETURNDATASIZE PUSH1 0x1F NOT PUSH1 0x1F DUP3 ADD AND DUP3 ADD DUP1 PUSH1 0x40 MSTORE POP DUP2 ADD SWAP1 PUSH2 0xD3D SWAP2 SWAP1 PUSH2 0x3C27 JUMP JUMPDEST POP DUP1 DUP3 PUSH1 0x1 ADD PUSH1 0x0 DUP3 DUP3 SLOAD PUSH2 0xD52 SWAP2 SWAP1 PUSH2 0x3C54 JUMP JUMPDEST SWAP3 POP POP DUP2 SWAP1 SSTORE POP PUSH1 0x0 DUP3 PUSH1 0x1 ADD SLOAD SUB PUSH2 0xD83 JUMPI PUSH1 0x0 DUP3 PUSH1 0x3 ADD PUSH1 0x1 PUSH2 0x100 EXP DUP2 SLOAD DUP2 PUSH1 0xFF MUL NOT AND SWAP1 DUP4 ISZERO ISZERO MUL OR SWAP1 SSTORE POP JUMPDEST PUSH2 0xD8D CALLER DUP3 PUSH2 0x26CD JUMP JUMPDEST CALLER PUSH20 0xFFFFFFFFFFFFFFFFFFFFFFFFFFFFFFFFFFFFFFFF AND DUP5 PUSH20 0xFFFFFFFFFFFFFFFFFFFFFFFFFFFFFFFFFFFFFFFF AND PUSH32 0x942439E1850CCCB8201680164759092629EBC0519531D3AEEA6A5D9B3578529D DUP4 DUP6 PUSH1 0x2 ADD SLOAD PUSH1 0x40 MLOAD PUSH2 0xDF0 SWAP3 SWAP2 SWAP1 PUSH2 0x3C88 JUMP JUMPDEST PUSH1 0x40 MLOAD DUP1 SWAP2 SUB SWAP1 LOG3 POP POP PUSH1 0x0 PUSH1 0x4 PUSH1 0x0 PUSH2 0x100 EXP DUP2 SLOAD DUP2 PUSH1 0xFF MUL NOT AND SWAP1 DUP4 ISZERO ISZERO MUL OR SWAP1 SSTORE POP POP POP JUMP JUMPDEST PUSH1 0x0 SLOAD DUP2 JUMP JUMPDEST PUSH1 0x5 PUSH1 0x40 MLOAD DUP1 PUSH1 0xC0 ADD PUSH1 0x40 MSTORE DUP1 CALLER PUSH20 0xFFFFFFFFFFFFFFFFFFFFFFFFFFFFFFFFFFFFFFFF AND DUP2 MSTORE PUSH1 0x20 ADD DUP5 PUSH20 0xFFFFFFFFFFFFFFFFFFFFFFFFFFFFFFFFFFFFFFFF AND DUP2 MSTORE PUSH1 0x20 ADD DUP4 DUP2 MSTORE PUSH1 0x20 ADD PUSH1 0x40 MLOAD DUP1 PUSH1 0x20 ADD PUSH1 0x40 MSTORE DUP1 PUSH1 0x0 DUP2 MSTORE POP DUP2 MSTORE PUSH1 0x20 ADD PUSH1 0x0 ISZERO ISZERO DUP2 MSTORE PUSH1 0x20 ADD TIMESTAMP DUP2 MSTORE POP SWAP1 DUP1 PUSH1 0x1 DUP2 SLOAD ADD DUP1 DUP3 SSTORE DUP1 SWAP2 POP POP PUSH1 0x1 SWAP1 SUB SWAP1 PUSH1 0x0 MSTORE PUSH1 0x20 PUSH1 0x0 KECCAK256 SWAP1 PUSH1 0x6 MUL ADD PUSH1 0x0 SWAP1 SWAP2 SWAP1 SWAP2 SWAP1 SWAP2 POP PUSH1 0x0 DUP3 ADD MLOAD DUP2 PUSH1 0x0 ADD PUSH1 0x0 PUSH2 0x100 EXP DUP2 SLOAD DUP2 PUSH20 0xFFFFFFFFFFFFFFFFFFFFFFFFFFFFFFFFFFFFFFFF MUL NOT AND SWAP1 DUP4 PUSH20 0xFFFFFFFFFFFFFFFFFFFFFFFFFFFFFFFFFFFFFFFF AND MUL OR SWAP1 SSTORE POP PUSH1 0x20 DUP3 ADD MLOAD DUP2 PUSH1 0x1 ADD PUSH1 0x0 PUSH2 0x100 EXP DUP2 SLOAD DUP2 PUSH20 0xFFFFFFFFFFFFFFFFFFFFFFFFFFFFFFFFFFFFFFFF MUL NOT AND SWAP1 DUP4 PUSH20 0xFFFFFFFFFFFFFFFFFFFFFFFFFFFFFFFFFFFFFFFF AND MUL OR SWAP1 SSTORE POP PUSH1 0x40 DUP3 ADD MLOAD DUP2 PUSH1 0x2 ADD SWAP1 DUP2 PUSH2 0xF58 SWAP2 SWAP1 PUSH2 0x3EB3 JUMP JUMPDEST POP PUSH1 0x60 DUP3 ADD MLOAD DUP2 PUSH1 0x3 ADD SWAP1 DUP2 PUSH2 0xF6E SWAP2 SWAP1 PUSH2 0x3EB3 JUMP JUMPDEST POP PUSH1 0x80 DUP3 ADD MLOAD DUP2 PUSH1 0x4 ADD PUSH1 0x0 PUSH2 0x100 EXP DUP2 SLOAD DUP2 PUSH1 0xFF MUL NOT AND SWAP1 DUP4 ISZERO ISZERO MUL OR SWAP1 SSTORE POP PUSH1 0xA0 DUP3 ADD MLOAD DUP2 PUSH1 0x5 ADD SSTORE POP POP DUP2 PUSH20 0xFFFFFFFFFFFFFFFFFFFFFFFFFFFFFFFFFFFFFFFF AND CALLER PUSH20 0xFFFFFFFFFFFFFFFFFFFFFFFFFFFFFFFFFFFFFFFF AND PUSH32 0xED910A45FAD35DDD97267FBD397FDE8F27D5C4CC9E5B54803E2C594B1211CAB7 DUP4 PUSH1 0x40 MLOAD PUSH2 0xFF8 SWAP2 SWAP1 PUSH2 0x3F85 JUMP JUMPDEST PUSH1 0x40 MLOAD DUP1 SWAP2 SUB SWAP1 LOG3 POP POP JUMP JUMPDEST PUSH1 0xA PUSH1 0x20 MSTORE DUP1 PUSH1 0x0 MSTORE PUSH1 0x40 PUSH1 0x0 KECCAK256 PUSH1 0x0 SWAP2 POP SWAP1 POP SLOAD DUP2 JUMP JUMPDEST PUSH1 0x5 DUP2 DUP2 SLOAD DUP2 LT PUSH2 0x102C JUMPI PUSH1 0x0 DUP1 REVERT JUMPDEST SWAP1 PUSH1 0x0 MSTORE PUSH1 0x20 PUSH1 0x0 KECCAK256 SWAP1 PUSH1 0x6 MUL ADD PUSH1 0x0 SWAP2 POP SWAP1 POP DUP1 PUSH1 0x0 ADD PUSH1 0x0 SWAP1 SLOAD SWAP1 PUSH2 0x100 EXP SWAP1 DIV PUSH20 0xFFFFFFFFFFFFFFFFFFFFFFFFFFFFFFFFFFFFFFFF AND SWAP1 DUP1 PUSH1 0x1 ADD PUSH1 0x0 SWAP1 SLOAD SWAP1 PUSH2 0x100 EXP SWAP1 DIV PUSH20 0xFFFFFFFFFFFFFFFFFFFFFFFFFFFFFFFFFFFFFFFF AND SWAP1 DUP1 PUSH1 0x2 ADD DUP1 SLOAD PUSH2 0x109B SWAP1 PUSH2 0x3CE0 JUMP JUMPDEST DUP1 PUSH1 0x1F ADD PUSH1 0x20 DUP1 SWAP2 DIV MUL PUSH1 0x20 ADD PUSH1 0x40 MLOAD SWAP1 DUP2 ADD PUSH1 0x40 MSTORE DUP1 SWAP3 SWAP2 SWAP1 DUP2 DUP2 MSTORE PUSH1 0x20 ADD DUP3 DUP1 SLOAD PUSH2 0x10C7 SWAP1 PUSH2 0x3CE0 JUMP JUMPDEST DUP1 ISZERO PUSH2 0x1114 JUMPI DUP1 PUSH1 0x1F LT PUSH2 0x10E9 JUMPI PUSH2 0x100 DUP1 DUP4 SLOAD DIV MUL DUP4 MSTORE SWAP2 PUSH1 0x20 ADD SWAP2 PUSH2 0x1114 JUMP JUMPDEST DUP3 ADD SWAP2 SWAP1 PUSH1 0x0 MSTORE PUSH1 0x20 PUSH1 0x0 KECCAK256 SWAP1 JUMPDEST DUP2 SLOAD DUP2 MSTORE SWAP1 PUSH1 0x1 ADD SWAP1 PUSH1 0x20 ADD DUP1 DUP4 GT PUSH2 0x10F7 JUMPI DUP3 SWAP1 SUB PUSH1 0x1F AND DUP3 ADD SWAP2 JUMPDEST POP POP POP POP POP SWAP1 DUP1 PUSH1 0x3 ADD DUP1 SLOAD PUSH2 0x1129 SWAP1 PUSH2 0x3CE0 JUMP JUMPDEST DUP1 PUSH1 0x1F ADD PUSH1 0x20 DUP1 SWAP2 DIV MUL PUSH1 0x20 ADD PUSH1 0x40 MLOAD SWAP1 DUP2 ADD PUSH1 0x40 MSTORE DUP1 SWAP3 SWAP2 SWAP1 DUP2 DUP2 MSTORE PUSH1 0x20 ADD DUP3 DUP1 SLOAD PUSH2 0x1155 SWAP1 PUSH2 0x3CE0 JUMP JUMPDEST DUP1 ISZERO PUSH2 0x11A2 JUMPI DUP1 PUSH1 0x1F LT PUSH2 0x1177 JUMPI PUSH2 0x100 DUP1 DUP4 SLOAD DIV MUL DUP4 MSTORE SWAP2 PUSH1 0x20 ADD SWAP2 PUSH2 0x11A2 JUMP JUMPDEST DUP3 ADD SWAP2 SWAP1 PUSH1 0x0 MSTORE PUSH1 0x20 PUSH1 0x0 KECCAK256 SWAP1 JUMPDEST DUP2 SLOAD DUP2 MSTORE SWAP1 PUSH1 0x1 ADD SWAP1 PUSH1 0x20 ADD DUP1 DUP4 GT PUSH2 0x1185 JUMPI DUP3 SWAP1 SUB PUSH1 0x1F AND DUP3 ADD SWAP2 JUMPDEST POP POP POP POP POP SWAP1 DUP1 PUSH1 0x4 ADD PUSH1 0x0 SWAP1 SLOAD SWAP1 PUSH2 0x100 EXP SWAP1 DIV PUSH1 0xFF AND SWAP1 DUP1 PUSH1 0x5 ADD SLOAD SWAP1 POP DUP7 JUMP JUMPDEST PUSH1 0x2 PUSH1 0x0 SWAP1 SLOAD SWAP1 PUSH2 0x100 EXP SWAP1 DIV PUSH20 0xFFFFFFFFFFFFFFFFFFFFFFFFFFFFFFFFFFFFFFFF AND PUSH20 0xFFFFFFFFFFFFFFFFFFFFFFFFFFFFFFFFFFFFFFFF AND CALLER PUSH20 0xFFFFFFFFFFFFFFFFFFFFFFFFFFFFFFFFFFFFFFFF AND EQ PUSH2 0x1255 JUMPI PUSH1 0x40 MLOAD PUSH32 0x8C379A000000000000000000000000000000000000000000000000000000000 DUP2 MSTORE PUSH1 0x4 ADD PUSH2 0x124C SWAP1 PUSH2 0x3FF3 JUMP JUMPDEST PUSH1 0x40 MLOAD DUP1 SWAP2 SUB SWAP1 REVERT JUMPDEST PUSH1 0x9 PUSH1 0x0 DUP3 PUSH20 0xFFFFFFFFFFFFFFFFFFFFFFFFFFFFFFFFFFFFFFFF AND PUSH20 0xFFFFFFFFFFFFFFFFFFFFFFFFFFFFFFFFFFFFFFFF AND DUP2 MSTORE PUSH1 0x20 ADD SWAP1 DUP2 MSTORE PUSH1 0x20 ADD PUSH1 0x0 KECCAK256 PUSH1 0x0 PUSH2 0x12A0 SWAP2 SWAP1 PUSH2 0x28A7 JUMP JUMPDEST PUSH1 0x0 PUSH1 0xA PUSH1 0x0 DUP4 PUSH20 0xFFFFFFFFFFFFFFFFFFFFFFFFFFFFFFFFFFFFFFFF AND PUSH20 0xFFFFFFFFFFFFFFFFFFFFFFFFFFFFFFFFFFFFFFFF AND DUP2 MSTORE PUSH1 0x20 ADD SWAP1 DUP2 MSTORE PUSH1 0x20 ADD PUSH1 0x0 KECCAK256 DUP2 SWAP1 SSTORE POP PUSH1 0x0 PUSH1 0xB PUSH1 0x0 DUP4 PUSH20 0xFFFFFFFFFFFFFFFFFFFFFFFFFFFFFFFFFFFFFFFF AND PUSH20 0xFFFFFFFFFFFFFFFFFFFFFFFFFFFFFFFFFFFFFFFF AND DUP2 MSTORE PUSH1 0x20 ADD SWAP1 DUP2 MSTORE PUSH1 0x20 ADD PUSH1 0x0 KECCAK256 DUP2 SWAP1 SSTORE POP DUP1 PUSH20 0xFFFFFFFFFFFFFFFFFFFFFFFFFFFFFFFFFFFFFFFF AND PUSH32 0x65480CBDB2E256D00B7BF08F60E0726E75F27B97559CBFDB74A37E4C80086FCD TIMESTAMP PUSH1 0x40 MLOAD PUSH2 0x1370 SWAP2 SWAP1 PUSH2 0x2AE1 JUMP JUMPDEST PUSH1 0x40 MLOAD DUP1 SWAP2 SUB SWAP1 LOG2 POP JUMP JUMPDEST PUSH1 0x6 PUSH1 0x20 MSTORE DUP1 PUSH1 0x0 MSTORE PUSH1 0x40 PUSH1 0x0 KECCAK256 PUSH1 0x0 SWAP2 POP SWAP1 POP DUP1 PUSH1 0x0 ADD PUSH1 0x0 SWAP1 SLOAD SWAP1 PUSH2 0x100 EXP SWAP1 DIV PUSH20 0xFFFFFFFFFFFFFFFFFFFFFFFFFFFFFFFFFFFFFFFF AND SWAP1 DUP1 PUSH1 0x1 ADD SLOAD SWAP1 DUP1 PUSH1 0x2 ADD SLOAD SWAP1 DUP1 PUSH1 0x3 ADD PUSH1 0x0 SWAP1 SLOAD SWAP1 PUSH2 0x100 EXP SWAP1 DIV PUSH1 0xFF AND SWAP1 DUP1 PUSH1 0x3 ADD PUSH1 0x1 SWAP1 SLOAD SWAP1 PUSH2 0x100 EXP SWAP1 DIV PUSH1 0xFF AND SWAP1 POP DUP6 JUMP JUMPDEST PUSH1 0x2 PUSH1 0x0 SWAP1 SLOAD SWAP1 PUSH2 0x100 EXP SWAP1 DIV PUSH20 0xFFFFFFFFFFFFFFFFFFFFFFFFFFFFFFFFFFFFFFFF AND PUSH20 0xFFFFFFFFFFFFFFFFFFFFFFFFFFFFFFFFFFFFFFFF AND CALLER PUSH20 0xFFFFFFFFFFFFFFFFFFFFFFFFFFFFFFFFFFFFFFFF AND EQ PUSH2 0x147B JUMPI PUSH1 0x40 MLOAD PUSH32 0x8C379A000000000000000000000000000000000000000000000000000000000 DUP2 MSTORE PUSH1 0x4 ADD PUSH2 0x1472 SWAP1 PUSH2 0x3FF3 JUMP JUMPDEST PUSH1 0x40 MLOAD DUP1 SWAP2 SUB SWAP1 REVERT JUMPDEST PUSH1 0x0 PUSH1 0xA PUSH1 0x0 PUSH1 0x2 PUSH1 0x0 SWAP1 SLOAD SWAP1 PUSH2 0x100 EXP SWAP1 DIV PUSH20 0xFFFFFFFFFFFFFFFFFFFFFFFFFFFFFFFFFFFFFFFF AND PUSH20 0xFFFFFFFFFFFFFFFFFFFFFFFFFFFFFFFFFFFFFFFF AND PUSH20 0xFFFFFFFFFFFFFFFFFFFFFFFFFFFFFFFFFFFFFFFF AND DUP2 MSTORE PUSH1 0x20 ADD SWAP1 DUP2 MSTORE PUSH1 0x20 ADD PUSH1 0x0 KECCAK256 SLOAD SWAP1 POP PUSH1 0x0 PUSH1 0xB PUSH1 0x0 PUSH1 0x2 PUSH1 0x0 SWAP1 SLOAD SWAP1 PUSH2 0x100 EXP SWAP1 DIV PUSH20 0xFFFFFFFFFFFFFFFFFFFFFFFFFFFFFFFFFFFFFFFF AND PUSH20 0xFFFFFFFFFFFFFFFFFFFFFFFFFFFFFFFFFFFFFFFF AND PUSH20 0xFFFFFFFFFFFFFFFFFFFFFFFFFFFFFFFFFFFFFFFF AND DUP2 MSTORE PUSH1 0x20 ADD SWAP1 DUP2 MSTORE PUSH1 0x20 ADD PUSH1 0x0 KECCAK256 SLOAD SWAP1 POP PUSH1 0x0 DUP3 GT PUSH2 0x158A JUMPI PUSH1 0x40 MLOAD PUSH32 0x8C379A000000000000000000000000000000000000000000000000000000000 DUP2 MSTORE PUSH1 0x4 ADD PUSH2 0x1581 SWAP1 PUSH2 0x405F JUMP JUMPDEST PUSH1 0x40 MLOAD DUP1 SWAP2 SUB SWAP1 REVERT JUMPDEST PUSH1 0x0 DUP2 GT PUSH2 0x15CD JUMPI PUSH1 0x40 MLOAD PUSH32 0x8C379A000000000000000000000000000000000000000000000000000000000 DUP2 MSTORE PUSH1 0x4 ADD PUSH2 0x15C4 SWAP1 PUSH2 0x40CB JUMP JUMPDEST PUSH1 0x40 MLOAD DUP1 SWAP2 SUB SWAP1 REVERT JUMPDEST PUSH1 0x0 DUP1 SLOAD SWAP1 POP DUP3 DUP2 DUP4 PUSH2 0x15E0 SWAP2 SWAP1 PUSH2 0x38BB JUMP JUMPDEST PUSH2 0x15EA SWAP2 SWAP1 PUSH2 0x39BE JUMP JUMPDEST PUSH1 0x0 DUP2 SWAP1 SSTORE POP PUSH32 0x945C1C4E99AA89F648FBFE3DF471B916F719E16D960FCEC0737D4D56BD696838 DUP2 PUSH1 0x0 SLOAD PUSH1 0x40 MLOAD PUSH2 0x1623 SWAP3 SWAP2 SWAP1 PUSH2 0x3C88 JUMP JUMPDEST PUSH1 0x40 MLOAD DUP1 SWAP2 SUB SWAP1 LOG1 POP POP POP JUMP JUMPDEST PUSH1 0x0 PUSH1 0x8 PUSH1 0x0 DUP4 PUSH20 0xFFFFFFFFFFFFFFFFFFFFFFFFFFFFFFFFFFFFFFFF AND PUSH20 0xFFFFFFFFFFFFFFFFFFFFFFFFFFFFFFFFFFFFFFFF AND DUP2 MSTORE PUSH1 0x20 ADD SWAP1 DUP2 MSTORE PUSH1 0x20 ADD PUSH1 0x0 KECCAK256 PUSH1 0x0 ADD PUSH1 0x1 SWAP1 SLOAD SWAP1 PUSH2 0x100 EXP SWAP1 DIV PUSH1 0xFF AND PUSH2 0x16C1 JUMPI PUSH1 0x40 MLOAD PUSH32 0x8C379A000000000000000000000000000000000000000000000000000000000 DUP2 MSTORE PUSH1 0x4 ADD PUSH2 0x16B8 SWAP1 PUSH2 0x4137 JUMP JUMPDEST PUSH1 0x40 MLOAD DUP1 SWAP2 SUB SWAP1 REVERT JUMPDEST PUSH1 0x8 PUSH1 0x0 DUP4 PUSH20 0xFFFFFFFFFFFFFFFFFFFFFFFFFFFFFFFFFFFFFFFF AND PUSH20 0xFFFFFFFFFFFFFFFFFFFFFFFFFFFFFFFFFFFFFFFF AND DUP2 MSTORE PUSH1 0x20 ADD SWAP1 DUP2 MSTORE PUSH1 0x20 ADD PUSH1 0x0 KECCAK256 PUSH1 0x0 ADD PUSH1 0x0 SWAP1 SLOAD SWAP1 PUSH2 0x100 EXP SWAP1 DIV PUSH1 0xFF AND SWAP1 POP SWAP2 SWAP1 POP JUMP JUMPDEST PUSH1 0x2 PUSH1 0x0 SWAP1 SLOAD SWAP1 PUSH2 0x100 EXP SWAP1 DIV PUSH20 0xFFFFFFFFFFFFFFFFFFFFFFFFFFFFFFFFFFFFFFFF AND DUP2 JUMP JUMPDEST PUSH1 0x0 PUSH20 0xFFFFFFFFFFFFFFFFFFFFFFFFFFFFFFFFFFFFFFFF AND DUP3 PUSH20 0xFFFFFFFFFFFFFFFFFFFFFFFFFFFFFFFFFFFFFFFF AND SUB PUSH2 0x17AD JUMPI PUSH1 0x40 MLOAD PUSH32 0x8C379A000000000000000000000000000000000000000000000000000000000 DUP2 MSTORE PUSH1 0x4 ADD PUSH2 0x17A4 SWAP1 PUSH2 0x41A3 JUMP JUMPDEST PUSH1 0x40 MLOAD DUP1 SWAP2 SUB SWAP1 REVERT JUMPDEST PUSH1 0x0 PUSH1 0x2 DUP2 GT ISZERO PUSH2 0x17C1 JUMPI PUSH2 0x17C0 PUSH2 0x2E10 JUMP JUMPDEST JUMPDEST DUP2 PUSH1 0x2 DUP2 GT ISZERO PUSH2 0x17D4 JUMPI PUSH2 0x17D3 PUSH2 0x2E10 JUMP JUMPDEST JUMPDEST SUB PUSH2 0x1814 JUMPI PUSH1 0x40 MLOAD PUSH32 0x8C379A000000000000000000000000000000000000000000000000000000000 DUP2 MSTORE PUSH1 0x4 ADD PUSH2 0x180B SWAP1 PUSH2 0x420F JUMP JUMPDEST PUSH1 0x40 MLOAD DUP1 SWAP2 SUB SWAP1 REVERT JUMPDEST PUSH1 0x8 PUSH1 0x0 DUP4 PUSH20 0xFFFFFFFFFFFFFFFFFFFFFFFFFFFFFFFFFFFFFFFF AND PUSH20 0xFFFFFFFFFFFFFFFFFFFFFFFFFFFFFFFFFFFFFFFF AND DUP2 MSTORE PUSH1 0x20 ADD SWAP1 DUP2 MSTORE PUSH1 0x20 ADD PUSH1 0x0 KECCAK256 PUSH1 0x0 ADD PUSH1 0x1 SWAP1 SLOAD SWAP1 PUSH2 0x100 EXP SWAP1 DIV PUSH1 0xFF AND ISZERO PUSH2 0x18A4 JUMPI PUSH1 0x40 MLOAD PUSH32 0x8C379A000000000000000000000000000000000000000000000000000000000 DUP2 MSTORE PUSH1 0x4 ADD PUSH2 0x189B SWAP1 PUSH2 0x427B JUMP JUMPDEST PUSH1 0x40 MLOAD DUP1 SWAP2 SUB SWAP1 REVERT JUMPDEST PUSH1 0x40 MLOAD DUP1 PUSH1 0x40 ADD PUSH1 0x40 MSTORE DUP1 DUP3 PUSH1 0x2 DUP2 GT ISZERO PUSH2 0x18C2 JUMPI PUSH2 0x18C1 PUSH2 0x2E10 JUMP JUMPDEST JUMPDEST DUP2 MSTORE PUSH1 0x20 ADD PUSH1 0x1 ISZERO ISZERO DUP2 MSTORE POP PUSH1 0x8 PUSH1 0x0 DUP5 PUSH20 0xFFFFFFFFFFFFFFFFFFFFFFFFFFFFFFFFFFFFFFFF AND PUSH20 0xFFFFFFFFFFFFFFFFFFFFFFFFFFFFFFFFFFFFFFFF AND DUP2 MSTORE PUSH1 0x20 ADD SWAP1 DUP2 MSTORE PUSH1 0x20 ADD PUSH1 0x0 KECCAK256 PUSH1 0x0 DUP3 ADD MLOAD DUP2 PUSH1 0x0 ADD PUSH1 0x0 PUSH2 0x100 EXP DUP2 SLOAD DUP2 PUSH1 0xFF MUL NOT AND SWAP1 DUP4 PUSH1 0x2 DUP2 GT ISZERO PUSH2 0x1938 JUMPI PUSH2 0x1937 PUSH2 0x2E10 JUMP JUMPDEST JUMPDEST MUL OR SWAP1 SSTORE POP PUSH1 0x20 DUP3 ADD MLOAD DUP2 PUSH1 0x0 ADD PUSH1 0x1 PUSH2 0x100 EXP DUP2 SLOAD DUP2 PUSH1 0xFF MUL NOT AND SWAP1 DUP4 ISZERO ISZERO MUL OR SWAP1 SSTORE POP SWAP1 POP POP PUSH1 0x3 DUP3 SWAP1 DUP1 PUSH1 0x1 DUP2 SLOAD ADD DUP1 DUP3 SSTORE DUP1 SWAP2 POP POP PUSH1 0x1 SWAP1 SUB SWAP1 PUSH1 0x0 MSTORE PUSH1 0x20 PUSH1 0x0 KECCAK256 ADD PUSH1 0x0 SWAP1 SWAP2 SWAP1 SWAP2 SWAP1 SWAP2 PUSH2 0x100 EXP DUP2 SLOAD DUP2 PUSH20 0xFFFFFFFFFFFFFFFFFFFFFFFFFFFFFFFFFFFFFFFF MUL NOT AND SWAP1 DUP4 PUSH20 0xFFFFFFFFFFFFFFFFFFFFFFFFFFFFFFFFFFFFFFFF AND MUL OR SWAP1 SSTORE POP DUP2 PUSH20 0xFFFFFFFFFFFFFFFFFFFFFFFFFFFFFFFFFFFFFFFF AND PUSH32 0x8E18574F8A7333E6A87112742A55853A643E2F0550F4E1A3A2C3F1BB2994441D DUP3 PUSH1 0x40 MLOAD PUSH2 0x1A09 SWAP2 SWAP1 PUSH2 0x2F22 JUMP JUMPDEST PUSH1 0x40 MLOAD DUP1 SWAP2 SUB SWAP1 LOG2 POP POP JUMP JUMPDEST PUSH1 0x60 PUSH1 0x9 PUSH1 0x0 DUP4 PUSH20 0xFFFFFFFFFFFFFFFFFFFFFFFFFFFFFFFFFFFFFFFF AND PUSH20 0xFFFFFFFFFFFFFFFFFFFFFFFFFFFFFFFFFFFFFFFF AND DUP2 MSTORE PUSH1 0x20 ADD SWAP1 DUP2 MSTORE PUSH1 0x20 ADD PUSH1 0x0 KECCAK256 DUP1 SLOAD DUP1 PUSH1 0x20 MUL PUSH1 0x20 ADD PUSH1 0x40 MLOAD SWAP1 DUP2 ADD PUSH1 0x40 MSTORE DUP1 SWAP3 SWAP2 SWAP1 DUP2 DUP2 MSTORE PUSH1 0x20 ADD PUSH1 0x0 SWAP1 JUMPDEST DUP3 DUP3 LT ISZERO PUSH2 0x1B01 JUMPI DUP4 DUP3 SWAP1 PUSH1 0x0 MSTORE PUSH1 0x20 PUSH1 0x0 KECCAK256 SWAP1 PUSH1 0x4 MUL ADD PUSH1 0x40 MLOAD DUP1 PUSH1 0x80 ADD PUSH1 0x40 MSTORE SWAP1 DUP2 PUSH1 0x0 DUP3 ADD SLOAD DUP2 MSTORE PUSH1 0x20 ADD PUSH1 0x1 DUP3 ADD SLOAD DUP2 MSTORE PUSH1 0x20 ADD PUSH1 0x2 DUP3 ADD SLOAD DUP2 MSTORE PUSH1 0x20 ADD PUSH1 0x3 DUP3 ADD PUSH1 0x0 SWAP1 SLOAD SWAP1 PUSH2 0x100 EXP SWAP1 DIV PUSH1 0xFF AND PUSH1 0x3 DUP2 GT ISZERO PUSH2 0x1ADC JUMPI PUSH2 0x1ADB PUSH2 0x2E10 JUMP JUMPDEST JUMPDEST PUSH1 0x3 DUP2 GT ISZERO PUSH2 0x1AEE JUMPI PUSH2 0x1AED PUSH2 0x2E10 JUMP JUMPDEST JUMPDEST DUP2 MSTORE POP POP DUP2 MSTORE PUSH1 0x20 ADD SWAP1 PUSH1 0x1 ADD SWAP1 PUSH2 0x1A76 JUMP JUMPDEST POP POP POP POP SWAP1 POP SWAP2 SWAP1 POP JUMP JUMPDEST PUSH1 0x8 PUSH1 0x20 MSTORE DUP1 PUSH1 0x0 MSTORE PUSH1 0x40 PUSH1 0x0 KECCAK256 PUSH1 0x0 SWAP2 POP SWAP1 POP DUP1 PUSH1 0x0 ADD PUSH1 0x0 SWAP1 SLOAD SWAP1 PUSH2 0x100 EXP SWAP1 DIV PUSH1 0xFF AND SWAP1 DUP1 PUSH1 0x0 ADD PUSH1 0x1 SWAP1 SLOAD SWAP1 PUSH2 0x100 EXP SWAP1 DIV PUSH1 0xFF AND SWAP1 POP DUP3 JUMP JUMPDEST PUSH1 0xB PUSH1 0x20 MSTORE DUP1 PUSH1 0x0 MSTORE PUSH1 0x40 PUSH1 0x0 KECCAK256 PUSH1 0x0 SWAP2 POP SWAP1 POP SLOAD DUP2 JUMP JUMPDEST PUSH1 0x60 PUSH1 0x5 DUP1 SLOAD DUP1 PUSH1 0x20 MUL PUSH1 0x20 ADD PUSH1 0x40 MLOAD SWAP1 DUP2 ADD PUSH1 0x40 MSTORE DUP1 SWAP3 SWAP2 SWAP1 DUP2 DUP2 MSTORE PUSH1 0x20 ADD PUSH1 0x0 SWAP1 JUMPDEST DUP3 DUP3 LT ISZERO PUSH2 0x1DAD JUMPI DUP4 DUP3 SWAP1 PUSH1 0x0 MSTORE PUSH1 0x20 PUSH1 0x0 KECCAK256 SWAP1 PUSH1 0x6 MUL ADD PUSH1 0x40 MLOAD DUP1 PUSH1 0xC0 ADD PUSH1 0x40 MSTORE SWAP1 DUP2 PUSH1 0x0 DUP3 ADD PUSH1 0x0 SWAP1 SLOAD SWAP1 PUSH2 0x100 EXP SWAP1 DIV PUSH20 0xFFFFFFFFFFFFFFFFFFFFFFFFFFFFFFFFFFFFFFFF AND PUSH20 0xFFFFFFFFFFFFFFFFFFFFFFFFFFFFFFFFFFFFFFFF AND PUSH20 0xFFFFFFFFFFFFFFFFFFFFFFFFFFFFFFFFFFFFFFFF AND DUP2 MSTORE PUSH1 0x20 ADD PUSH1 0x1 DUP3 ADD PUSH1 0x0 SWAP1 SLOAD SWAP1 PUSH2 0x100 EXP SWAP1 DIV PUSH20 0xFFFFFFFFFFFFFFFFFFFFFFFFFFFFFFFFFFFFFFFF AND PUSH20 0xFFFFFFFFFFFFFFFFFFFFFFFFFFFFFFFFFFFFFFFF AND PUSH20 0xFFFFFFFFFFFFFFFFFFFFFFFFFFFFFFFFFFFFFFFF AND DUP2 MSTORE PUSH1 0x20 ADD PUSH1 0x2 DUP3 ADD DUP1 SLOAD PUSH2 0x1C65 SWAP1 PUSH2 0x3CE0 JUMP JUMPDEST DUP1 PUSH1 0x1F ADD PUSH1 0x20 DUP1 SWAP2 DIV MUL PUSH1 0x20 ADD PUSH1 0x40 MLOAD SWAP1 DUP2 ADD PUSH1 0x40 MSTORE DUP1 SWAP3 SWAP2 SWAP1 DUP2 DUP2 MSTORE PUSH1 0x20 ADD DUP3 DUP1 SLOAD PUSH2 0x1C91 SWAP1 PUSH2 0x3CE0 JUMP JUMPDEST DUP1 ISZERO PUSH2 0x1CDE JUMPI DUP1 PUSH1 0x1F LT PUSH2 0x1CB3 JUMPI PUSH2 0x100 DUP1 DUP4 SLOAD DIV MUL DUP4 MSTORE SWAP2 PUSH1 0x20 ADD SWAP2 PUSH2 0x1CDE JUMP JUMPDEST DUP3 ADD SWAP2 SWAP1 PUSH1 0x0 MSTORE PUSH1 0x20 PUSH1 0x0 KECCAK256 SWAP1 JUMPDEST DUP2 SLOAD DUP2 MSTORE SWAP1 PUSH1 0x1 ADD SWAP1 PUSH1 0x20 ADD DUP1 DUP4 GT PUSH2 0x1CC1 JUMPI DUP3 SWAP1 SUB PUSH1 0x1F AND DUP3 ADD SWAP2 JUMPDEST POP POP POP POP POP DUP2 MSTORE PUSH1 0x20 ADD PUSH1 0x3 DUP3 ADD DUP1 SLOAD PUSH2 0x1CF7 SWAP1 PUSH2 0x3CE0 JUMP JUMPDEST DUP1 PUSH1 0x1F ADD PUSH1 0x20 DUP1 SWAP2 DIV MUL PUSH1 0x20 ADD PUSH1 0x40 MLOAD SWAP1 DUP2 ADD PUSH1 0x40 MSTORE DUP1 SWAP3 SWAP2 SWAP1 DUP2 DUP2 MSTORE PUSH1 0x20 ADD DUP3 DUP1 SLOAD PUSH2 0x1D23 SWAP1 PUSH2 0x3CE0 JUMP JUMPDEST DUP1 ISZERO PUSH2 0x1D70 JUMPI DUP1 PUSH1 0x1F LT PUSH2 0x1D45 JUMPI PUSH2 0x100 DUP1 DUP4 SLOAD DIV MUL DUP4 MSTORE SWAP2 PUSH1 0x20 ADD SWAP2 PUSH2 0x1D70 JUMP JUMPDEST DUP3 ADD SWAP2 SWAP1 PUSH1 0x0 MSTORE PUSH1 0x20 PUSH1 0x0 KECCAK256 SWAP1 JUMPDEST DUP2 SLOAD DUP2 MSTORE SWAP1 PUSH1 0x1 ADD SWAP1 PUSH1 0x20 ADD DUP1 DUP4 GT PUSH2 0x1D53 JUMPI DUP3 SWAP1 SUB PUSH1 0x1F AND DUP3 ADD SWAP2 JUMPDEST POP POP POP POP POP DUP2 MSTORE PUSH1 0x20 ADD PUSH1 0x4 DUP3 ADD PUSH1 0x0 SWAP1 SLOAD SWAP1 PUSH2 0x100 EXP SWAP1 DIV PUSH1 0xFF AND ISZERO ISZERO ISZERO ISZERO DUP2 MSTORE PUSH1 0x20 ADD PUSH1 0x5 DUP3 ADD SLOAD DUP2 MSTORE POP POP DUP2 MSTORE PUSH1 0x20 ADD SWAP1 PUSH1 0x1 ADD SWAP1 PUSH2 0x1B86 JUMP JUMPDEST POP POP POP POP SWAP1 POP SWAP1 JUMP JUMPDEST PUSH1 0x7 PUSH1 0x20 MSTORE DUP1 PUSH1 0x0 MSTORE PUSH1 0x40 PUSH1 0x0 KECCAK256 PUSH1 0x0 SWAP2 POP SWAP1 POP SLOAD DUP2 JUMP JUMPDEST PUSH1 0x0 PUSH1 0x8 PUSH1 0x0 DUP4 PUSH20 0xFFFFFFFFFFFFFFFFFFFFFFFFFFFFFFFFFFFFFFFF AND PUSH20 0xFFFFFFFFFFFFFFFFFFFFFFFFFFFFFFFFFFFFFFFF AND DUP2 MSTORE PUSH1 0x20 ADD SWAP1 DUP2 MSTORE PUSH1 0x20 ADD PUSH1 0x0 KECCAK256 PUSH1 0x0 ADD PUSH1 0x1 SWAP1 SLOAD SWAP1 PUSH2 0x100 EXP SWAP1 DIV PUSH1 0xFF AND SWAP1 POP SWAP2 SWAP1 POP JUMP JUMPDEST PUSH1 0x2 PUSH1 0x0 SWAP1 SLOAD SWAP1 PUSH2 0x100 EXP SWAP1 DIV PUSH20 0xFFFFFFFFFFFFFFFFFFFFFFFFFFFFFFFFFFFFFFFF AND PUSH20 0xFFFFFFFFFFFFFFFFFFFFFFFFFFFFFFFFFFFFFFFF AND CALLER PUSH20 0xFFFFFFFFFFFFFFFFFFFFFFFFFFFFFFFFFFFFFFFF AND EQ PUSH2 0x1EB7 JUMPI PUSH1 0x40 MLOAD PUSH32 0x8C379A000000000000000000000000000000000000000000000000000000000 DUP2 MSTORE PUSH1 0x4 ADD PUSH2 0x1EAE SWAP1 PUSH2 0x3FF3 JUMP JUMPDEST PUSH1 0x40 MLOAD DUP1 SWAP2 SUB SWAP1 REVERT JUMPDEST PUSH1 0x5 DUP1 SLOAD SWAP1 POP DUP3 LT PUSH2 0x1EFE JUMPI PUSH1 0x40 MLOAD PUSH32 0x8C379A000000000000000000000000000000000000000000000000000000000 DUP2 MSTORE PUSH1 0x4 ADD PUSH2 0x1EF5 SWAP1 PUSH2 0x42E7 JUMP JUMPDEST PUSH1 0x40 MLOAD DUP1 SWAP2 SUB SWAP1 REVERT JUMPDEST PUSH1 0x0 PUSH1 0x5 DUP4 DUP2 SLOAD DUP2 LT PUSH2 0x1F14 JUMPI PUSH2 0x1F13 PUSH2 0x4307 JUMP JUMPDEST JUMPDEST SWAP1 PUSH1 0x0 MSTORE PUSH1 0x20 PUSH1 0x0 KECCAK256 SWAP1 PUSH1 0x6 MUL ADD SWAP1 POP DUP1 PUSH1 0x4 ADD PUSH1 0x0 SWAP1 SLOAD SWAP1 PUSH2 0x100 EXP SWAP1 DIV PUSH1 0xFF AND ISZERO PUSH2 0x1F76 JUMPI PUSH1 0x40 MLOAD PUSH32 0x8C379A000000000000000000000000000000000000000000000000000000000 DUP2 MSTORE PUSH1 0x4 ADD PUSH2 0x1F6D SWAP1 PUSH2 0x4382 JUMP JUMPDEST PUSH1 0x40 MLOAD DUP1 SWAP2 SUB SWAP1 REVERT JUMPDEST DUP2 DUP2 PUSH1 0x3 ADD SWAP1 DUP2 PUSH2 0x1F87 SWAP2 SWAP1 PUSH2 0x3EB3 JUMP JUMPDEST POP PUSH1 0x1 DUP2 PUSH1 0x4 ADD PUSH1 0x0 PUSH2 0x100 EXP DUP2 SLOAD DUP2 PUSH1 0xFF MUL NOT AND SWAP1 DUP4 ISZERO ISZERO MUL OR SWAP1 SSTORE POP DUP3 PUSH32 0x831764AC02A33C193CBA23A0DE34C986E9B50402BF3C9FEBF6FF2F63D4C0435D DUP4 PUSH1 0x40 MLOAD PUSH2 0x1FD5 SWAP2 SWAP1 PUSH2 0x3F85 JUMP JUMPDEST PUSH1 0x40 MLOAD DUP1 SWAP2 SUB SWAP1 LOG2 POP POP POP JUMP JUMPDEST PUSH1 0x60 PUSH1 0x3 DUP1 SLOAD DUP1 PUSH1 0x20 MUL PUSH1 0x20 ADD PUSH1 0x40 MLOAD SWAP1 DUP2 ADD PUSH1 0x40 MSTORE DUP1 SWAP3 SWAP2 SWAP1 DUP2 DUP2 MSTORE PUSH1 0x20 ADD DUP3 DUP1 SLOAD DUP1 ISZERO PUSH2 0x2066 JUMPI PUSH1 0x20 MUL DUP3 ADD SWAP2 SWAP1 PUSH1 0x0 MSTORE PUSH1 0x20 PUSH1 0x0 KECCAK256 SWAP1 JUMPDEST DUP2 PUSH1 0x0 SWAP1 SLOAD SWAP1 PUSH2 0x100 EXP SWAP1 DIV PUSH20 0xFFFFFFFFFFFFFFFFFFFFFFFFFFFFFFFFFFFFFFFF AND PUSH20 0xFFFFFFFFFFFFFFFFFFFFFFFFFFFFFFFFFFFFFFFF AND DUP2 MSTORE PUSH1 0x20 ADD SWAP1 PUSH1 0x1 ADD SWAP1 DUP1 DUP4 GT PUSH2 0x201C JUMPI JUMPDEST POP POP POP POP POP SWAP1 POP SWAP1 JUMP JUMPDEST PUSH2 0x2078 PUSH2 0x28CB JUMP JUMPDEST PUSH1 0x5 DUP1 SLOAD SWAP1 POP DUP3 LT PUSH2 0x20BF JUMPI PUSH1 0x40 MLOAD PUSH32 0x8C379A000000000000000000000000000000000000000000000000000000000 DUP2 MSTORE PUSH1 0x4 ADD PUSH2 0x20B6 SWAP1 PUSH2 0x42E7 JUMP JUMPDEST PUSH1 0x40 MLOAD DUP1 SWAP2 SUB SWAP1 REVERT JUMPDEST PUSH1 0x5 DUP3 DUP2 SLOAD DUP2 LT PUSH2 0x20D3 JUMPI PUSH2 0x20D2 PUSH2 0x4307 JUMP JUMPDEST JUMPDEST SWAP1 PUSH1 0x0 MSTORE PUSH1 0x20 PUSH1 0x0 KECCAK256 SWAP1 PUSH1 0x6 MUL ADD PUSH1 0x40 MLOAD DUP1 PUSH1 0xC0 ADD PUSH1 0x40 MSTORE SWAP1 DUP2 PUSH1 0x0 DUP3 ADD PUSH1 0x0 SWAP1 SLOAD SWAP1 PUSH2 0x100 EXP SWAP1 DIV PUSH20 0xFFFFFFFFFFFFFFFFFFFFFFFFFFFFFFFFFFFFFFFF AND PUSH20 0xFFFFFFFFFFFFFFFFFFFFFFFFFFFFFFFFFFFFFFFF AND PUSH20 0xFFFFFFFFFFFFFFFFFFFFFFFFFFFFFFFFFFFFFFFF AND DUP2 MSTORE PUSH1 0x20 ADD PUSH1 0x1 DUP3 ADD PUSH1 0x0 SWAP1 SLOAD SWAP1 PUSH2 0x100 EXP SWAP1 DIV PUSH20 0xFFFFFFFFFFFFFFFFFFFFFFFFFFFFFFFFFFFFFFFF AND PUSH20 0xFFFFFFFFFFFFFFFFFFFFFFFFFFFFFFFFFFFFFFFF AND PUSH20 0xFFFFFFFFFFFFFFFFFFFFFFFFFFFFFFFFFFFFFFFF AND DUP2 MSTORE PUSH1 0x20 ADD PUSH1 0x2 DUP3 ADD DUP1 SLOAD PUSH2 0x21A8 SWAP1 PUSH2 0x3CE0 JUMP JUMPDEST DUP1 PUSH1 0x1F ADD PUSH1 0x20 DUP1 SWAP2 DIV MUL PUSH1 0x20 ADD PUSH1 0x40 MLOAD SWAP1 DUP2 ADD PUSH1 0x40 MSTORE DUP1 SWAP3 SWAP2 SWAP1 DUP2 DUP2 MSTORE PUSH1 0x20 ADD DUP3 DUP1 SLOAD PUSH2 0x21D4 SWAP1 PUSH2 0x3CE0 JUMP JUMPDEST DUP1 ISZERO PUSH2 0x2221 JUMPI DUP1 PUSH1 0x1F LT PUSH2 0x21F6 JUMPI PUSH2 0x100 DUP1 DUP4 SLOAD DIV MUL DUP4 MSTORE SWAP2 PUSH1 0x20 ADD SWAP2 PUSH2 0x2221 JUMP JUMPDEST DUP3 ADD SWAP2 SWAP1 PUSH1 0x0 MSTORE PUSH1 0x20 PUSH1 0x0 KECCAK256 SWAP1 JUMPDEST DUP2 SLOAD DUP2 MSTORE SWAP1 PUSH1 0x1 ADD SWAP1 PUSH1 0x20 ADD DUP1 DUP4 GT PUSH2 0x2204 JUMPI DUP3 SWAP1 SUB PUSH1 0x1F AND DUP3 ADD SWAP2 JUMPDEST POP POP POP POP POP DUP2 MSTORE PUSH1 0x20 ADD PUSH1 0x3 DUP3 ADD DUP1 SLOAD PUSH2 0x223A SWAP1 PUSH2 0x3CE0 JUMP JUMPDEST DUP1 PUSH1 0x1F ADD PUSH1 0x20 DUP1 SWAP2 DIV MUL PUSH1 0x20 ADD PUSH1 0x40 MLOAD SWAP1 DUP2 ADD PUSH1 0x40 MSTORE DUP1 SWAP3 SWAP2 SWAP1 DUP2 DUP2 MSTORE PUSH1 0x20 ADD DUP3 DUP1 SLOAD PUSH2 0x2266 SWAP1 PUSH2 0x3CE0 JUMP JUMPDEST DUP1 ISZERO PUSH2 0x22B3 JUMPI DUP1 PUSH1 0x1F LT PUSH2 0x2288 JUMPI PUSH2 0x100 DUP1 DUP4 SLOAD DIV MUL DUP4 MSTORE SWAP2 PUSH1 0x20 ADD SWAP2 PUSH2 0x22B3 JUMP JUMPDEST DUP3 ADD SWAP2 SWAP1 PUSH1 0x0 MSTORE PUSH1 0x20 PUSH1 0x0 KECCAK256 SWAP1 JUMPDEST DUP2 SLOAD DUP2 MSTORE SWAP1 PUSH1 0x1 ADD SWAP1 PUSH1 0x20 ADD DUP1 DUP4 GT PUSH2 0x2296 JUMPI DUP3 SWAP1 SUB PUSH1 0x1F AND DUP3 ADD SWAP2 JUMPDEST POP POP POP POP POP DUP2 MSTORE PUSH1 0x20 ADD PUSH1 0x4 DUP3 ADD PUSH1 0x0 SWAP1 SLOAD SWAP1 PUSH2 0x100 EXP SWAP1 DIV PUSH1 0xFF AND ISZERO ISZERO ISZERO ISZERO DUP2 MSTORE PUSH1 0x20 ADD PUSH1 0x5 DUP3 ADD SLOAD DUP2 MSTORE POP POP SWAP1 POP SWAP2 SWAP1 POP JUMP JUMPDEST PUSH1 0x1 PUSH1 0x0 SWAP1 SLOAD SWAP1 PUSH2 0x100 EXP SWAP1 DIV PUSH20 0xFFFFFFFFFFFFFFFFFFFFFFFFFFFFFFFFFFFFFFFF AND DUP2 JUMP JUMPDEST PUSH1 0x0 DUP3 GT PUSH2 0x2351 JUMPI PUSH1 0x40 MLOAD PUSH32 0x8C379A000000000000000000000000000000000000000000000000000000000 DUP2 MSTORE PUSH1 0x4 ADD PUSH2 0x2348 SWAP1 PUSH2 0x4414 JUMP JUMPDEST PUSH1 0x40 MLOAD DUP1 SWAP2 SUB SWAP1 REVERT JUMPDEST DUP2 PUSH1 0xA PUSH1 0x0 DUP6 PUSH20 0xFFFFFFFFFFFFFFFFFFFFFFFFFFFFFFFFFFFFFFFF AND PUSH20 0xFFFFFFFFFFFFFFFFFFFFFFFFFFFFFFFFFFFFFFFF AND DUP2 MSTORE PUSH1 0x20 ADD SWAP1 DUP2 MSTORE PUSH1 0x20 ADD PUSH1 0x0 KECCAK256 PUSH1 0x0 DUP3 DUP3 SLOAD PUSH2 0x23A0 SWAP2 SWAP1 PUSH2 0x4434 JUMP JUMPDEST SWAP3 POP POP DUP2 SWAP1 SSTORE POP PUSH1 0x9 PUSH1 0x0 DUP5 PUSH20 0xFFFFFFFFFFFFFFFFFFFFFFFFFFFFFFFFFFFFFFFF AND PUSH20 0xFFFFFFFFFFFFFFFFFFFFFFFFFFFFFFFFFFFFFFFF AND DUP2 MSTORE PUSH1 0x20 ADD SWAP1 DUP2 MSTORE PUSH1 0x20 ADD PUSH1 0x0 KECCAK256 PUSH1 0x40 MLOAD DUP1 PUSH1 0x80 ADD PUSH1 0x40 MSTORE DUP1 DUP5 DUP2 MSTORE PUSH1 0x20 ADD PUSH1 0x0 DUP2 MSTORE PUSH1 0x20 ADD TIMESTAMP DUP2 MSTORE PUSH1 0x20 ADD DUP4 PUSH1 0x3 DUP2 GT ISZERO PUSH2 0x2417 JUMPI PUSH2 0x2416 PUSH2 0x2E10 JUMP JUMPDEST JUMPDEST DUP2 MSTORE POP SWAP1 DUP1 PUSH1 0x1 DUP2 SLOAD ADD DUP1 DUP3 SSTORE DUP1 SWAP2 POP POP PUSH1 0x1 SWAP1 SUB SWAP1 PUSH1 0x0 MSTORE PUSH1 0x20 PUSH1 0x0 KECCAK256 SWAP1 PUSH1 0x4 MUL ADD PUSH1 0x0 SWAP1 SWAP2 SWAP1 SWAP2 SWAP1 SWAP2 POP PUSH1 0x0 DUP3 ADD MLOAD DUP2 PUSH1 0x0 ADD SSTORE PUSH1 0x20 DUP3 ADD MLOAD DUP2 PUSH1 0x1 ADD SSTORE PUSH1 0x40 DUP3 ADD MLOAD DUP2 PUSH1 0x2 ADD SSTORE PUSH1 0x60 DUP3 ADD MLOAD DUP2 PUSH1 0x3 ADD PUSH1 0x0 PUSH2 0x100 EXP DUP2 SLOAD DUP2 PUSH1 0xFF MUL NOT AND SWAP1 DUP4 PUSH1 0x3 DUP2 GT ISZERO PUSH2 0x248C JUMPI PUSH2 0x248B PUSH2 0x2E10 JUMP JUMPDEST JUMPDEST MUL OR SWAP1 SSTORE POP POP POP DUP3 PUSH20 0xFFFFFFFFFFFFFFFFFFFFFFFFFFFFFFFFFFFFFFFF AND PUSH32 0x5CFB307666C302E735ED249671512540E5EF8425FB38F73E416E0FCAB716EAC7 DUP4 DUP4 TIMESTAMP PUSH1 0x40 MLOAD PUSH2 0x24DD SWAP4 SWAP3 SWAP2 SWAP1 PUSH2 0x4468 JUMP JUMPDEST PUSH1 0x40 MLOAD DUP1 SWAP2 SUB SWAP1 LOG2 POP POP POP JUMP JUMPDEST PUSH1 0x60 PUSH1 0x0 PUSH1 0x3 DUP2 GT ISZERO PUSH2 0x2500 JUMPI PUSH2 0x24FF PUSH2 0x2E10 JUMP JUMPDEST JUMPDEST DUP3 PUSH1 0x3 DUP2 GT ISZERO PUSH2 0x2513 JUMPI PUSH2 0x2512 PUSH2 0x2E10 JUMP JUMPDEST JUMPDEST SUB PUSH2 0x2555 JUMPI PUSH1 0x40 MLOAD DUP1 PUSH1 0x40 ADD PUSH1 0x40 MSTORE DUP1 PUSH1 0x5 DUP2 MSTORE PUSH1 0x20 ADD PUSH32 0x536F6C6172000000000000000000000000000000000000000000000000000000 DUP2 MSTORE POP SWAP1 POP PUSH2 0x26C8 JUMP JUMPDEST PUSH1 0x1 PUSH1 0x3 DUP2 GT ISZERO PUSH2 0x2569 JUMPI PUSH2 0x2568 PUSH2 0x2E10 JUMP JUMPDEST JUMPDEST DUP3 PUSH1 0x3 DUP2 GT ISZERO PUSH2 0x257C JUMPI PUSH2 0x257B PUSH2 0x2E10 JUMP JUMPDEST JUMPDEST SUB PUSH2 0x25BE JUMPI PUSH1 0x40 MLOAD DUP1 PUSH1 0x40 ADD PUSH1 0x40 MSTORE DUP1 PUSH1 0x4 DUP2 MSTORE PUSH1 0x20 ADD PUSH32 0x57696E6400000000000000000000000000000000000000000000000000000000 DUP2 MSTORE POP SWAP1 POP PUSH2 0x26C8 JUMP JUMPDEST PUSH1 0x2 PUSH1 0x3 DUP2 GT ISZERO PUSH2 0x25D2 JUMPI PUSH2 0x25D1 PUSH2 0x2E10 JUMP JUMPDEST JUMPDEST DUP3 PUSH1 0x3 DUP2 GT ISZERO PUSH2 0x25E5 JUMPI PUSH2 0x25E4 PUSH2 0x2E10 JUMP JUMPDEST JUMPDEST SUB PUSH2 0x2627 JUMPI PUSH1 0x40 MLOAD DUP1 PUSH1 0x40 ADD PUSH1 0x40 MSTORE DUP1 PUSH1 0x7 DUP2 MSTORE PUSH1 0x20 ADD PUSH32 0x42696F6D61737300000000000000000000000000000000000000000000000000 DUP2 MSTORE POP SWAP1 POP PUSH2 0x26C8 JUMP JUMPDEST PUSH1 0x3 DUP1 DUP2 GT ISZERO PUSH2 0x263A JUMPI PUSH2 0x2639 PUSH2 0x2E10 JUMP JUMPDEST JUMPDEST DUP3 PUSH1 0x3 DUP2 GT ISZERO PUSH2 0x264D JUMPI PUSH2 0x264C PUSH2 0x2E10 JUMP JUMPDEST JUMPDEST SUB PUSH2 0x268F JUMPI PUSH1 0x40 MLOAD DUP1 PUSH1 0x40 ADD PUSH1 0x40 MSTORE DUP1 PUSH1 0x5 DUP2 MSTORE PUSH1 0x20 ADD PUSH32 0x546964616C000000000000000000000000000000000000000000000000000000 DUP2 MSTORE POP SWAP1 POP PUSH2 0x26C8 JUMP JUMPDEST PUSH1 0x40 MLOAD DUP1 PUSH1 0x40 ADD PUSH1 0x40 MSTORE DUP1 PUSH1 0x7 DUP2 MSTORE PUSH1 0x20 ADD PUSH32 0x556E6B6E6F776E00000000000000000000000000000000000000000000000000 DUP2 MSTORE POP SWAP1 POP JUMPDEST SWAP2 SWAP1 POP JUMP JUMPDEST PUSH1 0x0 DUP2 GT PUSH2 0x2710 JUMPI PUSH1 0x40 MLOAD PUSH32 0x8C379A000000000000000000000000000000000000000000000000000000000 DUP2 MSTORE PUSH1 0x4 ADD PUSH2 0x2707 SWAP1 PUSH2 0x4511 JUMP JUMPDEST PUSH1 0x40 MLOAD DUP1 SWAP2 SUB SWAP1 REVERT JUMPDEST DUP1 PUSH1 0xB PUSH1 0x0 DUP5 PUSH20 0xFFFFFFFFFFFFFFFFFFFFFFFFFFFFFFFFFFFFFFFF AND PUSH20 0xFFFFFFFFFFFFFFFFFFFFFFFFFFFFFFFFFFFFFFFF AND DUP2 MSTORE PUSH1 0x20 ADD SWAP1 DUP2 MSTORE PUSH1 0x20 ADD PUSH1 0x0 KECCAK256 PUSH1 0x0 DUP3 DUP3 SLOAD PUSH2 0x275F SWAP2 SWAP1 PUSH2 0x4434 JUMP JUMPDEST SWAP3 POP POP DUP2 SWAP1 SSTORE POP PUSH1 0x9 PUSH1 0x0 DUP4 PUSH20 0xFFFFFFFFFFFFFFFFFFFFFFFFFFFFFFFFFFFFFFFF AND PUSH20 0xFFFFFFFFFFFFFFFFFFFFFFFFFFFFFFFFFFFFFFFF AND DUP2 MSTORE PUSH1 0x20 ADD SWAP1 DUP2 MSTORE PUSH1 0x20 ADD PUSH1 0x0 KECCAK256 PUSH1 0x40 MLOAD DUP1 PUSH1 0x80 ADD PUSH1 0x40 MSTORE DUP1 PUSH1 0x0 DUP2 MSTORE PUSH1 0x20 ADD DUP4 DUP2 MSTORE PUSH1 0x20 ADD TIMESTAMP DUP2 MSTORE PUSH1 0x20 ADD PUSH1 0x0 PUSH1 0x3 DUP2 GT ISZERO PUSH2 0x27D7 JUMPI PUSH2 0x27D6 PUSH2 0x2E10 JUMP JUMPDEST JUMPDEST DUP2 MSTORE POP SWAP1 DUP1 PUSH1 0x1 DUP2 SLOAD ADD DUP1 DUP3 SSTORE DUP1 SWAP2 POP POP PUSH1 0x1 SWAP1 SUB SWAP1 PUSH1 0x0 MSTORE PUSH1 0x20 PUSH1 0x0 KECCAK256 SWAP1 PUSH1 0x4 MUL ADD PUSH1 0x0 SWAP1 SWAP2 SWAP1 SWAP2 SWAP1 SWAP2 POP PUSH1 0x0 DUP3 ADD MLOAD DUP2 PUSH1 0x0 ADD SSTORE PUSH1 0x20 DUP3 ADD MLOAD DUP2 PUSH1 0x1 ADD SSTORE PUSH1 0x40 DUP3 ADD MLOAD DUP2 PUSH1 0x2 ADD SSTORE PUSH1 0x60 DUP3 ADD MLOAD DUP2 PUSH1 0x3 ADD PUSH1 0x0 PUSH2 0x100 EXP DUP2 SLOAD DUP2 PUSH1 0xFF MUL NOT AND SWAP1 DUP4 PUSH1 0x3 DUP2 GT ISZERO PUSH2 0x284C JUMPI PUSH2 0x284B PUSH2 0x2E10 JUMP JUMPDEST JUMPDEST MUL OR SWAP1 SSTORE POP POP POP DUP2 PUSH20 0xFFFFFFFFFFFFFFFFFFFFFFFFFFFFFFFFFFFFFFFF AND PUSH32 0xADF60B50812CF8DE7CED51CAA9256FB7531EF821C63929AA890AB3123387D246 DUP3 TIMESTAMP PUSH1 0x40 MLOAD PUSH2 0x289B SWAP3 SWAP2 SWAP1 PUSH2 0x3C88 JUMP JUMPDEST PUSH1 0x40 MLOAD DUP1 SWAP2 SUB SWAP1 LOG2 POP POP JUMP JUMPDEST POP DUP1 SLOAD PUSH1 0x0 DUP3 SSTORE PUSH1 0x4 MUL SWAP1 PUSH1 0x0 MSTORE PUSH1 0x20 PUSH1 0x0 KECCAK256 SWAP1 DUP2 ADD SWAP1 PUSH2 0x28C8 SWAP2 SWAP1 PUSH2 0x292F JUMP JUMPDEST POP JUMP JUMPDEST PUSH1 0x40 MLOAD DUP1 PUSH1 0xC0 ADD PUSH1 0x40 MSTORE DUP1 PUSH1 0x0 PUSH20 0xFFFFFFFFFFFFFFFFFFFFFFFFFFFFFFFFFFFFFFFF AND DUP2 MSTORE PUSH1 0x20 ADD PUSH1 0x0 PUSH20 0xFFFFFFFFFFFFFFFFFFFFFFFFFFFFFFFFFFFFFFFF AND DUP2 MSTORE PUSH1 0x20 ADD PUSH1 0x60 DUP2 MSTORE PUSH1 0x20 ADD PUSH1 0x60 DUP2 MSTORE PUSH1 0x20 ADD PUSH1 0x0 ISZERO ISZERO DUP2 MSTORE PUSH1 0x20 ADD PUSH1 0x0 DUP2 MSTORE POP SWAP1 JUMP JUMPDEST JUMPDEST DUP1 DUP3 GT ISZERO PUSH2 0x296E JUMPI PUSH1 0x0 DUP1 DUP3 ADD PUSH1 0x0 SWAP1 SSTORE PUSH1 0x1 DUP3 ADD PUSH1 0x0 SWAP1 SSTORE PUSH1 0x2 DUP3 ADD PUSH1 0x0 SWAP1 SSTORE PUSH1 0x3 DUP3 ADD PUSH1 0x0 PUSH2 0x100 EXP DUP2 SLOAD SWAP1 PUSH1 0xFF MUL NOT AND SWAP1 SSTORE POP PUSH1 0x4 ADD PUSH2 0x2930 JUMP JUMPDEST POP SWAP1 JUMP JUMPDEST PUSH1 0x0 PUSH1 0x40 MLOAD SWAP1 POP SWAP1 JUMP JUMPDEST PUSH1 0x0 DUP1 REVERT JUMPDEST PUSH1 0x0 DUP1 REVERT JUMPDEST PUSH1 0x0 DUP2 SWAP1 POP SWAP2 SWAP1 POP JUMP JUMPDEST PUSH2 0x2999 DUP2 PUSH2 0x2986 JUMP JUMPDEST DUP2 EQ PUSH2 0x29A4 JUMPI PUSH1 0x0 DUP1 REVERT JUMPDEST POP JUMP JUMPDEST PUSH1 0x0 DUP2 CALLDATALOAD SWAP1 POP PUSH2 0x29B6 DUP2 PUSH2 0x2990 JUMP JUMPDEST SWAP3 SWAP2 POP POP JUMP JUMPDEST PUSH1 0x4 DUP2 LT PUSH2 0x29C9 JUMPI PUSH1 0x0 DUP1 REVERT JUMPDEST POP JUMP JUMPDEST PUSH1 0x0 DUP2 CALLDATALOAD SWAP1 POP PUSH2 0x29DB DUP2 PUSH2 0x29BC JUMP JUMPDEST SWAP3 SWAP2 POP POP JUMP JUMPDEST PUSH1 0x0 DUP1 PUSH1 0x0 PUSH1 0x60 DUP5 DUP7 SUB SLT ISZERO PUSH2 0x29FA JUMPI PUSH2 0x29F9 PUSH2 0x297C JUMP JUMPDEST JUMPDEST PUSH1 0x0 PUSH2 0x2A08 DUP7 DUP3 DUP8 ADD PUSH2 0x29A7 JUMP JUMPDEST SWAP4 POP POP PUSH1 0x20 PUSH2 0x2A19 DUP7 DUP3 DUP8 ADD PUSH2 0x29A7 JUMP JUMPDEST SWAP3 POP POP PUSH1 0x40 PUSH2 0x2A2A DUP7 DUP3 DUP8 ADD PUSH2 0x29CC JUMP JUMPDEST SWAP2 POP POP SWAP3 POP SWAP3 POP SWAP3 JUMP JUMPDEST PUSH1 0x0 PUSH20 0xFFFFFFFFFFFFFFFFFFFFFFFFFFFFFFFFFFFFFFFF DUP3 AND SWAP1 POP SWAP2 SWAP1 POP JUMP JUMPDEST PUSH1 0x0 PUSH2 0x2A5F DUP3 PUSH2 0x2A34 JUMP JUMPDEST SWAP1 POP SWAP2 SWAP1 POP JUMP JUMPDEST PUSH2 0x2A6F DUP2 PUSH2 0x2A54 JUMP JUMPDEST DUP2 EQ PUSH2 0x2A7A JUMPI PUSH1 0x0 DUP1 REVERT JUMPDEST POP JUMP JUMPDEST PUSH1 0x0 DUP2 CALLDATALOAD SWAP1 POP PUSH2 0x2A8C DUP2 PUSH2 0x2A66 JUMP JUMPDEST SWAP3 SWAP2 POP POP JUMP JUMPDEST PUSH1 0x0 DUP1 PUSH1 0x40 DUP4 DUP6 SUB SLT ISZERO PUSH2 0x2AA9 JUMPI PUSH2 0x2AA8 PUSH2 0x297C JUMP JUMPDEST JUMPDEST PUSH1 0x0 PUSH2 0x2AB7 DUP6 DUP3 DUP7 ADD PUSH2 0x2A7D JUMP JUMPDEST SWAP3 POP POP PUSH1 0x20 PUSH2 0x2AC8 DUP6 DUP3 DUP7 ADD PUSH2 0x29A7 JUMP JUMPDEST SWAP2 POP POP SWAP3 POP SWAP3 SWAP1 POP JUMP JUMPDEST PUSH2 0x2ADB DUP2 PUSH2 0x2986 JUMP JUMPDEST DUP3 MSTORE POP POP JUMP JUMPDEST PUSH1 0x0 PUSH1 0x20 DUP3 ADD SWAP1 POP PUSH2 0x2AF6 PUSH1 0x0 DUP4 ADD DUP5 PUSH2 0x2AD2 JUMP JUMPDEST SWAP3 SWAP2 POP POP JUMP JUMPDEST PUSH1 0x0 DUP1 REVERT JUMPDEST PUSH1 0x0 DUP1 REVERT JUMPDEST PUSH1 0x0 PUSH1 0x1F NOT PUSH1 0x1F DUP4 ADD AND SWAP1 POP SWAP2 SWAP1 POP JUMP JUMPDEST PUSH32 0x4E487B7100000000000000000000000000000000000000000000000000000000 PUSH1 0x0 MSTORE PUSH1 0x41 PUSH1 0x4 MSTORE PUSH1 0x24 PUSH1 0x0 REVERT JUMPDEST PUSH2 0x2B4F DUP3 PUSH2 0x2B06 JUMP JUMPDEST DUP2 ADD DUP2 DUP2 LT PUSH8 0xFFFFFFFFFFFFFFFF DUP3 GT OR ISZERO PUSH2 0x2B6E JUMPI PUSH2 0x2B6D PUSH2 0x2B17 JUMP JUMPDEST JUMPDEST DUP1 PUSH1 0x40 MSTORE POP POP POP JUMP JUMPDEST PUSH1 0x0 PUSH2 0x2B81 PUSH2 0x2972 JUMP JUMPDEST SWAP1 POP PUSH2 0x2B8D DUP3 DUP3 PUSH2 0x2B46 JUMP JUMPDEST SWAP2 SWAP1 POP JUMP JUMPDEST PUSH1 0x0 PUSH8 0xFFFFFFFFFFFFFFFF DUP3 GT ISZERO PUSH2 0x2BAD JUMPI PUSH2 0x2BAC PUSH2 0x2B17 JUMP JUMPDEST JUMPDEST PUSH2 0x2BB6 DUP3 PUSH2 0x2B06 JUMP JUMPDEST SWAP1 POP PUSH1 0x20 DUP2 ADD SWAP1 POP SWAP2 SWAP1 POP JUMP JUMPDEST DUP3 DUP2 DUP4 CALLDATACOPY PUSH1 0x0 DUP4 DUP4 ADD MSTORE POP POP POP JUMP JUMPDEST PUSH1 0x0 PUSH2 0x2BE5 PUSH2 0x2BE0 DUP5 PUSH2 0x2B92 JUMP JUMPDEST PUSH2 0x2B77 JUMP JUMPDEST SWAP1 POP DUP3 DUP2 MSTORE PUSH1 0x20 DUP2 ADD DUP5 DUP5 DUP5 ADD GT ISZERO PUSH2 0x2C01 JUMPI PUSH2 0x2C00 PUSH2 0x2B01 JUMP JUMPDEST JUMPDEST PUSH2 0x2C0C DUP5 DUP3 DUP6 PUSH2 0x2BC3 JUMP JUMPDEST POP SWAP4 SWAP3 POP POP POP JUMP JUMPDEST PUSH1 0x0 DUP3 PUSH1 0x1F DUP4 ADD SLT PUSH2 0x2C29 JUMPI PUSH2 0x2C28 PUSH2 0x2AFC JUMP JUMPDEST JUMPDEST DUP2 CALLDATALOAD PUSH2 0x2C39 DUP5 DUP3 PUSH1 0x20 DUP7 ADD PUSH2 0x2BD2 JUMP JUMPDEST SWAP2 POP POP SWAP3 SWAP2 POP POP JUMP JUMPDEST PUSH1 0x0 DUP1 PUSH1 0x40 DUP4 DUP6 SUB SLT ISZERO PUSH2 0x2C59 JUMPI PUSH2 0x2C58 PUSH2 0x297C JUMP JUMPDEST JUMPDEST PUSH1 0x0 PUSH2 0x2C67 DUP6 DUP3 DUP7 ADD PUSH2 0x2A7D JUMP JUMPDEST SWAP3 POP POP PUSH1 0x20 DUP4 ADD CALLDATALOAD PUSH8 0xFFFFFFFFFFFFFFFF DUP2 GT ISZERO PUSH2 0x2C88 JUMPI PUSH2 0x2C87 PUSH2 0x2981 JUMP JUMPDEST JUMPDEST PUSH2 0x2C94 DUP6 DUP3 DUP7 ADD PUSH2 0x2C14 JUMP JUMPDEST SWAP2 POP POP SWAP3 POP SWAP3 SWAP1 POP JUMP JUMPDEST PUSH1 0x0 PUSH1 0x20 DUP3 DUP5 SUB SLT ISZERO PUSH2 0x2CB4 JUMPI PUSH2 0x2CB3 PUSH2 0x297C JUMP JUMPDEST JUMPDEST PUSH1 0x0 PUSH2 0x2CC2 DUP5 DUP3 DUP6 ADD PUSH2 0x2A7D JUMP JUMPDEST SWAP2 POP POP SWAP3 SWAP2 POP POP JUMP JUMPDEST PUSH1 0x0 PUSH1 0x20 DUP3 DUP5 SUB SLT ISZERO PUSH2 0x2CE1 JUMPI PUSH2 0x2CE0 PUSH2 0x297C JUMP JUMPDEST JUMPDEST PUSH1 0x0 PUSH2 0x2CEF DUP5 DUP3 DUP6 ADD PUSH2 0x29A7 JUMP JUMPDEST SWAP2 POP POP SWAP3 SWAP2 POP POP JUMP JUMPDEST PUSH2 0x2D01 DUP2 PUSH2 0x2A54 JUMP JUMPDEST DUP3 MSTORE POP POP JUMP JUMPDEST PUSH1 0x0 DUP2 MLOAD SWAP1 POP SWAP2 SWAP1 POP JUMP JUMPDEST PUSH1 0x0 DUP3 DUP3 MSTORE PUSH1 0x20 DUP3 ADD SWAP1 POP SWAP3 SWAP2 POP POP JUMP JUMPDEST PUSH1 0x0 JUMPDEST DUP4 DUP2 LT ISZERO PUSH2 0x2D41 JUMPI DUP1 DUP3 ADD MLOAD DUP2 DUP5 ADD MSTORE PUSH1 0x20 DUP2 ADD SWAP1 POP PUSH2 0x2D26 JUMP JUMPDEST PUSH1 0x0 DUP5 DUP5 ADD MSTORE POP POP POP POP JUMP JUMPDEST PUSH1 0x0 PUSH2 0x2D58 DUP3 PUSH2 0x2D07 JUMP JUMPDEST PUSH2 0x2D62 DUP2 DUP6 PUSH2 0x2D12 JUMP JUMPDEST SWAP4 POP PUSH2 0x2D72 DUP2 DUP6 PUSH1 0x20 DUP7 ADD PUSH2 0x2D23 JUMP JUMPDEST PUSH2 0x2D7B DUP2 PUSH2 0x2B06 JUMP JUMPDEST DUP5 ADD SWAP2 POP POP SWAP3 SWAP2 POP POP JUMP JUMPDEST PUSH1 0x0 DUP2 ISZERO ISZERO SWAP1 POP SWAP2 SWAP1 POP JUMP JUMPDEST PUSH2 0x2D9B DUP2 PUSH2 0x2D86 JUMP JUMPDEST DUP3 MSTORE POP POP JUMP JUMPDEST PUSH1 0x0 PUSH1 0xC0 DUP3 ADD SWAP1 POP PUSH2 0x2DB6 PUSH1 0x0 DUP4 ADD DUP10 PUSH2 0x2CF8 JUMP JUMPDEST PUSH2 0x2DC3 PUSH1 0x20 DUP4 ADD DUP9 PUSH2 0x2CF8 JUMP JUMPDEST DUP2 DUP2 SUB PUSH1 0x40 DUP4 ADD MSTORE PUSH2 0x2DD5 DUP2 DUP8 PUSH2 0x2D4D JUMP JUMPDEST SWAP1 POP DUP2 DUP2 SUB PUSH1 0x60 DUP4 ADD MSTORE PUSH2 0x2DE9 DUP2 DUP7 PUSH2 0x2D4D JUMP JUMPDEST SWAP1 POP PUSH2 0x2DF8 PUSH1 0x80 DUP4 ADD DUP6 PUSH2 0x2D92 JUMP JUMPDEST PUSH2 0x2E05 PUSH1 0xA0 DUP4 ADD DUP5 PUSH2 0x2AD2 JUMP JUMPDEST SWAP8 SWAP7 POP POP POP POP POP POP POP JUMP JUMPDEST PUSH32 0x4E487B7100000000000000000000000000000000000000000000000000000000 PUSH1 0x0 MSTORE PUSH1 0x21 PUSH1 0x4 MSTORE PUSH1 0x24 PUSH1 0x0 REVERT JUMPDEST PUSH1 0x4 DUP2 LT PUSH2 0x2E50 JUMPI PUSH2 0x2E4F PUSH2 0x2E10 JUMP JUMPDEST JUMPDEST POP JUMP JUMPDEST PUSH1 0x0 DUP2 SWAP1 POP PUSH2 0x2E61 DUP3 PUSH2 0x2E3F JUMP JUMPDEST SWAP2 SWAP1 POP JUMP JUMPDEST PUSH1 0x0 PUSH2 0x2E71 DUP3 PUSH2 0x2E53 JUMP JUMPDEST SWAP1 POP SWAP2 SWAP1 POP JUMP JUMPDEST PUSH2 0x2E81 DUP2 PUSH2 0x2E66 JUMP JUMPDEST DUP3 MSTORE POP POP JUMP JUMPDEST PUSH1 0x0 PUSH1 0xA0 DUP3 ADD SWAP1 POP PUSH2 0x2E9C PUSH1 0x0 DUP4 ADD DUP9 PUSH2 0x2CF8 JUMP JUMPDEST PUSH2 0x2EA9 PUSH1 0x20 DUP4 ADD DUP8 PUSH2 0x2AD2 JUMP JUMPDEST PUSH2 0x2EB6 PUSH1 0x40 DUP4 ADD DUP7 PUSH2 0x2AD2 JUMP JUMPDEST PUSH2 0x2EC3 PUSH1 0x60 DUP4 ADD DUP6 PUSH2 0x2E78 JUMP JUMPDEST PUSH2 0x2ED0 PUSH1 0x80 DUP4 ADD DUP5 PUSH2 0x2D92 JUMP JUMPDEST SWAP7 SWAP6 POP POP POP POP POP POP JUMP JUMPDEST PUSH1 0x3 DUP2 LT PUSH2 0x2EEB JUMPI PUSH2 0x2EEA PUSH2 0x2E10 JUMP JUMPDEST JUMPDEST POP JUMP JUMPDEST PUSH1 0x0 DUP2 SWAP1 POP PUSH2 0x2EFC DUP3 PUSH2 0x2EDA JUMP JUMPDEST SWAP2 SWAP1 POP JUMP JUMPDEST PUSH1 0x0 PUSH2 0x2F0C DUP3 PUSH2 0x2EEE JUMP JUMPDEST SWAP1 POP SWAP2 SWAP1 POP JUMP JUMPDEST PUSH2 0x2F1C DUP2 PUSH2 0x2F01 JUMP JUMPDEST DUP3 MSTORE POP POP JUMP JUMPDEST PUSH1 0x0 PUSH1 0x20 DUP3 ADD SWAP1 POP PUSH2 0x2F37 PUSH1 0x0 DUP4 ADD DUP5 PUSH2 0x2F13 JUMP JUMPDEST SWAP3 SWAP2 POP POP JUMP JUMPDEST PUSH1 0x0 PUSH1 0x20 DUP3 ADD SWAP1 POP PUSH2 0x2F52 PUSH1 0x0 DUP4 ADD DUP5 PUSH2 0x2CF8 JUMP JUMPDEST SWAP3 SWAP2 POP POP JUMP JUMPDEST PUSH1 0x3 DUP2 LT PUSH2 0x2F65 JUMPI PUSH1 0x0 DUP1 REVERT JUMPDEST POP JUMP JUMPDEST PUSH1 0x0 DUP2 CALLDATALOAD SWAP1 POP PUSH2 0x2F77 DUP2 PUSH2 0x2F58 JUMP JUMPDEST SWAP3 SWAP2 POP POP JUMP JUMPDEST PUSH1 0x0 DUP1 PUSH1 0x40 DUP4 DUP6 SUB SLT ISZERO PUSH2 0x2F94 JUMPI PUSH2 0x2F93 PUSH2 0x297C JUMP JUMPDEST JUMPDEST PUSH1 0x0 PUSH2 0x2FA2 DUP6 DUP3 DUP7 ADD PUSH2 0x2A7D JUMP JUMPDEST SWAP3 POP POP PUSH1 0x20 PUSH2 0x2FB3 DUP6 DUP3 DUP7 ADD PUSH2 0x2F68 JUMP JUMPDEST SWAP2 POP POP SWAP3 POP SWAP3 SWAP1 POP JUMP JUMPDEST PUSH1 0x0 DUP2 MLOAD SWAP1 POP SWAP2 SWAP1 POP JUMP JUMPDEST PUSH1 0x0 DUP3 DUP3 MSTORE PUSH1 0x20 DUP3 ADD SWAP1 POP SWAP3 SWAP2 POP POP JUMP JUMPDEST PUSH1 0x0 DUP2 SWAP1 POP PUSH1 0x20 DUP3 ADD SWAP1 POP SWAP2 SWAP1 POP JUMP JUMPDEST PUSH2 0x2FF2 DUP2 PUSH2 0x2986 JUMP JUMPDEST DUP3 MSTORE POP POP JUMP JUMPDEST PUSH2 0x3001 DUP2 PUSH2 0x2E66 JUMP JUMPDEST DUP3 MSTORE POP POP JUMP JUMPDEST PUSH1 0x80 DUP3 ADD PUSH1 0x0 DUP3 ADD MLOAD PUSH2 0x301D PUSH1 0x0 DUP6 ADD DUP3 PUSH2 0x2FE9 JUMP JUMPDEST POP PUSH1 0x20 DUP3 ADD MLOAD PUSH2 0x3030 PUSH1 0x20 DUP6 ADD DUP3 PUSH2 0x2FE9 JUMP JUMPDEST POP PUSH1 0x40 DUP3 ADD MLOAD PUSH2 0x3043 PUSH1 0x40 DUP6 ADD DUP3 PUSH2 0x2FE9 JUMP JUMPDEST POP PUSH1 0x60 DUP3 ADD MLOAD PUSH2 0x3056 PUSH1 0x60 DUP6 ADD DUP3 PUSH2 0x2FF8 JUMP JUMPDEST POP POP POP POP JUMP JUMPDEST PUSH1 0x0 PUSH2 0x3068 DUP4 DUP4 PUSH2 0x3007 JUMP JUMPDEST PUSH1 0x80 DUP4 ADD SWAP1 POP SWAP3 SWAP2 POP POP JUMP JUMPDEST PUSH1 0x0 PUSH1 0x20 DUP3 ADD SWAP1 POP SWAP2 SWAP1 POP JUMP JUMPDEST PUSH1 0x0 PUSH2 0x308C DUP3 PUSH2 0x2FBD JUMP JUMPDEST PUSH2 0x3096 DUP2 DUP6 PUSH2 0x2FC8 JUMP JUMPDEST SWAP4 POP PUSH2 0x30A1 DUP4 PUSH2 0x2FD9 JUMP JUMPDEST DUP1 PUSH1 0x0 JUMPDEST DUP4 DUP2 LT ISZERO PUSH2 0x30D2 JUMPI DUP2 MLOAD PUSH2 0x30B9 DUP9 DUP3 PUSH2 0x305C JUMP JUMPDEST SWAP8 POP PUSH2 0x30C4 DUP4 PUSH2 0x3074 JUMP JUMPDEST SWAP3 POP POP PUSH1 0x1 DUP2 ADD SWAP1 POP PUSH2 0x30A5 JUMP JUMPDEST POP DUP6 SWAP4 POP POP POP POP SWAP3 SWAP2 POP POP JUMP JUMPDEST PUSH1 0x0 PUSH1 0x20 DUP3 ADD SWAP1 POP DUP2 DUP2 SUB PUSH1 0x0 DUP4 ADD MSTORE PUSH2 0x30F9 DUP2 DUP5 PUSH2 0x3081 JUMP JUMPDEST SWAP1 POP SWAP3 SWAP2 POP POP JUMP JUMPDEST PUSH1 0x0 PUSH1 0x40 DUP3 ADD SWAP1 POP PUSH2 0x3116 PUSH1 0x0 DUP4 ADD DUP6 PUSH2 0x2F13 JUMP JUMPDEST PUSH2 0x3123 PUSH1 0x20 DUP4 ADD DUP5 PUSH2 0x2D92 JUMP JUMPDEST SWAP4 SWAP3 POP POP POP JUMP JUMPDEST PUSH1 0x0 DUP2 MLOAD SWAP1 POP SWAP2 SWAP1 POP JUMP JUMPDEST PUSH1 0x0 DUP3 DUP3 MSTORE PUSH1 0x20 DUP3 ADD SWAP1 POP SWAP3 SWAP2 POP POP JUMP JUMPDEST PUSH1 0x0 DUP2 SWAP1 POP PUSH1 0x20 DUP3 ADD SWAP1 POP SWAP2 SWAP1 POP JUMP JUMPDEST PUSH2 0x315F DUP2 PUSH2 0x2A54 JUMP JUMPDEST DUP3 MSTORE POP POP JUMP JUMPDEST PUSH1 0x0 DUP3 DUP3 MSTORE PUSH1 0x20 DUP3 ADD SWAP1 POP SWAP3 SWAP2 POP POP JUMP JUMPDEST PUSH1 0x0 PUSH2 0x3181 DUP3 PUSH2 0x2D07 JUMP JUMPDEST PUSH2 0x318B DUP2 DUP6 PUSH2 0x3165 JUMP JUMPDEST SWAP4 POP PUSH2 0x319B DUP2 DUP6 PUSH1 0x20 DUP7 ADD PUSH2 0x2D23 JUMP JUMPDEST PUSH2 0x31A4 DUP2 PUSH2 0x2B06 JUMP JUMPDEST DUP5 ADD SWAP2 POP POP SWAP3 SWAP2 POP POP JUMP JUMPDEST PUSH2 0x31B8 DUP2 PUSH2 0x2D86 JUMP JUMPDEST DUP3 MSTORE POP POP JUMP JUMPDEST PUSH1 0x0 PUSH1 0xC0 DUP4 ADD PUSH1 0x0 DUP4 ADD MLOAD PUSH2 0x31D6 PUSH1 0x0 DUP7 ADD DUP3 PUSH2 0x3156 JUMP JUMPDEST POP PUSH1 0x20 DUP4 ADD MLOAD PUSH2 0x31E9 PUSH1 0x20 DUP7 ADD DUP3 PUSH2 0x3156 JUMP JUMPDEST POP PUSH1 0x40 DUP4 ADD MLOAD DUP5 DUP3 SUB PUSH1 0x40 DUP7 ADD MSTORE PUSH2 0x3201 DUP3 DUP3 PUSH2 0x3176 JUMP JUMPDEST SWAP2 POP POP PUSH1 0x60 DUP4 ADD MLOAD DUP5 DUP3 SUB PUSH1 0x60 DUP7 ADD MSTORE PUSH2 0x321B DUP3 DUP3 PUSH2 0x3176 JUMP JUMPDEST SWAP2 POP POP PUSH1 0x80 DUP4 ADD MLOAD PUSH2 0x3230 PUSH1 0x80 DUP7 ADD DUP3 PUSH2 0x31AF JUMP JUMPDEST POP PUSH1 0xA0 DUP4 ADD MLOAD PUSH2 0x3243 PUSH1 0xA0 DUP7 ADD DUP3 PUSH2 0x2FE9 JUMP JUMPDEST POP DUP1 SWAP2 POP POP SWAP3 SWAP2 POP POP JUMP JUMPDEST PUSH1 0x0 PUSH2 0x325A DUP4 DUP4 PUSH2 0x31BE JUMP JUMPDEST SWAP1 POP SWAP3 SWAP2 POP POP JUMP JUMPDEST PUSH1 0x0 PUSH1 0x20 DUP3 ADD SWAP1 POP SWAP2 SWAP1 POP JUMP JUMPDEST PUSH1 0x0 PUSH2 0x327A DUP3 PUSH2 0x312A JUMP JUMPDEST PUSH2 0x3284 DUP2 DUP6 PUSH2 0x3135 JUMP JUMPDEST SWAP4 POP DUP4 PUSH1 0x20 DUP3 MUL DUP6 ADD PUSH2 0x3296 DUP6 PUSH2 0x3146 JUMP JUMPDEST DUP1 PUSH1 0x0 JUMPDEST DUP6 DUP2 LT ISZERO PUSH2 0x32D2 JUMPI DUP5 DUP5 SUB DUP10 MSTORE DUP2 MLOAD PUSH2 0x32B3 DUP6 DUP3 PUSH2 0x324E JUMP JUMPDEST SWAP5 POP PUSH2 0x32BE DUP4 PUSH2 0x3262 JUMP JUMPDEST SWAP3 POP PUSH1 0x20 DUP11 ADD SWAP10 POP POP PUSH1 0x1 DUP2 ADD SWAP1 POP PUSH2 0x329A JUMP JUMPDEST POP DUP3 SWAP8 POP DUP8 SWAP6 POP POP POP POP POP POP SWAP3 SWAP2 POP POP JUMP JUMPDEST PUSH1 0x0 PUSH1 0x20 DUP3 ADD SWAP1 POP DUP2 DUP2 SUB PUSH1 0x0 DUP4 ADD MSTORE PUSH2 0x32FE DUP2 DUP5 PUSH2 0x326F JUMP JUMPDEST SWAP1 POP SWAP3 SWAP2 POP POP JUMP JUMPDEST PUSH1 0x0 PUSH1 0x20 DUP3 ADD SWAP1 POP PUSH2 0x331B PUSH1 0x0 DUP4 ADD DUP5 PUSH2 0x2D92 JUMP JUMPDEST SWAP3 SWAP2 POP POP JUMP JUMPDEST PUSH1 0x0 DUP1 PUSH1 0x40 DUP4 DUP6 SUB SLT ISZERO PUSH2 0x3338 JUMPI PUSH2 0x3337 PUSH2 0x297C JUMP JUMPDEST JUMPDEST PUSH1 0x0 PUSH2 0x3346 DUP6 DUP3 DUP7 ADD PUSH2 0x29A7 JUMP JUMPDEST SWAP3 POP POP PUSH1 0x20 DUP4 ADD CALLDATALOAD PUSH8 0xFFFFFFFFFFFFFFFF DUP2 GT ISZERO PUSH2 0x3367 JUMPI PUSH2 0x3366 PUSH2 0x2981 JUMP JUMPDEST JUMPDEST PUSH2 0x3373 DUP6 DUP3 DUP7 ADD PUSH2 0x2C14 JUMP JUMPDEST SWAP2 POP POP SWAP3 POP SWAP3 SWAP1 POP JUMP JUMPDEST PUSH1 0x0 DUP2 MLOAD SWAP1 POP SWAP2 SWAP1 POP JUMP JUMPDEST PUSH1 0x0 DUP3 DUP3 MSTORE PUSH1 0x20 DUP3 ADD SWAP1 POP SWAP3 SWAP2 POP POP JUMP JUMPDEST PUSH1 0x0 DUP2 SWAP1 POP PUSH1 0x20 DUP3 ADD SWAP1 POP SWAP2 SWAP1 POP JUMP JUMPDEST PUSH1 0x0 PUSH2 0x33B5 DUP4 DUP4 PUSH2 0x3156 JUMP JUMPDEST PUSH1 0x20 DUP4 ADD SWAP1 POP SWAP3 SWAP2 POP POP JUMP JUMPDEST PUSH1 0x0 PUSH1 0x20 DUP3 ADD SWAP1 POP SWAP2 SWAP1 POP JUMP JUMPDEST PUSH1 0x0 PUSH2 0x33D9 DUP3 PUSH2 0x337D JUMP JUMPDEST PUSH2 0x33E3 DUP2 DUP6 PUSH2 0x3388 JUMP JUMPDEST SWAP4 POP PUSH2 0x33EE DUP4 PUSH2 0x3399 JUMP JUMPDEST DUP1 PUSH1 0x0 JUMPDEST DUP4 DUP2 LT ISZERO PUSH2 0x341F JUMPI DUP2 MLOAD PUSH2 0x3406 DUP9 DUP3 PUSH2 0x33A9 JUMP JUMPDEST SWAP8 POP PUSH2 0x3411 DUP4 PUSH2 0x33C1 JUMP JUMPDEST SWAP3 POP POP PUSH1 0x1 DUP2 ADD SWAP1 POP PUSH2 0x33F2 JUMP JUMPDEST POP DUP6 SWAP4 POP POP POP POP SWAP3 SWAP2 POP POP JUMP JUMPDEST PUSH1 0x0 PUSH1 0x20 DUP3 ADD SWAP1 POP DUP2 DUP2 SUB PUSH1 0x0 DUP4 ADD MSTORE PUSH2 0x3446 DUP2 DUP5 PUSH2 0x33CE JUMP JUMPDEST SWAP1 POP SWAP3 SWAP2 POP POP JUMP JUMPDEST PUSH1 0x0 PUSH1 0xC0 DUP4 ADD PUSH1 0x0 DUP4 ADD MLOAD PUSH2 0x3466 PUSH1 0x0 DUP7 ADD DUP3 PUSH2 0x3156 JUMP JUMPDEST POP PUSH1 0x20 DUP4 ADD MLOAD PUSH2 0x3479 PUSH1 0x20 DUP7 ADD DUP3 PUSH2 0x3156 JUMP JUMPDEST POP PUSH1 0x40 DUP4 ADD MLOAD DUP5 DUP3 SUB PUSH1 0x40 DUP7 ADD MSTORE PUSH2 0x3491 DUP3 DUP3 PUSH2 0x3176 JUMP JUMPDEST SWAP2 POP POP PUSH1 0x60 DUP4 ADD MLOAD DUP5 DUP3 SUB PUSH1 0x60 DUP7 ADD MSTORE PUSH2 0x34AB DUP3 DUP3 PUSH2 0x3176 JUMP JUMPDEST SWAP2 POP POP PUSH1 0x80 DUP4 ADD MLOAD PUSH2 0x34C0 PUSH1 0x80 DUP7 ADD DUP3 PUSH2 0x31AF JUMP JUMPDEST POP PUSH1 0xA0 DUP4 ADD MLOAD PUSH2 0x34D3 PUSH1 0xA0 DUP7 ADD DUP3 PUSH2 0x2FE9 JUMP JUMPDEST POP DUP1 SWAP2 POP POP SWAP3 SWAP2 POP POP JUMP JUMPDEST PUSH1 0x0 PUSH1 0x20 DUP3 ADD SWAP1 POP DUP2 DUP2 SUB PUSH1 0x0 DUP4 ADD MSTORE PUSH2 0x34F8 DUP2 DUP5 PUSH2 0x344E JUMP JUMPDEST SWAP1 POP SWAP3 SWAP2 POP POP JUMP JUMPDEST PUSH1 0x0 DUP2 SWAP1 POP SWAP2 SWAP1 POP JUMP JUMPDEST PUSH1 0x0 PUSH2 0x3525 PUSH2 0x3520 PUSH2 0x351B DUP5 PUSH2 0x2A34 JUMP JUMPDEST PUSH2 0x3500 JUMP JUMPDEST PUSH2 0x2A34 JUMP JUMPDEST SWAP1 POP SWAP2 SWAP1 POP JUMP JUMPDEST PUSH1 0x0 PUSH2 0x3537 DUP3 PUSH2 0x350A JUMP JUMPDEST SWAP1 POP SWAP2 SWAP1 POP JUMP JUMPDEST PUSH1 0x0 PUSH2 0x3549 DUP3 PUSH2 0x352C JUMP JUMPDEST SWAP1 POP SWAP2 SWAP1 POP JUMP JUMPDEST PUSH2 0x3559 DUP2 PUSH2 0x353E JUMP JUMPDEST DUP3 MSTORE POP POP JUMP JUMPDEST PUSH1 0x0 PUSH1 0x20 DUP3 ADD SWAP1 POP PUSH2 0x3574 PUSH1 0x0 DUP4 ADD DUP5 PUSH2 0x3550 JUMP JUMPDEST SWAP3 SWAP2 POP POP JUMP JUMPDEST PUSH32 0x5265656E7472616E6379206973206E6F7420616C6C6F77656400000000000000 PUSH1 0x0 DUP3 ADD MSTORE POP JUMP JUMPDEST PUSH1 0x0 PUSH2 0x35B0 PUSH1 0x19 DUP4 PUSH2 0x2D12 JUMP JUMPDEST SWAP2 POP PUSH2 0x35BB DUP3 PUSH2 0x357A JUMP JUMPDEST PUSH1 0x20 DUP3 ADD SWAP1 POP SWAP2 SWAP1 POP JUMP JUMPDEST PUSH1 0x0 PUSH1 0x20 DUP3 ADD SWAP1 POP DUP2 DUP2 SUB PUSH1 0x0 DUP4 ADD MSTORE PUSH2 0x35DF DUP2 PUSH2 0x35A3 JUMP JUMPDEST SWAP1 POP SWAP2 SWAP1 POP JUMP JUMPDEST PUSH32 0x4F6E6C7920726567697374657265642070726F6475636572732063616E207065 PUSH1 0x0 DUP3 ADD MSTORE PUSH32 0x72666F726D207468697320616374696F6E000000000000000000000000000000 PUSH1 0x20 DUP3 ADD MSTORE POP JUMP JUMPDEST PUSH1 0x0 PUSH2 0x3642 PUSH1 0x31 DUP4 PUSH2 0x2D12 JUMP JUMPDEST SWAP2 POP PUSH2 0x364D DUP3 PUSH2 0x35E6 JUMP JUMPDEST PUSH1 0x40 DUP3 ADD SWAP1 POP SWAP2 SWAP1 POP JUMP JUMPDEST PUSH1 0x0 PUSH1 0x20 DUP3 ADD SWAP1 POP DUP2 DUP2 SUB PUSH1 0x0 DUP4 ADD MSTORE PUSH2 0x3671 DUP2 PUSH2 0x3635 JUMP JUMPDEST SWAP1 POP SWAP2 SWAP1 POP JUMP JUMPDEST PUSH32 0x416D6F756E74206D7573742062652067726561746572207468616E207A65726F PUSH1 0x0 DUP3 ADD MSTORE POP JUMP JUMPDEST PUSH1 0x0 PUSH2 0x36AE PUSH1 0x20 DUP4 PUSH2 0x2D12 JUMP JUMPDEST SWAP2 POP PUSH2 0x36B9 DUP3 PUSH2 0x3678 JUMP JUMPDEST PUSH1 0x20 DUP3 ADD SWAP1 POP SWAP2 SWAP1 POP JUMP JUMPDEST PUSH1 0x0 PUSH1 0x20 DUP3 ADD SWAP1 POP DUP2 DUP2 SUB PUSH1 0x0 DUP4 ADD MSTORE PUSH2 0x36DD DUP2 PUSH2 0x36A1 JUMP JUMPDEST SWAP1 POP SWAP2 SWAP1 POP JUMP JUMPDEST PUSH32 0x5072696365206D7573742062652067726561746572207468616E207A65726F00 PUSH1 0x0 DUP3 ADD MSTORE POP JUMP JUMPDEST PUSH1 0x0 PUSH2 0x371A PUSH1 0x1F DUP4 PUSH2 0x2D12 JUMP JUMPDEST SWAP2 POP PUSH2 0x3725 DUP3 PUSH2 0x36E4 JUMP JUMPDEST PUSH1 0x20 DUP3 ADD SWAP1 POP SWAP2 SWAP1 POP JUMP JUMPDEST PUSH1 0x0 PUSH1 0x20 DUP3 ADD SWAP1 POP DUP2 DUP2 SUB PUSH1 0x0 DUP4 ADD MSTORE PUSH2 0x3749 DUP2 PUSH2 0x370D JUMP JUMPDEST SWAP1 POP SWAP2 SWAP1 POP JUMP JUMPDEST PUSH32 0x4578697374696E67206C697374696E67206D75737420626520696E6163746976 PUSH1 0x0 DUP3 ADD MSTORE PUSH32 0x6500000000000000000000000000000000000000000000000000000000000000 PUSH1 0x20 DUP3 ADD MSTORE POP JUMP JUMPDEST PUSH1 0x0 PUSH2 0x37AC PUSH1 0x21 DUP4 PUSH2 0x2D12 JUMP JUMPDEST SWAP2 POP PUSH2 0x37B7 DUP3 PUSH2 0x3750 JUMP JUMPDEST PUSH1 0x40 DUP3 ADD SWAP1 POP SWAP2 SWAP1 POP JUMP JUMPDEST PUSH1 0x0 PUSH1 0x20 DUP3 ADD SWAP1 POP DUP2 DUP2 SUB PUSH1 0x0 DUP4 ADD MSTORE PUSH2 0x37DB DUP2 PUSH2 0x379F JUMP JUMPDEST SWAP1 POP SWAP2 SWAP1 POP JUMP JUMPDEST PUSH1 0x0 PUSH1 0x60 DUP3 ADD SWAP1 POP PUSH2 0x37F7 PUSH1 0x0 DUP4 ADD DUP7 PUSH2 0x2AD2 JUMP JUMPDEST PUSH2 0x3804 PUSH1 0x20 DUP4 ADD DUP6 PUSH2 0x2AD2 JUMP JUMPDEST DUP2 DUP2 SUB PUSH1 0x40 DUP4 ADD MSTORE PUSH2 0x3816 DUP2 DUP5 PUSH2 0x2D4D JUMP JUMPDEST SWAP1 POP SWAP5 SWAP4 POP POP POP POP JUMP JUMPDEST PUSH32 0x456E65726779206973206E6F7420617661696C61626C6520666F722073616C65 PUSH1 0x0 DUP3 ADD MSTORE POP JUMP JUMPDEST PUSH1 0x0 PUSH2 0x3856 PUSH1 0x20 DUP4 PUSH2 0x2D12 JUMP JUMPDEST SWAP2 POP PUSH2 0x3861 DUP3 PUSH2 0x3820 JUMP JUMPDEST PUSH1 0x20 DUP3 ADD SWAP1 POP SWAP2 SWAP1 POP JUMP JUMPDEST PUSH1 0x0 PUSH1 0x20 DUP3 ADD SWAP1 POP DUP2 DUP2 SUB PUSH1 0x0 DUP4 ADD MSTORE PUSH2 0x3885 DUP2 PUSH2 0x3849 JUMP JUMPDEST SWAP1 POP SWAP2 SWAP1 POP JUMP JUMPDEST PUSH32 0x4E487B7100000000000000000000000000000000000000000000000000000000 PUSH1 0x0 MSTORE PUSH1 0x11 PUSH1 0x4 MSTORE PUSH1 0x24 PUSH1 0x0 REVERT JUMPDEST PUSH1 0x0 PUSH2 0x38C6 DUP3 PUSH2 0x2986 JUMP JUMPDEST SWAP2 POP PUSH2 0x38D1 DUP4 PUSH2 0x2986 JUMP JUMPDEST SWAP3 POP DUP3 DUP3 MUL PUSH2 0x38DF DUP2 PUSH2 0x2986 JUMP JUMPDEST SWAP2 POP DUP3 DUP3 DIV DUP5 EQ DUP4 ISZERO OR PUSH2 0x38F6 JUMPI PUSH2 0x38F5 PUSH2 0x388C JUMP JUMPDEST JUMPDEST POP SWAP3 SWAP2 POP POP JUMP JUMPDEST PUSH32 0x496E76616C6964207072696365206F7220657863656564732070726F64756365 PUSH1 0x0 DUP3 ADD MSTORE PUSH32 0x72277320737570706C7900000000000000000000000000000000000000000000 PUSH1 0x20 DUP3 ADD MSTORE POP JUMP JUMPDEST PUSH1 0x0 PUSH2 0x3959 PUSH1 0x2A DUP4 PUSH2 0x2D12 JUMP JUMPDEST SWAP2 POP PUSH2 0x3964 DUP3 PUSH2 0x38FD JUMP JUMPDEST PUSH1 0x40 DUP3 ADD SWAP1 POP SWAP2 SWAP1 POP JUMP JUMPDEST PUSH1 0x0 PUSH1 0x20 DUP3 ADD SWAP1 POP DUP2 DUP2 SUB PUSH1 0x0 DUP4 ADD MSTORE PUSH2 0x3988 DUP2 PUSH2 0x394C JUMP JUMPDEST SWAP1 POP SWAP2 SWAP1 POP JUMP JUMPDEST PUSH32 0x4E487B7100000000000000000000000000000000000000000000000000000000 PUSH1 0x0 MSTORE PUSH1 0x12 PUSH1 0x4 MSTORE PUSH1 0x24 PUSH1 0x0 REVERT JUMPDEST PUSH1 0x0 PUSH2 0x39C9 DUP3 PUSH2 0x2986 JUMP JUMPDEST SWAP2 POP PUSH2 0x39D4 DUP4 PUSH2 0x2986 JUMP JUMPDEST SWAP3 POP DUP3 PUSH2 0x39E4 JUMPI PUSH2 0x39E3 PUSH2 0x398F JUMP JUMPDEST JUMPDEST DUP3 DUP3 DIV SWAP1 POP SWAP3 SWAP2 POP POP JUMP JUMPDEST PUSH32 0x50726F647563657220646F6573206E6F74206861766520656E6F75676820656E PUSH1 0x0 DUP3 ADD MSTORE PUSH32 0x6572677900000000000000000000000000000000000000000000000000000000 PUSH1 0x20 DUP3 ADD MSTORE POP JUMP JUMPDEST PUSH1 0x0 PUSH2 0x3A4B PUSH1 0x24 DUP4 PUSH2 0x2D12 JUMP JUMPDEST SWAP2 POP PUSH2 0x3A56 DUP3 PUSH2 0x39EF JUMP JUMPDEST PUSH1 0x40 DUP3 ADD SWAP1 POP SWAP2 SWAP1 POP JUMP JUMPDEST PUSH1 0x0 PUSH1 0x20 DUP3 ADD SWAP1 POP DUP2 DUP2 SUB PUSH1 0x0 DUP4 ADD MSTORE PUSH2 0x3A7A DUP2 PUSH2 0x3A3E JUMP JUMPDEST SWAP1 POP SWAP2 SWAP1 POP JUMP JUMPDEST PUSH1 0x0 PUSH1 0x40 DUP3 ADD SWAP1 POP PUSH2 0x3A96 PUSH1 0x0 DUP4 ADD DUP6 PUSH2 0x2CF8 JUMP JUMPDEST PUSH2 0x3AA3 PUSH1 0x20 DUP4 ADD DUP5 PUSH2 0x2CF8 JUMP JUMPDEST SWAP4 SWAP3 POP POP POP JUMP JUMPDEST PUSH1 0x0 DUP2 MLOAD SWAP1 POP PUSH2 0x3AB9 DUP2 PUSH2 0x2990 JUMP JUMPDEST SWAP3 SWAP2 POP POP JUMP JUMPDEST PUSH1 0x0 PUSH1 0x20 DUP3 DUP5 SUB SLT ISZERO PUSH2 0x3AD5 JUMPI PUSH2 0x3AD4 PUSH2 0x297C JUMP JUMPDEST JUMPDEST PUSH1 0x0 PUSH2 0x3AE3 DUP5 DUP3 DUP6 ADD PUSH2 0x3AAA JUMP JUMPDEST SWAP2 POP POP SWAP3 SWAP2 POP POP JUMP JUMPDEST PUSH32 0x416C6C6F77616E636520696E73756666696369656E7400000000000000000000 PUSH1 0x0 DUP3 ADD MSTORE POP JUMP JUMPDEST PUSH1 0x0 PUSH2 0x3B22 PUSH1 0x16 DUP4 PUSH2 0x2D12 JUMP JUMPDEST SWAP2 POP PUSH2 0x3B2D DUP3 PUSH2 0x3AEC JUMP JUMPDEST PUSH1 0x20 DUP3 ADD SWAP1 POP SWAP2 SWAP1 POP JUMP JUMPDEST PUSH1 0x0 PUSH1 0x20 DUP3 ADD SWAP1 POP DUP2 DUP2 SUB PUSH1 0x0 DUP4 ADD MSTORE PUSH2 0x3B51 DUP2 PUSH2 0x3B15 JUMP JUMPDEST SWAP1 POP SWAP2 SWAP1 POP JUMP JUMPDEST PUSH32 0x496E73756666696369656E7420746F6B656E2062616C616E6365000000000000 PUSH1 0x0 DUP3 ADD MSTORE POP JUMP JUMPDEST PUSH1 0x0 PUSH2 0x3B8E PUSH1 0x1A DUP4 PUSH2 0x2D12 JUMP JUMPDEST SWAP2 POP PUSH2 0x3B99 DUP3 PUSH2 0x3B58 JUMP JUMPDEST PUSH1 0x20 DUP3 ADD SWAP1 POP SWAP2 SWAP1 POP JUMP JUMPDEST PUSH1 0x0 PUSH1 0x20 DUP3 ADD SWAP1 POP DUP2 DUP2 SUB PUSH1 0x0 DUP4 ADD MSTORE PUSH2 0x3BBD DUP2 PUSH2 0x3B81 JUMP JUMPDEST SWAP1 POP SWAP2 SWAP1 POP JUMP JUMPDEST PUSH1 0x0 PUSH1 0x60 DUP3 ADD SWAP1 POP PUSH2 0x3BD9 PUSH1 0x0 DUP4 ADD DUP7 PUSH2 0x2CF8 JUMP JUMPDEST PUSH2 0x3BE6 PUSH1 0x20 DUP4 ADD DUP6 PUSH2 0x2CF8 JUMP JUMPDEST PUSH2 0x3BF3 PUSH1 0x40 DUP4 ADD DUP5 PUSH2 0x2AD2 JUMP JUMPDEST SWAP5 SWAP4 POP POP POP POP JUMP JUMPDEST PUSH2 0x3C04 DUP2 PUSH2 0x2D86 JUMP JUMPDEST DUP2 EQ PUSH2 0x3C0F JUMPI PUSH1 0x0 DUP1 REVERT JUMPDEST POP JUMP JUMPDEST PUSH1 0x0 DUP2 MLOAD SWAP1 POP PUSH2 0x3C21 DUP2 PUSH2 0x3BFB JUMP JUMPDEST SWAP3 SWAP2 POP POP JUMP JUMPDEST PUSH1 0x0 PUSH1 0x20 DUP3 DUP5 SUB SLT ISZERO PUSH2 0x3C3D JUMPI PUSH2 0x3C3C PUSH2 0x297C JUMP JUMPDEST JUMPDEST PUSH1 0x0 PUSH2 0x3C4B DUP5 DUP3 DUP6 ADD PUSH2 0x3C12 JUMP JUMPDEST SWAP2 POP POP SWAP3 SWAP2 POP POP JUMP JUMPDEST PUSH1 0x0 PUSH2 0x3C5F DUP3 PUSH2 0x2986 JUMP JUMPDEST SWAP2 POP PUSH2 0x3C6A DUP4 PUSH2 0x2986 JUMP JUMPDEST SWAP3 POP DUP3 DUP3 SUB SWAP1 POP DUP2 DUP2 GT ISZERO PUSH2 0x3C82 JUMPI PUSH2 0x3C81 PUSH2 0x388C JUMP JUMPDEST JUMPDEST SWAP3 SWAP2 POP POP JUMP JUMPDEST PUSH1 0x0 PUSH1 0x40 DUP3 ADD SWAP1 POP PUSH2 0x3C9D PUSH1 0x0 DUP4 ADD DUP6 PUSH2 0x2AD2 JUMP JUMPDEST PUSH2 0x3CAA PUSH1 0x20 DUP4 ADD DUP5 PUSH2 0x2AD2 JUMP JUMPDEST SWAP4 SWAP3 POP POP POP JUMP JUMPDEST PUSH32 0x4E487B7100000000000000000000000000000000000000000000000000000000 PUSH1 0x0 MSTORE PUSH1 0x22 PUSH1 0x4 MSTORE PUSH1 0x24 PUSH1 0x0 REVERT JUMPDEST PUSH1 0x0 PUSH1 0x2 DUP3 DIV SWAP1 POP PUSH1 0x1 DUP3 AND DUP1 PUSH2 0x3CF8 JUMPI PUSH1 0x7F DUP3 AND SWAP2 POP JUMPDEST PUSH1 0x20 DUP3 LT DUP2 SUB PUSH2 0x3D0B JUMPI PUSH2 0x3D0A PUSH2 0x3CB1 JUMP JUMPDEST JUMPDEST POP SWAP2 SWAP1 POP JUMP JUMPDEST PUSH1 0x0 DUP2 SWAP1 POP DUP2 PUSH1 0x0 MSTORE PUSH1 0x20 PUSH1 0x0 KECCAK256 SWAP1 POP SWAP2 SWAP1 POP JUMP JUMPDEST PUSH1 0x0 PUSH1 0x20 PUSH1 0x1F DUP4 ADD DIV SWAP1 POP SWAP2 SWAP1 POP JUMP JUMPDEST PUSH1 0x0 DUP3 DUP3 SHL SWAP1 POP SWAP3 SWAP2 POP POP JUMP JUMPDEST PUSH1 0x0 PUSH1 0x8 DUP4 MUL PUSH2 0x3D73 PUSH32 0xFFFFFFFFFFFFFFFFFFFFFFFFFFFFFFFFFFFFFFFFFFFFFFFFFFFFFFFFFFFFFFFF DUP3 PUSH2 0x3D36 JUMP JUMPDEST PUSH2 0x3D7D DUP7 DUP4 PUSH2 0x3D36 JUMP JUMPDEST SWAP6 POP DUP1 NOT DUP5 AND SWAP4 POP DUP1 DUP7 AND DUP5 OR SWAP3 POP POP POP SWAP4 SWAP3 POP POP POP JUMP JUMPDEST PUSH1 0x0 PUSH2 0x3DB0 PUSH2 0x3DAB PUSH2 0x3DA6 DUP5 PUSH2 0x2986 JUMP JUMPDEST PUSH2 0x3500 JUMP JUMPDEST PUSH2 0x2986 JUMP JUMPDEST SWAP1 POP SWAP2 SWAP1 POP JUMP JUMPDEST PUSH1 0x0 DUP2 SWAP1 POP SWAP2 SWAP1 POP JUMP JUMPDEST PUSH2 0x3DCA DUP4 PUSH2 0x3D95 JUMP JUMPDEST PUSH2 0x3DDE PUSH2 0x3DD6 DUP3 PUSH2 0x3DB7 JUMP JUMPDEST DUP5 DUP5 SLOAD PUSH2 0x3D43 JUMP JUMPDEST DUP3 SSTORE POP POP POP POP JUMP JUMPDEST PUSH1 0x0 SWAP1 JUMP JUMPDEST PUSH2 0x3DF3 PUSH2 0x3DE6 JUMP JUMPDEST PUSH2 0x3DFE DUP2 DUP5 DUP5 PUSH2 0x3DC1 JUMP JUMPDEST POP POP POP JUMP JUMPDEST JUMPDEST DUP2 DUP2 LT ISZERO PUSH2 0x3E22 JUMPI PUSH2 0x3E17 PUSH1 0x0 DUP3 PUSH2 0x3DEB JUMP JUMPDEST PUSH1 0x1 DUP2 ADD SWAP1 POP PUSH2 0x3E04 JUMP JUMPDEST POP POP JUMP JUMPDEST PUSH1 0x1F DUP3 GT ISZERO PUSH2 0x3E67 JUMPI PUSH2 0x3E38 DUP2 PUSH2 0x3D11 JUMP JUMPDEST PUSH2 0x3E41 DUP5 PUSH2 0x3D26 JUMP JUMPDEST DUP2 ADD PUSH1 0x20 DUP6 LT ISZERO PUSH2 0x3E50 JUMPI DUP2 SWAP1 POP JUMPDEST PUSH2 0x3E64 PUSH2 0x3E5C DUP6 PUSH2 0x3D26 JUMP JUMPDEST DUP4 ADD DUP3 PUSH2 0x3E03 JUMP JUMPDEST POP POP JUMPDEST POP POP POP JUMP JUMPDEST PUSH1 0x0 DUP3 DUP3 SHR SWAP1 POP SWAP3 SWAP2 POP POP JUMP JUMPDEST PUSH1 0x0 PUSH2 0x3E8A PUSH1 0x0 NOT DUP5 PUSH1 0x8 MUL PUSH2 0x3E6C JUMP JUMPDEST NOT DUP1 DUP4 AND SWAP2 POP POP SWAP3 SWAP2 POP POP JUMP JUMPDEST PUSH1 0x0 PUSH2 0x3EA3 DUP4 DUP4 PUSH2 0x3E79 JUMP JUMPDEST SWAP2 POP DUP3 PUSH1 0x2 MUL DUP3 OR SWAP1 POP SWAP3 SWAP2 POP POP JUMP JUMPDEST PUSH2 0x3EBC DUP3 PUSH2 0x2D07 JUMP JUMPDEST PUSH8 0xFFFFFFFFFFFFFFFF DUP2 GT ISZERO PUSH2 0x3ED5 JUMPI PUSH2 0x3ED4 PUSH2 0x2B17 JUMP JUMPDEST JUMPDEST PUSH2 0x3EDF DUP3 SLOAD PUSH2 0x3CE0 JUMP JUMPDEST PUSH2 0x3EEA DUP3 DUP3 DUP6 PUSH2 0x3E26 JUMP JUMPDEST PUSH1 0x0 PUSH1 0x20 SWAP1 POP PUSH1 0x1F DUP4 GT PUSH1 0x1 DUP2 EQ PUSH2 0x3F1D JUMPI PUSH1 0x0 DUP5 ISZERO PUSH2 0x3F0B JUMPI DUP3 DUP8 ADD MLOAD SWAP1 POP JUMPDEST PUSH2 0x3F15 DUP6 DUP3 PUSH2 0x3E97 JUMP JUMPDEST DUP7 SSTORE POP PUSH2 0x3F7D JUMP JUMPDEST PUSH1 0x1F NOT DUP5 AND PUSH2 0x3F2B DUP7 PUSH2 0x3D11 JUMP JUMPDEST PUSH1 0x0 JUMPDEST DUP3 DUP2 LT ISZERO PUSH2 0x3F53 JUMPI DUP5 DUP10 ADD MLOAD DUP3 SSTORE PUSH1 0x1 DUP3 ADD SWAP2 POP PUSH1 0x20 DUP6 ADD SWAP5 POP PUSH1 0x20 DUP2 ADD SWAP1 POP PUSH2 0x3F2E JUMP JUMPDEST DUP7 DUP4 LT ISZERO PUSH2 0x3F70 JUMPI DUP5 DUP10 ADD MLOAD PUSH2 0x3F6C PUSH1 0x1F DUP10 AND DUP3 PUSH2 0x3E79 JUMP JUMPDEST DUP4 SSTORE POP JUMPDEST PUSH1 0x1 PUSH1 0x2 DUP9 MUL ADD DUP9 SSTORE POP POP POP JUMPDEST POP POP POP POP POP POP JUMP JUMPDEST PUSH1 0x0 PUSH1 0x20 DUP3 ADD SWAP1 POP DUP2 DUP2 SUB PUSH1 0x0 DUP4 ADD MSTORE PUSH2 0x3F9F DUP2 DUP5 PUSH2 0x2D4D JUMP JUMPDEST SWAP1 POP SWAP3 SWAP2 POP POP JUMP JUMPDEST PUSH32 0x4F6E6C79206F776E65722063616E2063616C6C20746869730000000000000000 PUSH1 0x0 DUP3 ADD MSTORE POP JUMP JUMPDEST PUSH1 0x0 PUSH2 0x3FDD PUSH1 0x18 DUP4 PUSH2 0x2D12 JUMP JUMPDEST SWAP2 POP PUSH2 0x3FE8 DUP3 PUSH2 0x3FA7 JUMP JUMPDEST PUSH1 0x20 DUP3 ADD SWAP1 POP SWAP2 SWAP1 POP JUMP JUMPDEST PUSH1 0x0 PUSH1 0x20 DUP3 ADD SWAP1 POP DUP2 DUP2 SUB PUSH1 0x0 DUP4 ADD MSTORE PUSH2 0x400C DUP2 PUSH2 0x3FD0 JUMP JUMPDEST SWAP1 POP SWAP2 SWAP1 POP JUMP JUMPDEST PUSH32 0x537570706C79206D7573742062652067726561746572207468616E207A65726F PUSH1 0x0 DUP3 ADD MSTORE POP JUMP JUMPDEST PUSH1 0x0 PUSH2 0x4049 PUSH1 0x20 DUP4 PUSH2 0x2D12 JUMP JUMPDEST SWAP2 POP PUSH2 0x4054 DUP3 PUSH2 0x4013 JUMP JUMPDEST PUSH1 0x20 DUP3 ADD SWAP1 POP SWAP2 SWAP1 POP JUMP JUMPDEST PUSH1 0x0 PUSH1 0x20 DUP3 ADD SWAP1 POP DUP2 DUP2 SUB PUSH1 0x0 DUP4 ADD MSTORE PUSH2 0x4078 DUP2 PUSH2 0x403C JUMP JUMPDEST SWAP1 POP SWAP2 SWAP1 POP JUMP JUMPDEST PUSH32 0x44656D616E64206D7573742062652067726561746572207468616E207A65726F PUSH1 0x0 DUP3 ADD MSTORE POP JUMP JUMPDEST PUSH1 0x0 PUSH2 0x40B5 PUSH1 0x20 DUP4 PUSH2 0x2D12 JUMP JUMPDEST SWAP2 POP PUSH2 0x40C0 DUP3 PUSH2 0x407F JUMP JUMPDEST PUSH1 0x20 DUP3 ADD SWAP1 POP SWAP2 SWAP1 POP JUMP JUMPDEST PUSH1 0x0 PUSH1 0x20 DUP3 ADD SWAP1 POP DUP2 DUP2 SUB PUSH1 0x0 DUP4 ADD MSTORE PUSH2 0x40E4 DUP2 PUSH2 0x40A8 JUMP JUMPDEST SWAP1 POP SWAP2 SWAP1 POP JUMP JUMPDEST PUSH32 0x55736572206973206E6F74207265676973746572656400000000000000000000 PUSH1 0x0 DUP3 ADD MSTORE POP JUMP JUMPDEST PUSH1 0x0 PUSH2 0x4121 PUSH1 0x16 DUP4 PUSH2 0x2D12 JUMP JUMPDEST SWAP2 POP PUSH2 0x412C DUP3 PUSH2 0x40EB JUMP JUMPDEST PUSH1 0x20 DUP3 ADD SWAP1 POP SWAP2 SWAP1 POP JUMP JUMPDEST PUSH1 0x0 PUSH1 0x20 DUP3 ADD SWAP1 POP DUP2 DUP2 SUB PUSH1 0x0 DUP4 ADD MSTORE PUSH2 0x4150 DUP2 PUSH2 0x4114 JUMP JUMPDEST SWAP1 POP SWAP2 SWAP1 POP JUMP JUMPDEST PUSH32 0x496E76616C696420757365722061646472657373000000000000000000000000 PUSH1 0x0 DUP3 ADD MSTORE POP JUMP JUMPDEST PUSH1 0x0 PUSH2 0x418D PUSH1 0x14 DUP4 PUSH2 0x2D12 JUMP JUMPDEST SWAP2 POP PUSH2 0x4198 DUP3 PUSH2 0x4157 JUMP JUMPDEST PUSH1 0x20 DUP3 ADD SWAP1 POP SWAP2 SWAP1 POP JUMP JUMPDEST PUSH1 0x0 PUSH1 0x20 DUP3 ADD SWAP1 POP DUP2 DUP2 SUB PUSH1 0x0 DUP4 ADD MSTORE PUSH2 0x41BC DUP2 PUSH2 0x4180 JUMP JUMPDEST SWAP1 POP SWAP2 SWAP1 POP JUMP JUMPDEST PUSH32 0x496E76616C696420757365722074797065000000000000000000000000000000 PUSH1 0x0 DUP3 ADD MSTORE POP JUMP JUMPDEST PUSH1 0x0 PUSH2 0x41F9 PUSH1 0x11 DUP4 PUSH2 0x2D12 JUMP JUMPDEST SWAP2 POP PUSH2 0x4204 DUP3 PUSH2 0x41C3 JUMP JUMPDEST PUSH1 0x20 DUP3 ADD SWAP1 POP SWAP2 SWAP1 POP JUMP JUMPDEST PUSH1 0x0 PUSH1 0x20 DUP3 ADD SWAP1 POP DUP2 DUP2 SUB PUSH1 0x0 DUP4 ADD MSTORE PUSH2 0x4228 DUP2 PUSH2 0x41EC JUMP JUMPDEST SWAP1 POP SWAP2 SWAP1 POP JUMP JUMPDEST PUSH32 0x5573657220697320616C72656164792072656769737465726564000000000000 PUSH1 0x0 DUP3 ADD MSTORE POP JUMP JUMPDEST PUSH1 0x0 PUSH2 0x4265 PUSH1 0x1A DUP4 PUSH2 0x2D12 JUMP JUMPDEST SWAP2 POP PUSH2 0x4270 DUP3 PUSH2 0x422F JUMP JUMPDEST PUSH1 0x20 DUP3 ADD SWAP1 POP SWAP2 SWAP1 POP JUMP JUMPDEST PUSH1 0x0 PUSH1 0x20 DUP3 ADD SWAP1 POP DUP2 DUP2 SUB PUSH1 0x0 DUP4 ADD MSTORE PUSH2 0x4294 DUP2 PUSH2 0x4258 JUMP JUMPDEST SWAP1 POP SWAP2 SWAP1 POP JUMP JUMPDEST PUSH32 0x4469737075746520494420646F6573206E6F7420657869737400000000000000 PUSH1 0x0 DUP3 ADD MSTORE POP JUMP JUMPDEST PUSH1 0x0 PUSH2 0x42D1 PUSH1 0x19 DUP4 PUSH2 0x2D12 JUMP JUMPDEST SWAP2 POP PUSH2 0x42DC DUP3 PUSH2 0x429B JUMP JUMPDEST PUSH1 0x20 DUP3 ADD SWAP1 POP SWAP2 SWAP1 POP JUMP JUMPDEST PUSH1 0x0 PUSH1 0x20 DUP3 ADD SWAP1 POP DUP2 DUP2 SUB PUSH1 0x0 DUP4 ADD MSTORE PUSH2 0x4300 DUP2 PUSH2 0x42C4 JUMP JUMPDEST SWAP1 POP SWAP2 SWAP1 POP JUMP JUMPDEST PUSH32 0x4E487B7100000000000000000000000000000000000000000000000000000000 PUSH1 0x0 MSTORE PUSH1 0x32 PUSH1 0x4 MSTORE PUSH1 0x24 PUSH1 0x0 REVERT JUMPDEST PUSH32 0x4469737075746520616C7265616479207265736F6C7665640000000000000000 PUSH1 0x0 DUP3 ADD MSTORE POP JUMP JUMPDEST PUSH1 0x0 PUSH2 0x436C PUSH1 0x18 DUP4 PUSH2 0x2D12 JUMP JUMPDEST SWAP2 POP PUSH2 0x4377 DUP3 PUSH2 0x4336 JUMP JUMPDEST PUSH1 0x20 DUP3 ADD SWAP1 POP SWAP2 SWAP1 POP JUMP JUMPDEST PUSH1 0x0 PUSH1 0x20 DUP3 ADD SWAP1 POP DUP2 DUP2 SUB PUSH1 0x0 DUP4 ADD MSTORE PUSH2 0x439B DUP2 PUSH2 0x435F JUMP JUMPDEST SWAP1 POP SWAP2 SWAP1 POP JUMP JUMPDEST PUSH32 0x50726F647563656420616D6F756E74206D757374206265206772656174657220 PUSH1 0x0 DUP3 ADD MSTORE PUSH32 0x7468616E207A65726F0000000000000000000000000000000000000000000000 PUSH1 0x20 DUP3 ADD MSTORE POP JUMP JUMPDEST PUSH1 0x0 PUSH2 0x43FE PUSH1 0x29 DUP4 PUSH2 0x2D12 JUMP JUMPDEST SWAP2 POP PUSH2 0x4409 DUP3 PUSH2 0x43A2 JUMP JUMPDEST PUSH1 0x40 DUP3 ADD SWAP1 POP SWAP2 SWAP1 POP JUMP JUMPDEST PUSH1 0x0 PUSH1 0x20 DUP3 ADD SWAP1 POP DUP2 DUP2 SUB PUSH1 0x0 DUP4 ADD MSTORE PUSH2 0x442D DUP2 PUSH2 0x43F1 JUMP JUMPDEST SWAP1 POP SWAP2 SWAP1 POP JUMP JUMPDEST PUSH1 0x0 PUSH2 0x443F DUP3 PUSH2 0x2986 JUMP JUMPDEST SWAP2 POP PUSH2 0x444A DUP4 PUSH2 0x2986 JUMP JUMPDEST SWAP3 POP DUP3 DUP3 ADD SWAP1 POP DUP1 DUP3 GT ISZERO PUSH2 0x4462 JUMPI PUSH2 0x4461 PUSH2 0x388C JUMP JUMPDEST JUMPDEST SWAP3 SWAP2 POP POP JUMP JUMPDEST PUSH1 0x0 PUSH1 0x60 DUP3 ADD SWAP1 POP PUSH2 0x447D PUSH1 0x0 DUP4 ADD DUP7 PUSH2 0x2AD2 JUMP JUMPDEST PUSH2 0x448A PUSH1 0x20 DUP4 ADD DUP6 PUSH2 0x2E78 JUMP JUMPDEST PUSH2 0x4497 PUSH1 0x40 DUP4 ADD DUP5 PUSH2 0x2AD2 JUMP JUMPDEST SWAP5 SWAP4 POP POP POP POP JUMP JUMPDEST PUSH32 0x436F6E73756D656420616D6F756E74206D757374206265206772656174657220 PUSH1 0x0 DUP3 ADD MSTORE PUSH32 0x7468616E207A65726F0000000000000000000000000000000000000000000000 PUSH1 0x20 DUP3 ADD MSTORE POP JUMP JUMPDEST PUSH1 0x0 PUSH2 0x44FB PUSH1 0x29 DUP4 PUSH2 0x2D12 JUMP JUMPDEST SWAP2 POP PUSH2 0x4506 DUP3 PUSH2 0x449F JUMP JUMPDEST PUSH1 0x40 DUP3 ADD SWAP1 POP SWAP2 SWAP1 POP JUMP JUMPDEST PUSH1 0x0 PUSH1 0x20 DUP3 ADD SWAP1 POP DUP2 DUP2 SUB PUSH1 0x0 DUP4 ADD MSTORE PUSH2 0x452A DUP2 PUSH2 0x44EE JUMP JUMPDEST SWAP1 POP SWAP2 SWAP1 POP JUMP INVALID LOG2 PUSH5 0x6970667358 0x22 SLT KECCAK256 LOG4 DELEGATECALL MSTORE SWAP1 JUMPDEST 0xED REVERT SWAP1 0xD0 PUSH30 0x40826136F8E1C4E56FBF4335E071037091E578C4EAA964736F6C63430008 BYTE STOP CALLER "
        },
        "methodIdentifiers": {
          "buyEnergy(address,uint256)": "36fd7e1b",
          "customerDemand(address)": "baa15f6f",
          "disputes(uint256)": "564a565d",
          "dynamicPrice()": "3d06a969",
          "energyListings(address)": "6582f06e",
          "getAllUsers()": "e2842d79",
          "getDispute(uint256)": "e3a96cbd",
          "getDisputes()": "b1ca72a6",
          "getRecords(address)": "a0076e84",
          "getUserType(address)": "8b3f863f",
          "initiateDispute(address,string)": "45f870af",
          "isRegistered(address)": "c3c5a547",
          "listEnergy(uint256,uint256,uint8)": "1a68e943",
          "owner()": "8da5cb5b",
          "registerUser(address,uint8)": "9e9fa097",
          "resetData(address)": "629faf8a",
          "resolveDispute(uint256,string)": "cf51b45d",
          "token()": "fc0c546a",
          "totalConsumed(address)": "b0c6eb0c",
          "totalProduced(address)": "4a63705b",
          "updatePrice()": "673a7e28",
          "users(address)": "a87430ba"
        }
      }
    }
  }
}