{
  "_format": "hh-sol-artifact-1",
  "contractName": "CrossGridContract",
  "sourceName": "contracts/CrossGridRes.sol",
  "abi": [
    {
      "inputs": [
        {
          "internalType": "uint256",
          "name": "initialPrice",
          "type": "uint256"
        },
        {
          "internalType": "address",
          "name": "_token",
          "type": "address"
        }
      ],
      "stateMutability": "nonpayable",
      "type": "constructor"
    },
    {
      "anonymous": false,
      "inputs": [
        {
          "indexed": true,
          "internalType": "address",
          "name": "user",
          "type": "address"
        },
        {
          "indexed": false,
          "internalType": "uint256",
          "name": "timestamp",
          "type": "uint256"
        }
      ],
      "name": "DataReset",
      "type": "event"
    },
    {
      "anonymous": false,
      "inputs": [
        {
          "indexed": true,
          "internalType": "address",
          "name": "initiator",
          "type": "address"
        },
        {
          "indexed": true,
          "internalType": "address",
          "name": "respondent",
          "type": "address"
        },
        {
          "indexed": false,
          "internalType": "string",
          "name": "reason",
          "type": "string"
        }
      ],
      "name": "DisputeInitiated",
      "type": "event"
    },
    {
      "anonymous": false,
      "inputs": [
        {
          "indexed": true,
          "internalType": "uint256",
          "name": "disputeId",
          "type": "uint256"
        },
        {
          "indexed": false,
          "internalType": "string",
          "name": "resolutionDetails",
          "type": "string"
        }
      ],
      "name": "DisputeResolved",
      "type": "event"
    },
    {
      "anonymous": false,
      "inputs": [
        {
          "indexed": true,
          "internalType": "address",
          "name": "producer",
          "type": "address"
        },
        {
          "indexed": true,
          "internalType": "address",
          "name": "consumer",
          "type": "address"
        },
        {
          "indexed": false,
          "internalType": "uint256",
          "name": "amount",
          "type": "uint256"
        },
        {
          "indexed": false,
          "internalType": "uint256",
          "name": "price",
          "type": "uint256"
        }
      ],
      "name": "EnergyBought",
      "type": "event"
    },
    {
      "anonymous": false,
      "inputs": [
        {
          "indexed": true,
          "internalType": "address",
          "name": "consumer",
          "type": "address"
        },
        {
          "indexed": false,
          "internalType": "uint256",
          "name": "amount",
          "type": "uint256"
        },
        {
          "indexed": false,
          "internalType": "uint256",
          "name": "timestamp",
          "type": "uint256"
        }
      ],
      "name": "EnergyConsumed",
      "type": "event"
    },
    {
      "anonymous": false,
      "inputs": [
        {
          "indexed": true,
          "internalType": "address",
          "name": "producer",
          "type": "address"
        },
        {
          "indexed": false,
          "internalType": "uint256",
          "name": "amount",
          "type": "uint256"
        },
        {
          "indexed": false,
          "internalType": "uint256",
          "name": "price",
          "type": "uint256"
        },
        {
          "indexed": false,
          "internalType": "string",
          "name": "energyType",
          "type": "string"
        }
      ],
      "name": "EnergyListed",
      "type": "event"
    },
    {
      "anonymous": false,
      "inputs": [
        {
          "indexed": true,
          "internalType": "address",
          "name": "producer",
          "type": "address"
        },
        {
          "indexed": false,
          "internalType": "uint256",
          "name": "amount",
          "type": "uint256"
        },
        {
          "indexed": false,
          "internalType": "enum CrossGridContract.EnergyType",
          "name": "energyType",
          "type": "uint8"
        },
        {
          "indexed": false,
          "internalType": "uint256",
          "name": "timestamp",
          "type": "uint256"
        }
      ],
      "name": "EnergyProduced",
      "type": "event"
    },
    {
      "anonymous": false,
      "inputs": [
        {
          "indexed": true,
          "internalType": "address",
          "name": "user",
          "type": "address"
        },
        {
          "indexed": false,
          "internalType": "string",
          "name": "message",
          "type": "string"
        },
        {
          "indexed": false,
          "internalType": "uint256",
          "name": "timestamp",
          "type": "uint256"
        }
      ],
      "name": "NotificationAdded",
      "type": "event"
    },
    {
      "anonymous": false,
      "inputs": [
        {
          "indexed": true,
          "internalType": "address",
          "name": "user",
          "type": "address"
        },
        {
          "indexed": false,
          "internalType": "string",
          "name": "message",
          "type": "string"
        }
      ],
      "name": "NotificationEmitted",
      "type": "event"
    },
    {
      "anonymous": false,
      "inputs": [
        {
          "indexed": false,
          "internalType": "uint256",
          "name": "oldPrice",
          "type": "uint256"
        },
        {
          "indexed": false,
          "internalType": "uint256",
          "name": "newPrice",
          "type": "uint256"
        }
      ],
      "name": "PriceUpdated",
      "type": "event"
    },
    {
      "anonymous": false,
      "inputs": [
        {
          "indexed": true,
          "internalType": "address",
          "name": "user",
          "type": "address"
        },
        {
          "indexed": false,
          "internalType": "enum CrossGridContract.UserType",
          "name": "userType",
          "type": "uint8"
        }
      ],
      "name": "UserRegistered",
      "type": "event"
    },
    {
      "inputs": [
        {
          "internalType": "address",
          "name": "producer",
          "type": "address"
        },
        {
          "internalType": "uint256",
          "name": "listingIndex",
          "type": "uint256"
        },
        {
          "internalType": "uint256",
          "name": "price",
          "type": "uint256"
        }
      ],
      "name": "buyEnergy",
      "outputs": [],
      "stateMutability": "nonpayable",
      "type": "function"
    },
    {
      "inputs": [],
      "name": "clearNotifications",
      "outputs": [],
      "stateMutability": "nonpayable",
      "type": "function"
    },
    {
      "inputs": [
        {
          "internalType": "address",
          "name": "",
          "type": "address"
        },
        {
          "internalType": "uint256",
          "name": "",
          "type": "uint256"
        }
      ],
      "name": "consumedRecords",
      "outputs": [
        {
          "internalType": "uint256",
          "name": "consumed",
          "type": "uint256"
        },
        {
          "internalType": "uint256",
          "name": "timestamp",
          "type": "uint256"
        },
        {
          "internalType": "enum CrossGridContract.EnergyType",
          "name": "energyType",
          "type": "uint8"
        }
      ],
      "stateMutability": "view",
      "type": "function"
    },
    {
      "inputs": [
        {
          "internalType": "address",
          "name": "",
          "type": "address"
        }
      ],
      "name": "customerDemand",
      "outputs": [
        {
          "internalType": "uint256",
          "name": "",
          "type": "uint256"
        }
      ],
      "stateMutability": "view",
      "type": "function"
    },
    {
      "inputs": [
        {
          "internalType": "uint256",
          "name": "",
          "type": "uint256"
        }
      ],
      "name": "disputes",
      "outputs": [
        {
          "internalType": "address",
          "name": "initiator",
          "type": "address"
        },
        {
          "internalType": "address",
          "name": "respondent",
          "type": "address"
        },
        {
          "internalType": "string",
          "name": "reason",
          "type": "string"
        },
        {
          "internalType": "string",
          "name": "resolutionDetails",
          "type": "string"
        },
        {
          "internalType": "bool",
          "name": "resolved",
          "type": "bool"
        },
        {
          "internalType": "uint256",
          "name": "timestamp",
          "type": "uint256"
        }
      ],
      "stateMutability": "view",
      "type": "function"
    },
    {
      "inputs": [],
      "name": "dynamicPrice",
      "outputs": [
        {
          "internalType": "uint256",
          "name": "",
          "type": "uint256"
        }
      ],
      "stateMutability": "view",
      "type": "function"
    },
    {
      "inputs": [
        {
          "internalType": "address",
          "name": "",
          "type": "address"
        },
        {
          "internalType": "uint256",
          "name": "",
          "type": "uint256"
        }
      ],
      "name": "energyListings",
      "outputs": [
        {
          "internalType": "address",
          "name": "producer",
          "type": "address"
        },
        {
          "internalType": "uint256",
          "name": "amount",
          "type": "uint256"
        },
        {
          "internalType": "uint256",
          "name": "price",
          "type": "uint256"
        },
        {
          "internalType": "enum CrossGridContract.EnergyType",
          "name": "energyType",
          "type": "uint8"
        },
        {
          "internalType": "bool",
          "name": "active",
          "type": "bool"
        }
      ],
      "stateMutability": "view",
      "type": "function"
    },
    {
      "inputs": [],
      "name": "fetchAllEnergyListings",
      "outputs": [
        {
          "components": [
            {
              "internalType": "address",
              "name": "producer",
              "type": "address"
            },
            {
              "internalType": "uint256",
              "name": "amount",
              "type": "uint256"
            },
            {
              "internalType": "uint256",
              "name": "price",
              "type": "uint256"
            },
            {
              "internalType": "enum CrossGridContract.EnergyType",
              "name": "energyType",
              "type": "uint8"
            },
            {
              "internalType": "bool",
              "name": "active",
              "type": "bool"
            }
          ],
          "internalType": "struct CrossGridContract.EnergyListing[]",
          "name": "",
          "type": "tuple[]"
        }
      ],
      "stateMutability": "view",
      "type": "function"
    },
    {
      "inputs": [],
      "name": "getAggregatedDemand",
      "outputs": [
        {
          "internalType": "uint256",
          "name": "",
          "type": "uint256"
        }
      ],
      "stateMutability": "view",
      "type": "function"
    },
    {
      "inputs": [],
      "name": "getAggregatedSupply",
      "outputs": [
        {
          "internalType": "uint256",
          "name": "",
          "type": "uint256"
        }
      ],
      "stateMutability": "view",
      "type": "function"
    },
    {
      "inputs": [],
      "name": "getAllUsers",
      "outputs": [
        {
          "internalType": "address[]",
          "name": "",
          "type": "address[]"
        }
      ],
      "stateMutability": "view",
      "type": "function"
    },
    {
      "inputs": [
        {
          "internalType": "address",
          "name": "user",
          "type": "address"
        }
      ],
      "name": "getConsumedRecords",
      "outputs": [
        {
          "components": [
            {
              "internalType": "uint256",
              "name": "consumed",
              "type": "uint256"
            },
            {
              "internalType": "uint256",
              "name": "timestamp",
              "type": "uint256"
            },
            {
              "internalType": "enum CrossGridContract.EnergyType",
              "name": "energyType",
              "type": "uint8"
            }
          ],
          "internalType": "struct CrossGridContract.EnergyConsumedRecord[]",
          "name": "",
          "type": "tuple[]"
        }
      ],
      "stateMutability": "view",
      "type": "function"
    },
    {
      "inputs": [
        {
          "internalType": "uint256",
          "name": "disputeId",
          "type": "uint256"
        }
      ],
      "name": "getDispute",
      "outputs": [
        {
          "components": [
            {
              "internalType": "address",
              "name": "initiator",
              "type": "address"
            },
            {
              "internalType": "address",
              "name": "respondent",
              "type": "address"
            },
            {
              "internalType": "string",
              "name": "reason",
              "type": "string"
            },
            {
              "internalType": "string",
              "name": "resolutionDetails",
              "type": "string"
            },
            {
              "internalType": "bool",
              "name": "resolved",
              "type": "bool"
            },
            {
              "internalType": "uint256",
              "name": "timestamp",
              "type": "uint256"
            }
          ],
          "internalType": "struct CrossGridContract.Dispute",
          "name": "",
          "type": "tuple"
        }
      ],
      "stateMutability": "view",
      "type": "function"
    },
    {
      "inputs": [],
      "name": "getDisputes",
      "outputs": [
        {
          "components": [
            {
              "internalType": "address",
              "name": "initiator",
              "type": "address"
            },
            {
              "internalType": "address",
              "name": "respondent",
              "type": "address"
            },
            {
              "internalType": "string",
              "name": "reason",
              "type": "string"
            },
            {
              "internalType": "string",
              "name": "resolutionDetails",
              "type": "string"
            },
            {
              "internalType": "bool",
              "name": "resolved",
              "type": "bool"
            },
            {
              "internalType": "uint256",
              "name": "timestamp",
              "type": "uint256"
            }
          ],
          "internalType": "struct CrossGridContract.Dispute[]",
          "name": "",
          "type": "tuple[]"
        }
      ],
      "stateMutability": "view",
      "type": "function"
    },
    {
      "inputs": [
        {
          "internalType": "address",
          "name": "producer",
          "type": "address"
        }
      ],
      "name": "getListings",
      "outputs": [
        {
          "components": [
            {
              "internalType": "address",
              "name": "producer",
              "type": "address"
            },
            {
              "internalType": "uint256",
              "name": "amount",
              "type": "uint256"
            },
            {
              "internalType": "uint256",
              "name": "price",
              "type": "uint256"
            },
            {
              "internalType": "enum CrossGridContract.EnergyType",
              "name": "energyType",
              "type": "uint8"
            },
            {
              "internalType": "bool",
              "name": "active",
              "type": "bool"
            }
          ],
          "internalType": "struct CrossGridContract.EnergyListing[]",
          "name": "",
          "type": "tuple[]"
        }
      ],
      "stateMutability": "view",
      "type": "function"
    },
    {
      "inputs": [
        {
          "internalType": "address",
          "name": "user",
          "type": "address"
        }
      ],
      "name": "getNotifications",
      "outputs": [
        {
          "components": [
            {
              "internalType": "string",
              "name": "message",
              "type": "string"
            },
            {
              "internalType": "uint256",
              "name": "timestamp",
              "type": "uint256"
            }
          ],
          "internalType": "struct CrossGridContract.Notification[]",
          "name": "",
          "type": "tuple[]"
        }
      ],
      "stateMutability": "view",
      "type": "function"
    },
    {
      "inputs": [
        {
          "internalType": "address",
          "name": "user",
          "type": "address"
        }
      ],
      "name": "getProducedRecords",
      "outputs": [
        {
          "components": [
            {
              "internalType": "uint256",
              "name": "produced",
              "type": "uint256"
            },
            {
              "internalType": "uint256",
              "name": "timestamp",
              "type": "uint256"
            },
            {
              "internalType": "enum CrossGridContract.EnergyType",
              "name": "energyType",
              "type": "uint8"
            }
          ],
          "internalType": "struct CrossGridContract.EnergyProducedRecord[]",
          "name": "",
          "type": "tuple[]"
        }
      ],
      "stateMutability": "view",
      "type": "function"
    },
    {
      "inputs": [
        {
          "internalType": "address",
          "name": "user",
          "type": "address"
        }
      ],
      "name": "getUserType",
      "outputs": [
        {
          "internalType": "enum CrossGridContract.UserType",
          "name": "",
          "type": "uint8"
        }
      ],
      "stateMutability": "view",
      "type": "function"
    },
    {
      "inputs": [
        {
          "internalType": "address",
          "name": "respondent",
          "type": "address"
        },
        {
          "internalType": "string",
          "name": "reason",
          "type": "string"
        }
      ],
      "name": "initiateDispute",
      "outputs": [],
      "stateMutability": "nonpayable",
      "type": "function"
    },
    {
      "inputs": [
        {
          "internalType": "address",
          "name": "user",
          "type": "address"
        }
      ],
      "name": "isRegistered",
      "outputs": [
        {
          "internalType": "bool",
          "name": "",
          "type": "bool"
        }
      ],
      "stateMutability": "view",
      "type": "function"
    },
    {
      "inputs": [
        {
          "internalType": "uint256",
          "name": "amount",
          "type": "uint256"
        },
        {
          "internalType": "uint256",
          "name": "price",
          "type": "uint256"
        },
        {
          "internalType": "enum CrossGridContract.EnergyType",
          "name": "energyType",
          "type": "uint8"
        }
      ],
      "name": "listEnergy",
      "outputs": [],
      "stateMutability": "nonpayable",
      "type": "function"
    },
    {
      "inputs": [
        {
          "internalType": "address",
          "name": "",
          "type": "address"
        },
        {
          "internalType": "uint256",
          "name": "",
          "type": "uint256"
        }
      ],
      "name": "notifications",
      "outputs": [
        {
          "internalType": "string",
          "name": "message",
          "type": "string"
        },
        {
          "internalType": "uint256",
          "name": "timestamp",
          "type": "uint256"
        }
      ],
      "stateMutability": "view",
      "type": "function"
    },
    {
      "inputs": [],
      "name": "owner",
      "outputs": [
        {
          "internalType": "address",
          "name": "",
          "type": "address"
        }
      ],
      "stateMutability": "view",
      "type": "function"
    },
    {
      "inputs": [
        {
          "internalType": "address",
          "name": "",
          "type": "address"
        },
        {
          "internalType": "uint256",
          "name": "",
          "type": "uint256"
        }
      ],
      "name": "producedRecords",
      "outputs": [
        {
          "internalType": "uint256",
          "name": "produced",
          "type": "uint256"
        },
        {
          "internalType": "uint256",
          "name": "timestamp",
          "type": "uint256"
        },
        {
          "internalType": "enum CrossGridContract.EnergyType",
          "name": "energyType",
          "type": "uint8"
        }
      ],
      "stateMutability": "view",
      "type": "function"
    },
    {
      "inputs": [
        {
          "internalType": "string",
          "name": "name",
          "type": "string"
        },
        {
          "internalType": "enum CrossGridContract.UserType",
          "name": "userType",
          "type": "uint8"
        }
      ],
      "name": "registerUser",
      "outputs": [],
      "stateMutability": "nonpayable",
      "type": "function"
    },
    {
      "inputs": [
        {
          "internalType": "address",
          "name": "user",
          "type": "address"
        }
      ],
      "name": "resetData",
      "outputs": [],
      "stateMutability": "nonpayable",
      "type": "function"
    },
    {
      "inputs": [
        {
          "internalType": "uint256",
          "name": "disputeId",
          "type": "uint256"
        },
        {
          "internalType": "string",
          "name": "resolutionDetails",
          "type": "string"
        }
      ],
      "name": "resolveDispute",
      "outputs": [],
      "stateMutability": "nonpayable",
      "type": "function"
    },
    {
      "inputs": [],
      "name": "token",
      "outputs": [
        {
          "internalType": "contract IEnergy",
          "name": "",
          "type": "address"
        }
      ],
      "stateMutability": "view",
      "type": "function"
    },
    {
      "inputs": [
        {
          "internalType": "address",
          "name": "",
          "type": "address"
        }
      ],
      "name": "totalConsumed",
      "outputs": [
        {
          "internalType": "uint256",
          "name": "",
          "type": "uint256"
        }
      ],
      "stateMutability": "view",
      "type": "function"
    },
    {
      "inputs": [],
      "name": "totalDemandAggregated",
      "outputs": [
        {
          "internalType": "uint256",
          "name": "",
          "type": "uint256"
        }
      ],
      "stateMutability": "view",
      "type": "function"
    },
    {
      "inputs": [
        {
          "internalType": "address",
          "name": "",
          "type": "address"
        }
      ],
      "name": "totalProduced",
      "outputs": [
        {
          "internalType": "uint256",
          "name": "",
          "type": "uint256"
        }
      ],
      "stateMutability": "view",
      "type": "function"
    },
    {
      "inputs": [],
      "name": "totalSupplyAggregated",
      "outputs": [
        {
          "internalType": "uint256",
          "name": "",
          "type": "uint256"
        }
      ],
      "stateMutability": "view",
      "type": "function"
    },
    {
      "inputs": [
        {
          "internalType": "address",
          "name": "",
          "type": "address"
        }
      ],
      "name": "userEarned",
      "outputs": [
        {
          "internalType": "uint256",
          "name": "",
          "type": "uint256"
        }
      ],
      "stateMutability": "view",
      "type": "function"
    },
    {
      "inputs": [
        {
          "internalType": "address",
          "name": "",
          "type": "address"
        }
      ],
      "name": "userSpent",
      "outputs": [
        {
          "internalType": "uint256",
          "name": "",
          "type": "uint256"
        }
      ],
      "stateMutability": "view",
      "type": "function"
    },
    {
      "inputs": [
        {
          "internalType": "address",
          "name": "",
          "type": "address"
        }
      ],
      "name": "users",
      "outputs": [
        {
          "internalType": "string",
          "name": "name",
          "type": "string"
        },
        {
          "internalType": "enum CrossGridContract.UserType",
          "name": "userType",
          "type": "uint8"
        },
        {
          "internalType": "bool",
          "name": "registered",
          "type": "bool"
        }
      ],
      "stateMutability": "view",
      "type": "function"
    }
  ],
  "bytecode": "0x608060405234801561001057600080fd5b50604051615b63380380615b638339818101604052810190610032919061019e565b60008211610075576040517f08c379a000000000000000000000000000000000000000000000000000000000815260040161006c90610261565b60405180910390fd5b8160008190555080600160006101000a81548173ffffffffffffffffffffffffffffffffffffffff021916908373ffffffffffffffffffffffffffffffffffffffff16021790555033600360006101000a81548173ffffffffffffffffffffffffffffffffffffffff021916908373ffffffffffffffffffffffffffffffffffffffff1602179055505050610281565b600080fd5b6000819050919050565b61011d8161010a565b811461012857600080fd5b50565b60008151905061013a81610114565b92915050565b600073ffffffffffffffffffffffffffffffffffffffff82169050919050565b600061016b82610140565b9050919050565b61017b81610160565b811461018657600080fd5b50565b60008151905061019881610172565b92915050565b600080604083850312156101b5576101b4610105565b5b60006101c38582860161012b565b92505060206101d485828601610189565b9150509250929050565b600082825260208201905092915050565b7f496e697469616c207072696365206d757374206265206772656174657220746860008201527f616e207a65726f00000000000000000000000000000000000000000000000000602082015250565b600061024b6027836101de565b9150610256826101ef565b604082019050919050565b6000602082019050818103600083015261027a8161023e565b9050919050565b6158d3806102906000396000f3fe608060405234801561001057600080fd5b50600436106102115760003560e01c80638a8f63b011610125578063c0a0117a116100ad578063cf51b45d1161007c578063cf51b45d146106aa578063e2842d79146106c6578063e3a96cbd146106e4578063eb5dcf3a14610714578063fc0c546a1461074657610211565b8063c0a0117a146105ea578063c3c5a5471461061a578063cba725401461064a578063cde8cd6e1461067a57610211565b8063955ab452116100f4578063955ab4521461051c578063a87430ba1461053a578063b0c6eb0c1461056c578063b1ca72a61461059c578063baa15f6f146105ba57610211565b80638a8f63b0146104945780638b3f863f146104c45780638da5cb5b146104f4578063900baf131461051257610211565b80633d06a969116101a8578063564a565d11610177578063564a565d146103d6578063629faf8a1461040b57806365a809811461042757806365d0bddd146104455780637e8e24821461047657610211565b80633d06a9691461033a57806345f870af146103585780634a63705b1461037457806352cb324f146103a457610211565b806332add833116101e457806332add833146102b0578063338e12eb146102cc578063354df9cc146102e85780633746c6aa1461030657610211565b80630d840813146102165780631479d983146102465780631a68e943146102645780631fd4d57814610280575b600080fd5b610230600480360381019061022b9190613909565b610764565b60405161023d9190613ab7565b60405180910390f35b61024e610851565b60405161025b9190613ae8565b60405180910390f35b61027e60048036038101906102799190613b54565b610857565b005b61029a60048036038101906102959190613909565b610ca3565b6040516102a79190613c98565b60405180910390f35b6102ca60048036038101906102c59190613cba565b610d90565b005b6102e660048036038101906102e19190613e78565b6113df565b005b6102f0611710565b6040516102fd9190613ae8565b60405180910390f35b610320600480360381019061031b9190613ed4565b611716565b604051610331959493929190613f4d565b60405180910390f35b6103426117a3565b60405161034f9190613ae8565b60405180910390f35b610372600480360381019061036d9190613fa0565b6117a9565b005b61038e60048036038101906103899190613909565b6119cc565b60405161039b9190613ae8565b60405180910390f35b6103be60048036038101906103b99190613ed4565b6119e4565b6040516103cd93929190613ffc565b60405180910390f35b6103f060048036038101906103eb9190614033565b611a38565b604051610402969594939291906140df565b60405180910390f35b61042560048036038101906104209190613909565b611be1565b005b61042f611de2565b60405161043c9190613ae8565b60405180910390f35b61045f600480360381019061045a9190613ed4565b611dec565b60405161046d92919061414e565b60405180910390f35b61047e611eb5565b60405161048b9190613ae8565b60405180910390f35b6104ae60048036038101906104a99190613909565b611ebf565b6040516104bb91906142c7565b60405180910390f35b6104de60048036038101906104d99190613909565b611ff9565b6040516104eb9190614331565b60405180910390f35b6104fc6120e1565b604051610509919061434c565b60405180910390f35b61051a612107565b005b610524612154565b604051610531919061449c565b60405180910390f35b610554600480360381019061054f9190613909565b612446565b604051610563939291906144be565b60405180910390f35b61058660048036038101906105819190613909565b612512565b6040516105939190613ae8565b60405180910390f35b6105a461252a565b6040516105b1919061464e565b60405180910390f35b6105d460048036038101906105cf9190613909565b61277e565b6040516105e19190613ae8565b60405180910390f35b61060460048036038101906105ff9190613909565b612796565b6040516106119190613ae8565b60405180910390f35b610634600480360381019061062f9190613909565b6127ae565b6040516106419190614670565b60405180910390f35b610664600480360381019061065f9190613909565b612807565b6040516106719190613ae8565b60405180910390f35b610694600480360381019061068f9190613909565b61281f565b6040516106a1919061449c565b60405180910390f35b6106c460048036038101906106bf919061468b565b61297d565b005b6106ce612b38565b6040516106db9190614796565b60405180910390f35b6106fe60048036038101906106f99190614033565b612bc6565b60405161070b9190614848565b60405180910390f35b61072e60048036038101906107299190613ed4565b612e3e565b60405161073d93929190613ffc565b60405180910390f35b61074e612e92565b60405161075b91906148c9565b60405180910390f35b6060600a60008373ffffffffffffffffffffffffffffffffffffffff1673ffffffffffffffffffffffffffffffffffffffff168152602001908152602001600020805480602002602001604051908101604052809291908181526020016000905b82821015610846578382906000526020600020906003020160405180606001604052908160008201548152602001600182015481526020016002820160009054906101000a900460ff1660038111156108215761082061397b565b5b60038111156108335761083261397b565b5b81525050815260200190600101906107c5565b505050509050919050565b60085481565b600560009054906101000a900460ff16156108a7576040517f08c379a000000000000000000000000000000000000000000000000000000000815260040161089e90614930565b60405180910390fd5b6001600560006101000a81548160ff021916908315150217905550600d60003373ffffffffffffffffffffffffffffffffffffffff1673ffffffffffffffffffffffffffffffffffffffff16815260200190815260200160002060010160019054906101000a900460ff16801561099157506001600281111561092d5761092c61397b565b5b600d60003373ffffffffffffffffffffffffffffffffffffffff1673ffffffffffffffffffffffffffffffffffffffff16815260200190815260200160002060010160009054906101000a900460ff16600281111561098f5761098e61397b565b5b145b6109d0576040517f08c379a00000000000000000000000000000000000000000000000000000000081526004016109c7906149c2565b60405180910390fd5b60008311610a13576040517f08c379a0000000000000000000000000000000000000000000000000000000008152600401610a0a90614a2e565b60405180910390fd5b60008211610a56576040517f08c379a0000000000000000000000000000000000000000000000000000000008152600401610a4d90614a9a565b60405180910390fd5b8260076000828254610a689190614ae9565b92505081905550600960003373ffffffffffffffffffffffffffffffffffffffff1673ffffffffffffffffffffffffffffffffffffffff1681526020019081526020016000206040518060a001604052803373ffffffffffffffffffffffffffffffffffffffff168152602001858152602001848152602001836003811115610af457610af361397b565b5b815260200160011515815250908060018154018082558091505060019003906000526020600020906004020160009091909190915060008201518160000160006101000a81548173ffffffffffffffffffffffffffffffffffffffff021916908373ffffffffffffffffffffffffffffffffffffffff160217905550602082015181600101556040820151816002015560608201518160030160006101000a81548160ff02191690836003811115610baf57610bae61397b565b5b021790555060808201518160030160016101000a81548160ff0219169083151502179055505050610be1338483612eb8565b610be9613083565b3373ffffffffffffffffffffffffffffffffffffffff167f2f8d01920f10cc9dcd6eb2ba04b84f6345aba87751d7e5a2650bdba1b106860e84600054610c2e85613172565b604051610c3d93929190614b1d565b60405180910390a2610c836040518060400160405280601b81526020017f456e65726779206c6973746564207375636365737366756c6c792e0000000000815250613355565b6000600560006101000a81548160ff021916908315150217905550505050565b6060600b60008373ffffffffffffffffffffffffffffffffffffffff1673ffffffffffffffffffffffffffffffffffffffff168152602001908152602001600020805480602002602001604051908101604052809291908181526020016000905b82821015610d85578382906000526020600020906003020160405180606001604052908160008201548152602001600182015481526020016002820160009054906101000a900460ff166003811115610d6057610d5f61397b565b5b6003811115610d7257610d7161397b565b5b8152505081526020019060010190610d04565b505050509050919050565b600560009054906101000a900460ff1615610de0576040517f08c379a0000000000000000000000000000000000000000000000000000000008152600401610dd790614930565b60405180910390fd5b6001600560006101000a81548160ff0219169083151502179055506000600960008573ffffffffffffffffffffffffffffffffffffffff1673ffffffffffffffffffffffffffffffffffffffff1681526020019081526020016000208381548110610e4e57610e4d614b5b565b5b906000526020600020906004020190508060030160019054906101000a900460ff16610eaf576040517f08c379a0000000000000000000000000000000000000000000000000000000008152600401610ea690614bd6565b60405180910390fd5b600082118015610ed2575080600201548160010154610ece9190614bf6565b8211155b610f11576040517f08c379a0000000000000000000000000000000000000000000000000000000008152600401610f0890614caa565b60405180910390fd5b6000816002015483610f239190614cf9565b90508160010154811115610f6c576040517f08c379a0000000000000000000000000000000000000000000000000000000008152600401610f6390614d9c565b60405180910390fd5b82600160009054906101000a900473ffffffffffffffffffffffffffffffffffffffff1673ffffffffffffffffffffffffffffffffffffffff1663dd62ed3e33306040518363ffffffff1660e01b8152600401610fca929190614dbc565b602060405180830381865afa158015610fe7573d6000803e3d6000fd5b505050506040513d601f19601f8201168201806040525081019061100b9190614dfa565b101561104c576040517f08c379a000000000000000000000000000000000000000000000000000000000815260040161104390614e73565b60405180910390fd5b82600160009054906101000a900473ffffffffffffffffffffffffffffffffffffffff1673ffffffffffffffffffffffffffffffffffffffff166370a08231336040518263ffffffff1660e01b81526004016110a8919061434c565b602060405180830381865afa1580156110c5573d6000803e3d6000fd5b505050506040513d601f19601f820116820180604052508101906110e99190614dfa565b101561112a576040517f08c379a000000000000000000000000000000000000000000000000000000000815260040161112190614edf565b60405180910390fd5b600160009054906101000a900473ffffffffffffffffffffffffffffffffffffffff1673ffffffffffffffffffffffffffffffffffffffff166323b872dd3387866040518463ffffffff1660e01b815260040161118993929190614eff565b6020604051808303816000875af11580156111a8573d6000803e3d6000fd5b505050506040513d601f19601f820116820180604052508101906111cc9190614f62565b5080600760008282546111df9190614f8f565b9250508190555080600860008282546111f89190614ae9565b92505081905550808260010160008282546112139190614f8f565b9250508190555060008260010154036112445760008260030160016101000a81548160ff0219169083151502179055505b82601060008773ffffffffffffffffffffffffffffffffffffffff1673ffffffffffffffffffffffffffffffffffffffff16815260200190815260200160002060008282546112939190614ae9565b9250508190555082601160003373ffffffffffffffffffffffffffffffffffffffff1673ffffffffffffffffffffffffffffffffffffffff16815260200190815260200160002060008282546112e99190614ae9565b9250508190555061130c33828460030160009054906101000a900460ff166133b0565b611314613083565b3373ffffffffffffffffffffffffffffffffffffffff168573ffffffffffffffffffffffffffffffffffffffff167f942439e1850cccb8201680164759092629ebc0519531d3aeea6a5d9b3578529d838560020154604051611377929190614fc3565b60405180910390a36113bd6040518060400160405280601e81526020017f456e6572677920707572636861736564207375636365737366756c6c792e0000815250613355565b50506000600560006101000a81548160ff021916908315150217905550505050565b600073ffffffffffffffffffffffffffffffffffffffff163373ffffffffffffffffffffffffffffffffffffffff160361144e576040517f08c379a000000000000000000000000000000000000000000000000000000000815260040161144590615038565b60405180910390fd5b600060028111156114625761146161397b565b5b8160028111156114755761147461397b565b5b036114b5576040517f08c379a00000000000000000000000000000000000000000000000000000000081526004016114ac906150a4565b60405180910390fd5b600d60003373ffffffffffffffffffffffffffffffffffffffff1673ffffffffffffffffffffffffffffffffffffffff16815260200190815260200160002060010160019054906101000a900460ff1615611545576040517f08c379a000000000000000000000000000000000000000000000000000000000815260040161153c90615110565b60405180910390fd5b60405180606001604052808381526020018260028111156115695761156861397b565b5b815260200160011515815250600d60003373ffffffffffffffffffffffffffffffffffffffff1673ffffffffffffffffffffffffffffffffffffffff16815260200190815260200160002060008201518160000190816115c99190615332565b5060208201518160010160006101000a81548160ff021916908360028111156115f5576115f461397b565b5b021790555060408201518160010160016101000a81548160ff0219169083151502179055509050506004339080600181540180825580915050600190039060005260206000200160009091909190916101000a81548173ffffffffffffffffffffffffffffffffffffffff021916908373ffffffffffffffffffffffffffffffffffffffff1602179055503373ffffffffffffffffffffffffffffffffffffffff167f8e18574f8a7333e6a87112742a55853a643e2f0550f4e1a3a2c3f1bb2994441d826040516116c69190614331565b60405180910390a261170c6040518060400160405280601881526020017f526567697374726174696f6e207375636365737366756c2e0000000000000000815250613355565b5050565b60075481565b6009602052816000526040600020818154811061173257600080fd5b9060005260206000209060040201600091509150508060000160009054906101000a900473ffffffffffffffffffffffffffffffffffffffff16908060010154908060020154908060030160009054906101000a900460ff16908060030160019054906101000a900460ff16905085565b60005481565b60066040518060c001604052803373ffffffffffffffffffffffffffffffffffffffff1681526020018473ffffffffffffffffffffffffffffffffffffffff16815260200183815260200160405180602001604052806000815250815260200160001515815260200142815250908060018154018082558091505060019003906000526020600020906006020160009091909190915060008201518160000160006101000a81548173ffffffffffffffffffffffffffffffffffffffff021916908373ffffffffffffffffffffffffffffffffffffffff16021790555060208201518160010160006101000a81548173ffffffffffffffffffffffffffffffffffffffff021916908373ffffffffffffffffffffffffffffffffffffffff16021790555060408201518160020190816118e29190615332565b5060608201518160030190816118f89190615332565b5060808201518160040160006101000a81548160ff02191690831515021790555060a0820151816005015550508173ffffffffffffffffffffffffffffffffffffffff163373ffffffffffffffffffffffffffffffffffffffff167fed910a45fad35ddd97267fbd397fde8f27d5c4cc9e5b54803e2c594b1211cab7836040516119829190615404565b60405180910390a36119c86040518060400160405280601f81526020017f4469737075746520696e69746961746564207375636365737366756c6c792e00815250613355565b5050565b600e6020528060005260406000206000915090505481565b600b6020528160005260406000208181548110611a0057600080fd5b9060005260206000209060030201600091509150508060000154908060010154908060020160009054906101000a900460ff16905083565b60068181548110611a4857600080fd5b90600052602060002090600602016000915090508060000160009054906101000a900473ffffffffffffffffffffffffffffffffffffffff16908060010160009054906101000a900473ffffffffffffffffffffffffffffffffffffffff1690806002018054611ab79061515f565b80601f0160208091040260200160405190810160405280929190818152602001828054611ae39061515f565b8015611b305780601f10611b0557610100808354040283529160200191611b30565b820191906000526020600020905b815481529060010190602001808311611b1357829003601f168201915b505050505090806003018054611b459061515f565b80601f0160208091040260200160405190810160405280929190818152602001828054611b719061515f565b8015611bbe5780601f10611b9357610100808354040283529160200191611bbe565b820191906000526020600020905b815481529060010190602001808311611ba157829003601f168201915b5050505050908060040160009054906101000a900460ff16908060050154905086565b600360009054906101000a900473ffffffffffffffffffffffffffffffffffffffff1673ffffffffffffffffffffffffffffffffffffffff163373ffffffffffffffffffffffffffffffffffffffff1614611c71576040517f08c379a0000000000000000000000000000000000000000000000000000000008152600401611c6890615472565b60405180910390fd5b600a60008273ffffffffffffffffffffffffffffffffffffffff1673ffffffffffffffffffffffffffffffffffffffff1681526020019081526020016000206000611cbc919061366c565b600b60008273ffffffffffffffffffffffffffffffffffffffff1673ffffffffffffffffffffffffffffffffffffffff1681526020019081526020016000206000611d079190613690565b6000600e60008373ffffffffffffffffffffffffffffffffffffffff1673ffffffffffffffffffffffffffffffffffffffff168152602001908152602001600020819055506000600f60008373ffffffffffffffffffffffffffffffffffffffff1673ffffffffffffffffffffffffffffffffffffffff168152602001908152602001600020819055508073ffffffffffffffffffffffffffffffffffffffff167f65480cbdb2e256d00b7bf08f60e0726e75f27b97559cbfdb74a37e4c80086fcd42604051611dd79190613ae8565b60405180910390a250565b6000600754905090565b60026020528160005260406000208181548110611e0857600080fd5b906000526020600020906002020160009150915050806000018054611e2c9061515f565b80601f0160208091040260200160405190810160405280929190818152602001828054611e589061515f565b8015611ea55780601f10611e7a57610100808354040283529160200191611ea5565b820191906000526020600020905b815481529060010190602001808311611e8857829003601f168201915b5050505050908060010154905082565b6000600854905090565b6060600260008373ffffffffffffffffffffffffffffffffffffffff1673ffffffffffffffffffffffffffffffffffffffff168152602001908152602001600020805480602002602001604051908101604052809291908181526020016000905b82821015611fee5783829060005260206000209060020201604051806040016040529081600082018054611f539061515f565b80601f0160208091040260200160405190810160405280929190818152602001828054611f7f9061515f565b8015611fcc5780601f10611fa157610100808354040283529160200191611fcc565b820191906000526020600020905b815481529060010190602001808311611faf57829003601f168201915b5050505050815260200160018201548152505081526020019060010190611f20565b505050509050919050565b6000600d60008373ffffffffffffffffffffffffffffffffffffffff1673ffffffffffffffffffffffffffffffffffffffff16815260200190815260200160002060010160019054906101000a900460ff1661208a576040517f08c379a0000000000000000000000000000000000000000000000000000000008152600401612081906154de565b60405180910390fd5b600d60008373ffffffffffffffffffffffffffffffffffffffff1673ffffffffffffffffffffffffffffffffffffffff16815260200190815260200160002060010160009054906101000a900460ff169050919050565b600360009054906101000a900473ffffffffffffffffffffffffffffffffffffffff1681565b600260003373ffffffffffffffffffffffffffffffffffffffff1673ffffffffffffffffffffffffffffffffffffffff168152602001908152602001600020600061215291906136b4565b565b60606000805b6004805490508110156122085760006004828154811061217d5761217c614b5b565b5b9060005260206000200160009054906101000a900473ffffffffffffffffffffffffffffffffffffffff169050600960008273ffffffffffffffffffffffffffffffffffffffff1673ffffffffffffffffffffffffffffffffffffffff16815260200190815260200160002080549050836121f89190614ae9565b925050808060010191505061215a565b5060008167ffffffffffffffff81111561222557612224613d28565b5b60405190808252806020026020018201604052801561225e57816020015b61224b6136d8565b8152602001906001900390816122435790505b5090506000805b60048054905081101561243c5760006004828154811061228857612287614b5b565b5b9060005260206000200160009054906101000a900473ffffffffffffffffffffffffffffffffffffffff1690506000600960008373ffffffffffffffffffffffffffffffffffffffff1673ffffffffffffffffffffffffffffffffffffffff168152602001908152602001600020905060005b818054905081101561242c5781818154811061231a57612319614b5b565b5b90600052602060002090600402016040518060a00160405290816000820160009054906101000a900473ffffffffffffffffffffffffffffffffffffffff1673ffffffffffffffffffffffffffffffffffffffff1673ffffffffffffffffffffffffffffffffffffffff16815260200160018201548152602001600282015481526020016003820160009054906101000a900460ff1660038111156123c2576123c161397b565b5b60038111156123d4576123d361397b565b5b81526020016003820160019054906101000a900460ff16151515158152505086868151811061240657612405614b5b565b5b6020026020010181905250848061241c906154fe565b95505080806001019150506122fb565b5050508080600101915050612265565b5081935050505090565b600d6020528060005260406000206000915090508060000180546124699061515f565b80601f01602080910402602001604051908101604052809291908181526020018280546124959061515f565b80156124e25780601f106124b7576101008083540402835291602001916124e2565b820191906000526020600020905b8154815290600101906020018083116124c557829003601f168201915b5050505050908060010160009054906101000a900460ff16908060010160019054906101000a900460ff16905083565b600f6020528060005260406000206000915090505481565b60606006805480602002602001604051908101604052809291908181526020016000905b8282101561277557838290600052602060002090600602016040518060c00160405290816000820160009054906101000a900473ffffffffffffffffffffffffffffffffffffffff1673ffffffffffffffffffffffffffffffffffffffff1673ffffffffffffffffffffffffffffffffffffffff1681526020016001820160009054906101000a900473ffffffffffffffffffffffffffffffffffffffff1673ffffffffffffffffffffffffffffffffffffffff1673ffffffffffffffffffffffffffffffffffffffff16815260200160028201805461262d9061515f565b80601f01602080910402602001604051908101604052809291908181526020018280546126599061515f565b80156126a65780601f1061267b576101008083540402835291602001916126a6565b820191906000526020600020905b81548152906001019060200180831161268957829003601f168201915b505050505081526020016003820180546126bf9061515f565b80601f01602080910402602001604051908101604052809291908181526020018280546126eb9061515f565b80156127385780601f1061270d57610100808354040283529160200191612738565b820191906000526020600020905b81548152906001019060200180831161271b57829003601f168201915b505050505081526020016004820160009054906101000a900460ff161515151581526020016005820154815250508152602001906001019061254e565b50505050905090565b600c6020528060005260406000206000915090505481565b60116020528060005260406000206000915090505481565b6000600d60008373ffffffffffffffffffffffffffffffffffffffff1673ffffffffffffffffffffffffffffffffffffffff16815260200190815260200160002060010160019054906101000a900460ff169050919050565b60106020528060005260406000206000915090505481565b6060600960008373ffffffffffffffffffffffffffffffffffffffff1673ffffffffffffffffffffffffffffffffffffffff168152602001908152602001600020805480602002602001604051908101604052809291908181526020016000905b8282101561297257838290600052602060002090600402016040518060a00160405290816000820160009054906101000a900473ffffffffffffffffffffffffffffffffffffffff1673ffffffffffffffffffffffffffffffffffffffff1673ffffffffffffffffffffffffffffffffffffffff16815260200160018201548152602001600282015481526020016003820160009054906101000a900460ff1660038111156129325761293161397b565b5b60038111156129445761294361397b565b5b81526020016003820160019054906101000a900460ff16151515158152505081526020019060010190612880565b505050509050919050565b600360009054906101000a900473ffffffffffffffffffffffffffffffffffffffff1673ffffffffffffffffffffffffffffffffffffffff163373ffffffffffffffffffffffffffffffffffffffff1614612a0d576040517f08c379a0000000000000000000000000000000000000000000000000000000008152600401612a0490615472565b60405180910390fd5b6006805490508210612a54576040517f08c379a0000000000000000000000000000000000000000000000000000000008152600401612a4b90615592565b60405180910390fd5b600060068381548110612a6a57612a69614b5b565b5b906000526020600020906006020190508060040160009054906101000a900460ff1615612acc576040517f08c379a0000000000000000000000000000000000000000000000000000000008152600401612ac3906155fe565b60405180910390fd5b81816003019081612add9190615332565b5060018160040160006101000a81548160ff021916908315150217905550827f831764ac02a33c193cba23a0de34c986e9b50402bf3c9febf6ff2f63d4c0435d83604051612b2b9190615404565b60405180910390a2505050565b60606004805480602002602001604051908101604052809291908181526020018280548015612bbc57602002820191906000526020600020905b8160009054906101000a900473ffffffffffffffffffffffffffffffffffffffff1673ffffffffffffffffffffffffffffffffffffffff1681526020019060010190808311612b72575b5050505050905090565b612bce613731565b6006805490508210612c15576040517f08c379a0000000000000000000000000000000000000000000000000000000008152600401612c0c90615592565b60405180910390fd5b60068281548110612c2957612c28614b5b565b5b90600052602060002090600602016040518060c00160405290816000820160009054906101000a900473ffffffffffffffffffffffffffffffffffffffff1673ffffffffffffffffffffffffffffffffffffffff1673ffffffffffffffffffffffffffffffffffffffff1681526020016001820160009054906101000a900473ffffffffffffffffffffffffffffffffffffffff1673ffffffffffffffffffffffffffffffffffffffff1673ffffffffffffffffffffffffffffffffffffffff168152602001600282018054612cfe9061515f565b80601f0160208091040260200160405190810160405280929190818152602001828054612d2a9061515f565b8015612d775780601f10612d4c57610100808354040283529160200191612d77565b820191906000526020600020905b815481529060010190602001808311612d5a57829003601f168201915b50505050508152602001600382018054612d909061515f565b80601f0160208091040260200160405190810160405280929190818152602001828054612dbc9061515f565b8015612e095780601f10612dde57610100808354040283529160200191612e09565b820191906000526020600020905b815481529060010190602001808311612dec57829003601f168201915b505050505081526020016004820160009054906101000a900460ff161515151581526020016005820154815250509050919050565b600a6020528160005260406000208181548110612e5a57600080fd5b9060005260206000209060030201600091509150508060000154908060010154908060020160009054906101000a900460ff16905083565b600160009054906101000a900473ffffffffffffffffffffffffffffffffffffffff1681565b60008211612efb576040517f08c379a0000000000000000000000000000000000000000000000000000000008152600401612ef290615690565b60405180910390fd5b81600e60008573ffffffffffffffffffffffffffffffffffffffff1673ffffffffffffffffffffffffffffffffffffffff1681526020019081526020016000206000828254612f4a9190614ae9565b92505081905550600a60008473ffffffffffffffffffffffffffffffffffffffff1673ffffffffffffffffffffffffffffffffffffffff1681526020019081526020016000206040518060600160405280848152602001428152602001836003811115612fba57612fb961397b565b5b8152509080600181540180825580915050600190039060005260206000209060030201600090919091909150600082015181600001556020820151816001015560408201518160020160006101000a81548160ff021916908360038111156130255761302461397b565b5b021790555050508273ffffffffffffffffffffffffffffffffffffffff167f5cfb307666c302e735ed249671512540e5ef8425fb38f73e416e0fcab716eac7838342604051613076939291906156b0565b60405180910390a2505050565b6000600754116130c8576040517f08c379a00000000000000000000000000000000000000000000000000000000081526004016130bf90615759565b60405180910390fd5b60006008541161310d576040517f08c379a0000000000000000000000000000000000000000000000000000000008152600401613104906157eb565b60405180910390fd5b600080549050600754816008546131249190614bf6565b61312e9190614cf9565b6000819055507f945c1c4e99aa89f648fbfe3df471b916f719e16d960fcec0737d4d56bd69683881600054604051613167929190614fc3565b60405180910390a150565b6060600060038111156131885761318761397b565b5b82600381111561319b5761319a61397b565b5b036131dd576040518060400160405280600581526020017f536f6c61720000000000000000000000000000000000000000000000000000008152509050613350565b600160038111156131f1576131f061397b565b5b8260038111156132045761320361397b565b5b03613246576040518060400160405280600481526020017f57696e64000000000000000000000000000000000000000000000000000000008152509050613350565b6002600381111561325a5761325961397b565b5b82600381111561326d5761326c61397b565b5b036132af576040518060400160405280600781526020017f42696f6d617373000000000000000000000000000000000000000000000000008152509050613350565b6003808111156132c2576132c161397b565b5b8260038111156132d5576132d461397b565b5b03613317576040518060400160405280600581526020017f546964616c0000000000000000000000000000000000000000000000000000008152509050613350565b6040518060400160405280600781526020017f556e6b6e6f776e0000000000000000000000000000000000000000000000000081525090505b919050565b61335f3382613579565b3373ffffffffffffffffffffffffffffffffffffffff167f927ab60303267b1fef363a283046587ecf3d95a11b4efa11a7234104f261a587826040516133a59190615404565b60405180910390a250565b600082116133f3576040517f08c379a00000000000000000000000000000000000000000000000000000000081526004016133ea9061587d565b60405180910390fd5b81600f60008573ffffffffffffffffffffffffffffffffffffffff1673ffffffffffffffffffffffffffffffffffffffff16815260200190815260200160002060008282546134429190614ae9565b92505081905550600b60008473ffffffffffffffffffffffffffffffffffffffff1673ffffffffffffffffffffffffffffffffffffffff16815260200190815260200160002060405180606001604052808481526020014281526020018360038111156134b2576134b161397b565b5b8152509080600181540180825580915050600190039060005260206000209060030201600090919091909150600082015181600001556020820151816001015560408201518160020160006101000a81548160ff0219169083600381111561351d5761351c61397b565b5b021790555050508273ffffffffffffffffffffffffffffffffffffffff167fadf60b50812cf8de7ced51caa9256fb7531ef821c63929aa890ab3123387d246834260405161356c929190614fc3565b60405180910390a2505050565b600260008373ffffffffffffffffffffffffffffffffffffffff1673ffffffffffffffffffffffffffffffffffffffff1681526020019081526020016000206040518060400160405280838152602001428152509080600181540180825580915050600190039060005260206000209060020201600090919091909150600082015181600001908161360b9190615332565b506020820151816001015550508173ffffffffffffffffffffffffffffffffffffffff167f063b3e1bdf21de17abef88c6601bf357c77ad60ecd1bf6abce40a9c00c9a94db824260405161366092919061414e565b60405180910390a25050565b508054600082556003029060005260206000209081019061368d9190613795565b50565b50805460008255600302906000526020600020908101906136b191906137d0565b50565b50805460008255600202906000526020600020908101906136d5919061380b565b50565b6040518060a00160405280600073ffffffffffffffffffffffffffffffffffffffff1681526020016000815260200160008152602001600060038111156137225761372161397b565b5b81526020016000151581525090565b6040518060c00160405280600073ffffffffffffffffffffffffffffffffffffffff168152602001600073ffffffffffffffffffffffffffffffffffffffff1681526020016060815260200160608152602001600015158152602001600081525090565b5b808211156137cc5760008082016000905560018201600090556002820160006101000a81549060ff021916905550600301613796565b5090565b5b808211156138075760008082016000905560018201600090556002820160006101000a81549060ff0219169055506003016137d1565b5090565b5b808211156138365760008082016000613825919061383a565b60018201600090555060020161380c565b5090565b5080546138469061515f565b6000825580601f106138585750613877565b601f016020900490600052602060002090810190613876919061387a565b5b50565b5b8082111561389357600081600090555060010161387b565b5090565b6000604051905090565b600080fd5b600080fd5b600073ffffffffffffffffffffffffffffffffffffffff82169050919050565b60006138d6826138ab565b9050919050565b6138e6816138cb565b81146138f157600080fd5b50565b600081359050613903816138dd565b92915050565b60006020828403121561391f5761391e6138a1565b5b600061392d848285016138f4565b91505092915050565b600081519050919050565b600082825260208201905092915050565b6000819050602082019050919050565b6000819050919050565b61397581613962565b82525050565b7f4e487b7100000000000000000000000000000000000000000000000000000000600052602160045260246000fd5b600481106139bb576139ba61397b565b5b50565b60008190506139cc826139aa565b919050565b60006139dc826139be565b9050919050565b6139ec816139d1565b82525050565b606082016000820151613a08600085018261396c565b506020820151613a1b602085018261396c565b506040820151613a2e60408501826139e3565b50505050565b6000613a4083836139f2565b60608301905092915050565b6000602082019050919050565b6000613a6482613936565b613a6e8185613941565b9350613a7983613952565b8060005b83811015613aaa578151613a918882613a34565b9750613a9c83613a4c565b925050600181019050613a7d565b5085935050505092915050565b60006020820190508181036000830152613ad18184613a59565b905092915050565b613ae281613962565b82525050565b6000602082019050613afd6000830184613ad9565b92915050565b613b0c81613962565b8114613b1757600080fd5b50565b600081359050613b2981613b03565b92915050565b60048110613b3c57600080fd5b50565b600081359050613b4e81613b2f565b92915050565b600080600060608486031215613b6d57613b6c6138a1565b5b6000613b7b86828701613b1a565b9350506020613b8c86828701613b1a565b9250506040613b9d86828701613b3f565b9150509250925092565b600081519050919050565b600082825260208201905092915050565b6000819050602082019050919050565b606082016000820151613be9600085018261396c565b506020820151613bfc602085018261396c565b506040820151613c0f60408501826139e3565b50505050565b6000613c218383613bd3565b60608301905092915050565b6000602082019050919050565b6000613c4582613ba7565b613c4f8185613bb2565b9350613c5a83613bc3565b8060005b83811015613c8b578151613c728882613c15565b9750613c7d83613c2d565b925050600181019050613c5e565b5085935050505092915050565b60006020820190508181036000830152613cb28184613c3a565b905092915050565b600080600060608486031215613cd357613cd26138a1565b5b6000613ce1868287016138f4565b9350506020613cf286828701613b1a565b9250506040613d0386828701613b1a565b9150509250925092565b600080fd5b600080fd5b6000601f19601f8301169050919050565b7f4e487b7100000000000000000000000000000000000000000000000000000000600052604160045260246000fd5b613d6082613d17565b810181811067ffffffffffffffff82111715613d7f57613d7e613d28565b5b80604052505050565b6000613d92613897565b9050613d9e8282613d57565b919050565b600067ffffffffffffffff821115613dbe57613dbd613d28565b5b613dc782613d17565b9050602081019050919050565b82818337600083830152505050565b6000613df6613df184613da3565b613d88565b905082815260208101848484011115613e1257613e11613d12565b5b613e1d848285613dd4565b509392505050565b600082601f830112613e3a57613e39613d0d565b5b8135613e4a848260208601613de3565b91505092915050565b60038110613e6057600080fd5b50565b600081359050613e7281613e53565b92915050565b60008060408385031215613e8f57613e8e6138a1565b5b600083013567ffffffffffffffff811115613ead57613eac6138a6565b5b613eb985828601613e25565b9250506020613eca85828601613e63565b9150509250929050565b60008060408385031215613eeb57613eea6138a1565b5b6000613ef9858286016138f4565b9250506020613f0a85828601613b1a565b9150509250929050565b613f1d816138cb565b82525050565b613f2c816139d1565b82525050565b60008115159050919050565b613f4781613f32565b82525050565b600060a082019050613f626000830188613f14565b613f6f6020830187613ad9565b613f7c6040830186613ad9565b613f896060830185613f23565b613f966080830184613f3e565b9695505050505050565b60008060408385031215613fb757613fb66138a1565b5b6000613fc5858286016138f4565b925050602083013567ffffffffffffffff811115613fe657613fe56138a6565b5b613ff285828601613e25565b9150509250929050565b60006060820190506140116000830186613ad9565b61401e6020830185613ad9565b61402b6040830184613f23565b949350505050565b600060208284031215614049576140486138a1565b5b600061405784828501613b1a565b91505092915050565b600081519050919050565b600082825260208201905092915050565b60005b8381101561409a57808201518184015260208101905061407f565b60008484015250505050565b60006140b182614060565b6140bb818561406b565b93506140cb81856020860161407c565b6140d481613d17565b840191505092915050565b600060c0820190506140f46000830189613f14565b6141016020830188613f14565b818103604083015261411381876140a6565b9050818103606083015261412781866140a6565b90506141366080830185613f3e565b61414360a0830184613ad9565b979650505050505050565b6000604082019050818103600083015261416881856140a6565b90506141776020830184613ad9565b9392505050565b600081519050919050565b600082825260208201905092915050565b6000819050602082019050919050565b600082825260208201905092915050565b60006141c682614060565b6141d081856141aa565b93506141e081856020860161407c565b6141e981613d17565b840191505092915050565b6000604083016000830151848203600086015261421182826141bb565b9150506020830151614226602086018261396c565b508091505092915050565b600061423d83836141f4565b905092915050565b6000602082019050919050565b600061425d8261417e565b6142678185614189565b9350836020820285016142798561419a565b8060005b858110156142b557848403895281516142968582614231565b94506142a183614245565b925060208a0199505060018101905061427d565b50829750879550505050505092915050565b600060208201905081810360008301526142e18184614252565b905092915050565b600381106142fa576142f961397b565b5b50565b600081905061430b826142e9565b919050565b600061431b826142fd565b9050919050565b61432b81614310565b82525050565b60006020820190506143466000830184614322565b92915050565b60006020820190506143616000830184613f14565b92915050565b600081519050919050565b600082825260208201905092915050565b6000819050602082019050919050565b61439c816138cb565b82525050565b6143ab81613f32565b82525050565b60a0820160008201516143c76000850182614393565b5060208201516143da602085018261396c565b5060408201516143ed604085018261396c565b50606082015161440060608501826139e3565b50608082015161441360808501826143a2565b50505050565b600061442583836143b1565b60a08301905092915050565b6000602082019050919050565b600061444982614367565b6144538185614372565b935061445e83614383565b8060005b8381101561448f5781516144768882614419565b975061448183614431565b925050600181019050614462565b5085935050505092915050565b600060208201905081810360008301526144b6818461443e565b905092915050565b600060608201905081810360008301526144d881866140a6565b90506144e76020830185614322565b6144f46040830184613f3e565b949350505050565b600081519050919050565b600082825260208201905092915050565b6000819050602082019050919050565b600060c0830160008301516145406000860182614393565b5060208301516145536020860182614393565b506040830151848203604086015261456b82826141bb565b9150506060830151848203606086015261458582826141bb565b915050608083015161459a60808601826143a2565b5060a08301516145ad60a086018261396c565b508091505092915050565b60006145c48383614528565b905092915050565b6000602082019050919050565b60006145e4826144fc565b6145ee8185614507565b93508360208202850161460085614518565b8060005b8581101561463c578484038952815161461d85826145b8565b9450614628836145cc565b925060208a01995050600181019050614604565b50829750879550505050505092915050565b6000602082019050818103600083015261466881846145d9565b905092915050565b60006020820190506146856000830184613f3e565b92915050565b600080604083850312156146a2576146a16138a1565b5b60006146b085828601613b1a565b925050602083013567ffffffffffffffff8111156146d1576146d06138a6565b5b6146dd85828601613e25565b9150509250929050565b600081519050919050565b600082825260208201905092915050565b6000819050602082019050919050565b600061471f8383614393565b60208301905092915050565b6000602082019050919050565b6000614743826146e7565b61474d81856146f2565b935061475883614703565b8060005b838110156147895781516147708882614713565b975061477b8361472b565b92505060018101905061475c565b5085935050505092915050565b600060208201905081810360008301526147b08184614738565b905092915050565b600060c0830160008301516147d06000860182614393565b5060208301516147e36020860182614393565b50604083015184820360408601526147fb82826141bb565b9150506060830151848203606086015261481582826141bb565b915050608083015161482a60808601826143a2565b5060a083015161483d60a086018261396c565b508091505092915050565b6000602082019050818103600083015261486281846147b8565b905092915050565b6000819050919050565b600061488f61488a614885846138ab565b61486a565b6138ab565b9050919050565b60006148a182614874565b9050919050565b60006148b382614896565b9050919050565b6148c3816148a8565b82525050565b60006020820190506148de60008301846148ba565b92915050565b7f5265656e7472616e6379206973206e6f7420616c6c6f77656400000000000000600082015250565b600061491a60198361406b565b9150614925826148e4565b602082019050919050565b600060208201905081810360008301526149498161490d565b9050919050565b7f4f6e6c7920726567697374657265642070726f6475636572732063616e20706560008201527f72666f726d207468697320616374696f6e000000000000000000000000000000602082015250565b60006149ac60318361406b565b91506149b782614950565b604082019050919050565b600060208201905081810360008301526149db8161499f565b9050919050565b7f416d6f756e74206d7573742062652067726561746572207468616e207a65726f600082015250565b6000614a1860208361406b565b9150614a23826149e2565b602082019050919050565b60006020820190508181036000830152614a4781614a0b565b9050919050565b7f5072696365206d7573742062652067726561746572207468616e207a65726f00600082015250565b6000614a84601f8361406b565b9150614a8f82614a4e565b602082019050919050565b60006020820190508181036000830152614ab381614a77565b9050919050565b7f4e487b7100000000000000000000000000000000000000000000000000000000600052601160045260246000fd5b6000614af482613962565b9150614aff83613962565b9250828201905080821115614b1757614b16614aba565b5b92915050565b6000606082019050614b326000830186613ad9565b614b3f6020830185613ad9565b8181036040830152614b5181846140a6565b9050949350505050565b7f4e487b7100000000000000000000000000000000000000000000000000000000600052603260045260246000fd5b7f456e65726779206973206e6f7420617661696c61626c6520666f722073616c65600082015250565b6000614bc060208361406b565b9150614bcb82614b8a565b602082019050919050565b60006020820190508181036000830152614bef81614bb3565b9050919050565b6000614c0182613962565b9150614c0c83613962565b9250828202614c1a81613962565b91508282048414831517614c3157614c30614aba565b5b5092915050565b7f496e76616c6964207072696365206f7220657863656564732070726f6475636560008201527f72277320737570706c7900000000000000000000000000000000000000000000602082015250565b6000614c94602a8361406b565b9150614c9f82614c38565b604082019050919050565b60006020820190508181036000830152614cc381614c87565b9050919050565b7f4e487b7100000000000000000000000000000000000000000000000000000000600052601260045260246000fd5b6000614d0482613962565b9150614d0f83613962565b925082614d1f57614d1e614cca565b5b828204905092915050565b7f50726f647563657220646f6573206e6f74206861766520656e6f75676820656e60008201527f6572677900000000000000000000000000000000000000000000000000000000602082015250565b6000614d8660248361406b565b9150614d9182614d2a565b604082019050919050565b60006020820190508181036000830152614db581614d79565b9050919050565b6000604082019050614dd16000830185613f14565b614dde6020830184613f14565b9392505050565b600081519050614df481613b03565b92915050565b600060208284031215614e1057614e0f6138a1565b5b6000614e1e84828501614de5565b91505092915050565b7f416c6c6f77616e636520696e73756666696369656e7400000000000000000000600082015250565b6000614e5d60168361406b565b9150614e6882614e27565b602082019050919050565b60006020820190508181036000830152614e8c81614e50565b9050919050565b7f496e73756666696369656e7420746f6b656e2062616c616e6365000000000000600082015250565b6000614ec9601a8361406b565b9150614ed482614e93565b602082019050919050565b60006020820190508181036000830152614ef881614ebc565b9050919050565b6000606082019050614f146000830186613f14565b614f216020830185613f14565b614f2e6040830184613ad9565b949350505050565b614f3f81613f32565b8114614f4a57600080fd5b50565b600081519050614f5c81614f36565b92915050565b600060208284031215614f7857614f776138a1565b5b6000614f8684828501614f4d565b91505092915050565b6000614f9a82613962565b9150614fa583613962565b9250828203905081811115614fbd57614fbc614aba565b5b92915050565b6000604082019050614fd86000830185613ad9565b614fe56020830184613ad9565b9392505050565b7f496e76616c696420757365722061646472657373000000000000000000000000600082015250565b600061502260148361406b565b915061502d82614fec565b602082019050919050565b6000602082019050818103600083015261505181615015565b9050919050565b7f496e76616c696420757365722074797065000000000000000000000000000000600082015250565b600061508e60118361406b565b915061509982615058565b602082019050919050565b600060208201905081810360008301526150bd81615081565b9050919050565b7f5573657220697320616c72656164792072656769737465726564000000000000600082015250565b60006150fa601a8361406b565b9150615105826150c4565b602082019050919050565b60006020820190508181036000830152615129816150ed565b9050919050565b7f4e487b7100000000000000000000000000000000000000000000000000000000600052602260045260246000fd5b6000600282049050600182168061517757607f821691505b60208210810361518a57615189615130565b5b50919050565b60008190508160005260206000209050919050565b60006020601f8301049050919050565b600082821b905092915050565b6000600883026151f27fffffffffffffffffffffffffffffffffffffffffffffffffffffffffffffffff826151b5565b6151fc86836151b5565b95508019841693508086168417925050509392505050565b600061522f61522a61522584613962565b61486a565b613962565b9050919050565b6000819050919050565b61524983615214565b61525d61525582615236565b8484546151c2565b825550505050565b600090565b615272615265565b61527d818484615240565b505050565b5b818110156152a15761529660008261526a565b600181019050615283565b5050565b601f8211156152e6576152b781615190565b6152c0846151a5565b810160208510156152cf578190505b6152e36152db856151a5565b830182615282565b50505b505050565b600082821c905092915050565b6000615309600019846008026152eb565b1980831691505092915050565b600061532283836152f8565b9150826002028217905092915050565b61533b82614060565b67ffffffffffffffff81111561535457615353613d28565b5b61535e825461515f565b6153698282856152a5565b600060209050601f83116001811461539c576000841561538a578287015190505b6153948582615316565b8655506153fc565b601f1984166153aa86615190565b60005b828110156153d2578489015182556001820191506020850194506020810190506153ad565b868310156153ef57848901516153eb601f8916826152f8565b8355505b6001600288020188555050505b505050505050565b6000602082019050818103600083015261541e81846140a6565b905092915050565b7f4f6e6c79206f776e65722063616e2063616c6c20746869730000000000000000600082015250565b600061545c60188361406b565b915061546782615426565b602082019050919050565b6000602082019050818103600083015261548b8161544f565b9050919050565b7f55736572206973206e6f74207265676973746572656400000000000000000000600082015250565b60006154c860168361406b565b91506154d382615492565b602082019050919050565b600060208201905081810360008301526154f7816154bb565b9050919050565b600061550982613962565b91507fffffffffffffffffffffffffffffffffffffffffffffffffffffffffffffffff820361553b5761553a614aba565b5b600182019050919050565b7f4469737075746520494420646f6573206e6f7420657869737400000000000000600082015250565b600061557c60198361406b565b915061558782615546565b602082019050919050565b600060208201905081810360008301526155ab8161556f565b9050919050565b7f4469737075746520616c7265616479207265736f6c7665640000000000000000600082015250565b60006155e860188361406b565b91506155f3826155b2565b602082019050919050565b60006020820190508181036000830152615617816155db565b9050919050565b7f50726f647563656420616d6f756e74206d75737420626520677265617465722060008201527f7468616e207a65726f0000000000000000000000000000000000000000000000602082015250565b600061567a60298361406b565b91506156858261561e565b604082019050919050565b600060208201905081810360008301526156a98161566d565b9050919050565b60006060820190506156c56000830186613ad9565b6156d26020830185613f23565b6156df6040830184613ad9565b949350505050565b7f546f74616c20737570706c79206d75737420626520677265617465722074686160008201527f6e207a65726f0000000000000000000000000000000000000000000000000000602082015250565b600061574360268361406b565b915061574e826156e7565b604082019050919050565b6000602082019050818103600083015261577281615736565b9050919050565b7f546f74616c2064656d616e64206d75737420626520677265617465722074686160008201527f6e207a65726f0000000000000000000000000000000000000000000000000000602082015250565b60006157d560268361406b565b91506157e082615779565b604082019050919050565b60006020820190508181036000830152615804816157c8565b9050919050565b7f436f6e73756d656420616d6f756e74206d75737420626520677265617465722060008201527f7468616e207a65726f0000000000000000000000000000000000000000000000602082015250565b600061586760298361406b565b91506158728261580b565b604082019050919050565b600060208201905081810360008301526158968161585a565b905091905056fea2646970667358221220f1db89976cb4bf3d494c003b8d78e9ad2b8fa138a33d73e6140052fc0148d08464736f6c634300081a0033",
  "linkReferences": {},
  "deployedLinkReferences": {}
}