{
  "_format": "hh-sol-artifact-1",
  "contractName": "EnergySharing",
  "sourceName": "contracts/EnergySharing.sol",
  "abi": [
    {
      "inputs": [
        {
          "internalType": "uint256",
          "name": "initialPrice",
          "type": "uint256"
        },
        {
          "internalType": "address",
          "name": "_token",
          "type": "address"
        },
        {
          "internalType": "address",
          "name": "_energyMonitoring",
          "type": "address"
        },
        {
          "internalType": "address",
          "name": "_notificationsAndSecurity",
          "type": "address"
        },
        {
          "internalType": "address",
          "name": "_userManagement",
          "type": "address"
        }
      ],
      "stateMutability": "nonpayable",
      "type": "constructor"
    },
    {
      "anonymous": false,
      "inputs": [
        {
          "indexed": true,
          "internalType": "address",
          "name": "initiator",
          "type": "address"
        },
        {
          "indexed": true,
          "internalType": "address",
          "name": "respondent",
          "type": "address"
        },
        {
          "indexed": false,
          "internalType": "string",
          "name": "reason",
          "type": "string"
        }
      ],
      "name": "DisputeInitiated",
      "type": "event"
    },
    {
      "anonymous": false,
      "inputs": [
        {
          "indexed": true,
          "internalType": "uint256",
          "name": "disputeId",
          "type": "uint256"
        },
        {
          "indexed": false,
          "internalType": "string",
          "name": "resolutionDetails",
          "type": "string"
        }
      ],
      "name": "DisputeResolved",
      "type": "event"
    },
    {
      "anonymous": false,
      "inputs": [
        {
          "indexed": true,
          "internalType": "address",
          "name": "producer",
          "type": "address"
        },
        {
          "indexed": true,
          "internalType": "address",
          "name": "consumer",
          "type": "address"
        },
        {
          "indexed": false,
          "internalType": "uint256",
          "name": "amount",
          "type": "uint256"
        },
        {
          "indexed": false,
          "internalType": "uint256",
          "name": "price",
          "type": "uint256"
        }
      ],
      "name": "EnergyBought",
      "type": "event"
    },
    {
      "anonymous": false,
      "inputs": [
        {
          "indexed": true,
          "internalType": "address",
          "name": "producer",
          "type": "address"
        },
        {
          "indexed": false,
          "internalType": "uint256",
          "name": "amount",
          "type": "uint256"
        },
        {
          "indexed": false,
          "internalType": "uint256",
          "name": "price",
          "type": "uint256"
        }
      ],
      "name": "EnergyListed",
      "type": "event"
    },
    {
      "anonymous": false,
      "inputs": [
        {
          "indexed": false,
          "internalType": "uint256",
          "name": "oldPrice",
          "type": "uint256"
        },
        {
          "indexed": false,
          "internalType": "uint256",
          "name": "newPrice",
          "type": "uint256"
        }
      ],
      "name": "PriceUpdated",
      "type": "event"
    },
    {
      "inputs": [
        {
          "internalType": "address",
          "name": "producer",
          "type": "address"
        },
        {
          "internalType": "uint256",
          "name": "amount",
          "type": "uint256"
        }
      ],
      "name": "buyEnergy",
      "outputs": [],
      "stateMutability": "nonpayable",
      "type": "function"
    },
    {
      "inputs": [
        {
          "internalType": "address",
          "name": "",
          "type": "address"
        }
      ],
      "name": "customerDemand",
      "outputs": [
        {
          "internalType": "uint256",
          "name": "",
          "type": "uint256"
        }
      ],
      "stateMutability": "view",
      "type": "function"
    },
    {
      "inputs": [],
      "name": "dynamicPrice",
      "outputs": [
        {
          "internalType": "uint256",
          "name": "",
          "type": "uint256"
        }
      ],
      "stateMutability": "view",
      "type": "function"
    },
    {
      "inputs": [
        {
          "internalType": "address",
          "name": "",
          "type": "address"
        }
      ],
      "name": "energyListings",
      "outputs": [
        {
          "internalType": "address",
          "name": "producer",
          "type": "address"
        },
        {
          "internalType": "uint256",
          "name": "amount",
          "type": "uint256"
        },
        {
          "internalType": "uint256",
          "name": "price",
          "type": "uint256"
        },
        {
          "internalType": "bool",
          "name": "active",
          "type": "bool"
        }
      ],
      "stateMutability": "view",
      "type": "function"
    },
    {
      "inputs": [],
      "name": "energyMonitoring",
      "outputs": [
        {
          "internalType": "contract EnergyMonitoring",
          "name": "",
          "type": "address"
        }
      ],
      "stateMutability": "view",
      "type": "function"
    },
    {
      "inputs": [],
      "name": "fetchAllRecords",
      "outputs": [
        {
          "components": [
            {
              "internalType": "uint256",
              "name": "produced",
              "type": "uint256"
            },
            {
              "internalType": "uint256",
              "name": "consumed",
              "type": "uint256"
            },
            {
              "internalType": "uint256",
              "name": "timestamp",
              "type": "uint256"
            },
            {
              "internalType": "enum EnergyMonitoring.EnergyType",
              "name": "energyType",
              "type": "uint8"
            }
          ],
          "internalType": "struct EnergyMonitoring.EnergyRecord[]",
          "name": "",
          "type": "tuple[]"
        }
      ],
      "stateMutability": "view",
      "type": "function"
    },
    {
      "inputs": [
        {
          "internalType": "address",
          "name": "user",
          "type": "address"
        }
      ],
      "name": "fetchRecords",
      "outputs": [
        {
          "components": [
            {
              "internalType": "uint256",
              "name": "produced",
              "type": "uint256"
            },
            {
              "internalType": "uint256",
              "name": "consumed",
              "type": "uint256"
            },
            {
              "internalType": "uint256",
              "name": "timestamp",
              "type": "uint256"
            },
            {
              "internalType": "enum EnergyMonitoring.EnergyType",
              "name": "energyType",
              "type": "uint8"
            }
          ],
          "internalType": "struct EnergyMonitoring.EnergyRecord[]",
          "name": "",
          "type": "tuple[]"
        }
      ],
      "stateMutability": "view",
      "type": "function"
    },
    {
      "inputs": [],
      "name": "getAllUsers",
      "outputs": [
        {
          "internalType": "address[]",
          "name": "",
          "type": "address[]"
        }
      ],
      "stateMutability": "view",
      "type": "function"
    },
    {
      "inputs": [
        {
          "internalType": "address",
          "name": "userAddress",
          "type": "address"
        }
      ],
      "name": "getUserProfile",
      "outputs": [
        {
          "components": [
            {
              "internalType": "enum UserManagement.UserType",
              "name": "userType",
              "type": "uint8"
            },
            {
              "internalType": "address",
              "name": "walletAddress",
              "type": "address"
            },
            {
              "internalType": "string",
              "name": "name",
              "type": "string"
            },
            {
              "internalType": "string",
              "name": "preferences",
              "type": "string"
            },
            {
              "internalType": "uint256",
              "name": "createdAt",
              "type": "uint256"
            }
          ],
          "internalType": "struct UserManagement.UserProfile",
          "name": "",
          "type": "tuple"
        }
      ],
      "stateMutability": "view",
      "type": "function"
    },
    {
      "inputs": [
        {
          "internalType": "address",
          "name": "userAddress",
          "type": "address"
        }
      ],
      "name": "getUserType",
      "outputs": [
        {
          "internalType": "enum UserManagement.UserType",
          "name": "",
          "type": "uint8"
        }
      ],
      "stateMutability": "view",
      "type": "function"
    },
    {
      "inputs": [
        {
          "internalType": "address",
          "name": "respondent",
          "type": "address"
        },
        {
          "internalType": "string",
          "name": "reason",
          "type": "string"
        }
      ],
      "name": "initiateDispute",
      "outputs": [],
      "stateMutability": "nonpayable",
      "type": "function"
    },
    {
      "inputs": [
        {
          "internalType": "address",
          "name": "userAddress",
          "type": "address"
        }
      ],
      "name": "isRegistered",
      "outputs": [
        {
          "internalType": "bool",
          "name": "",
          "type": "bool"
        }
      ],
      "stateMutability": "view",
      "type": "function"
    },
    {
      "inputs": [
        {
          "internalType": "uint256",
          "name": "amount",
          "type": "uint256"
        },
        {
          "internalType": "enum EnergyMonitoring.EnergyType",
          "name": "energyType",
          "type": "uint8"
        }
      ],
      "name": "listEnergy",
      "outputs": [],
      "stateMutability": "nonpayable",
      "type": "function"
    },
    {
      "inputs": [],
      "name": "notificationsAndSecurity",
      "outputs": [
        {
          "internalType": "contract NotificationsAndSecurity",
          "name": "",
          "type": "address"
        }
      ],
      "stateMutability": "view",
      "type": "function"
    },
    {
      "inputs": [],
      "name": "owner",
      "outputs": [
        {
          "internalType": "address",
          "name": "",
          "type": "address"
        }
      ],
      "stateMutability": "view",
      "type": "function"
    },
    {
      "inputs": [
        {
          "internalType": "address",
          "name": "user",
          "type": "address"
        }
      ],
      "name": "resetUserData",
      "outputs": [],
      "stateMutability": "nonpayable",
      "type": "function"
    },
    {
      "inputs": [
        {
          "internalType": "uint256",
          "name": "disputeId",
          "type": "uint256"
        },
        {
          "internalType": "string",
          "name": "resolutionDetails",
          "type": "string"
        }
      ],
      "name": "resolveDispute",
      "outputs": [],
      "stateMutability": "nonpayable",
      "type": "function"
    },
    {
      "inputs": [],
      "name": "token",
      "outputs": [
        {
          "internalType": "contract IEnergy",
          "name": "",
          "type": "address"
        }
      ],
      "stateMutability": "view",
      "type": "function"
    },
    {
      "inputs": [
        {
          "internalType": "string",
          "name": "newPreferences",
          "type": "string"
        }
      ],
      "name": "updatePreferences",
      "outputs": [],
      "stateMutability": "nonpayable",
      "type": "function"
    },
    {
      "inputs": [],
      "name": "updatePrice",
      "outputs": [],
      "stateMutability": "nonpayable",
      "type": "function"
    },
    {
      "inputs": [],
      "name": "userManagement",
      "outputs": [
        {
          "internalType": "contract UserManagement",
          "name": "",
          "type": "address"
        }
      ],
      "stateMutability": "view",
      "type": "function"
    }
  ],
  "bytecode": "0x608060405234801561001057600080fd5b50604051613acf380380613acf83398181016040528101906100329190610264565b60008511610075576040517f08c379a000000000000000000000000000000000000000000000000000000000815260040161006c90610362565b60405180910390fd5b8460008190555083600160006101000a81548173ffffffffffffffffffffffffffffffffffffffff021916908373ffffffffffffffffffffffffffffffffffffffff16021790555082600260006101000a81548173ffffffffffffffffffffffffffffffffffffffff021916908373ffffffffffffffffffffffffffffffffffffffff16021790555081600360006101000a81548173ffffffffffffffffffffffffffffffffffffffff021916908373ffffffffffffffffffffffffffffffffffffffff16021790555080600460006101000a81548173ffffffffffffffffffffffffffffffffffffffff021916908373ffffffffffffffffffffffffffffffffffffffff16021790555033600560006101000a81548173ffffffffffffffffffffffffffffffffffffffff021916908373ffffffffffffffffffffffffffffffffffffffff1602179055505050505050610382565b600080fd5b6000819050919050565b6101e3816101d0565b81146101ee57600080fd5b50565b600081519050610200816101da565b92915050565b600073ffffffffffffffffffffffffffffffffffffffff82169050919050565b600061023182610206565b9050919050565b61024181610226565b811461024c57600080fd5b50565b60008151905061025e81610238565b92915050565b600080600080600060a086880312156102805761027f6101cb565b5b600061028e888289016101f1565b955050602061029f8882890161024f565b94505060406102b08882890161024f565b93505060606102c18882890161024f565b92505060806102d28882890161024f565b9150509295509295909350565b600082825260208201905092915050565b7f496e697469616c207072696365206d757374206265206772656174657220746860008201527f616e207a65726f00000000000000000000000000000000000000000000000000602082015250565b600061034c6027836102df565b9150610357826102f0565b604082019050919050565b6000602082019050818103600083015261037b8161033f565b9050919050565b61373e806103916000396000f3fe608060405234801561001057600080fd5b50600436106101375760003560e01c80638b3f863f116100b8578063bda30b9a1161007c578063bda30b9a1461033f578063c3c5a5471461035b578063ceec9b821461038b578063cf51b45d146103a9578063e2842d79146103c5578063fc0c546a146103e357610137565b80638b3f863f146102735780638d1e9bb5146102a35780638da5cb5b146102c1578063987ee156146102df578063baa15f6f1461030f57610137565b80636582f06e116100ff5780636582f06e146101cc578063673a7e28146101ff5780636a767f50146102095780637960cb5b146102275780638aac7e121461024357610137565b806328b273d41461013c57806336fd7e1b1461015a5780633d06a9691461017657806340df5af91461019457806345f870af146101b0575b600080fd5b610144610401565b6040516101519190611edd565b60405180910390f35b610174600480360381019061016f9190611f80565b610427565b005b61017e610c6d565b60405161018b9190611fcf565b60405180910390f35b6101ae60048036038101906101a99190612130565b610c73565b005b6101ca60048036038101906101c59190612179565b610d03565b005b6101e660048036038101906101e191906121d5565b610dfb565b6040516101f6949392919061222c565b60405180910390f35b610207610e58565b005b610211611155565b60405161021e9190612292565b60405180910390f35b610241600480360381019061023c91906122d2565b61117b565b005b61025d600480360381019061025891906121d5565b611724565b60405161026a919061249c565b60405180910390f35b61028d600480360381019061028891906121d5565b6117ce565b60405161029a9190612506565b60405180910390f35b6102ab611873565b6040516102b89190612542565b60405180910390f35b6102c9611899565b6040516102d6919061255d565b60405180910390f35b6102f960048036038101906102f491906121d5565b6118bf565b6040516103069190612692565b60405180910390f35b610329600480360381019061032491906121d5565b61196f565b6040516103369190611fcf565b60405180910390f35b610359600480360381019061035491906121d5565b611987565b005b610375600480360381019061037091906121d5565b611aa7565b60405161038291906126b4565b60405180910390f35b610393611b4c565b6040516103a0919061249c565b60405180910390f35b6103c360048036038101906103be91906126cf565b611be9565b005b6103cd611d44565b6040516103da91906127da565b60405180910390f35b6103eb611de1565b6040516103f8919061281d565b60405180910390f35b600360009054906101000a900473ffffffffffffffffffffffffffffffffffffffff1681565b600460149054906101000a900460ff1615610477576040517f08c379a000000000000000000000000000000000000000000000000000000000815260040161046e90612895565b60405180910390fd5b6001600460146101000a81548160ff0219169083151502179055506000600660008473ffffffffffffffffffffffffffffffffffffffff1673ffffffffffffffffffffffffffffffffffffffff16815260200190815260200160002090508060030160009054906101000a900460ff16610526576040517f08c379a000000000000000000000000000000000000000000000000000000000815260040161051d90612901565b60405180910390fd5b818160010154101561056d576040517f08c379a000000000000000000000000000000000000000000000000000000000815260040161056490612993565b60405180910390fd5b81600760003373ffffffffffffffffffffffffffffffffffffffff1673ffffffffffffffffffffffffffffffffffffffff1681526020019081526020016000205410156105ef576040517f08c379a00000000000000000000000000000000000000000000000000000000081526004016105e6906129ff565b60405180910390fd5b60008160020154836106019190612a4e565b905080600160009054906101000a900473ffffffffffffffffffffffffffffffffffffffff1673ffffffffffffffffffffffffffffffffffffffff1663dd62ed3e33306040518363ffffffff1660e01b8152600401610661929190612a90565b602060405180830381865afa15801561067e573d6000803e3d6000fd5b505050506040513d601f19601f820116820180604052508101906106a29190612ace565b10156106e3576040517f08c379a00000000000000000000000000000000000000000000000000000000081526004016106da90612b47565b60405180910390fd5b80600160009054906101000a900473ffffffffffffffffffffffffffffffffffffffff1673ffffffffffffffffffffffffffffffffffffffff166370a08231336040518263ffffffff1660e01b815260040161073f919061255d565b602060405180830381865afa15801561075c573d6000803e3d6000fd5b505050506040513d601f19601f820116820180604052508101906107809190612ace565b10156107c1576040517f08c379a00000000000000000000000000000000000000000000000000000000081526004016107b890612bb3565b60405180910390fd5b600160009054906101000a900473ffffffffffffffffffffffffffffffffffffffff1673ffffffffffffffffffffffffffffffffffffffff166323b872dd3386846040518463ffffffff1660e01b815260040161082093929190612bd3565b6020604051808303816000875af115801561083f573d6000803e3d6000fd5b505050506040513d601f19601f820116820180604052508101906108639190612c36565b50600160009054906101000a900473ffffffffffffffffffffffffffffffffffffffff1673ffffffffffffffffffffffffffffffffffffffff1663095ea7b385836040518363ffffffff1660e01b81526004016108c1929190612c63565b6020604051808303816000875af11580156108e0573d6000803e3d6000fd5b505050506040513d601f19601f820116820180604052508101906109049190612c36565b610943576040517f08c379a000000000000000000000000000000000000000000000000000000000815260040161093a90612cd8565b60405180910390fd5b600060646001836109549190612a4e565b61095e9190612d27565b9050600160009054906101000a900473ffffffffffffffffffffffffffffffffffffffff1673ffffffffffffffffffffffffffffffffffffffff166323b872dd86600560009054906101000a900473ffffffffffffffffffffffffffffffffffffffff16846040518463ffffffff1660e01b81526004016109e193929190612bd3565b6020604051808303816000875af1158015610a00573d6000803e3d6000fd5b505050506040513d601f19601f82011682018060405250810190610a249190612c36565b5083836001016000828254610a399190612d58565b925050819055506000836001015403610a6a5760008360030160006101000a81548160ff0219169083151502179055505b83600760003373ffffffffffffffffffffffffffffffffffffffff1673ffffffffffffffffffffffffffffffffffffffff1681526020019081526020016000206000828254610ab99190612d58565b92505081905550600260009054906101000a900473ffffffffffffffffffffffffffffffffffffffff1673ffffffffffffffffffffffffffffffffffffffff16633406f27f33866040518363ffffffff1660e01b8152600401610b1d929190612c63565b600060405180830381600087803b158015610b3757600080fd5b505af1158015610b4b573d6000803e3d6000fd5b505050503373ffffffffffffffffffffffffffffffffffffffff168573ffffffffffffffffffffffffffffffffffffffff167f942439e1850cccb8201680164759092629ebc0519531d3aeea6a5d9b3578529d868660020154604051610bb2929190612d8c565b60405180910390a3600360009054906101000a900473ffffffffffffffffffffffffffffffffffffffff1673ffffffffffffffffffffffffffffffffffffffff1663c79ed3283387856040518463ffffffff1660e01b8152600401610c1993929190612bd3565b600060405180830381600087803b158015610c3357600080fd5b505af1158015610c47573d6000803e3d6000fd5b505050505050506000600460146101000a81548160ff0219169083151502179055505050565b60005481565b600460009054906101000a900473ffffffffffffffffffffffffffffffffffffffff1673ffffffffffffffffffffffffffffffffffffffff166340df5af9826040518263ffffffff1660e01b8152600401610cce9190612dee565b600060405180830381600087803b158015610ce857600080fd5b505af1158015610cfc573d6000803e3d6000fd5b5050505050565b600360009054906101000a900473ffffffffffffffffffffffffffffffffffffffff1673ffffffffffffffffffffffffffffffffffffffff166345f870af83836040518363ffffffff1660e01b8152600401610d60929190612e10565b600060405180830381600087803b158015610d7a57600080fd5b505af1158015610d8e573d6000803e3d6000fd5b505050508173ffffffffffffffffffffffffffffffffffffffff163373ffffffffffffffffffffffffffffffffffffffff167fed910a45fad35ddd97267fbd397fde8f27d5c4cc9e5b54803e2c594b1211cab783604051610def9190612dee565b60405180910390a35050565b60066020528060005260406000206000915090508060000160009054906101000a900473ffffffffffffffffffffffffffffffffffffffff16908060010154908060020154908060030160009054906101000a900460ff16905084565b600560009054906101000a900473ffffffffffffffffffffffffffffffffffffffff1673ffffffffffffffffffffffffffffffffffffffff163373ffffffffffffffffffffffffffffffffffffffff1614610ee8576040517f08c379a0000000000000000000000000000000000000000000000000000000008152600401610edf90612e8c565b60405180910390fd5b6000600260009054906101000a900473ffffffffffffffffffffffffffffffffffffffff1673ffffffffffffffffffffffffffffffffffffffff16634a63705b600560009054906101000a900473ffffffffffffffffffffffffffffffffffffffff166040518263ffffffff1660e01b8152600401610f67919061255d565b602060405180830381865afa158015610f84573d6000803e3d6000fd5b505050506040513d601f19601f82011682018060405250810190610fa89190612ace565b90506000600260009054906101000a900473ffffffffffffffffffffffffffffffffffffffff1673ffffffffffffffffffffffffffffffffffffffff1663b0c6eb0c600560009054906101000a900473ffffffffffffffffffffffffffffffffffffffff166040518263ffffffff1660e01b8152600401611029919061255d565b602060405180830381865afa158015611046573d6000803e3d6000fd5b505050506040513d601f19601f8201168201806040525081019061106a9190612ace565b9050600082116110af576040517f08c379a00000000000000000000000000000000000000000000000000000000081526004016110a690612ef8565b60405180910390fd5b600081116110f2576040517f08c379a00000000000000000000000000000000000000000000000000000000081526004016110e990612f64565b60405180910390fd5b6000805490508281836111059190612a4e565b61110f9190612d27565b6000819055507f945c1c4e99aa89f648fbfe3df471b916f719e16d960fcec0737d4d56bd69683881600054604051611148929190612d8c565b60405180910390a1505050565b600460009054906101000a900473ffffffffffffffffffffffffffffffffffffffff1681565b600460149054906101000a900460ff16156111cb576040517f08c379a00000000000000000000000000000000000000000000000000000000081526004016111c290612895565b60405180910390fd5b6001600460146101000a81548160ff021916908315150217905550600460009054906101000a900473ffffffffffffffffffffffffffffffffffffffff1673ffffffffffffffffffffffffffffffffffffffff1663c3c5a547336040518263ffffffff1660e01b8152600401611241919061255d565b602060405180830381865afa15801561125e573d6000803e3d6000fd5b505050506040513d601f19601f820116820180604052508101906112829190612c36565b6112c1576040517f08c379a00000000000000000000000000000000000000000000000000000000081526004016112b890612fd0565b60405180910390fd5b600060018111156112d5576112d461234d565b5b600460009054906101000a900473ffffffffffffffffffffffffffffffffffffffff1673ffffffffffffffffffffffffffffffffffffffff16638b3f863f336040518263ffffffff1660e01b8152600401611330919061255d565b602060405180830381865afa15801561134d573d6000803e3d6000fd5b505050506040513d601f19601f820116820180604052508101906113719190613015565b60018111156113835761138261234d565b5b146113c3576040517f08c379a00000000000000000000000000000000000000000000000000000000081526004016113ba906130b4565b60405180910390fd5b60008211611406576040517f08c379a00000000000000000000000000000000000000000000000000000000081526004016113fd90613120565b60405180910390fd5b60001515600660003373ffffffffffffffffffffffffffffffffffffffff1673ffffffffffffffffffffffffffffffffffffffff16815260200190815260200160002060030160009054906101000a900460ff1615151461149c576040517f08c379a0000000000000000000000000000000000000000000000000000000008152600401611493906131b2565b60405180910390fd5b600260009054906101000a900473ffffffffffffffffffffffffffffffffffffffff1673ffffffffffffffffffffffffffffffffffffffff16639f8181963384846040518463ffffffff1660e01b81526004016114fb939291906131e1565b600060405180830381600087803b15801561151557600080fd5b505af1158015611529573d6000803e3d6000fd5b5050505060405180608001604052803373ffffffffffffffffffffffffffffffffffffffff168152602001838152602001600054815260200160011515815250600660003373ffffffffffffffffffffffffffffffffffffffff1673ffffffffffffffffffffffffffffffffffffffff16815260200190815260200160002060008201518160000160006101000a81548173ffffffffffffffffffffffffffffffffffffffff021916908373ffffffffffffffffffffffffffffffffffffffff160217905550602082015181600101556040820151816002015560608201518160030160006101000a81548160ff0219169083151502179055509050503373ffffffffffffffffffffffffffffffffffffffff167fa8c72f46196c6c72e5efdf0d385752f027b7551d646c6661618006668434c8f383600054604051611670929190612d8c565b60405180910390a2600360009054906101000a900473ffffffffffffffffffffffffffffffffffffffff1673ffffffffffffffffffffffffffffffffffffffff1663e72a6867336040518263ffffffff1660e01b81526004016116d39190613264565b600060405180830381600087803b1580156116ed57600080fd5b505af1158015611701573d6000803e3d6000fd5b505050506000600460146101000a81548160ff0219169083151502179055505050565b6060600260009054906101000a900473ffffffffffffffffffffffffffffffffffffffff1673ffffffffffffffffffffffffffffffffffffffff1663a0076e84836040518263ffffffff1660e01b8152600401611781919061255d565b600060405180830381865afa15801561179e573d6000803e3d6000fd5b505050506040513d6000823e3d601f19601f820116820180604052508101906117c791906133f1565b9050919050565b6000600460009054906101000a900473ffffffffffffffffffffffffffffffffffffffff1673ffffffffffffffffffffffffffffffffffffffff16638b3f863f836040518263ffffffff1660e01b815260040161182b919061255d565b602060405180830381865afa158015611848573d6000803e3d6000fd5b505050506040513d601f19601f8201168201806040525081019061186c9190613015565b9050919050565b600260009054906101000a900473ffffffffffffffffffffffffffffffffffffffff1681565b600560009054906101000a900473ffffffffffffffffffffffffffffffffffffffff1681565b6118c7611e07565b600460009054906101000a900473ffffffffffffffffffffffffffffffffffffffff1673ffffffffffffffffffffffffffffffffffffffff1663987ee156836040518263ffffffff1660e01b8152600401611922919061255d565b600060405180830381865afa15801561193f573d6000803e3d6000fd5b505050506040513d6000823e3d601f19601f820116820180604052508101906119689190613583565b9050919050565b60076020528060005260406000206000915090505481565b600560009054906101000a900473ffffffffffffffffffffffffffffffffffffffff1673ffffffffffffffffffffffffffffffffffffffff163373ffffffffffffffffffffffffffffffffffffffff1614611a17576040517f08c379a0000000000000000000000000000000000000000000000000000000008152600401611a0e90612e8c565b60405180910390fd5b600260009054906101000a900473ffffffffffffffffffffffffffffffffffffffff1673ffffffffffffffffffffffffffffffffffffffff1663629faf8a826040518263ffffffff1660e01b8152600401611a72919061255d565b600060405180830381600087803b158015611a8c57600080fd5b505af1158015611aa0573d6000803e3d6000fd5b5050505050565b6000600460009054906101000a900473ffffffffffffffffffffffffffffffffffffffff1673ffffffffffffffffffffffffffffffffffffffff1663c3c5a547836040518263ffffffff1660e01b8152600401611b04919061255d565b602060405180830381865afa158015611b21573d6000803e3d6000fd5b505050506040513d601f19601f82011682018060405250810190611b459190612c36565b9050919050565b6060600260009054906101000a900473ffffffffffffffffffffffffffffffffffffffff1673ffffffffffffffffffffffffffffffffffffffff1663a7f9fe726040518163ffffffff1660e01b8152600401600060405180830381865afa158015611bbb573d6000803e3d6000fd5b505050506040513d6000823e3d601f19601f82011682018060405250810190611be491906133f1565b905090565b600560009054906101000a900473ffffffffffffffffffffffffffffffffffffffff1673ffffffffffffffffffffffffffffffffffffffff163373ffffffffffffffffffffffffffffffffffffffff1614611c79576040517f08c379a0000000000000000000000000000000000000000000000000000000008152600401611c7090612e8c565b60405180910390fd5b600360009054906101000a900473ffffffffffffffffffffffffffffffffffffffff1673ffffffffffffffffffffffffffffffffffffffff1663cf51b45d83836040518363ffffffff1660e01b8152600401611cd69291906135cc565b600060405180830381600087803b158015611cf057600080fd5b505af1158015611d04573d6000803e3d6000fd5b50505050817f831764ac02a33c193cba23a0de34c986e9b50402bf3c9febf6ff2f63d4c0435d82604051611d389190612dee565b60405180910390a25050565b6060600460009054906101000a900473ffffffffffffffffffffffffffffffffffffffff1673ffffffffffffffffffffffffffffffffffffffff1663e2842d796040518163ffffffff1660e01b8152600401600060405180830381865afa158015611db3573d6000803e3d6000fd5b505050506040513d6000823e3d601f19601f82011682018060405250810190611ddc91906136bf565b905090565b600160009054906101000a900473ffffffffffffffffffffffffffffffffffffffff1681565b6040518060a0016040528060006001811115611e2657611e2561234d565b5b8152602001600073ffffffffffffffffffffffffffffffffffffffff1681526020016060815260200160608152602001600081525090565b600073ffffffffffffffffffffffffffffffffffffffff82169050919050565b6000819050919050565b6000611ea3611e9e611e9984611e5e565b611e7e565b611e5e565b9050919050565b6000611eb582611e88565b9050919050565b6000611ec782611eaa565b9050919050565b611ed781611ebc565b82525050565b6000602082019050611ef26000830184611ece565b92915050565b6000604051905090565b600080fd5b600080fd5b6000611f1782611e5e565b9050919050565b611f2781611f0c565b8114611f3257600080fd5b50565b600081359050611f4481611f1e565b92915050565b6000819050919050565b611f5d81611f4a565b8114611f6857600080fd5b50565b600081359050611f7a81611f54565b92915050565b60008060408385031215611f9757611f96611f02565b5b6000611fa585828601611f35565b9250506020611fb685828601611f6b565b9150509250929050565b611fc981611f4a565b82525050565b6000602082019050611fe46000830184611fc0565b92915050565b600080fd5b600080fd5b6000601f19601f8301169050919050565b7f4e487b7100000000000000000000000000000000000000000000000000000000600052604160045260246000fd5b61203d82611ff4565b810181811067ffffffffffffffff8211171561205c5761205b612005565b5b80604052505050565b600061206f611ef8565b905061207b8282612034565b919050565b600067ffffffffffffffff82111561209b5761209a612005565b5b6120a482611ff4565b9050602081019050919050565b82818337600083830152505050565b60006120d36120ce84612080565b612065565b9050828152602081018484840111156120ef576120ee611fef565b5b6120fa8482856120b1565b509392505050565b600082601f83011261211757612116611fea565b5b81356121278482602086016120c0565b91505092915050565b60006020828403121561214657612145611f02565b5b600082013567ffffffffffffffff81111561216457612163611f07565b5b61217084828501612102565b91505092915050565b600080604083850312156121905761218f611f02565b5b600061219e85828601611f35565b925050602083013567ffffffffffffffff8111156121bf576121be611f07565b5b6121cb85828601612102565b9150509250929050565b6000602082840312156121eb576121ea611f02565b5b60006121f984828501611f35565b91505092915050565b61220b81611f0c565b82525050565b60008115159050919050565b61222681612211565b82525050565b60006080820190506122416000830187612202565b61224e6020830186611fc0565b61225b6040830185611fc0565b612268606083018461221d565b95945050505050565b600061227c82611eaa565b9050919050565b61228c81612271565b82525050565b60006020820190506122a76000830184612283565b92915050565b600481106122ba57600080fd5b50565b6000813590506122cc816122ad565b92915050565b600080604083850312156122e9576122e8611f02565b5b60006122f785828601611f6b565b9250506020612308858286016122bd565b9150509250929050565b600081519050919050565b600082825260208201905092915050565b6000819050602082019050919050565b61234781611f4a565b82525050565b7f4e487b7100000000000000000000000000000000000000000000000000000000600052602160045260246000fd5b6004811061238d5761238c61234d565b5b50565b600081905061239e8261237c565b919050565b60006123ae82612390565b9050919050565b6123be816123a3565b82525050565b6080820160008201516123da600085018261233e565b5060208201516123ed602085018261233e565b506040820151612400604085018261233e565b50606082015161241360608501826123b5565b50505050565b600061242583836123c4565b60808301905092915050565b6000602082019050919050565b600061244982612312565b612453818561231d565b935061245e8361232e565b8060005b8381101561248f5781516124768882612419565b975061248183612431565b925050600181019050612462565b5085935050505092915050565b600060208201905081810360008301526124b6818461243e565b905092915050565b600281106124cf576124ce61234d565b5b50565b60008190506124e0826124be565b919050565b60006124f0826124d2565b9050919050565b612500816124e5565b82525050565b600060208201905061251b60008301846124f7565b92915050565b600061252c82611eaa565b9050919050565b61253c81612521565b82525050565b60006020820190506125576000830184612533565b92915050565b60006020820190506125726000830184612202565b92915050565b612581816124e5565b82525050565b61259081611f0c565b82525050565b600081519050919050565b600082825260208201905092915050565b60005b838110156125d05780820151818401526020810190506125b5565b60008484015250505050565b60006125e782612596565b6125f181856125a1565b93506126018185602086016125b2565b61260a81611ff4565b840191505092915050565b600060a08301600083015161262d6000860182612578565b5060208301516126406020860182612587565b506040830151848203604086015261265882826125dc565b9150506060830151848203606086015261267282826125dc565b9150506080830151612687608086018261233e565b508091505092915050565b600060208201905081810360008301526126ac8184612615565b905092915050565b60006020820190506126c9600083018461221d565b92915050565b600080604083850312156126e6576126e5611f02565b5b60006126f485828601611f6b565b925050602083013567ffffffffffffffff81111561271557612714611f07565b5b61272185828601612102565b9150509250929050565b600081519050919050565b600082825260208201905092915050565b6000819050602082019050919050565b60006127638383612587565b60208301905092915050565b6000602082019050919050565b60006127878261272b565b6127918185612736565b935061279c83612747565b8060005b838110156127cd5781516127b48882612757565b97506127bf8361276f565b9250506001810190506127a0565b5085935050505092915050565b600060208201905081810360008301526127f4818461277c565b905092915050565b600061280782611eaa565b9050919050565b612817816127fc565b82525050565b6000602082019050612832600083018461280e565b92915050565b600082825260208201905092915050565b7f5265656e7472616e6379206973206e6f7420616c6c6f77656400000000000000600082015250565b600061287f601983612838565b915061288a82612849565b602082019050919050565b600060208201905081810360008301526128ae81612872565b9050919050565b7f456e65726779206973206e6f7420617661696c61626c6520666f722073616c65600082015250565b60006128eb602083612838565b91506128f6826128b5565b602082019050919050565b6000602082019050818103600083015261291a816128de565b9050919050565b7f50726f647563657220646f6573206e6f74206861766520656e6f75676820737560008201527f72706c7573000000000000000000000000000000000000000000000000000000602082015250565b600061297d602583612838565b915061298882612921565b604082019050919050565b600060208201905081810360008301526129ac81612970565b9050919050565b7f436f6e73756d65722064656d616e6420697320696e73756666696369656e7400600082015250565b60006129e9601f83612838565b91506129f4826129b3565b602082019050919050565b60006020820190508181036000830152612a18816129dc565b9050919050565b7f4e487b7100000000000000000000000000000000000000000000000000000000600052601160045260246000fd5b6000612a5982611f4a565b9150612a6483611f4a565b9250828202612a7281611f4a565b91508282048414831517612a8957612a88612a1f565b5b5092915050565b6000604082019050612aa56000830185612202565b612ab26020830184612202565b9392505050565b600081519050612ac881611f54565b92915050565b600060208284031215612ae457612ae3611f02565b5b6000612af284828501612ab9565b91505092915050565b7f416c6c6f77616e636520696e73756666696369656e7400000000000000000000600082015250565b6000612b31601683612838565b9150612b3c82612afb565b602082019050919050565b60006020820190508181036000830152612b6081612b24565b9050919050565b7f496e73756666696369656e7420746f6b656e2062616c616e6365000000000000600082015250565b6000612b9d601a83612838565b9150612ba882612b67565b602082019050919050565b60006020820190508181036000830152612bcc81612b90565b9050919050565b6000606082019050612be86000830186612202565b612bf56020830185612202565b612c026040830184611fc0565b949350505050565b612c1381612211565b8114612c1e57600080fd5b50565b600081519050612c3081612c0a565b92915050565b600060208284031215612c4c57612c4b611f02565b5b6000612c5a84828501612c21565b91505092915050565b6000604082019050612c786000830185612202565b612c856020830184611fc0565b9392505050565b7f417070726f76616c206661696c65640000000000000000000000000000000000600082015250565b6000612cc2600f83612838565b9150612ccd82612c8c565b602082019050919050565b60006020820190508181036000830152612cf181612cb5565b9050919050565b7f4e487b7100000000000000000000000000000000000000000000000000000000600052601260045260246000fd5b6000612d3282611f4a565b9150612d3d83611f4a565b925082612d4d57612d4c612cf8565b5b828204905092915050565b6000612d6382611f4a565b9150612d6e83611f4a565b9250828203905081811115612d8657612d85612a1f565b5b92915050565b6000604082019050612da16000830185611fc0565b612dae6020830184611fc0565b9392505050565b6000612dc082612596565b612dca8185612838565b9350612dda8185602086016125b2565b612de381611ff4565b840191505092915050565b60006020820190508181036000830152612e088184612db5565b905092915050565b6000604082019050612e256000830185612202565b8181036020830152612e378184612db5565b90509392505050565b7f4f6e6c79206f776e65722063616e2063616c6c20746869730000000000000000600082015250565b6000612e76601883612838565b9150612e8182612e40565b602082019050919050565b60006020820190508181036000830152612ea581612e69565b9050919050565b7f537570706c79206d7573742062652067726561746572207468616e207a65726f600082015250565b6000612ee2602083612838565b9150612eed82612eac565b602082019050919050565b60006020820190508181036000830152612f1181612ed5565b9050919050565b7f44656d616e64206d7573742062652067726561746572207468616e207a65726f600082015250565b6000612f4e602083612838565b9150612f5982612f18565b602082019050919050565b60006020820190508181036000830152612f7d81612f41565b9050919050565b7f55736572206973206e6f74207265676973746572656400000000000000000000600082015250565b6000612fba601683612838565b9150612fc582612f84565b602082019050919050565b60006020820190508181036000830152612fe981612fad565b9050919050565b60028110612ffd57600080fd5b50565b60008151905061300f81612ff0565b92915050565b60006020828403121561302b5761302a611f02565b5b600061303984828501613000565b91505092915050565b7f4f6e6c792070726f6475636572732063616e20706572666f726d20746869732060008201527f616374696f6e0000000000000000000000000000000000000000000000000000602082015250565b600061309e602683612838565b91506130a982613042565b604082019050919050565b600060208201905081810360008301526130cd81613091565b9050919050565b7f416d6f756e74206d7573742062652067726561746572207468616e207a65726f600082015250565b600061310a602083612838565b9150613115826130d4565b602082019050919050565b60006020820190508181036000830152613139816130fd565b9050919050565b7f4578697374696e67206c697374696e67206d75737420626520696e616374697660008201527f6500000000000000000000000000000000000000000000000000000000000000602082015250565b600061319c602183612838565b91506131a782613140565b604082019050919050565b600060208201905081810360008301526131cb8161318f565b9050919050565b6131db816123a3565b82525050565b60006060820190506131f66000830186612202565b6132036020830185611fc0565b61321060408301846131d2565b949350505050565b7f456e65726779206c6973746564207375636365737366756c6c79000000000000600082015250565b600061324e601a83612838565b915061325982613218565b602082019050919050565b60006040820190506132796000830184612202565b818103602083015261328a81613241565b905092915050565b600067ffffffffffffffff8211156132ad576132ac612005565b5b602082029050602081019050919050565b600080fd5b600080fd5b600080fd5b6000815190506132dc816122ad565b92915050565b6000608082840312156132f8576132f76132c3565b5b6133026080612065565b9050600061331284828501612ab9565b600083015250602061332684828501612ab9565b602083015250604061333a84828501612ab9565b604083015250606061334e848285016132cd565b60608301525092915050565b600061336d61336884613292565b612065565b905080838252602082019050608084028301858111156133905761338f6132be565b5b835b818110156133b957806133a588826132e2565b845260208401935050608081019050613392565b5050509392505050565b600082601f8301126133d8576133d7611fea565b5b81516133e884826020860161335a565b91505092915050565b60006020828403121561340757613406611f02565b5b600082015167ffffffffffffffff81111561342557613424611f07565b5b613431848285016133c3565b91505092915050565b60008151905061344981611f1e565b92915050565b600061346261345d84612080565b612065565b90508281526020810184848401111561347e5761347d611fef565b5b6134898482856125b2565b509392505050565b600082601f8301126134a6576134a5611fea565b5b81516134b684826020860161344f565b91505092915050565b600060a082840312156134d5576134d46132c3565b5b6134df60a0612065565b905060006134ef84828501613000565b60008301525060206135038482850161343a565b602083015250604082015167ffffffffffffffff811115613527576135266132c8565b5b61353384828501613491565b604083015250606082015167ffffffffffffffff811115613557576135566132c8565b5b61356384828501613491565b606083015250608061357784828501612ab9565b60808301525092915050565b60006020828403121561359957613598611f02565b5b600082015167ffffffffffffffff8111156135b7576135b6611f07565b5b6135c3848285016134bf565b91505092915050565b60006040820190506135e16000830185611fc0565b81810360208301526135f38184612db5565b90509392505050565b600067ffffffffffffffff82111561361757613616612005565b5b602082029050602081019050919050565b600061363b613636846135fc565b612065565b9050808382526020820190506020840283018581111561365e5761365d6132be565b5b835b818110156136875780613673888261343a565b845260208401935050602081019050613660565b5050509392505050565b600082601f8301126136a6576136a5611fea565b5b81516136b6848260208601613628565b91505092915050565b6000602082840312156136d5576136d4611f02565b5b600082015167ffffffffffffffff8111156136f3576136f2611f07565b5b6136ff84828501613691565b9150509291505056fea264697066735822122020bb828c4ae31286bb80bc15109f0184f74f48968678f430cac2dd1fa284279b64736f6c634300081a0033",
  "linkReferences": {},
  "deployedLinkReferences": {}
}