{
  "_format": "hh-sol-artifact-1",
  "contractName": "EnergyCredits",
  "sourceName": "contracts/EnergyCredits.sol",
  "abi": [
    {
      "inputs": [],
      "stateMutability": "nonpayable",
      "type": "constructor"
    },
    {
      "anonymous": false,
      "inputs": [
        {
          "indexed": true,
          "internalType": "address",
          "name": "owner",
          "type": "address"
        },
        {
          "indexed": true,
          "internalType": "address",
          "name": "spender",
          "type": "address"
        },
        {
          "indexed": false,
          "internalType": "uint256",
          "name": "amount",
          "type": "uint256"
        }
      ],
      "name": "Approval",
      "type": "event"
    },
    {
      "anonymous": false,
      "inputs": [
        {
          "indexed": true,
          "internalType": "address",
          "name": "account",
          "type": "address"
        },
        {
          "indexed": false,
          "internalType": "uint256",
          "name": "amount",
          "type": "uint256"
        }
      ],
      "name": "Burn",
      "type": "event"
    },
    {
      "anonymous": false,
      "inputs": [
        {
          "indexed": true,
          "internalType": "address",
          "name": "recipient",
          "type": "address"
        },
        {
          "indexed": false,
          "internalType": "uint256",
          "name": "amount",
          "type": "uint256"
        }
      ],
      "name": "Mint",
      "type": "event"
    },
    {
      "anonymous": false,
      "inputs": [
        {
          "indexed": true,
          "internalType": "address",
          "name": "sender",
          "type": "address"
        },
        {
          "indexed": true,
          "internalType": "address",
          "name": "receiver",
          "type": "address"
        },
        {
          "indexed": false,
          "internalType": "uint256",
          "name": "amount",
          "type": "uint256"
        }
      ],
      "name": "Transfer",
      "type": "event"
    },
    {
      "inputs": [
        {
          "internalType": "address",
          "name": "account",
          "type": "address"
        },
        {
          "internalType": "address",
          "name": "spender",
          "type": "address"
        }
      ],
      "name": "allowance",
      "outputs": [
        {
          "internalType": "uint256",
          "name": "",
          "type": "uint256"
        }
      ],
      "stateMutability": "view",
      "type": "function"
    },
    {
      "inputs": [
        {
          "internalType": "address",
          "name": "spender",
          "type": "address"
        },
        {
          "internalType": "uint256",
          "name": "amount",
          "type": "uint256"
        }
      ],
      "name": "approve",
      "outputs": [
        {
          "internalType": "bool",
          "name": "",
          "type": "bool"
        }
      ],
      "stateMutability": "nonpayable",
      "type": "function"
    },
    {
      "inputs": [
        {
          "internalType": "address",
          "name": "account",
          "type": "address"
        }
      ],
      "name": "balanceOf",
      "outputs": [
        {
          "internalType": "uint256",
          "name": "",
          "type": "uint256"
        }
      ],
      "stateMutability": "view",
      "type": "function"
    },
    {
      "inputs": [
        {
          "internalType": "uint256",
          "name": "amount",
          "type": "uint256"
        }
      ],
      "name": "burn",
      "outputs": [],
      "stateMutability": "nonpayable",
      "type": "function"
    },
    {
      "inputs": [],
      "name": "decimals",
      "outputs": [
        {
          "internalType": "uint8",
          "name": "",
          "type": "uint8"
        }
      ],
      "stateMutability": "view",
      "type": "function"
    },
    {
      "inputs": [
        {
          "internalType": "uint256",
          "name": "amount",
          "type": "uint256"
        },
        {
          "internalType": "address",
          "name": "recipient",
          "type": "address"
        }
      ],
      "name": "mint",
      "outputs": [],
      "stateMutability": "nonpayable",
      "type": "function"
    },
    {
      "inputs": [],
      "name": "owner",
      "outputs": [
        {
          "internalType": "address",
          "name": "",
          "type": "address"
        }
      ],
      "stateMutability": "view",
      "type": "function"
    },
    {
      "inputs": [],
      "name": "tokenName",
      "outputs": [
        {
          "internalType": "string",
          "name": "",
          "type": "string"
        }
      ],
      "stateMutability": "view",
      "type": "function"
    },
    {
      "inputs": [],
      "name": "tokenSymbol",
      "outputs": [
        {
          "internalType": "string",
          "name": "",
          "type": "string"
        }
      ],
      "stateMutability": "view",
      "type": "function"
    },
    {
      "inputs": [],
      "name": "totalSupply",
      "outputs": [
        {
          "internalType": "uint256",
          "name": "",
          "type": "uint256"
        }
      ],
      "stateMutability": "view",
      "type": "function"
    },
    {
      "inputs": [
        {
          "internalType": "address",
          "name": "recipient",
          "type": "address"
        },
        {
          "internalType": "uint256",
          "name": "amount",
          "type": "uint256"
        }
      ],
      "name": "transfer",
      "outputs": [
        {
          "internalType": "bool",
          "name": "",
          "type": "bool"
        }
      ],
      "stateMutability": "nonpayable",
      "type": "function"
    },
    {
      "inputs": [
        {
          "internalType": "address",
          "name": "sender",
          "type": "address"
        },
        {
          "internalType": "address",
          "name": "recipient",
          "type": "address"
        },
        {
          "internalType": "uint256",
          "name": "amount",
          "type": "uint256"
        }
      ],
      "name": "transferFrom",
      "outputs": [
        {
          "internalType": "bool",
          "name": "",
          "type": "bool"
        }
      ],
      "stateMutability": "nonpayable",
      "type": "function"
    }
  ],
  "bytecode": "0x60806040526040518060400160405280600781526020017f45746847726964000000000000000000000000000000000000000000000000008152506000908161004891906104a6565b506040518060400160405280600381526020017f45544300000000000000000000000000000000000000000000000000000000008152506001908161008d91906104a6565b5034801561009a57600080fd5b5033600360006101000a81548173ffffffffffffffffffffffffffffffffffffffff021916908373ffffffffffffffffffffffffffffffffffffffff16021790555061012a600360009054906101000a900473ffffffffffffffffffffffffffffffffffffffff166012600a61011091906106e7565b633b9aca0061011f9190610732565b61012f60201b60201c565b6107d2565b80600460008473ffffffffffffffffffffffffffffffffffffffff1673ffffffffffffffffffffffffffffffffffffffff168152602001908152602001600020600082825461017e9190610774565b9250508190555080600260008282546101979190610774565b925050819055508173ffffffffffffffffffffffffffffffffffffffff167f0f6798a560793a54c3bcfe86a93cde1e73087d944c0ea20544137d4121396885826040516101e491906107b7565b60405180910390a28173ffffffffffffffffffffffffffffffffffffffff16600073ffffffffffffffffffffffffffffffffffffffff167fddf252ad1be2c89b69c2b068fc378daa952ba7f163c4a11628f55a4df523b3ef8360405161024a91906107b7565b60405180910390a35050565b600081519050919050565b7f4e487b7100000000000000000000000000000000000000000000000000000000600052604160045260246000fd5b7f4e487b7100000000000000000000000000000000000000000000000000000000600052602260045260246000fd5b600060028204905060018216806102d757607f821691505b6020821081036102ea576102e9610290565b5b50919050565b60008190508160005260206000209050919050565b60006020601f8301049050919050565b600082821b905092915050565b6000600883026103527fffffffffffffffffffffffffffffffffffffffffffffffffffffffffffffffff82610315565b61035c8683610315565b95508019841693508086168417925050509392505050565b6000819050919050565b6000819050919050565b60006103a361039e61039984610374565b61037e565b610374565b9050919050565b6000819050919050565b6103bd83610388565b6103d16103c9826103aa565b848454610322565b825550505050565b600090565b6103e66103d9565b6103f18184846103b4565b505050565b5b818110156104155761040a6000826103de565b6001810190506103f7565b5050565b601f82111561045a5761042b816102f0565b61043484610305565b81016020851015610443578190505b61045761044f85610305565b8301826103f6565b50505b505050565b600082821c905092915050565b600061047d6000198460080261045f565b1980831691505092915050565b6000610496838361046c565b9150826002028217905092915050565b6104af82610256565b67ffffffffffffffff8111156104c8576104c7610261565b5b6104d282546102bf565b6104dd828285610419565b600060209050601f83116001811461051057600084156104fe578287015190505b610508858261048a565b865550610570565b601f19841661051e866102f0565b60005b8281101561054657848901518255600182019150602085019450602081019050610521565b86831015610563578489015161055f601f89168261046c565b8355505b6001600288020188555050505b505050505050565b7f4e487b7100000000000000000000000000000000000000000000000000000000600052601160045260246000fd5b60008160011c9050919050565b6000808291508390505b60018511156105fe578086048111156105da576105d9610578565b5b60018516156105e95780820291505b80810290506105f7856105a7565b94506105be565b94509492505050565b60008261061757600190506106d3565b8161062557600090506106d3565b816001811461063b576002811461064557610674565b60019150506106d3565b60ff84111561065757610656610578565b5b8360020a91508482111561066e5761066d610578565b5b506106d3565b5060208310610133831016604e8410600b84101617156106a95782820a9050838111156106a4576106a3610578565b5b6106d3565b6106b684848460016105b4565b925090508184048111156106cd576106cc610578565b5b81810290505b9392505050565b600060ff82169050919050565b60006106f282610374565b91506106fd836106da565b925061072a7fffffffffffffffffffffffffffffffffffffffffffffffffffffffffffffffff8484610607565b905092915050565b600061073d82610374565b915061074883610374565b925082820261075681610374565b9150828204841483151761076d5761076c610578565b5b5092915050565b600061077f82610374565b915061078a83610374565b92508282019050808211156107a2576107a1610578565b5b92915050565b6107b181610374565b82525050565b60006020820190506107cc60008301846107a8565b92915050565b611a4e806107e16000396000f3fe608060405234801561001057600080fd5b50600436106100b45760003560e01c806370a082311161007157806370a082311461018f5780637b61c320146101bf5780638da5cb5b146101dd57806394bf804d146101fb578063a9059cbb14610217578063dd62ed3e14610247576100b4565b8063095ea7b3146100b957806318160ddd146100e957806323b872dd14610107578063313ce5671461013757806342966c68146101555780636c02a93114610171575b600080fd5b6100d360048036038101906100ce91906111e3565b610277565b6040516100e0919061123e565b60405180910390f35b6100f16103d7565b6040516100fe9190611268565b60405180910390f35b610121600480360381019061011c9190611283565b6103dd565b60405161012e919061123e565b60405180910390f35b61013f610833565b60405161014c91906112f2565b60405180910390f35b61016f600480360381019061016a919061130d565b610838565b005b610179610a70565b60405161018691906113ca565b60405180910390f35b6101a960048036038101906101a491906113ec565b610afe565b6040516101b69190611268565b60405180910390f35b6101c7610b47565b6040516101d491906113ca565b60405180910390f35b6101e5610bd5565b6040516101f29190611428565b60405180910390f35b61021560048036038101906102109190611443565b610bfb565b005b610231600480360381019061022c91906111e3565b610d08565b60405161023e919061123e565b60405180910390f35b610261600480360381019061025c9190611483565b610f9c565b60405161026e9190611268565b60405180910390f35b60008073ffffffffffffffffffffffffffffffffffffffff168373ffffffffffffffffffffffffffffffffffffffff16036102e7576040517f08c379a00000000000000000000000000000000000000000000000000000000081526004016102de9061150f565b60405180910390fd5b81600560003373ffffffffffffffffffffffffffffffffffffffff1673ffffffffffffffffffffffffffffffffffffffff16815260200190815260200160002060008573ffffffffffffffffffffffffffffffffffffffff1673ffffffffffffffffffffffffffffffffffffffff168152602001908152602001600020819055508273ffffffffffffffffffffffffffffffffffffffff163373ffffffffffffffffffffffffffffffffffffffff167f8c5be1e5ebec7d5bd14f71427d1e84f3dd0314c0f7b2291e5b200ac8c7c3b925846040516103c59190611268565b60405180910390a36001905092915050565b60025481565b6000600660009054906101000a900460ff161561042f576040517f08c379a00000000000000000000000000000000000000000000000000000000081526004016104269061157b565b60405180910390fd5b6001600660006101000a81548160ff021916908315150217905550600073ffffffffffffffffffffffffffffffffffffffff168473ffffffffffffffffffffffffffffffffffffffff16036104b9576040517f08c379a00000000000000000000000000000000000000000000000000000000081526004016104b0906115e7565b60405180910390fd5b600073ffffffffffffffffffffffffffffffffffffffff168373ffffffffffffffffffffffffffffffffffffffff1603610528576040517f08c379a000000000000000000000000000000000000000000000000000000000815260040161051f90611653565b60405180910390fd5b600460008573ffffffffffffffffffffffffffffffffffffffff1673ffffffffffffffffffffffffffffffffffffffff168152602001908152602001600020548211156105aa576040517f08c379a00000000000000000000000000000000000000000000000000000000081526004016105a1906116bf565b60405180910390fd5b600560008573ffffffffffffffffffffffffffffffffffffffff1673ffffffffffffffffffffffffffffffffffffffff16815260200190815260200160002060003373ffffffffffffffffffffffffffffffffffffffff1673ffffffffffffffffffffffffffffffffffffffff16815260200190815260200160002054821115610669576040517f08c379a00000000000000000000000000000000000000000000000000000000081526004016106609061172b565b60405180910390fd5b81600460008673ffffffffffffffffffffffffffffffffffffffff1673ffffffffffffffffffffffffffffffffffffffff16815260200190815260200160002060008282546106b8919061177a565b9250508190555081600560008673ffffffffffffffffffffffffffffffffffffffff1673ffffffffffffffffffffffffffffffffffffffff16815260200190815260200160002060003373ffffffffffffffffffffffffffffffffffffffff1673ffffffffffffffffffffffffffffffffffffffff168152602001908152602001600020600082825461074b919061177a565b9250508190555081600460008573ffffffffffffffffffffffffffffffffffffffff1673ffffffffffffffffffffffffffffffffffffffff16815260200190815260200160002060008282546107a191906117ae565b925050819055508273ffffffffffffffffffffffffffffffffffffffff168473ffffffffffffffffffffffffffffffffffffffff167fddf252ad1be2c89b69c2b068fc378daa952ba7f163c4a11628f55a4df523b3ef846040516108059190611268565b60405180910390a3600190506000600660006101000a81548160ff0219169083151502179055509392505050565b601281565b600360009054906101000a900473ffffffffffffffffffffffffffffffffffffffff1673ffffffffffffffffffffffffffffffffffffffff163373ffffffffffffffffffffffffffffffffffffffff16146108c8576040517f08c379a00000000000000000000000000000000000000000000000000000000081526004016108bf90611854565b60405180910390fd5b600460003373ffffffffffffffffffffffffffffffffffffffff1673ffffffffffffffffffffffffffffffffffffffff1681526020019081526020016000205481111561094a576040517f08c379a0000000000000000000000000000000000000000000000000000000008152600401610941906118c0565b60405180910390fd5b80600460003373ffffffffffffffffffffffffffffffffffffffff1673ffffffffffffffffffffffffffffffffffffffff1681526020019081526020016000206000828254610999919061177a565b9250508190555080600260008282546109b2919061177a565b925050819055503373ffffffffffffffffffffffffffffffffffffffff167fcc16f5dbb4873280815c1ee09dbd06736cffcc184412cf7a71a0fdb75d397ca5826040516109ff9190611268565b60405180910390a2600073ffffffffffffffffffffffffffffffffffffffff163373ffffffffffffffffffffffffffffffffffffffff167fddf252ad1be2c89b69c2b068fc378daa952ba7f163c4a11628f55a4df523b3ef83604051610a659190611268565b60405180910390a350565b60008054610a7d9061190f565b80601f0160208091040260200160405190810160405280929190818152602001828054610aa99061190f565b8015610af65780601f10610acb57610100808354040283529160200191610af6565b820191906000526020600020905b815481529060010190602001808311610ad957829003601f168201915b505050505081565b6000600460008373ffffffffffffffffffffffffffffffffffffffff1673ffffffffffffffffffffffffffffffffffffffff168152602001908152602001600020549050919050565b60018054610b549061190f565b80601f0160208091040260200160405190810160405280929190818152602001828054610b809061190f565b8015610bcd5780601f10610ba257610100808354040283529160200191610bcd565b820191906000526020600020905b815481529060010190602001808311610bb057829003601f168201915b505050505081565b600360009054906101000a900473ffffffffffffffffffffffffffffffffffffffff1681565b600360009054906101000a900473ffffffffffffffffffffffffffffffffffffffff1673ffffffffffffffffffffffffffffffffffffffff163373ffffffffffffffffffffffffffffffffffffffff1614610c8b576040517f08c379a0000000000000000000000000000000000000000000000000000000008152600401610c8290611854565b60405180910390fd5b600073ffffffffffffffffffffffffffffffffffffffff168173ffffffffffffffffffffffffffffffffffffffff1603610cfa576040517f08c379a0000000000000000000000000000000000000000000000000000000008152600401610cf19061198c565b60405180910390fd5b610d048183611023565b5050565b6000600660009054906101000a900460ff1615610d5a576040517f08c379a0000000000000000000000000000000000000000000000000000000008152600401610d519061157b565b60405180910390fd5b6001600660006101000a81548160ff021916908315150217905550600073ffffffffffffffffffffffffffffffffffffffff168373ffffffffffffffffffffffffffffffffffffffff1603610de4576040517f08c379a0000000000000000000000000000000000000000000000000000000008152600401610ddb90611653565b60405180910390fd5b600460003373ffffffffffffffffffffffffffffffffffffffff1673ffffffffffffffffffffffffffffffffffffffff16815260200190815260200160002054821115610e66576040517f08c379a0000000000000000000000000000000000000000000000000000000008152600401610e5d906119f8565b60405180910390fd5b81600460003373ffffffffffffffffffffffffffffffffffffffff1673ffffffffffffffffffffffffffffffffffffffff1681526020019081526020016000206000828254610eb5919061177a565b9250508190555081600460008573ffffffffffffffffffffffffffffffffffffffff1673ffffffffffffffffffffffffffffffffffffffff1681526020019081526020016000206000828254610f0b91906117ae565b925050819055508273ffffffffffffffffffffffffffffffffffffffff163373ffffffffffffffffffffffffffffffffffffffff167fddf252ad1be2c89b69c2b068fc378daa952ba7f163c4a11628f55a4df523b3ef84604051610f6f9190611268565b60405180910390a3600190506000600660006101000a81548160ff02191690831515021790555092915050565b6000600560008473ffffffffffffffffffffffffffffffffffffffff1673ffffffffffffffffffffffffffffffffffffffff16815260200190815260200160002060008373ffffffffffffffffffffffffffffffffffffffff1673ffffffffffffffffffffffffffffffffffffffff16815260200190815260200160002054905092915050565b80600460008473ffffffffffffffffffffffffffffffffffffffff1673ffffffffffffffffffffffffffffffffffffffff168152602001908152602001600020600082825461107291906117ae565b92505081905550806002600082825461108b91906117ae565b925050819055508173ffffffffffffffffffffffffffffffffffffffff167f0f6798a560793a54c3bcfe86a93cde1e73087d944c0ea20544137d4121396885826040516110d89190611268565b60405180910390a28173ffffffffffffffffffffffffffffffffffffffff16600073ffffffffffffffffffffffffffffffffffffffff167fddf252ad1be2c89b69c2b068fc378daa952ba7f163c4a11628f55a4df523b3ef8360405161113e9190611268565b60405180910390a35050565b600080fd5b600073ffffffffffffffffffffffffffffffffffffffff82169050919050565b600061117a8261114f565b9050919050565b61118a8161116f565b811461119557600080fd5b50565b6000813590506111a781611181565b92915050565b6000819050919050565b6111c0816111ad565b81146111cb57600080fd5b50565b6000813590506111dd816111b7565b92915050565b600080604083850312156111fa576111f961114a565b5b600061120885828601611198565b9250506020611219858286016111ce565b9150509250929050565b60008115159050919050565b61123881611223565b82525050565b6000602082019050611253600083018461122f565b92915050565b611262816111ad565b82525050565b600060208201905061127d6000830184611259565b92915050565b60008060006060848603121561129c5761129b61114a565b5b60006112aa86828701611198565b93505060206112bb86828701611198565b92505060406112cc868287016111ce565b9150509250925092565b600060ff82169050919050565b6112ec816112d6565b82525050565b600060208201905061130760008301846112e3565b92915050565b6000602082840312156113235761132261114a565b5b6000611331848285016111ce565b91505092915050565b600081519050919050565b600082825260208201905092915050565b60005b83811015611374578082015181840152602081019050611359565b60008484015250505050565b6000601f19601f8301169050919050565b600061139c8261133a565b6113a68185611345565b93506113b6818560208601611356565b6113bf81611380565b840191505092915050565b600060208201905081810360008301526113e48184611391565b905092915050565b6000602082840312156114025761140161114a565b5b600061141084828501611198565b91505092915050565b6114228161116f565b82525050565b600060208201905061143d6000830184611419565b92915050565b6000806040838503121561145a5761145961114a565b5b6000611468858286016111ce565b925050602061147985828601611198565b9150509250929050565b6000806040838503121561149a5761149961114a565b5b60006114a885828601611198565b92505060206114b985828601611198565b9150509250929050565b7f5370656e64657220616464726573732063616e6e6f74206265207a65726f0000600082015250565b60006114f9601e83611345565b9150611504826114c3565b602082019050919050565b60006020820190508181036000830152611528816114ec565b9050919050565b7f4e6f207265656e7472616e637920616c6c6f7765640000000000000000000000600082015250565b6000611565601583611345565b91506115708261152f565b602082019050919050565b6000602082019050818103600083015261159481611558565b9050919050565b7f53656e64657220616464726573732063616e6e6f74206265207a65726f000000600082015250565b60006115d1601d83611345565b91506115dc8261159b565b602082019050919050565b60006020820190508181036000830152611600816115c4565b9050919050565b7f526563656976657220616464726573732063616e6e6f74206265207a65726f00600082015250565b600061163d601f83611345565b915061164882611607565b602082019050919050565b6000602082019050818103600083015261166c81611630565b9050919050565b7f496e73756666696369656e742062616c616e6365206f662073656e6465720000600082015250565b60006116a9601e83611345565b91506116b482611673565b602082019050919050565b600060208201905081810360008301526116d88161169c565b9050919050565b7f416c6c6f77616e63652065786365656465640000000000000000000000000000600082015250565b6000611715601283611345565b9150611720826116df565b602082019050919050565b6000602082019050818103600083015261174481611708565b9050919050565b7f4e487b7100000000000000000000000000000000000000000000000000000000600052601160045260246000fd5b6000611785826111ad565b9150611790836111ad565b92508282039050818111156117a8576117a761174b565b5b92915050565b60006117b9826111ad565b91506117c4836111ad565b92508282019050808211156117dc576117db61174b565b5b92915050565b7f4f6e6c792074686520636f6e7472616374206f776e65722063616e2063616c6c60008201527f20746869732066756e6374696f6e000000000000000000000000000000000000602082015250565b600061183e602e83611345565b9150611849826117e2565b604082019050919050565b6000602082019050818103600083015261186d81611831565b9050919050565b7f496e73756666696369656e742062616c616e636520746f206275726e00000000600082015250565b60006118aa601c83611345565b91506118b582611874565b602082019050919050565b600060208201905081810360008301526118d98161189d565b9050919050565b7f4e487b7100000000000000000000000000000000000000000000000000000000600052602260045260246000fd5b6000600282049050600182168061192757607f821691505b60208210810361193a576119396118e0565b5b50919050565b7f496e76616c696420726563697069656e74206164647265737300000000000000600082015250565b6000611976601983611345565b915061198182611940565b602082019050919050565b600060208201905081810360008301526119a581611969565b9050919050565b7f496e73756666696369656e742062616c616e6365000000000000000000000000600082015250565b60006119e2601483611345565b91506119ed826119ac565b602082019050919050565b60006020820190508181036000830152611a11816119d5565b905091905056fea2646970667358221220685fe274f6344c078a68d681d97cc49eea1e50825af8314ee7a7ab79099efe1564736f6c634300081a0033",
  "linkReferences": {},
  "deployedLinkReferences": {}
}