{
  "_format": "hh-sol-artifact-1",
  "contractName": "EnergyResource",
  "sourceName": "contracts/EnergyResource.sol",
  "abi": [
    {
      "inputs": [
        {
          "internalType": "uint256",
          "name": "initialPrice",
          "type": "uint256"
        },
        {
          "internalType": "address",
          "name": "_token",
          "type": "address"
        },
        {
          "internalType": "address",
          "name": "_energyMonitoring",
          "type": "address"
        },
        {
          "internalType": "address",
          "name": "_notificationsAndSecurity",
          "type": "address"
        },
        {
          "internalType": "address",
          "name": "_userManagement",
          "type": "address"
        }
      ],
      "stateMutability": "nonpayable",
      "type": "constructor"
    },
    {
      "anonymous": false,
      "inputs": [
        {
          "indexed": true,
          "internalType": "address",
          "name": "initiator",
          "type": "address"
        },
        {
          "indexed": true,
          "internalType": "address",
          "name": "respondent",
          "type": "address"
        },
        {
          "indexed": false,
          "internalType": "string",
          "name": "reason",
          "type": "string"
        }
      ],
      "name": "DisputeInitiated",
      "type": "event"
    },
    {
      "anonymous": false,
      "inputs": [
        {
          "indexed": true,
          "internalType": "uint256",
          "name": "disputeId",
          "type": "uint256"
        },
        {
          "indexed": false,
          "internalType": "string",
          "name": "resolutionDetails",
          "type": "string"
        }
      ],
      "name": "DisputeResolved",
      "type": "event"
    },
    {
      "anonymous": false,
      "inputs": [
        {
          "indexed": true,
          "internalType": "address",
          "name": "producer",
          "type": "address"
        },
        {
          "indexed": true,
          "internalType": "address",
          "name": "consumer",
          "type": "address"
        },
        {
          "indexed": false,
          "internalType": "uint256",
          "name": "amount",
          "type": "uint256"
        },
        {
          "indexed": false,
          "internalType": "uint256",
          "name": "price",
          "type": "uint256"
        }
      ],
      "name": "EnergyBought",
      "type": "event"
    },
    {
      "anonymous": false,
      "inputs": [
        {
          "indexed": true,
          "internalType": "address",
          "name": "producer",
          "type": "address"
        },
        {
          "indexed": false,
          "internalType": "uint256",
          "name": "amount",
          "type": "uint256"
        },
        {
          "indexed": false,
          "internalType": "uint256",
          "name": "price",
          "type": "uint256"
        }
      ],
      "name": "EnergyListed",
      "type": "event"
    },
    {
      "anonymous": false,
      "inputs": [
        {
          "indexed": false,
          "internalType": "uint256",
          "name": "oldPrice",
          "type": "uint256"
        },
        {
          "indexed": false,
          "internalType": "uint256",
          "name": "newPrice",
          "type": "uint256"
        }
      ],
      "name": "PriceUpdated",
      "type": "event"
    },
    {
      "inputs": [
        {
          "internalType": "address",
          "name": "producer",
          "type": "address"
        },
        {
          "internalType": "uint256",
          "name": "amount",
          "type": "uint256"
        }
      ],
      "name": "buyEnergy",
      "outputs": [],
      "stateMutability": "nonpayable",
      "type": "function"
    },
    {
      "inputs": [
        {
          "internalType": "address",
          "name": "",
          "type": "address"
        }
      ],
      "name": "customerDemand",
      "outputs": [
        {
          "internalType": "uint256",
          "name": "",
          "type": "uint256"
        }
      ],
      "stateMutability": "view",
      "type": "function"
    },
    {
      "inputs": [],
      "name": "dynamicPrice",
      "outputs": [
        {
          "internalType": "uint256",
          "name": "",
          "type": "uint256"
        }
      ],
      "stateMutability": "view",
      "type": "function"
    },
    {
      "inputs": [
        {
          "internalType": "address",
          "name": "",
          "type": "address"
        }
      ],
      "name": "energyListings",
      "outputs": [
        {
          "internalType": "address",
          "name": "producer",
          "type": "address"
        },
        {
          "internalType": "uint256",
          "name": "amount",
          "type": "uint256"
        },
        {
          "internalType": "uint256",
          "name": "price",
          "type": "uint256"
        },
        {
          "internalType": "bool",
          "name": "active",
          "type": "bool"
        }
      ],
      "stateMutability": "view",
      "type": "function"
    },
    {
      "inputs": [],
      "name": "energyMonitoring",
      "outputs": [
        {
          "internalType": "contract EnergyMonitoring",
          "name": "",
          "type": "address"
        }
      ],
      "stateMutability": "view",
      "type": "function"
    },
    {
      "inputs": [],
      "name": "fetchAllRecords",
      "outputs": [
        {
          "components": [
            {
              "internalType": "uint256",
              "name": "produced",
              "type": "uint256"
            },
            {
              "internalType": "uint256",
              "name": "consumed",
              "type": "uint256"
            },
            {
              "internalType": "uint256",
              "name": "timestamp",
              "type": "uint256"
            },
            {
              "internalType": "enum EnergyMonitoring.EnergyType",
              "name": "energyType",
              "type": "uint8"
            }
          ],
          "internalType": "struct EnergyMonitoring.EnergyRecord[]",
          "name": "",
          "type": "tuple[]"
        }
      ],
      "stateMutability": "view",
      "type": "function"
    },
    {
      "inputs": [
        {
          "internalType": "address",
          "name": "user",
          "type": "address"
        }
      ],
      "name": "fetchRecords",
      "outputs": [
        {
          "components": [
            {
              "internalType": "uint256",
              "name": "produced",
              "type": "uint256"
            },
            {
              "internalType": "uint256",
              "name": "consumed",
              "type": "uint256"
            },
            {
              "internalType": "uint256",
              "name": "timestamp",
              "type": "uint256"
            },
            {
              "internalType": "enum EnergyMonitoring.EnergyType",
              "name": "energyType",
              "type": "uint8"
            }
          ],
          "internalType": "struct EnergyMonitoring.EnergyRecord[]",
          "name": "",
          "type": "tuple[]"
        }
      ],
      "stateMutability": "view",
      "type": "function"
    },
    {
      "inputs": [],
      "name": "getAllUsers",
      "outputs": [
        {
          "internalType": "address[]",
          "name": "",
          "type": "address[]"
        }
      ],
      "stateMutability": "view",
      "type": "function"
    },
    {
      "inputs": [
        {
          "internalType": "address",
          "name": "userAddress",
          "type": "address"
        }
      ],
      "name": "getUserProfile",
      "outputs": [
        {
          "components": [
            {
              "internalType": "enum UserManagement.UserType",
              "name": "userType",
              "type": "uint8"
            },
            {
              "internalType": "address",
              "name": "walletAddress",
              "type": "address"
            },
            {
              "internalType": "string",
              "name": "name",
              "type": "string"
            },
            {
              "internalType": "string",
              "name": "preferences",
              "type": "string"
            },
            {
              "internalType": "uint256",
              "name": "createdAt",
              "type": "uint256"
            }
          ],
          "internalType": "struct UserManagement.UserProfile",
          "name": "",
          "type": "tuple"
        }
      ],
      "stateMutability": "view",
      "type": "function"
    },
    {
      "inputs": [
        {
          "internalType": "address",
          "name": "userAddress",
          "type": "address"
        }
      ],
      "name": "getUserType",
      "outputs": [
        {
          "internalType": "enum UserManagement.UserType",
          "name": "",
          "type": "uint8"
        }
      ],
      "stateMutability": "view",
      "type": "function"
    },
    {
      "inputs": [
        {
          "internalType": "address",
          "name": "respondent",
          "type": "address"
        },
        {
          "internalType": "string",
          "name": "reason",
          "type": "string"
        }
      ],
      "name": "initiateDispute",
      "outputs": [],
      "stateMutability": "nonpayable",
      "type": "function"
    },
    {
      "inputs": [
        {
          "internalType": "address",
          "name": "userAddress",
          "type": "address"
        }
      ],
      "name": "isRegistered",
      "outputs": [
        {
          "internalType": "bool",
          "name": "",
          "type": "bool"
        }
      ],
      "stateMutability": "view",
      "type": "function"
    },
    {
      "inputs": [
        {
          "internalType": "uint256",
          "name": "amount",
          "type": "uint256"
        },
        {
          "internalType": "enum EnergyMonitoring.EnergyType",
          "name": "energyType",
          "type": "uint8"
        }
      ],
      "name": "listEnergy",
      "outputs": [],
      "stateMutability": "nonpayable",
      "type": "function"
    },
    {
      "inputs": [],
      "name": "notificationsAndSecurity",
      "outputs": [
        {
          "internalType": "contract NotificationsAndSecurity",
          "name": "",
          "type": "address"
        }
      ],
      "stateMutability": "view",
      "type": "function"
    },
    {
      "inputs": [],
      "name": "owner",
      "outputs": [
        {
          "internalType": "address",
          "name": "",
          "type": "address"
        }
      ],
      "stateMutability": "view",
      "type": "function"
    },
    {
      "inputs": [
        {
          "internalType": "enum UserManagement.UserType",
          "name": "userType",
          "type": "uint8"
        },
        {
          "internalType": "string",
          "name": "name",
          "type": "string"
        },
        {
          "internalType": "string",
          "name": "preferences",
          "type": "string"
        }
      ],
      "name": "registerUser",
      "outputs": [],
      "stateMutability": "nonpayable",
      "type": "function"
    },
    {
      "inputs": [
        {
          "internalType": "address",
          "name": "user",
          "type": "address"
        }
      ],
      "name": "resetUserData",
      "outputs": [],
      "stateMutability": "nonpayable",
      "type": "function"
    },
    {
      "inputs": [
        {
          "internalType": "uint256",
          "name": "disputeId",
          "type": "uint256"
        },
        {
          "internalType": "string",
          "name": "resolutionDetails",
          "type": "string"
        }
      ],
      "name": "resolveDispute",
      "outputs": [],
      "stateMutability": "nonpayable",
      "type": "function"
    },
    {
      "inputs": [],
      "name": "token",
      "outputs": [
        {
          "internalType": "contract IEnergy",
          "name": "",
          "type": "address"
        }
      ],
      "stateMutability": "view",
      "type": "function"
    },
    {
      "inputs": [
        {
          "internalType": "string",
          "name": "newPreferences",
          "type": "string"
        }
      ],
      "name": "updatePreferences",
      "outputs": [],
      "stateMutability": "nonpayable",
      "type": "function"
    },
    {
      "inputs": [],
      "name": "updatePrice",
      "outputs": [],
      "stateMutability": "nonpayable",
      "type": "function"
    },
    {
      "inputs": [],
      "name": "userManagement",
      "outputs": [
        {
          "internalType": "contract UserManagement",
          "name": "",
          "type": "address"
        }
      ],
      "stateMutability": "view",
      "type": "function"
    }
  ],
  "bytecode": "0x608060405234801561001057600080fd5b50604051613c71380380613c7183398181016040528101906100329190610264565b60008511610075576040517f08c379a000000000000000000000000000000000000000000000000000000000815260040161006c90610362565b60405180910390fd5b8460008190555083600160006101000a81548173ffffffffffffffffffffffffffffffffffffffff021916908373ffffffffffffffffffffffffffffffffffffffff16021790555082600260006101000a81548173ffffffffffffffffffffffffffffffffffffffff021916908373ffffffffffffffffffffffffffffffffffffffff16021790555081600360006101000a81548173ffffffffffffffffffffffffffffffffffffffff021916908373ffffffffffffffffffffffffffffffffffffffff16021790555080600460006101000a81548173ffffffffffffffffffffffffffffffffffffffff021916908373ffffffffffffffffffffffffffffffffffffffff16021790555033600560006101000a81548173ffffffffffffffffffffffffffffffffffffffff021916908373ffffffffffffffffffffffffffffffffffffffff1602179055505050505050610382565b600080fd5b6000819050919050565b6101e3816101d0565b81146101ee57600080fd5b50565b600081519050610200816101da565b92915050565b600073ffffffffffffffffffffffffffffffffffffffff82169050919050565b600061023182610206565b9050919050565b61024181610226565b811461024c57600080fd5b50565b60008151905061025e81610238565b92915050565b600080600080600060a086880312156102805761027f6101cb565b5b600061028e888289016101f1565b955050602061029f8882890161024f565b94505060406102b08882890161024f565b93505060606102c18882890161024f565b92505060806102d28882890161024f565b9150509295509295909350565b600082825260208201905092915050565b7f496e697469616c207072696365206d757374206265206772656174657220746860008201527f616e207a65726f00000000000000000000000000000000000000000000000000602082015250565b600061034c6027836102df565b9150610357826102f0565b604082019050919050565b6000602082019050818103600083015261037b8161033f565b9050919050565b6138e0806103916000396000f3fe608060405234801561001057600080fd5b50600436106101425760003560e01c80638d1e9bb5116100b8578063bda30b9a1161007c578063bda30b9a14610366578063c3c5a54714610382578063ceec9b82146103b2578063cf51b45d146103d0578063e2842d79146103ec578063fc0c546a1461040a57610142565b80638d1e9bb5146102ae5780638da5cb5b146102cc578063987ee156146102ea5780639a7720791461031a578063baa15f6f1461033657610142565b80636582f06e1161010a5780636582f06e146101d7578063673a7e281461020a5780636a767f50146102145780637960cb5b146102325780638aac7e121461024e5780638b3f863f1461027e57610142565b806328b273d41461014757806336fd7e1b146101655780633d06a9691461018157806340df5af91461019f57806345f870af146101bb575b600080fd5b61014f610428565b60405161015c9190611f9a565b60405180910390f35b61017f600480360381019061017a919061203d565b61044e565b005b610189610c94565b604051610196919061208c565b60405180910390f35b6101b960048036038101906101b491906121ed565b610c9a565b005b6101d560048036038101906101d09190612236565b610d2a565b005b6101f160048036038101906101ec9190612292565b610e22565b60405161020194939291906122e9565b60405180910390f35b610212610e7f565b005b61021c61117c565b604051610229919061234f565b60405180910390f35b61024c6004803603810190610247919061238f565b6111a2565b005b61026860048036038101906102639190612292565b61174b565b6040516102759190612559565b60405180910390f35b61029860048036038101906102939190612292565b6117f5565b6040516102a591906125c3565b60405180910390f35b6102b661189a565b6040516102c391906125ff565b60405180910390f35b6102d46118c0565b6040516102e1919061261a565b60405180910390f35b61030460048036038101906102ff9190612292565b6118e6565b604051610311919061274f565b60405180910390f35b610334600480360381019061032f9190612796565b611996565b005b610350600480360381019061034b9190612292565b611a2c565b60405161035d919061208c565b60405180910390f35b610380600480360381019061037b9190612292565b611a44565b005b61039c60048036038101906103979190612292565b611b64565b6040516103a99190612821565b60405180910390f35b6103ba611c09565b6040516103c79190612559565b60405180910390f35b6103ea60048036038101906103e5919061283c565b611ca6565b005b6103f4611e01565b6040516104019190612947565b60405180910390f35b610412611e9e565b60405161041f919061298a565b60405180910390f35b600360009054906101000a900473ffffffffffffffffffffffffffffffffffffffff1681565b600460149054906101000a900460ff161561049e576040517f08c379a000000000000000000000000000000000000000000000000000000000815260040161049590612a02565b60405180910390fd5b6001600460146101000a81548160ff0219169083151502179055506000600660008473ffffffffffffffffffffffffffffffffffffffff1673ffffffffffffffffffffffffffffffffffffffff16815260200190815260200160002090508060030160009054906101000a900460ff1661054d576040517f08c379a000000000000000000000000000000000000000000000000000000000815260040161054490612a6e565b60405180910390fd5b8181600101541015610594576040517f08c379a000000000000000000000000000000000000000000000000000000000815260040161058b90612b00565b60405180910390fd5b81600760003373ffffffffffffffffffffffffffffffffffffffff1673ffffffffffffffffffffffffffffffffffffffff168152602001908152602001600020541015610616576040517f08c379a000000000000000000000000000000000000000000000000000000000815260040161060d90612b6c565b60405180910390fd5b60008160020154836106289190612bbb565b905080600160009054906101000a900473ffffffffffffffffffffffffffffffffffffffff1673ffffffffffffffffffffffffffffffffffffffff1663dd62ed3e33306040518363ffffffff1660e01b8152600401610688929190612bfd565b602060405180830381865afa1580156106a5573d6000803e3d6000fd5b505050506040513d601f19601f820116820180604052508101906106c99190612c3b565b101561070a576040517f08c379a000000000000000000000000000000000000000000000000000000000815260040161070190612cb4565b60405180910390fd5b80600160009054906101000a900473ffffffffffffffffffffffffffffffffffffffff1673ffffffffffffffffffffffffffffffffffffffff166370a08231336040518263ffffffff1660e01b8152600401610766919061261a565b602060405180830381865afa158015610783573d6000803e3d6000fd5b505050506040513d601f19601f820116820180604052508101906107a79190612c3b565b10156107e8576040517f08c379a00000000000000000000000000000000000000000000000000000000081526004016107df90612d20565b60405180910390fd5b600160009054906101000a900473ffffffffffffffffffffffffffffffffffffffff1673ffffffffffffffffffffffffffffffffffffffff166323b872dd3386846040518463ffffffff1660e01b815260040161084793929190612d40565b6020604051808303816000875af1158015610866573d6000803e3d6000fd5b505050506040513d601f19601f8201168201806040525081019061088a9190612da3565b50600160009054906101000a900473ffffffffffffffffffffffffffffffffffffffff1673ffffffffffffffffffffffffffffffffffffffff1663095ea7b385836040518363ffffffff1660e01b81526004016108e8929190612dd0565b6020604051808303816000875af1158015610907573d6000803e3d6000fd5b505050506040513d601f19601f8201168201806040525081019061092b9190612da3565b61096a576040517f08c379a000000000000000000000000000000000000000000000000000000000815260040161096190612e45565b60405180910390fd5b6000606460018361097b9190612bbb565b6109859190612e94565b9050600160009054906101000a900473ffffffffffffffffffffffffffffffffffffffff1673ffffffffffffffffffffffffffffffffffffffff166323b872dd86600560009054906101000a900473ffffffffffffffffffffffffffffffffffffffff16846040518463ffffffff1660e01b8152600401610a0893929190612d40565b6020604051808303816000875af1158015610a27573d6000803e3d6000fd5b505050506040513d601f19601f82011682018060405250810190610a4b9190612da3565b5083836001016000828254610a609190612ec5565b925050819055506000836001015403610a915760008360030160006101000a81548160ff0219169083151502179055505b83600760003373ffffffffffffffffffffffffffffffffffffffff1673ffffffffffffffffffffffffffffffffffffffff1681526020019081526020016000206000828254610ae09190612ec5565b92505081905550600260009054906101000a900473ffffffffffffffffffffffffffffffffffffffff1673ffffffffffffffffffffffffffffffffffffffff16633406f27f33866040518363ffffffff1660e01b8152600401610b44929190612dd0565b600060405180830381600087803b158015610b5e57600080fd5b505af1158015610b72573d6000803e3d6000fd5b505050503373ffffffffffffffffffffffffffffffffffffffff168573ffffffffffffffffffffffffffffffffffffffff167f942439e1850cccb8201680164759092629ebc0519531d3aeea6a5d9b3578529d868660020154604051610bd9929190612ef9565b60405180910390a3600360009054906101000a900473ffffffffffffffffffffffffffffffffffffffff1673ffffffffffffffffffffffffffffffffffffffff1663c79ed3283387856040518463ffffffff1660e01b8152600401610c4093929190612d40565b600060405180830381600087803b158015610c5a57600080fd5b505af1158015610c6e573d6000803e3d6000fd5b505050505050506000600460146101000a81548160ff0219169083151502179055505050565b60005481565b600460009054906101000a900473ffffffffffffffffffffffffffffffffffffffff1673ffffffffffffffffffffffffffffffffffffffff166340df5af9826040518263ffffffff1660e01b8152600401610cf59190612f5b565b600060405180830381600087803b158015610d0f57600080fd5b505af1158015610d23573d6000803e3d6000fd5b5050505050565b600360009054906101000a900473ffffffffffffffffffffffffffffffffffffffff1673ffffffffffffffffffffffffffffffffffffffff166345f870af83836040518363ffffffff1660e01b8152600401610d87929190612f7d565b600060405180830381600087803b158015610da157600080fd5b505af1158015610db5573d6000803e3d6000fd5b505050508173ffffffffffffffffffffffffffffffffffffffff163373ffffffffffffffffffffffffffffffffffffffff167fed910a45fad35ddd97267fbd397fde8f27d5c4cc9e5b54803e2c594b1211cab783604051610e169190612f5b565b60405180910390a35050565b60066020528060005260406000206000915090508060000160009054906101000a900473ffffffffffffffffffffffffffffffffffffffff16908060010154908060020154908060030160009054906101000a900460ff16905084565b600560009054906101000a900473ffffffffffffffffffffffffffffffffffffffff1673ffffffffffffffffffffffffffffffffffffffff163373ffffffffffffffffffffffffffffffffffffffff1614610f0f576040517f08c379a0000000000000000000000000000000000000000000000000000000008152600401610f0690612ff9565b60405180910390fd5b6000600260009054906101000a900473ffffffffffffffffffffffffffffffffffffffff1673ffffffffffffffffffffffffffffffffffffffff16634a63705b600560009054906101000a900473ffffffffffffffffffffffffffffffffffffffff166040518263ffffffff1660e01b8152600401610f8e919061261a565b602060405180830381865afa158015610fab573d6000803e3d6000fd5b505050506040513d601f19601f82011682018060405250810190610fcf9190612c3b565b90506000600260009054906101000a900473ffffffffffffffffffffffffffffffffffffffff1673ffffffffffffffffffffffffffffffffffffffff1663b0c6eb0c600560009054906101000a900473ffffffffffffffffffffffffffffffffffffffff166040518263ffffffff1660e01b8152600401611050919061261a565b602060405180830381865afa15801561106d573d6000803e3d6000fd5b505050506040513d601f19601f820116820180604052508101906110919190612c3b565b9050600082116110d6576040517f08c379a00000000000000000000000000000000000000000000000000000000081526004016110cd90613065565b60405180910390fd5b60008111611119576040517f08c379a0000000000000000000000000000000000000000000000000000000008152600401611110906130d1565b60405180910390fd5b60008054905082818361112c9190612bbb565b6111369190612e94565b6000819055507f945c1c4e99aa89f648fbfe3df471b916f719e16d960fcec0737d4d56bd6968388160005460405161116f929190612ef9565b60405180910390a1505050565b600460009054906101000a900473ffffffffffffffffffffffffffffffffffffffff1681565b600460149054906101000a900460ff16156111f2576040517f08c379a00000000000000000000000000000000000000000000000000000000081526004016111e990612a02565b60405180910390fd5b6001600460146101000a81548160ff021916908315150217905550600460009054906101000a900473ffffffffffffffffffffffffffffffffffffffff1673ffffffffffffffffffffffffffffffffffffffff1663c3c5a547336040518263ffffffff1660e01b8152600401611268919061261a565b602060405180830381865afa158015611285573d6000803e3d6000fd5b505050506040513d601f19601f820116820180604052508101906112a99190612da3565b6112e8576040517f08c379a00000000000000000000000000000000000000000000000000000000081526004016112df9061313d565b60405180910390fd5b600060018111156112fc576112fb61240a565b5b600460009054906101000a900473ffffffffffffffffffffffffffffffffffffffff1673ffffffffffffffffffffffffffffffffffffffff16638b3f863f336040518263ffffffff1660e01b8152600401611357919061261a565b602060405180830381865afa158015611374573d6000803e3d6000fd5b505050506040513d601f19601f820116820180604052508101906113989190613172565b60018111156113aa576113a961240a565b5b146113ea576040517f08c379a00000000000000000000000000000000000000000000000000000000081526004016113e190613211565b60405180910390fd5b6000821161142d576040517f08c379a00000000000000000000000000000000000000000000000000000000081526004016114249061327d565b60405180910390fd5b60001515600660003373ffffffffffffffffffffffffffffffffffffffff1673ffffffffffffffffffffffffffffffffffffffff16815260200190815260200160002060030160009054906101000a900460ff161515146114c3576040517f08c379a00000000000000000000000000000000000000000000000000000000081526004016114ba9061330f565b60405180910390fd5b600260009054906101000a900473ffffffffffffffffffffffffffffffffffffffff1673ffffffffffffffffffffffffffffffffffffffff16639f8181963384846040518463ffffffff1660e01b81526004016115229392919061333e565b600060405180830381600087803b15801561153c57600080fd5b505af1158015611550573d6000803e3d6000fd5b5050505060405180608001604052803373ffffffffffffffffffffffffffffffffffffffff168152602001838152602001600054815260200160011515815250600660003373ffffffffffffffffffffffffffffffffffffffff1673ffffffffffffffffffffffffffffffffffffffff16815260200190815260200160002060008201518160000160006101000a81548173ffffffffffffffffffffffffffffffffffffffff021916908373ffffffffffffffffffffffffffffffffffffffff160217905550602082015181600101556040820151816002015560608201518160030160006101000a81548160ff0219169083151502179055509050503373ffffffffffffffffffffffffffffffffffffffff167fa8c72f46196c6c72e5efdf0d385752f027b7551d646c6661618006668434c8f383600054604051611697929190612ef9565b60405180910390a2600360009054906101000a900473ffffffffffffffffffffffffffffffffffffffff1673ffffffffffffffffffffffffffffffffffffffff1663e72a6867336040518263ffffffff1660e01b81526004016116fa91906133c1565b600060405180830381600087803b15801561171457600080fd5b505af1158015611728573d6000803e3d6000fd5b505050506000600460146101000a81548160ff0219169083151502179055505050565b6060600260009054906101000a900473ffffffffffffffffffffffffffffffffffffffff1673ffffffffffffffffffffffffffffffffffffffff1663a0076e84836040518263ffffffff1660e01b81526004016117a8919061261a565b600060405180830381865afa1580156117c5573d6000803e3d6000fd5b505050506040513d6000823e3d601f19601f820116820180604052508101906117ee919061354e565b9050919050565b6000600460009054906101000a900473ffffffffffffffffffffffffffffffffffffffff1673ffffffffffffffffffffffffffffffffffffffff16638b3f863f836040518263ffffffff1660e01b8152600401611852919061261a565b602060405180830381865afa15801561186f573d6000803e3d6000fd5b505050506040513d601f19601f820116820180604052508101906118939190613172565b9050919050565b600260009054906101000a900473ffffffffffffffffffffffffffffffffffffffff1681565b600560009054906101000a900473ffffffffffffffffffffffffffffffffffffffff1681565b6118ee611ec4565b600460009054906101000a900473ffffffffffffffffffffffffffffffffffffffff1673ffffffffffffffffffffffffffffffffffffffff1663987ee156836040518263ffffffff1660e01b8152600401611949919061261a565b600060405180830381865afa158015611966573d6000803e3d6000fd5b505050506040513d6000823e3d601f19601f8201168201806040525081019061198f91906136e0565b9050919050565b600460009054906101000a900473ffffffffffffffffffffffffffffffffffffffff1673ffffffffffffffffffffffffffffffffffffffff16639a7720798484846040518463ffffffff1660e01b81526004016119f593929190613729565b600060405180830381600087803b158015611a0f57600080fd5b505af1158015611a23573d6000803e3d6000fd5b50505050505050565b60076020528060005260406000206000915090505481565b600560009054906101000a900473ffffffffffffffffffffffffffffffffffffffff1673ffffffffffffffffffffffffffffffffffffffff163373ffffffffffffffffffffffffffffffffffffffff1614611ad4576040517f08c379a0000000000000000000000000000000000000000000000000000000008152600401611acb90612ff9565b60405180910390fd5b600260009054906101000a900473ffffffffffffffffffffffffffffffffffffffff1673ffffffffffffffffffffffffffffffffffffffff1663629faf8a826040518263ffffffff1660e01b8152600401611b2f919061261a565b600060405180830381600087803b158015611b4957600080fd5b505af1158015611b5d573d6000803e3d6000fd5b5050505050565b6000600460009054906101000a900473ffffffffffffffffffffffffffffffffffffffff1673ffffffffffffffffffffffffffffffffffffffff1663c3c5a547836040518263ffffffff1660e01b8152600401611bc1919061261a565b602060405180830381865afa158015611bde573d6000803e3d6000fd5b505050506040513d601f19601f82011682018060405250810190611c029190612da3565b9050919050565b6060600260009054906101000a900473ffffffffffffffffffffffffffffffffffffffff1673ffffffffffffffffffffffffffffffffffffffff1663a7f9fe726040518163ffffffff1660e01b8152600401600060405180830381865afa158015611c78573d6000803e3d6000fd5b505050506040513d6000823e3d601f19601f82011682018060405250810190611ca1919061354e565b905090565b600560009054906101000a900473ffffffffffffffffffffffffffffffffffffffff1673ffffffffffffffffffffffffffffffffffffffff163373ffffffffffffffffffffffffffffffffffffffff1614611d36576040517f08c379a0000000000000000000000000000000000000000000000000000000008152600401611d2d90612ff9565b60405180910390fd5b600360009054906101000a900473ffffffffffffffffffffffffffffffffffffffff1673ffffffffffffffffffffffffffffffffffffffff1663cf51b45d83836040518363ffffffff1660e01b8152600401611d9392919061376e565b600060405180830381600087803b158015611dad57600080fd5b505af1158015611dc1573d6000803e3d6000fd5b50505050817f831764ac02a33c193cba23a0de34c986e9b50402bf3c9febf6ff2f63d4c0435d82604051611df59190612f5b565b60405180910390a25050565b6060600460009054906101000a900473ffffffffffffffffffffffffffffffffffffffff1673ffffffffffffffffffffffffffffffffffffffff1663e2842d796040518163ffffffff1660e01b8152600401600060405180830381865afa158015611e70573d6000803e3d6000fd5b505050506040513d6000823e3d601f19601f82011682018060405250810190611e999190613861565b905090565b600160009054906101000a900473ffffffffffffffffffffffffffffffffffffffff1681565b6040518060a0016040528060006001811115611ee357611ee261240a565b5b8152602001600073ffffffffffffffffffffffffffffffffffffffff1681526020016060815260200160608152602001600081525090565b600073ffffffffffffffffffffffffffffffffffffffff82169050919050565b6000819050919050565b6000611f60611f5b611f5684611f1b565b611f3b565b611f1b565b9050919050565b6000611f7282611f45565b9050919050565b6000611f8482611f67565b9050919050565b611f9481611f79565b82525050565b6000602082019050611faf6000830184611f8b565b92915050565b6000604051905090565b600080fd5b600080fd5b6000611fd482611f1b565b9050919050565b611fe481611fc9565b8114611fef57600080fd5b50565b60008135905061200181611fdb565b92915050565b6000819050919050565b61201a81612007565b811461202557600080fd5b50565b60008135905061203781612011565b92915050565b6000806040838503121561205457612053611fbf565b5b600061206285828601611ff2565b925050602061207385828601612028565b9150509250929050565b61208681612007565b82525050565b60006020820190506120a1600083018461207d565b92915050565b600080fd5b600080fd5b6000601f19601f8301169050919050565b7f4e487b7100000000000000000000000000000000000000000000000000000000600052604160045260246000fd5b6120fa826120b1565b810181811067ffffffffffffffff82111715612119576121186120c2565b5b80604052505050565b600061212c611fb5565b905061213882826120f1565b919050565b600067ffffffffffffffff821115612158576121576120c2565b5b612161826120b1565b9050602081019050919050565b82818337600083830152505050565b600061219061218b8461213d565b612122565b9050828152602081018484840111156121ac576121ab6120ac565b5b6121b784828561216e565b509392505050565b600082601f8301126121d4576121d36120a7565b5b81356121e484826020860161217d565b91505092915050565b60006020828403121561220357612202611fbf565b5b600082013567ffffffffffffffff81111561222157612220611fc4565b5b61222d848285016121bf565b91505092915050565b6000806040838503121561224d5761224c611fbf565b5b600061225b85828601611ff2565b925050602083013567ffffffffffffffff81111561227c5761227b611fc4565b5b612288858286016121bf565b9150509250929050565b6000602082840312156122a8576122a7611fbf565b5b60006122b684828501611ff2565b91505092915050565b6122c881611fc9565b82525050565b60008115159050919050565b6122e3816122ce565b82525050565b60006080820190506122fe60008301876122bf565b61230b602083018661207d565b612318604083018561207d565b61232560608301846122da565b95945050505050565b600061233982611f67565b9050919050565b6123498161232e565b82525050565b60006020820190506123646000830184612340565b92915050565b6004811061237757600080fd5b50565b6000813590506123898161236a565b92915050565b600080604083850312156123a6576123a5611fbf565b5b60006123b485828601612028565b92505060206123c58582860161237a565b9150509250929050565b600081519050919050565b600082825260208201905092915050565b6000819050602082019050919050565b61240481612007565b82525050565b7f4e487b7100000000000000000000000000000000000000000000000000000000600052602160045260246000fd5b6004811061244a5761244961240a565b5b50565b600081905061245b82612439565b919050565b600061246b8261244d565b9050919050565b61247b81612460565b82525050565b60808201600082015161249760008501826123fb565b5060208201516124aa60208501826123fb565b5060408201516124bd60408501826123fb565b5060608201516124d06060850182612472565b50505050565b60006124e28383612481565b60808301905092915050565b6000602082019050919050565b6000612506826123cf565b61251081856123da565b935061251b836123eb565b8060005b8381101561254c57815161253388826124d6565b975061253e836124ee565b92505060018101905061251f565b5085935050505092915050565b6000602082019050818103600083015261257381846124fb565b905092915050565b6002811061258c5761258b61240a565b5b50565b600081905061259d8261257b565b919050565b60006125ad8261258f565b9050919050565b6125bd816125a2565b82525050565b60006020820190506125d860008301846125b4565b92915050565b60006125e982611f67565b9050919050565b6125f9816125de565b82525050565b600060208201905061261460008301846125f0565b92915050565b600060208201905061262f60008301846122bf565b92915050565b61263e816125a2565b82525050565b61264d81611fc9565b82525050565b600081519050919050565b600082825260208201905092915050565b60005b8381101561268d578082015181840152602081019050612672565b60008484015250505050565b60006126a482612653565b6126ae818561265e565b93506126be81856020860161266f565b6126c7816120b1565b840191505092915050565b600060a0830160008301516126ea6000860182612635565b5060208301516126fd6020860182612644565b50604083015184820360408601526127158282612699565b9150506060830151848203606086015261272f8282612699565b915050608083015161274460808601826123fb565b508091505092915050565b6000602082019050818103600083015261276981846126d2565b905092915050565b6002811061277e57600080fd5b50565b60008135905061279081612771565b92915050565b6000806000606084860312156127af576127ae611fbf565b5b60006127bd86828701612781565b935050602084013567ffffffffffffffff8111156127de576127dd611fc4565b5b6127ea868287016121bf565b925050604084013567ffffffffffffffff81111561280b5761280a611fc4565b5b612817868287016121bf565b9150509250925092565b600060208201905061283660008301846122da565b92915050565b6000806040838503121561285357612852611fbf565b5b600061286185828601612028565b925050602083013567ffffffffffffffff81111561288257612881611fc4565b5b61288e858286016121bf565b9150509250929050565b600081519050919050565b600082825260208201905092915050565b6000819050602082019050919050565b60006128d08383612644565b60208301905092915050565b6000602082019050919050565b60006128f482612898565b6128fe81856128a3565b9350612909836128b4565b8060005b8381101561293a57815161292188826128c4565b975061292c836128dc565b92505060018101905061290d565b5085935050505092915050565b6000602082019050818103600083015261296181846128e9565b905092915050565b600061297482611f67565b9050919050565b61298481612969565b82525050565b600060208201905061299f600083018461297b565b92915050565b600082825260208201905092915050565b7f5265656e7472616e6379206973206e6f7420616c6c6f77656400000000000000600082015250565b60006129ec6019836129a5565b91506129f7826129b6565b602082019050919050565b60006020820190508181036000830152612a1b816129df565b9050919050565b7f456e65726779206973206e6f7420617661696c61626c6520666f722073616c65600082015250565b6000612a586020836129a5565b9150612a6382612a22565b602082019050919050565b60006020820190508181036000830152612a8781612a4b565b9050919050565b7f50726f647563657220646f6573206e6f74206861766520656e6f75676820737560008201527f72706c7573000000000000000000000000000000000000000000000000000000602082015250565b6000612aea6025836129a5565b9150612af582612a8e565b604082019050919050565b60006020820190508181036000830152612b1981612add565b9050919050565b7f436f6e73756d65722064656d616e6420697320696e73756666696369656e7400600082015250565b6000612b56601f836129a5565b9150612b6182612b20565b602082019050919050565b60006020820190508181036000830152612b8581612b49565b9050919050565b7f4e487b7100000000000000000000000000000000000000000000000000000000600052601160045260246000fd5b6000612bc682612007565b9150612bd183612007565b9250828202612bdf81612007565b91508282048414831517612bf657612bf5612b8c565b5b5092915050565b6000604082019050612c1260008301856122bf565b612c1f60208301846122bf565b9392505050565b600081519050612c3581612011565b92915050565b600060208284031215612c5157612c50611fbf565b5b6000612c5f84828501612c26565b91505092915050565b7f416c6c6f77616e636520696e73756666696369656e7400000000000000000000600082015250565b6000612c9e6016836129a5565b9150612ca982612c68565b602082019050919050565b60006020820190508181036000830152612ccd81612c91565b9050919050565b7f496e73756666696369656e7420746f6b656e2062616c616e6365000000000000600082015250565b6000612d0a601a836129a5565b9150612d1582612cd4565b602082019050919050565b60006020820190508181036000830152612d3981612cfd565b9050919050565b6000606082019050612d5560008301866122bf565b612d6260208301856122bf565b612d6f604083018461207d565b949350505050565b612d80816122ce565b8114612d8b57600080fd5b50565b600081519050612d9d81612d77565b92915050565b600060208284031215612db957612db8611fbf565b5b6000612dc784828501612d8e565b91505092915050565b6000604082019050612de560008301856122bf565b612df2602083018461207d565b9392505050565b7f417070726f76616c206661696c65640000000000000000000000000000000000600082015250565b6000612e2f600f836129a5565b9150612e3a82612df9565b602082019050919050565b60006020820190508181036000830152612e5e81612e22565b9050919050565b7f4e487b7100000000000000000000000000000000000000000000000000000000600052601260045260246000fd5b6000612e9f82612007565b9150612eaa83612007565b925082612eba57612eb9612e65565b5b828204905092915050565b6000612ed082612007565b9150612edb83612007565b9250828203905081811115612ef357612ef2612b8c565b5b92915050565b6000604082019050612f0e600083018561207d565b612f1b602083018461207d565b9392505050565b6000612f2d82612653565b612f3781856129a5565b9350612f4781856020860161266f565b612f50816120b1565b840191505092915050565b60006020820190508181036000830152612f758184612f22565b905092915050565b6000604082019050612f9260008301856122bf565b8181036020830152612fa48184612f22565b90509392505050565b7f4f6e6c79206f776e65722063616e2063616c6c20746869730000000000000000600082015250565b6000612fe36018836129a5565b9150612fee82612fad565b602082019050919050565b6000602082019050818103600083015261301281612fd6565b9050919050565b7f537570706c79206d7573742062652067726561746572207468616e207a65726f600082015250565b600061304f6020836129a5565b915061305a82613019565b602082019050919050565b6000602082019050818103600083015261307e81613042565b9050919050565b7f44656d616e64206d7573742062652067726561746572207468616e207a65726f600082015250565b60006130bb6020836129a5565b91506130c682613085565b602082019050919050565b600060208201905081810360008301526130ea816130ae565b9050919050565b7f55736572206973206e6f74207265676973746572656400000000000000000000600082015250565b60006131276016836129a5565b9150613132826130f1565b602082019050919050565b600060208201905081810360008301526131568161311a565b9050919050565b60008151905061316c81612771565b92915050565b60006020828403121561318857613187611fbf565b5b60006131968482850161315d565b91505092915050565b7f4f6e6c792070726f6475636572732063616e20706572666f726d20746869732060008201527f616374696f6e0000000000000000000000000000000000000000000000000000602082015250565b60006131fb6026836129a5565b91506132068261319f565b604082019050919050565b6000602082019050818103600083015261322a816131ee565b9050919050565b7f416d6f756e74206d7573742062652067726561746572207468616e207a65726f600082015250565b60006132676020836129a5565b915061327282613231565b602082019050919050565b600060208201905081810360008301526132968161325a565b9050919050565b7f4578697374696e67206c697374696e67206d75737420626520696e616374697660008201527f6500000000000000000000000000000000000000000000000000000000000000602082015250565b60006132f96021836129a5565b91506133048261329d565b604082019050919050565b60006020820190508181036000830152613328816132ec565b9050919050565b61333881612460565b82525050565b600060608201905061335360008301866122bf565b613360602083018561207d565b61336d604083018461332f565b949350505050565b7f456e65726779206c6973746564207375636365737366756c6c79000000000000600082015250565b60006133ab601a836129a5565b91506133b682613375565b602082019050919050565b60006040820190506133d660008301846122bf565b81810360208301526133e78161339e565b905092915050565b600067ffffffffffffffff82111561340a576134096120c2565b5b602082029050602081019050919050565b600080fd5b600080fd5b600080fd5b6000815190506134398161236a565b92915050565b60006080828403121561345557613454613420565b5b61345f6080612122565b9050600061346f84828501612c26565b600083015250602061348384828501612c26565b602083015250604061349784828501612c26565b60408301525060606134ab8482850161342a565b60608301525092915050565b60006134ca6134c5846133ef565b612122565b905080838252602082019050608084028301858111156134ed576134ec61341b565b5b835b818110156135165780613502888261343f565b8452602084019350506080810190506134ef565b5050509392505050565b600082601f830112613535576135346120a7565b5b81516135458482602086016134b7565b91505092915050565b60006020828403121561356457613563611fbf565b5b600082015167ffffffffffffffff81111561358257613581611fc4565b5b61358e84828501613520565b91505092915050565b6000815190506135a681611fdb565b92915050565b60006135bf6135ba8461213d565b612122565b9050828152602081018484840111156135db576135da6120ac565b5b6135e684828561266f565b509392505050565b600082601f830112613603576136026120a7565b5b81516136138482602086016135ac565b91505092915050565b600060a0828403121561363257613631613420565b5b61363c60a0612122565b9050600061364c8482850161315d565b600083015250602061366084828501613597565b602083015250604082015167ffffffffffffffff81111561368457613683613425565b5b613690848285016135ee565b604083015250606082015167ffffffffffffffff8111156136b4576136b3613425565b5b6136c0848285016135ee565b60608301525060806136d484828501612c26565b60808301525092915050565b6000602082840312156136f6576136f5611fbf565b5b600082015167ffffffffffffffff81111561371457613713611fc4565b5b6137208482850161361c565b91505092915050565b600060608201905061373e60008301866125b4565b81810360208301526137508185612f22565b905081810360408301526137648184612f22565b9050949350505050565b6000604082019050613783600083018561207d565b81810360208301526137958184612f22565b90509392505050565b600067ffffffffffffffff8211156137b9576137b86120c2565b5b602082029050602081019050919050565b60006137dd6137d88461379e565b612122565b90508083825260208201905060208402830185811115613800576137ff61341b565b5b835b8181101561382957806138158882613597565b845260208401935050602081019050613802565b5050509392505050565b600082601f830112613848576138476120a7565b5b81516138588482602086016137ca565b91505092915050565b60006020828403121561387757613876611fbf565b5b600082015167ffffffffffffffff81111561389557613894611fc4565b5b6138a184828501613833565b9150509291505056fea2646970667358221220bc712523fcc89b04669531fab6800ac44caeb2b5d50f9364c44fb9679f8fa39664736f6c634300081a0033",
  "linkReferences": {},
  "deployedLinkReferences": {}
}