{
  "_format": "hh-sol-artifact-1",
  "contractName": "EnergyTrading",
  "sourceName": "contracts/EnergyTrading.sol",
  "abi": [
    {
      "inputs": [
        {
          "internalType": "uint256",
          "name": "initialPrice",
          "type": "uint256"
        },
        {
          "internalType": "address",
          "name": "_token",
          "type": "address"
        },
        {
          "internalType": "address",
          "name": "_energyMonitoring",
          "type": "address"
        },
        {
          "internalType": "address",
          "name": "_notificationsAndSecurity",
          "type": "address"
        },
        {
          "internalType": "address",
          "name": "_userManagement",
          "type": "address"
        }
      ],
      "stateMutability": "nonpayable",
      "type": "constructor"
    },
    {
      "anonymous": false,
      "inputs": [
        {
          "indexed": true,
          "internalType": "address",
          "name": "initiator",
          "type": "address"
        },
        {
          "indexed": true,
          "internalType": "address",
          "name": "respondent",
          "type": "address"
        },
        {
          "indexed": false,
          "internalType": "string",
          "name": "reason",
          "type": "string"
        }
      ],
      "name": "DisputeInitiated",
      "type": "event"
    },
    {
      "anonymous": false,
      "inputs": [
        {
          "indexed": true,
          "internalType": "uint256",
          "name": "disputeId",
          "type": "uint256"
        },
        {
          "indexed": false,
          "internalType": "string",
          "name": "resolutionDetails",
          "type": "string"
        }
      ],
      "name": "DisputeResolved",
      "type": "event"
    },
    {
      "anonymous": false,
      "inputs": [
        {
          "indexed": true,
          "internalType": "address",
          "name": "producer",
          "type": "address"
        },
        {
          "indexed": true,
          "internalType": "address",
          "name": "consumer",
          "type": "address"
        },
        {
          "indexed": false,
          "internalType": "uint256",
          "name": "amount",
          "type": "uint256"
        },
        {
          "indexed": false,
          "internalType": "uint256",
          "name": "price",
          "type": "uint256"
        }
      ],
      "name": "EnergyBought",
      "type": "event"
    },
    {
      "anonymous": false,
      "inputs": [
        {
          "indexed": true,
          "internalType": "address",
          "name": "producer",
          "type": "address"
        },
        {
          "indexed": false,
          "internalType": "uint256",
          "name": "amount",
          "type": "uint256"
        },
        {
          "indexed": false,
          "internalType": "uint256",
          "name": "price",
          "type": "uint256"
        }
      ],
      "name": "EnergyListed",
      "type": "event"
    },
    {
      "anonymous": false,
      "inputs": [
        {
          "indexed": false,
          "internalType": "uint256",
          "name": "oldPrice",
          "type": "uint256"
        },
        {
          "indexed": false,
          "internalType": "uint256",
          "name": "newPrice",
          "type": "uint256"
        }
      ],
      "name": "PriceUpdated",
      "type": "event"
    },
    {
      "inputs": [
        {
          "internalType": "address",
          "name": "producer",
          "type": "address"
        },
        {
          "internalType": "uint256",
          "name": "amount",
          "type": "uint256"
        }
      ],
      "name": "buyEnergy",
      "outputs": [],
      "stateMutability": "nonpayable",
      "type": "function"
    },
    {
      "inputs": [
        {
          "internalType": "address",
          "name": "",
          "type": "address"
        }
      ],
      "name": "customerDemand",
      "outputs": [
        {
          "internalType": "uint256",
          "name": "",
          "type": "uint256"
        }
      ],
      "stateMutability": "view",
      "type": "function"
    },
    {
      "inputs": [],
      "name": "dynamicPrice",
      "outputs": [
        {
          "internalType": "uint256",
          "name": "",
          "type": "uint256"
        }
      ],
      "stateMutability": "view",
      "type": "function"
    },
    {
      "inputs": [
        {
          "internalType": "address",
          "name": "",
          "type": "address"
        }
      ],
      "name": "energyListings",
      "outputs": [
        {
          "internalType": "address",
          "name": "producer",
          "type": "address"
        },
        {
          "internalType": "uint256",
          "name": "amount",
          "type": "uint256"
        },
        {
          "internalType": "uint256",
          "name": "price",
          "type": "uint256"
        },
        {
          "internalType": "bool",
          "name": "active",
          "type": "bool"
        }
      ],
      "stateMutability": "view",
      "type": "function"
    },
    {
      "inputs": [],
      "name": "energyMonitoring",
      "outputs": [
        {
          "internalType": "contract EnergyMonitoring",
          "name": "",
          "type": "address"
        }
      ],
      "stateMutability": "view",
      "type": "function"
    },
    {
      "inputs": [
        {
          "internalType": "address",
          "name": "respondent",
          "type": "address"
        },
        {
          "internalType": "string",
          "name": "reason",
          "type": "string"
        }
      ],
      "name": "initiateDispute",
      "outputs": [],
      "stateMutability": "nonpayable",
      "type": "function"
    },
    {
      "inputs": [
        {
          "internalType": "uint256",
          "name": "amount",
          "type": "uint256"
        },
        {
          "internalType": "enum EnergyMonitoring.EnergyType",
          "name": "energyType",
          "type": "uint8"
        }
      ],
      "name": "listEnergy",
      "outputs": [],
      "stateMutability": "nonpayable",
      "type": "function"
    },
    {
      "inputs": [],
      "name": "notificationsAndSecurity",
      "outputs": [
        {
          "internalType": "contract NotificationsAndSecurity",
          "name": "",
          "type": "address"
        }
      ],
      "stateMutability": "view",
      "type": "function"
    },
    {
      "inputs": [],
      "name": "owner",
      "outputs": [
        {
          "internalType": "address",
          "name": "",
          "type": "address"
        }
      ],
      "stateMutability": "view",
      "type": "function"
    },
    {
      "inputs": [
        {
          "internalType": "uint256",
          "name": "disputeId",
          "type": "uint256"
        },
        {
          "internalType": "string",
          "name": "resolutionDetails",
          "type": "string"
        }
      ],
      "name": "resolveDispute",
      "outputs": [],
      "stateMutability": "nonpayable",
      "type": "function"
    },
    {
      "inputs": [],
      "name": "token",
      "outputs": [
        {
          "internalType": "contract IEnergy",
          "name": "",
          "type": "address"
        }
      ],
      "stateMutability": "view",
      "type": "function"
    },
    {
      "inputs": [],
      "name": "updatePrice",
      "outputs": [],
      "stateMutability": "nonpayable",
      "type": "function"
    },
    {
      "inputs": [],
      "name": "userManagement",
      "outputs": [
        {
          "internalType": "contract UserManagement",
          "name": "",
          "type": "address"
        }
      ],
      "stateMutability": "view",
      "type": "function"
    }
  ],
  "bytecode": "0x608060405234801561001057600080fd5b50604051612b25380380612b2583398181016040528101906100329190610264565b60008511610075576040517f08c379a000000000000000000000000000000000000000000000000000000000815260040161006c90610362565b60405180910390fd5b8460008190555083600160006101000a81548173ffffffffffffffffffffffffffffffffffffffff021916908373ffffffffffffffffffffffffffffffffffffffff16021790555082600260006101000a81548173ffffffffffffffffffffffffffffffffffffffff021916908373ffffffffffffffffffffffffffffffffffffffff16021790555081600360006101000a81548173ffffffffffffffffffffffffffffffffffffffff021916908373ffffffffffffffffffffffffffffffffffffffff16021790555080600460006101000a81548173ffffffffffffffffffffffffffffffffffffffff021916908373ffffffffffffffffffffffffffffffffffffffff16021790555033600560006101000a81548173ffffffffffffffffffffffffffffffffffffffff021916908373ffffffffffffffffffffffffffffffffffffffff1602179055505050505050610382565b600080fd5b6000819050919050565b6101e3816101d0565b81146101ee57600080fd5b50565b600081519050610200816101da565b92915050565b600073ffffffffffffffffffffffffffffffffffffffff82169050919050565b600061023182610206565b9050919050565b61024181610226565b811461024c57600080fd5b50565b60008151905061025e81610238565b92915050565b600080600080600060a086880312156102805761027f6101cb565b5b600061028e888289016101f1565b955050602061029f8882890161024f565b94505060406102b08882890161024f565b93505060606102c18882890161024f565b92505060806102d28882890161024f565b9150509295509295909350565b600082825260208201905092915050565b7f496e697469616c207072696365206d757374206265206772656174657220746860008201527f616e207a65726f00000000000000000000000000000000000000000000000000602082015250565b600061034c6027836102df565b9150610357826102f0565b604082019050919050565b6000602082019050818103600083015261037b8161033f565b9050919050565b612794806103916000396000f3fe608060405234801561001057600080fd5b50600436106100cf5760003560e01c80636a767f501161008c5780638da5cb5b116100665780638da5cb5b146101dd578063baa15f6f146101fb578063cf51b45d1461022b578063fc0c546a14610247576100cf565b80636a767f50146101855780637960cb5b146101a35780638d1e9bb5146101bf576100cf565b806328b273d4146100d457806336fd7e1b146100f25780633d06a9691461010e57806345f870af1461012c5780636582f06e14610148578063673a7e281461017b575b600080fd5b6100dc610265565b6040516100e9919061175c565b60405180910390f35b61010c600480360381019061010791906117ff565b61028b565b005b610116610ad1565b604051610123919061184e565b60405180910390f35b610146600480360381019061014191906119af565b610ad7565b005b610162600480360381019061015d9190611a0b565b610bcf565b6040516101729493929190611a62565b60405180910390f35b610183610c2c565b005b61018d610f29565b60405161019a9190611ac8565b60405180910390f35b6101bd60048036038101906101b89190611b08565b610f4f565b005b6101c76114f8565b6040516101d49190611b69565b60405180910390f35b6101e561151e565b6040516101f29190611b84565b60405180910390f35b61021560048036038101906102109190611a0b565b611544565b604051610222919061184e565b60405180910390f35b61024560048036038101906102409190611b9f565b61155c565b005b61024f6116b7565b60405161025c9190611c1c565b60405180910390f35b600360009054906101000a900473ffffffffffffffffffffffffffffffffffffffff1681565b600460149054906101000a900460ff16156102db576040517f08c379a00000000000000000000000000000000000000000000000000000000081526004016102d290611c94565b60405180910390fd5b6001600460146101000a81548160ff0219169083151502179055506000600660008473ffffffffffffffffffffffffffffffffffffffff1673ffffffffffffffffffffffffffffffffffffffff16815260200190815260200160002090508060030160009054906101000a900460ff1661038a576040517f08c379a000000000000000000000000000000000000000000000000000000000815260040161038190611d00565b60405180910390fd5b81816001015410156103d1576040517f08c379a00000000000000000000000000000000000000000000000000000000081526004016103c890611d92565b60405180910390fd5b81600760003373ffffffffffffffffffffffffffffffffffffffff1673ffffffffffffffffffffffffffffffffffffffff168152602001908152602001600020541015610453576040517f08c379a000000000000000000000000000000000000000000000000000000000815260040161044a90611dfe565b60405180910390fd5b60008160020154836104659190611e4d565b905080600160009054906101000a900473ffffffffffffffffffffffffffffffffffffffff1673ffffffffffffffffffffffffffffffffffffffff1663dd62ed3e33306040518363ffffffff1660e01b81526004016104c5929190611e8f565b602060405180830381865afa1580156104e2573d6000803e3d6000fd5b505050506040513d601f19601f820116820180604052508101906105069190611ecd565b1015610547576040517f08c379a000000000000000000000000000000000000000000000000000000000815260040161053e90611f46565b60405180910390fd5b80600160009054906101000a900473ffffffffffffffffffffffffffffffffffffffff1673ffffffffffffffffffffffffffffffffffffffff166370a08231336040518263ffffffff1660e01b81526004016105a39190611b84565b602060405180830381865afa1580156105c0573d6000803e3d6000fd5b505050506040513d601f19601f820116820180604052508101906105e49190611ecd565b1015610625576040517f08c379a000000000000000000000000000000000000000000000000000000000815260040161061c90611fb2565b60405180910390fd5b600160009054906101000a900473ffffffffffffffffffffffffffffffffffffffff1673ffffffffffffffffffffffffffffffffffffffff166323b872dd3386846040518463ffffffff1660e01b815260040161068493929190611fd2565b6020604051808303816000875af11580156106a3573d6000803e3d6000fd5b505050506040513d601f19601f820116820180604052508101906106c79190612035565b50600160009054906101000a900473ffffffffffffffffffffffffffffffffffffffff1673ffffffffffffffffffffffffffffffffffffffff1663095ea7b385836040518363ffffffff1660e01b8152600401610725929190612062565b6020604051808303816000875af1158015610744573d6000803e3d6000fd5b505050506040513d601f19601f820116820180604052508101906107689190612035565b6107a7576040517f08c379a000000000000000000000000000000000000000000000000000000000815260040161079e906120d7565b60405180910390fd5b600060646001836107b89190611e4d565b6107c29190612126565b9050600160009054906101000a900473ffffffffffffffffffffffffffffffffffffffff1673ffffffffffffffffffffffffffffffffffffffff166323b872dd86600560009054906101000a900473ffffffffffffffffffffffffffffffffffffffff16846040518463ffffffff1660e01b815260040161084593929190611fd2565b6020604051808303816000875af1158015610864573d6000803e3d6000fd5b505050506040513d601f19601f820116820180604052508101906108889190612035565b508383600101600082825461089d9190612157565b9250508190555060008360010154036108ce5760008360030160006101000a81548160ff0219169083151502179055505b83600760003373ffffffffffffffffffffffffffffffffffffffff1673ffffffffffffffffffffffffffffffffffffffff168152602001908152602001600020600082825461091d9190612157565b92505081905550600260009054906101000a900473ffffffffffffffffffffffffffffffffffffffff1673ffffffffffffffffffffffffffffffffffffffff16633406f27f33866040518363ffffffff1660e01b8152600401610981929190612062565b600060405180830381600087803b15801561099b57600080fd5b505af11580156109af573d6000803e3d6000fd5b505050503373ffffffffffffffffffffffffffffffffffffffff168573ffffffffffffffffffffffffffffffffffffffff167f942439e1850cccb8201680164759092629ebc0519531d3aeea6a5d9b3578529d868660020154604051610a1692919061218b565b60405180910390a3600360009054906101000a900473ffffffffffffffffffffffffffffffffffffffff1673ffffffffffffffffffffffffffffffffffffffff1663c79ed3283387856040518463ffffffff1660e01b8152600401610a7d93929190611fd2565b600060405180830381600087803b158015610a9757600080fd5b505af1158015610aab573d6000803e3d6000fd5b505050505050506000600460146101000a81548160ff0219169083151502179055505050565b60005481565b600360009054906101000a900473ffffffffffffffffffffffffffffffffffffffff1673ffffffffffffffffffffffffffffffffffffffff166345f870af83836040518363ffffffff1660e01b8152600401610b34929190612222565b600060405180830381600087803b158015610b4e57600080fd5b505af1158015610b62573d6000803e3d6000fd5b505050508173ffffffffffffffffffffffffffffffffffffffff163373ffffffffffffffffffffffffffffffffffffffff167fed910a45fad35ddd97267fbd397fde8f27d5c4cc9e5b54803e2c594b1211cab783604051610bc39190612252565b60405180910390a35050565b60066020528060005260406000206000915090508060000160009054906101000a900473ffffffffffffffffffffffffffffffffffffffff16908060010154908060020154908060030160009054906101000a900460ff16905084565b600560009054906101000a900473ffffffffffffffffffffffffffffffffffffffff1673ffffffffffffffffffffffffffffffffffffffff163373ffffffffffffffffffffffffffffffffffffffff1614610cbc576040517f08c379a0000000000000000000000000000000000000000000000000000000008152600401610cb3906122c0565b60405180910390fd5b6000600260009054906101000a900473ffffffffffffffffffffffffffffffffffffffff1673ffffffffffffffffffffffffffffffffffffffff16634a63705b600560009054906101000a900473ffffffffffffffffffffffffffffffffffffffff166040518263ffffffff1660e01b8152600401610d3b9190611b84565b602060405180830381865afa158015610d58573d6000803e3d6000fd5b505050506040513d601f19601f82011682018060405250810190610d7c9190611ecd565b90506000600260009054906101000a900473ffffffffffffffffffffffffffffffffffffffff1673ffffffffffffffffffffffffffffffffffffffff1663b0c6eb0c600560009054906101000a900473ffffffffffffffffffffffffffffffffffffffff166040518263ffffffff1660e01b8152600401610dfd9190611b84565b602060405180830381865afa158015610e1a573d6000803e3d6000fd5b505050506040513d601f19601f82011682018060405250810190610e3e9190611ecd565b905060008211610e83576040517f08c379a0000000000000000000000000000000000000000000000000000000008152600401610e7a9061232c565b60405180910390fd5b60008111610ec6576040517f08c379a0000000000000000000000000000000000000000000000000000000008152600401610ebd90612398565b60405180910390fd5b600080549050828183610ed99190611e4d565b610ee39190612126565b6000819055507f945c1c4e99aa89f648fbfe3df471b916f719e16d960fcec0737d4d56bd69683881600054604051610f1c92919061218b565b60405180910390a1505050565b600460009054906101000a900473ffffffffffffffffffffffffffffffffffffffff1681565b600460149054906101000a900460ff1615610f9f576040517f08c379a0000000000000000000000000000000000000000000000000000000008152600401610f9690611c94565b60405180910390fd5b6001600460146101000a81548160ff021916908315150217905550600460009054906101000a900473ffffffffffffffffffffffffffffffffffffffff1673ffffffffffffffffffffffffffffffffffffffff1663c3c5a547336040518263ffffffff1660e01b81526004016110159190611b84565b602060405180830381865afa158015611032573d6000803e3d6000fd5b505050506040513d601f19601f820116820180604052508101906110569190612035565b611095576040517f08c379a000000000000000000000000000000000000000000000000000000000815260040161108c90612404565b60405180910390fd5b600060018111156110a9576110a8612424565b5b600460009054906101000a900473ffffffffffffffffffffffffffffffffffffffff1673ffffffffffffffffffffffffffffffffffffffff16638b3f863f336040518263ffffffff1660e01b81526004016111049190611b84565b602060405180830381865afa158015611121573d6000803e3d6000fd5b505050506040513d601f19601f820116820180604052508101906111459190612478565b600181111561115757611156612424565b5b14611197576040517f08c379a000000000000000000000000000000000000000000000000000000000815260040161118e90612517565b60405180910390fd5b600082116111da576040517f08c379a00000000000000000000000000000000000000000000000000000000081526004016111d190612583565b60405180910390fd5b60001515600660003373ffffffffffffffffffffffffffffffffffffffff1673ffffffffffffffffffffffffffffffffffffffff16815260200190815260200160002060030160009054906101000a900460ff16151514611270576040517f08c379a000000000000000000000000000000000000000000000000000000000815260040161126790612615565b60405180910390fd5b600260009054906101000a900473ffffffffffffffffffffffffffffffffffffffff1673ffffffffffffffffffffffffffffffffffffffff16639f8181963384846040518463ffffffff1660e01b81526004016112cf9392919061267d565b600060405180830381600087803b1580156112e957600080fd5b505af11580156112fd573d6000803e3d6000fd5b5050505060405180608001604052803373ffffffffffffffffffffffffffffffffffffffff168152602001838152602001600054815260200160011515815250600660003373ffffffffffffffffffffffffffffffffffffffff1673ffffffffffffffffffffffffffffffffffffffff16815260200190815260200160002060008201518160000160006101000a81548173ffffffffffffffffffffffffffffffffffffffff021916908373ffffffffffffffffffffffffffffffffffffffff160217905550602082015181600101556040820151816002015560608201518160030160006101000a81548160ff0219169083151502179055509050503373ffffffffffffffffffffffffffffffffffffffff167fa8c72f46196c6c72e5efdf0d385752f027b7551d646c6661618006668434c8f38360005460405161144492919061218b565b60405180910390a2600360009054906101000a900473ffffffffffffffffffffffffffffffffffffffff1673ffffffffffffffffffffffffffffffffffffffff1663e72a6867336040518263ffffffff1660e01b81526004016114a79190612700565b600060405180830381600087803b1580156114c157600080fd5b505af11580156114d5573d6000803e3d6000fd5b505050506000600460146101000a81548160ff0219169083151502179055505050565b600260009054906101000a900473ffffffffffffffffffffffffffffffffffffffff1681565b600560009054906101000a900473ffffffffffffffffffffffffffffffffffffffff1681565b60076020528060005260406000206000915090505481565b600560009054906101000a900473ffffffffffffffffffffffffffffffffffffffff1673ffffffffffffffffffffffffffffffffffffffff163373ffffffffffffffffffffffffffffffffffffffff16146115ec576040517f08c379a00000000000000000000000000000000000000000000000000000000081526004016115e3906122c0565b60405180910390fd5b600360009054906101000a900473ffffffffffffffffffffffffffffffffffffffff1673ffffffffffffffffffffffffffffffffffffffff1663cf51b45d83836040518363ffffffff1660e01b815260040161164992919061272e565b600060405180830381600087803b15801561166357600080fd5b505af1158015611677573d6000803e3d6000fd5b50505050817f831764ac02a33c193cba23a0de34c986e9b50402bf3c9febf6ff2f63d4c0435d826040516116ab9190612252565b60405180910390a25050565b600160009054906101000a900473ffffffffffffffffffffffffffffffffffffffff1681565b600073ffffffffffffffffffffffffffffffffffffffff82169050919050565b6000819050919050565b600061172261171d611718846116dd565b6116fd565b6116dd565b9050919050565b600061173482611707565b9050919050565b600061174682611729565b9050919050565b6117568161173b565b82525050565b6000602082019050611771600083018461174d565b92915050565b6000604051905090565b600080fd5b600080fd5b6000611796826116dd565b9050919050565b6117a68161178b565b81146117b157600080fd5b50565b6000813590506117c38161179d565b92915050565b6000819050919050565b6117dc816117c9565b81146117e757600080fd5b50565b6000813590506117f9816117d3565b92915050565b6000806040838503121561181657611815611781565b5b6000611824858286016117b4565b9250506020611835858286016117ea565b9150509250929050565b611848816117c9565b82525050565b6000602082019050611863600083018461183f565b92915050565b600080fd5b600080fd5b6000601f19601f8301169050919050565b7f4e487b7100000000000000000000000000000000000000000000000000000000600052604160045260246000fd5b6118bc82611873565b810181811067ffffffffffffffff821117156118db576118da611884565b5b80604052505050565b60006118ee611777565b90506118fa82826118b3565b919050565b600067ffffffffffffffff82111561191a57611919611884565b5b61192382611873565b9050602081019050919050565b82818337600083830152505050565b600061195261194d846118ff565b6118e4565b90508281526020810184848401111561196e5761196d61186e565b5b611979848285611930565b509392505050565b600082601f83011261199657611995611869565b5b81356119a684826020860161193f565b91505092915050565b600080604083850312156119c6576119c5611781565b5b60006119d4858286016117b4565b925050602083013567ffffffffffffffff8111156119f5576119f4611786565b5b611a0185828601611981565b9150509250929050565b600060208284031215611a2157611a20611781565b5b6000611a2f848285016117b4565b91505092915050565b611a418161178b565b82525050565b60008115159050919050565b611a5c81611a47565b82525050565b6000608082019050611a776000830187611a38565b611a84602083018661183f565b611a91604083018561183f565b611a9e6060830184611a53565b95945050505050565b6000611ab282611729565b9050919050565b611ac281611aa7565b82525050565b6000602082019050611add6000830184611ab9565b92915050565b60048110611af057600080fd5b50565b600081359050611b0281611ae3565b92915050565b60008060408385031215611b1f57611b1e611781565b5b6000611b2d858286016117ea565b9250506020611b3e85828601611af3565b9150509250929050565b6000611b5382611729565b9050919050565b611b6381611b48565b82525050565b6000602082019050611b7e6000830184611b5a565b92915050565b6000602082019050611b996000830184611a38565b92915050565b60008060408385031215611bb657611bb5611781565b5b6000611bc4858286016117ea565b925050602083013567ffffffffffffffff811115611be557611be4611786565b5b611bf185828601611981565b9150509250929050565b6000611c0682611729565b9050919050565b611c1681611bfb565b82525050565b6000602082019050611c316000830184611c0d565b92915050565b600082825260208201905092915050565b7f5265656e7472616e6379206973206e6f7420616c6c6f77656400000000000000600082015250565b6000611c7e601983611c37565b9150611c8982611c48565b602082019050919050565b60006020820190508181036000830152611cad81611c71565b9050919050565b7f456e65726779206973206e6f7420617661696c61626c6520666f722073616c65600082015250565b6000611cea602083611c37565b9150611cf582611cb4565b602082019050919050565b60006020820190508181036000830152611d1981611cdd565b9050919050565b7f50726f647563657220646f6573206e6f74206861766520656e6f75676820737560008201527f72706c7573000000000000000000000000000000000000000000000000000000602082015250565b6000611d7c602583611c37565b9150611d8782611d20565b604082019050919050565b60006020820190508181036000830152611dab81611d6f565b9050919050565b7f436f6e73756d65722064656d616e6420697320696e73756666696369656e7400600082015250565b6000611de8601f83611c37565b9150611df382611db2565b602082019050919050565b60006020820190508181036000830152611e1781611ddb565b9050919050565b7f4e487b7100000000000000000000000000000000000000000000000000000000600052601160045260246000fd5b6000611e58826117c9565b9150611e63836117c9565b9250828202611e71816117c9565b91508282048414831517611e8857611e87611e1e565b5b5092915050565b6000604082019050611ea46000830185611a38565b611eb16020830184611a38565b9392505050565b600081519050611ec7816117d3565b92915050565b600060208284031215611ee357611ee2611781565b5b6000611ef184828501611eb8565b91505092915050565b7f416c6c6f77616e636520696e73756666696369656e7400000000000000000000600082015250565b6000611f30601683611c37565b9150611f3b82611efa565b602082019050919050565b60006020820190508181036000830152611f5f81611f23565b9050919050565b7f496e73756666696369656e7420746f6b656e2062616c616e6365000000000000600082015250565b6000611f9c601a83611c37565b9150611fa782611f66565b602082019050919050565b60006020820190508181036000830152611fcb81611f8f565b9050919050565b6000606082019050611fe76000830186611a38565b611ff46020830185611a38565b612001604083018461183f565b949350505050565b61201281611a47565b811461201d57600080fd5b50565b60008151905061202f81612009565b92915050565b60006020828403121561204b5761204a611781565b5b600061205984828501612020565b91505092915050565b60006040820190506120776000830185611a38565b612084602083018461183f565b9392505050565b7f417070726f76616c206661696c65640000000000000000000000000000000000600082015250565b60006120c1600f83611c37565b91506120cc8261208b565b602082019050919050565b600060208201905081810360008301526120f0816120b4565b9050919050565b7f4e487b7100000000000000000000000000000000000000000000000000000000600052601260045260246000fd5b6000612131826117c9565b915061213c836117c9565b92508261214c5761214b6120f7565b5b828204905092915050565b6000612162826117c9565b915061216d836117c9565b925082820390508181111561218557612184611e1e565b5b92915050565b60006040820190506121a0600083018561183f565b6121ad602083018461183f565b9392505050565b600081519050919050565b60005b838110156121dd5780820151818401526020810190506121c2565b60008484015250505050565b60006121f4826121b4565b6121fe8185611c37565b935061220e8185602086016121bf565b61221781611873565b840191505092915050565b60006040820190506122376000830185611a38565b818103602083015261224981846121e9565b90509392505050565b6000602082019050818103600083015261226c81846121e9565b905092915050565b7f4f6e6c79206f776e65722063616e2063616c6c20746869730000000000000000600082015250565b60006122aa601883611c37565b91506122b582612274565b602082019050919050565b600060208201905081810360008301526122d98161229d565b9050919050565b7f537570706c79206d7573742062652067726561746572207468616e207a65726f600082015250565b6000612316602083611c37565b9150612321826122e0565b602082019050919050565b6000602082019050818103600083015261234581612309565b9050919050565b7f44656d616e64206d7573742062652067726561746572207468616e207a65726f600082015250565b6000612382602083611c37565b915061238d8261234c565b602082019050919050565b600060208201905081810360008301526123b181612375565b9050919050565b7f55736572206973206e6f74207265676973746572656400000000000000000000600082015250565b60006123ee601683611c37565b91506123f9826123b8565b602082019050919050565b6000602082019050818103600083015261241d816123e1565b9050919050565b7f4e487b7100000000000000000000000000000000000000000000000000000000600052602160045260246000fd5b6002811061246057600080fd5b50565b60008151905061247281612453565b92915050565b60006020828403121561248e5761248d611781565b5b600061249c84828501612463565b91505092915050565b7f4f6e6c792070726f6475636572732063616e20706572666f726d20746869732060008201527f616374696f6e0000000000000000000000000000000000000000000000000000602082015250565b6000612501602683611c37565b915061250c826124a5565b604082019050919050565b60006020820190508181036000830152612530816124f4565b9050919050565b7f416d6f756e74206d7573742062652067726561746572207468616e207a65726f600082015250565b600061256d602083611c37565b915061257882612537565b602082019050919050565b6000602082019050818103600083015261259c81612560565b9050919050565b7f4578697374696e67206c697374696e67206d75737420626520696e616374697660008201527f6500000000000000000000000000000000000000000000000000000000000000602082015250565b60006125ff602183611c37565b915061260a826125a3565b604082019050919050565b6000602082019050818103600083015261262e816125f2565b9050919050565b6004811061264657612645612424565b5b50565b600081905061265782612635565b919050565b600061266782612649565b9050919050565b6126778161265c565b82525050565b60006060820190506126926000830186611a38565b61269f602083018561183f565b6126ac604083018461266e565b949350505050565b7f456e65726779206c6973746564207375636365737366756c6c79000000000000600082015250565b60006126ea601a83611c37565b91506126f5826126b4565b602082019050919050565b60006040820190506127156000830184611a38565b8181036020830152612726816126dd565b905092915050565b6000604082019050612743600083018561183f565b818103602083015261275581846121e9565b9050939250505056fea2646970667358221220574c1d19ae379f4d5052a7fcf325e329e913ac0c15af6712bab56634237c343564736f6c634300081a0033",
  "linkReferences": {},
  "deployedLinkReferences": {}
}