{
  "_format": "hh-sol-artifact-1",
  "contractName": "EnergyMonitoring",
  "sourceName": "contracts/EnergyMonitoring.sol",
  "abi": [
    {
      "inputs": [],
      "stateMutability": "nonpayable",
      "type": "constructor"
    },
    {
      "anonymous": false,
      "inputs": [
        {
          "indexed": true,
          "internalType": "address",
          "name": "user",
          "type": "address"
        },
        {
          "indexed": false,
          "internalType": "uint256",
          "name": "timestamp",
          "type": "uint256"
        }
      ],
      "name": "DataReset",
      "type": "event"
    },
    {
      "anonymous": false,
      "inputs": [
        {
          "indexed": true,
          "internalType": "address",
          "name": "consumer",
          "type": "address"
        },
        {
          "indexed": false,
          "internalType": "uint256",
          "name": "amount",
          "type": "uint256"
        },
        {
          "indexed": false,
          "internalType": "uint256",
          "name": "timestamp",
          "type": "uint256"
        }
      ],
      "name": "EnergyConsumed",
      "type": "event"
    },
    {
      "anonymous": false,
      "inputs": [
        {
          "indexed": true,
          "internalType": "address",
          "name": "producer",
          "type": "address"
        },
        {
          "indexed": false,
          "internalType": "uint256",
          "name": "amount",
          "type": "uint256"
        },
        {
          "indexed": false,
          "internalType": "enum EnergyMonitoring.EnergyType",
          "name": "energyType",
          "type": "uint8"
        },
        {
          "indexed": false,
          "internalType": "uint256",
          "name": "timestamp",
          "type": "uint256"
        }
      ],
      "name": "EnergyProduced",
      "type": "event"
    },
    {
      "inputs": [],
      "name": "getAllRecords",
      "outputs": [
        {
          "components": [
            {
              "internalType": "uint256",
              "name": "produced",
              "type": "uint256"
            },
            {
              "internalType": "uint256",
              "name": "consumed",
              "type": "uint256"
            },
            {
              "internalType": "uint256",
              "name": "timestamp",
              "type": "uint256"
            },
            {
              "internalType": "enum EnergyMonitoring.EnergyType",
              "name": "energyType",
              "type": "uint8"
            }
          ],
          "internalType": "struct EnergyMonitoring.EnergyRecord[]",
          "name": "",
          "type": "tuple[]"
        }
      ],
      "stateMutability": "view",
      "type": "function"
    },
    {
      "inputs": [
        {
          "internalType": "address",
          "name": "user",
          "type": "address"
        }
      ],
      "name": "getRecords",
      "outputs": [
        {
          "components": [
            {
              "internalType": "uint256",
              "name": "produced",
              "type": "uint256"
            },
            {
              "internalType": "uint256",
              "name": "consumed",
              "type": "uint256"
            },
            {
              "internalType": "uint256",
              "name": "timestamp",
              "type": "uint256"
            },
            {
              "internalType": "enum EnergyMonitoring.EnergyType",
              "name": "energyType",
              "type": "uint8"
            }
          ],
          "internalType": "struct EnergyMonitoring.EnergyRecord[]",
          "name": "",
          "type": "tuple[]"
        }
      ],
      "stateMutability": "view",
      "type": "function"
    },
    {
      "inputs": [],
      "name": "owner",
      "outputs": [
        {
          "internalType": "address",
          "name": "",
          "type": "address"
        }
      ],
      "stateMutability": "view",
      "type": "function"
    },
    {
      "inputs": [
        {
          "internalType": "address",
          "name": "consumer",
          "type": "address"
        },
        {
          "internalType": "uint256",
          "name": "amount",
          "type": "uint256"
        }
      ],
      "name": "recordConsumption",
      "outputs": [],
      "stateMutability": "nonpayable",
      "type": "function"
    },
    {
      "inputs": [
        {
          "internalType": "address",
          "name": "producer",
          "type": "address"
        },
        {
          "internalType": "uint256",
          "name": "amount",
          "type": "uint256"
        },
        {
          "internalType": "enum EnergyMonitoring.EnergyType",
          "name": "energyType",
          "type": "uint8"
        }
      ],
      "name": "recordProduction",
      "outputs": [],
      "stateMutability": "nonpayable",
      "type": "function"
    },
    {
      "inputs": [
        {
          "internalType": "address",
          "name": "user",
          "type": "address"
        }
      ],
      "name": "resetData",
      "outputs": [],
      "stateMutability": "nonpayable",
      "type": "function"
    },
    {
      "inputs": [
        {
          "internalType": "address",
          "name": "",
          "type": "address"
        }
      ],
      "name": "totalConsumed",
      "outputs": [
        {
          "internalType": "uint256",
          "name": "",
          "type": "uint256"
        }
      ],
      "stateMutability": "view",
      "type": "function"
    },
    {
      "inputs": [
        {
          "internalType": "address",
          "name": "",
          "type": "address"
        }
      ],
      "name": "totalProduced",
      "outputs": [
        {
          "internalType": "uint256",
          "name": "",
          "type": "uint256"
        }
      ],
      "stateMutability": "view",
      "type": "function"
    },
    {
      "inputs": [
        {
          "internalType": "address",
          "name": "newOwner",
          "type": "address"
        }
      ],
      "name": "transferOwnership",
      "outputs": [],
      "stateMutability": "nonpayable",
      "type": "function"
    },
    {
      "inputs": [
        {
          "internalType": "uint256",
          "name": "",
          "type": "uint256"
        }
      ],
      "name": "users",
      "outputs": [
        {
          "internalType": "address",
          "name": "",
          "type": "address"
        }
      ],
      "stateMutability": "view",
      "type": "function"
    }
  ],
  "bytecode": "0x6080604052348015600f57600080fd5b50336000806101000a81548173ffffffffffffffffffffffffffffffffffffffff021916908373ffffffffffffffffffffffffffffffffffffffff16021790555061164d8061005f6000396000f3fe608060405234801561001057600080fd5b506004361061009e5760003560e01c80639f818196116100665780639f81819614610159578063a0076e8414610175578063a7f9fe72146101a5578063b0c6eb0c146101c3578063f2fde38b146101f35761009e565b80633406f27f146100a3578063365b98b2146100bf5780634a63705b146100ef578063629faf8a1461011f5780638da5cb5b1461013b575b600080fd5b6100bd60048036038101906100b89190610f5a565b61020f565b005b6100d960048036038101906100d49190610f9a565b610477565b6040516100e69190610fd6565b60405180910390f35b61010960048036038101906101049190610ff1565b6104b6565b604051610116919061102d565b60405180910390f35b61013960048036038101906101349190610ff1565b6104ce565b005b610143610682565b6040516101509190610fd6565b60405180910390f35b610173600480360381019061016e919061106d565b6106a6565b005b61018f600480360381019061018a9190610ff1565b610910565b60405161019c919061124a565b60405180910390f35b6101ad610a07565b6040516101ba919061124a565b60405180910390f35b6101dd60048036038101906101d89190610ff1565b610cc8565b6040516101ea919061102d565b60405180910390f35b61020d60048036038101906102089190610ff1565b610ce0565b005b60008054906101000a900473ffffffffffffffffffffffffffffffffffffffff1673ffffffffffffffffffffffffffffffffffffffff163373ffffffffffffffffffffffffffffffffffffffff161461029d576040517f08c379a0000000000000000000000000000000000000000000000000000000008152600401610294906112ef565b60405180910390fd5b600081116102e0576040517f08c379a00000000000000000000000000000000000000000000000000000000081526004016102d790611381565b60405180910390fd5b80600460008473ffffffffffffffffffffffffffffffffffffffff1673ffffffffffffffffffffffffffffffffffffffff168152602001908152602001600020600082825461032f91906113d0565b92505081905550600260008373ffffffffffffffffffffffffffffffffffffffff1673ffffffffffffffffffffffffffffffffffffffff168152602001908152602001600020604051806080016040528060008152602001838152602001428152602001600060038111156103a7576103a66110fb565b5b815250908060018154018082558091505060019003906000526020600020906004020160009091909190915060008201518160000155602082015181600101556040820151816002015560608201518160030160006101000a81548160ff0219169083600381111561041c5761041b6110fb565b5b021790555050508173ffffffffffffffffffffffffffffffffffffffff167fadf60b50812cf8de7ced51caa9256fb7531ef821c63929aa890ab3123387d246824260405161046b929190611404565b60405180910390a25050565b6001818154811061048757600080fd5b906000526020600020016000915054906101000a900473ffffffffffffffffffffffffffffffffffffffff1681565b60036020528060005260406000206000915090505481565b60008054906101000a900473ffffffffffffffffffffffffffffffffffffffff1673ffffffffffffffffffffffffffffffffffffffff163373ffffffffffffffffffffffffffffffffffffffff161461055c576040517f08c379a0000000000000000000000000000000000000000000000000000000008152600401610553906112ef565b60405180910390fd5b600260008273ffffffffffffffffffffffffffffffffffffffff1673ffffffffffffffffffffffffffffffffffffffff16815260200190815260200160002060006105a79190610e20565b6000600360008373ffffffffffffffffffffffffffffffffffffffff1673ffffffffffffffffffffffffffffffffffffffff168152602001908152602001600020819055506000600460008373ffffffffffffffffffffffffffffffffffffffff1673ffffffffffffffffffffffffffffffffffffffff168152602001908152602001600020819055508073ffffffffffffffffffffffffffffffffffffffff167f65480cbdb2e256d00b7bf08f60e0726e75f27b97559cbfdb74a37e4c80086fcd42604051610677919061102d565b60405180910390a250565b60008054906101000a900473ffffffffffffffffffffffffffffffffffffffff1681565b60008054906101000a900473ffffffffffffffffffffffffffffffffffffffff1673ffffffffffffffffffffffffffffffffffffffff163373ffffffffffffffffffffffffffffffffffffffff1614610734576040517f08c379a000000000000000000000000000000000000000000000000000000000815260040161072b906112ef565b60405180910390fd5b60008211610777576040517f08c379a000000000000000000000000000000000000000000000000000000000815260040161076e9061149f565b60405180910390fd5b81600360008573ffffffffffffffffffffffffffffffffffffffff1673ffffffffffffffffffffffffffffffffffffffff16815260200190815260200160002060008282546107c691906113d0565b92505081905550600260008473ffffffffffffffffffffffffffffffffffffffff1673ffffffffffffffffffffffffffffffffffffffff16815260200190815260200160002060405180608001604052808481526020016000815260200142815260200183600381111561083d5761083c6110fb565b5b815250908060018154018082558091505060019003906000526020600020906004020160009091909190915060008201518160000155602082015181600101556040820151816002015560608201518160030160006101000a81548160ff021916908360038111156108b2576108b16110fb565b5b021790555050508273ffffffffffffffffffffffffffffffffffffffff167f5cfb307666c302e735ed249671512540e5ef8425fb38f73e416e0fcab716eac7838342604051610903939291906114ce565b60405180910390a2505050565b6060600260008373ffffffffffffffffffffffffffffffffffffffff1673ffffffffffffffffffffffffffffffffffffffff168152602001908152602001600020805480602002602001604051908101604052809291908181526020016000905b828210156109fc57838290600052602060002090600402016040518060800160405290816000820154815260200160018201548152602001600282015481526020016003820160009054906101000a900460ff1660038111156109d7576109d66110fb565b5b60038111156109e9576109e86110fb565b5b8152505081526020019060010190610971565b505050509050919050565b60606000805b600180549050811015610ab5576002600060018381548110610a3257610a31611505565b5b9060005260206000200160009054906101000a900473ffffffffffffffffffffffffffffffffffffffff1673ffffffffffffffffffffffffffffffffffffffff1673ffffffffffffffffffffffffffffffffffffffff1681526020019081526020016000208054905082610aa691906113d0565b91508080600101915050610a0d565b5060008167ffffffffffffffff811115610ad257610ad1611534565b5b604051908082528060200260200182016040528015610b0b57816020015b610af8610e44565b815260200190600190039081610af05790505b5090506000805b600180549050811015610cbe5760006002600060018481548110610b3957610b38611505565b5b9060005260206000200160009054906101000a900473ffffffffffffffffffffffffffffffffffffffff1673ffffffffffffffffffffffffffffffffffffffff1673ffffffffffffffffffffffffffffffffffffffff168152602001908152602001600020805480602002602001604051908101604052809291908181526020016000905b82821015610c4957838290600052602060002090600402016040518060800160405290816000820154815260200160018201548152602001600282015481526020016003820160009054906101000a900460ff166003811115610c2457610c236110fb565b5b6003811115610c3657610c356110fb565b5b8152505081526020019060010190610bbe565b50505050905060005b8151811015610caf57818181518110610c6e57610c6d611505565b5b6020026020010151858581518110610c8957610c88611505565b5b60200260200101819052508380610c9f90611563565b9450508080600101915050610c52565b50508080600101915050610b12565b5081935050505090565b60046020528060005260406000206000915090505481565b60008054906101000a900473ffffffffffffffffffffffffffffffffffffffff1673ffffffffffffffffffffffffffffffffffffffff163373ffffffffffffffffffffffffffffffffffffffff1614610d6e576040517f08c379a0000000000000000000000000000000000000000000000000000000008152600401610d65906112ef565b60405180910390fd5b600073ffffffffffffffffffffffffffffffffffffffff168173ffffffffffffffffffffffffffffffffffffffff1603610ddd576040517f08c379a0000000000000000000000000000000000000000000000000000000008152600401610dd4906115f7565b60405180910390fd5b806000806101000a81548173ffffffffffffffffffffffffffffffffffffffff021916908373ffffffffffffffffffffffffffffffffffffffff16021790555050565b5080546000825560040290600052602060002090810190610e419190610e7e565b50565b604051806080016040528060008152602001600081526020016000815260200160006003811115610e7857610e776110fb565b5b81525090565b5b80821115610ebd57600080820160009055600182016000905560028201600090556003820160006101000a81549060ff021916905550600401610e7f565b5090565b600080fd5b600073ffffffffffffffffffffffffffffffffffffffff82169050919050565b6000610ef182610ec6565b9050919050565b610f0181610ee6565b8114610f0c57600080fd5b50565b600081359050610f1e81610ef8565b92915050565b6000819050919050565b610f3781610f24565b8114610f4257600080fd5b50565b600081359050610f5481610f2e565b92915050565b60008060408385031215610f7157610f70610ec1565b5b6000610f7f85828601610f0f565b9250506020610f9085828601610f45565b9150509250929050565b600060208284031215610fb057610faf610ec1565b5b6000610fbe84828501610f45565b91505092915050565b610fd081610ee6565b82525050565b6000602082019050610feb6000830184610fc7565b92915050565b60006020828403121561100757611006610ec1565b5b600061101584828501610f0f565b91505092915050565b61102781610f24565b82525050565b6000602082019050611042600083018461101e565b92915050565b6004811061105557600080fd5b50565b60008135905061106781611048565b92915050565b60008060006060848603121561108657611085610ec1565b5b600061109486828701610f0f565b93505060206110a586828701610f45565b92505060406110b686828701611058565b9150509250925092565b600081519050919050565b600082825260208201905092915050565b6000819050602082019050919050565b6110f581610f24565b82525050565b7f4e487b7100000000000000000000000000000000000000000000000000000000600052602160045260246000fd5b6004811061113b5761113a6110fb565b5b50565b600081905061114c8261112a565b919050565b600061115c8261113e565b9050919050565b61116c81611151565b82525050565b60808201600082015161118860008501826110ec565b50602082015161119b60208501826110ec565b5060408201516111ae60408501826110ec565b5060608201516111c16060850182611163565b50505050565b60006111d38383611172565b60808301905092915050565b6000602082019050919050565b60006111f7826110c0565b61120181856110cb565b935061120c836110dc565b8060005b8381101561123d57815161122488826111c7565b975061122f836111df565b925050600181019050611210565b5085935050505092915050565b6000602082019050818103600083015261126481846111ec565b905092915050565b600082825260208201905092915050565b7f4f6e6c79206f776e65722063616e2063616c6c20746869732066756e6374696f60008201527f6e00000000000000000000000000000000000000000000000000000000000000602082015250565b60006112d960218361126c565b91506112e48261127d565b604082019050919050565b60006020820190508181036000830152611308816112cc565b9050919050565b7f436f6e73756d656420616d6f756e74206d75737420626520677265617465722060008201527f7468616e207a65726f0000000000000000000000000000000000000000000000602082015250565b600061136b60298361126c565b91506113768261130f565b604082019050919050565b6000602082019050818103600083015261139a8161135e565b9050919050565b7f4e487b7100000000000000000000000000000000000000000000000000000000600052601160045260246000fd5b60006113db82610f24565b91506113e683610f24565b92508282019050808211156113fe576113fd6113a1565b5b92915050565b6000604082019050611419600083018561101e565b611426602083018461101e565b9392505050565b7f50726f647563656420616d6f756e74206d75737420626520677265617465722060008201527f7468616e207a65726f0000000000000000000000000000000000000000000000602082015250565b600061148960298361126c565b91506114948261142d565b604082019050919050565b600060208201905081810360008301526114b88161147c565b9050919050565b6114c881611151565b82525050565b60006060820190506114e3600083018661101e565b6114f060208301856114bf565b6114fd604083018461101e565b949350505050565b7f4e487b7100000000000000000000000000000000000000000000000000000000600052603260045260246000fd5b7f4e487b7100000000000000000000000000000000000000000000000000000000600052604160045260246000fd5b600061156e82610f24565b91507fffffffffffffffffffffffffffffffffffffffffffffffffffffffffffffffff82036115a05761159f6113a1565b5b600182019050919050565b7f4e6577206f776e65722063616e6e6f74206265207a65726f2061646472657373600082015250565b60006115e160208361126c565b91506115ec826115ab565b602082019050919050565b60006020820190508181036000830152611610816115d4565b905091905056fea2646970667358221220f726c763d4b212564c5ddba0701b0c27aa88a6ca199af9146b617865a2a3a0df64736f6c634300081a0033",
  "linkReferences": {},
  "deployedLinkReferences": {}
}