{
  "_format": "hh-sol-artifact-1",
  "contractName": "CrossGridResource",
  "sourceName": "contracts/CrossGridResource.sol",
  "abi": [
    {
      "inputs": [
        {
          "internalType": "uint256",
          "name": "initialPrice",
          "type": "uint256"
        },
        {
          "internalType": "address",
          "name": "_token",
          "type": "address"
        }
      ],
      "stateMutability": "nonpayable",
      "type": "constructor"
    },
    {
      "anonymous": false,
      "inputs": [
        {
          "indexed": true,
          "internalType": "address",
          "name": "user",
          "type": "address"
        },
        {
          "indexed": false,
          "internalType": "uint256",
          "name": "timestamp",
          "type": "uint256"
        }
      ],
      "name": "DataReset",
      "type": "event"
    },
    {
      "anonymous": false,
      "inputs": [
        {
          "indexed": true,
          "internalType": "address",
          "name": "initiator",
          "type": "address"
        },
        {
          "indexed": true,
          "internalType": "address",
          "name": "respondent",
          "type": "address"
        },
        {
          "indexed": false,
          "internalType": "string",
          "name": "reason",
          "type": "string"
        }
      ],
      "name": "DisputeInitiated",
      "type": "event"
    },
    {
      "anonymous": false,
      "inputs": [
        {
          "indexed": true,
          "internalType": "uint256",
          "name": "disputeId",
          "type": "uint256"
        },
        {
          "indexed": false,
          "internalType": "string",
          "name": "resolutionDetails",
          "type": "string"
        }
      ],
      "name": "DisputeResolved",
      "type": "event"
    },
    {
      "anonymous": false,
      "inputs": [
        {
          "indexed": true,
          "internalType": "address",
          "name": "producer",
          "type": "address"
        },
        {
          "indexed": true,
          "internalType": "address",
          "name": "consumer",
          "type": "address"
        },
        {
          "indexed": false,
          "internalType": "uint256",
          "name": "amount",
          "type": "uint256"
        },
        {
          "indexed": false,
          "internalType": "uint256",
          "name": "price",
          "type": "uint256"
        }
      ],
      "name": "EnergyBought",
      "type": "event"
    },
    {
      "anonymous": false,
      "inputs": [
        {
          "indexed": true,
          "internalType": "address",
          "name": "consumer",
          "type": "address"
        },
        {
          "indexed": false,
          "internalType": "uint256",
          "name": "amount",
          "type": "uint256"
        },
        {
          "indexed": false,
          "internalType": "uint256",
          "name": "timestamp",
          "type": "uint256"
        }
      ],
      "name": "EnergyConsumed",
      "type": "event"
    },
    {
      "anonymous": false,
      "inputs": [
        {
          "indexed": true,
          "internalType": "address",
          "name": "producer",
          "type": "address"
        },
        {
          "indexed": false,
          "internalType": "uint256",
          "name": "amount",
          "type": "uint256"
        },
        {
          "indexed": false,
          "internalType": "uint256",
          "name": "price",
          "type": "uint256"
        },
        {
          "indexed": false,
          "internalType": "string",
          "name": "energyType",
          "type": "string"
        }
      ],
      "name": "EnergyListed",
      "type": "event"
    },
    {
      "anonymous": false,
      "inputs": [
        {
          "indexed": true,
          "internalType": "address",
          "name": "producer",
          "type": "address"
        },
        {
          "indexed": false,
          "internalType": "uint256",
          "name": "amount",
          "type": "uint256"
        },
        {
          "indexed": false,
          "internalType": "enum CrossGridResource.EnergyType",
          "name": "energyType",
          "type": "uint8"
        },
        {
          "indexed": false,
          "internalType": "uint256",
          "name": "timestamp",
          "type": "uint256"
        }
      ],
      "name": "EnergyProduced",
      "type": "event"
    },
    {
      "anonymous": false,
      "inputs": [
        {
          "indexed": false,
          "internalType": "uint256",
          "name": "oldPrice",
          "type": "uint256"
        },
        {
          "indexed": false,
          "internalType": "uint256",
          "name": "newPrice",
          "type": "uint256"
        }
      ],
      "name": "PriceUpdated",
      "type": "event"
    },
    {
      "anonymous": false,
      "inputs": [
        {
          "indexed": true,
          "internalType": "address",
          "name": "user",
          "type": "address"
        },
        {
          "indexed": false,
          "internalType": "enum CrossGridResource.UserType",
          "name": "userType",
          "type": "uint8"
        }
      ],
      "name": "UserRegistered",
      "type": "event"
    },
    {
      "inputs": [
        {
          "internalType": "address",
          "name": "producer",
          "type": "address"
        },
        {
          "internalType": "uint256",
          "name": "listingIndex",
          "type": "uint256"
        },
        {
          "internalType": "uint256",
          "name": "price",
          "type": "uint256"
        }
      ],
      "name": "buyEnergy",
      "outputs": [],
      "stateMutability": "nonpayable",
      "type": "function"
    },
    {
      "inputs": [
        {
          "internalType": "address",
          "name": "",
          "type": "address"
        },
        {
          "internalType": "uint256",
          "name": "",
          "type": "uint256"
        }
      ],
      "name": "consumedRecords",
      "outputs": [
        {
          "internalType": "uint256",
          "name": "consumed",
          "type": "uint256"
        },
        {
          "internalType": "uint256",
          "name": "timestamp",
          "type": "uint256"
        },
        {
          "internalType": "enum CrossGridResource.EnergyType",
          "name": "energyType",
          "type": "uint8"
        }
      ],
      "stateMutability": "view",
      "type": "function"
    },
    {
      "inputs": [
        {
          "internalType": "address",
          "name": "",
          "type": "address"
        }
      ],
      "name": "customerDemand",
      "outputs": [
        {
          "internalType": "uint256",
          "name": "",
          "type": "uint256"
        }
      ],
      "stateMutability": "view",
      "type": "function"
    },
    {
      "inputs": [
        {
          "internalType": "uint256",
          "name": "",
          "type": "uint256"
        }
      ],
      "name": "disputes",
      "outputs": [
        {
          "internalType": "address",
          "name": "initiator",
          "type": "address"
        },
        {
          "internalType": "address",
          "name": "respondent",
          "type": "address"
        },
        {
          "internalType": "string",
          "name": "reason",
          "type": "string"
        },
        {
          "internalType": "string",
          "name": "resolutionDetails",
          "type": "string"
        },
        {
          "internalType": "bool",
          "name": "resolved",
          "type": "bool"
        },
        {
          "internalType": "uint256",
          "name": "timestamp",
          "type": "uint256"
        }
      ],
      "stateMutability": "view",
      "type": "function"
    },
    {
      "inputs": [],
      "name": "dynamicPrice",
      "outputs": [
        {
          "internalType": "uint256",
          "name": "",
          "type": "uint256"
        }
      ],
      "stateMutability": "view",
      "type": "function"
    },
    {
      "inputs": [
        {
          "internalType": "address",
          "name": "",
          "type": "address"
        },
        {
          "internalType": "uint256",
          "name": "",
          "type": "uint256"
        }
      ],
      "name": "energyListings",
      "outputs": [
        {
          "internalType": "address",
          "name": "producer",
          "type": "address"
        },
        {
          "internalType": "uint256",
          "name": "amount",
          "type": "uint256"
        },
        {
          "internalType": "uint256",
          "name": "price",
          "type": "uint256"
        },
        {
          "internalType": "enum CrossGridResource.EnergyType",
          "name": "energyType",
          "type": "uint8"
        },
        {
          "internalType": "bool",
          "name": "active",
          "type": "bool"
        }
      ],
      "stateMutability": "view",
      "type": "function"
    },
    {
      "inputs": [],
      "name": "fetchAllEnergyListings",
      "outputs": [
        {
          "components": [
            {
              "internalType": "address",
              "name": "producer",
              "type": "address"
            },
            {
              "internalType": "uint256",
              "name": "amount",
              "type": "uint256"
            },
            {
              "internalType": "uint256",
              "name": "price",
              "type": "uint256"
            },
            {
              "internalType": "enum CrossGridResource.EnergyType",
              "name": "energyType",
              "type": "uint8"
            },
            {
              "internalType": "bool",
              "name": "active",
              "type": "bool"
            }
          ],
          "internalType": "struct CrossGridResource.EnergyListing[]",
          "name": "",
          "type": "tuple[]"
        }
      ],
      "stateMutability": "view",
      "type": "function"
    },
    {
      "inputs": [],
      "name": "getAggregatedDemand",
      "outputs": [
        {
          "internalType": "uint256",
          "name": "",
          "type": "uint256"
        }
      ],
      "stateMutability": "view",
      "type": "function"
    },
    {
      "inputs": [],
      "name": "getAggregatedSupply",
      "outputs": [
        {
          "internalType": "uint256",
          "name": "",
          "type": "uint256"
        }
      ],
      "stateMutability": "view",
      "type": "function"
    },
    {
      "inputs": [],
      "name": "getAllUsers",
      "outputs": [
        {
          "internalType": "address[]",
          "name": "",
          "type": "address[]"
        }
      ],
      "stateMutability": "view",
      "type": "function"
    },
    {
      "inputs": [
        {
          "internalType": "address",
          "name": "user",
          "type": "address"
        }
      ],
      "name": "getConsumedRecords",
      "outputs": [
        {
          "components": [
            {
              "internalType": "uint256",
              "name": "consumed",
              "type": "uint256"
            },
            {
              "internalType": "uint256",
              "name": "timestamp",
              "type": "uint256"
            },
            {
              "internalType": "enum CrossGridResource.EnergyType",
              "name": "energyType",
              "type": "uint8"
            }
          ],
          "internalType": "struct CrossGridResource.EnergyConsumedRecord[]",
          "name": "",
          "type": "tuple[]"
        }
      ],
      "stateMutability": "view",
      "type": "function"
    },
    {
      "inputs": [
        {
          "internalType": "uint256",
          "name": "disputeId",
          "type": "uint256"
        }
      ],
      "name": "getDispute",
      "outputs": [
        {
          "components": [
            {
              "internalType": "address",
              "name": "initiator",
              "type": "address"
            },
            {
              "internalType": "address",
              "name": "respondent",
              "type": "address"
            },
            {
              "internalType": "string",
              "name": "reason",
              "type": "string"
            },
            {
              "internalType": "string",
              "name": "resolutionDetails",
              "type": "string"
            },
            {
              "internalType": "bool",
              "name": "resolved",
              "type": "bool"
            },
            {
              "internalType": "uint256",
              "name": "timestamp",
              "type": "uint256"
            }
          ],
          "internalType": "struct CrossGridResource.Dispute",
          "name": "",
          "type": "tuple"
        }
      ],
      "stateMutability": "view",
      "type": "function"
    },
    {
      "inputs": [],
      "name": "getDisputes",
      "outputs": [
        {
          "components": [
            {
              "internalType": "address",
              "name": "initiator",
              "type": "address"
            },
            {
              "internalType": "address",
              "name": "respondent",
              "type": "address"
            },
            {
              "internalType": "string",
              "name": "reason",
              "type": "string"
            },
            {
              "internalType": "string",
              "name": "resolutionDetails",
              "type": "string"
            },
            {
              "internalType": "bool",
              "name": "resolved",
              "type": "bool"
            },
            {
              "internalType": "uint256",
              "name": "timestamp",
              "type": "uint256"
            }
          ],
          "internalType": "struct CrossGridResource.Dispute[]",
          "name": "",
          "type": "tuple[]"
        }
      ],
      "stateMutability": "view",
      "type": "function"
    },
    {
      "inputs": [
        {
          "internalType": "address",
          "name": "producer",
          "type": "address"
        }
      ],
      "name": "getListings",
      "outputs": [
        {
          "components": [
            {
              "internalType": "address",
              "name": "producer",
              "type": "address"
            },
            {
              "internalType": "uint256",
              "name": "amount",
              "type": "uint256"
            },
            {
              "internalType": "uint256",
              "name": "price",
              "type": "uint256"
            },
            {
              "internalType": "enum CrossGridResource.EnergyType",
              "name": "energyType",
              "type": "uint8"
            },
            {
              "internalType": "bool",
              "name": "active",
              "type": "bool"
            }
          ],
          "internalType": "struct CrossGridResource.EnergyListing[]",
          "name": "",
          "type": "tuple[]"
        }
      ],
      "stateMutability": "view",
      "type": "function"
    },
    {
      "inputs": [
        {
          "internalType": "address",
          "name": "user",
          "type": "address"
        }
      ],
      "name": "getProducedRecords",
      "outputs": [
        {
          "components": [
            {
              "internalType": "uint256",
              "name": "produced",
              "type": "uint256"
            },
            {
              "internalType": "uint256",
              "name": "timestamp",
              "type": "uint256"
            },
            {
              "internalType": "enum CrossGridResource.EnergyType",
              "name": "energyType",
              "type": "uint8"
            }
          ],
          "internalType": "struct CrossGridResource.EnergyProducedRecord[]",
          "name": "",
          "type": "tuple[]"
        }
      ],
      "stateMutability": "view",
      "type": "function"
    },
    {
      "inputs": [
        {
          "internalType": "address",
          "name": "user",
          "type": "address"
        }
      ],
      "name": "getUserType",
      "outputs": [
        {
          "internalType": "enum CrossGridResource.UserType",
          "name": "",
          "type": "uint8"
        }
      ],
      "stateMutability": "view",
      "type": "function"
    },
    {
      "inputs": [
        {
          "internalType": "address",
          "name": "respondent",
          "type": "address"
        },
        {
          "internalType": "string",
          "name": "reason",
          "type": "string"
        }
      ],
      "name": "initiateDispute",
      "outputs": [],
      "stateMutability": "nonpayable",
      "type": "function"
    },
    {
      "inputs": [
        {
          "internalType": "address",
          "name": "user",
          "type": "address"
        }
      ],
      "name": "isRegistered",
      "outputs": [
        {
          "internalType": "bool",
          "name": "",
          "type": "bool"
        }
      ],
      "stateMutability": "view",
      "type": "function"
    },
    {
      "inputs": [
        {
          "internalType": "uint256",
          "name": "amount",
          "type": "uint256"
        },
        {
          "internalType": "uint256",
          "name": "price",
          "type": "uint256"
        },
        {
          "internalType": "enum CrossGridResource.EnergyType",
          "name": "energyType",
          "type": "uint8"
        }
      ],
      "name": "listEnergy",
      "outputs": [],
      "stateMutability": "nonpayable",
      "type": "function"
    },
    {
      "inputs": [],
      "name": "owner",
      "outputs": [
        {
          "internalType": "address",
          "name": "",
          "type": "address"
        }
      ],
      "stateMutability": "view",
      "type": "function"
    },
    {
      "inputs": [
        {
          "internalType": "address",
          "name": "",
          "type": "address"
        },
        {
          "internalType": "uint256",
          "name": "",
          "type": "uint256"
        }
      ],
      "name": "producedRecords",
      "outputs": [
        {
          "internalType": "uint256",
          "name": "produced",
          "type": "uint256"
        },
        {
          "internalType": "uint256",
          "name": "timestamp",
          "type": "uint256"
        },
        {
          "internalType": "enum CrossGridResource.EnergyType",
          "name": "energyType",
          "type": "uint8"
        }
      ],
      "stateMutability": "view",
      "type": "function"
    },
    {
      "inputs": [
        {
          "internalType": "address",
          "name": "user",
          "type": "address"
        },
        {
          "internalType": "enum CrossGridResource.UserType",
          "name": "userType",
          "type": "uint8"
        }
      ],
      "name": "registerUser",
      "outputs": [],
      "stateMutability": "nonpayable",
      "type": "function"
    },
    {
      "inputs": [
        {
          "internalType": "address",
          "name": "user",
          "type": "address"
        }
      ],
      "name": "resetData",
      "outputs": [],
      "stateMutability": "nonpayable",
      "type": "function"
    },
    {
      "inputs": [
        {
          "internalType": "uint256",
          "name": "disputeId",
          "type": "uint256"
        },
        {
          "internalType": "string",
          "name": "resolutionDetails",
          "type": "string"
        }
      ],
      "name": "resolveDispute",
      "outputs": [],
      "stateMutability": "nonpayable",
      "type": "function"
    },
    {
      "inputs": [],
      "name": "token",
      "outputs": [
        {
          "internalType": "contract IEnergy",
          "name": "",
          "type": "address"
        }
      ],
      "stateMutability": "view",
      "type": "function"
    },
    {
      "inputs": [
        {
          "internalType": "address",
          "name": "",
          "type": "address"
        }
      ],
      "name": "totalConsumed",
      "outputs": [
        {
          "internalType": "uint256",
          "name": "",
          "type": "uint256"
        }
      ],
      "stateMutability": "view",
      "type": "function"
    },
    {
      "inputs": [],
      "name": "totalDemandAggregated",
      "outputs": [
        {
          "internalType": "uint256",
          "name": "",
          "type": "uint256"
        }
      ],
      "stateMutability": "view",
      "type": "function"
    },
    {
      "inputs": [
        {
          "internalType": "address",
          "name": "",
          "type": "address"
        }
      ],
      "name": "totalProduced",
      "outputs": [
        {
          "internalType": "uint256",
          "name": "",
          "type": "uint256"
        }
      ],
      "stateMutability": "view",
      "type": "function"
    },
    {
      "inputs": [],
      "name": "totalSupplyAggregated",
      "outputs": [
        {
          "internalType": "uint256",
          "name": "",
          "type": "uint256"
        }
      ],
      "stateMutability": "view",
      "type": "function"
    },
    {
      "inputs": [],
      "name": "updatePrice",
      "outputs": [],
      "stateMutability": "nonpayable",
      "type": "function"
    },
    {
      "inputs": [
        {
          "internalType": "address",
          "name": "",
          "type": "address"
        }
      ],
      "name": "userEarned",
      "outputs": [
        {
          "internalType": "uint256",
          "name": "",
          "type": "uint256"
        }
      ],
      "stateMutability": "view",
      "type": "function"
    },
    {
      "inputs": [
        {
          "internalType": "address",
          "name": "",
          "type": "address"
        }
      ],
      "name": "userSpent",
      "outputs": [
        {
          "internalType": "uint256",
          "name": "",
          "type": "uint256"
        }
      ],
      "stateMutability": "view",
      "type": "function"
    },
    {
      "inputs": [
        {
          "internalType": "address",
          "name": "",
          "type": "address"
        }
      ],
      "name": "users",
      "outputs": [
        {
          "internalType": "enum CrossGridResource.UserType",
          "name": "userType",
          "type": "uint8"
        },
        {
          "internalType": "bool",
          "name": "registered",
          "type": "bool"
        }
      ],
      "stateMutability": "view",
      "type": "function"
    }
  ],
  "bytecode": "0x608060405234801561001057600080fd5b506040516154803803806154808339818101604052810190610032919061019e565b60008211610075576040517f08c379a000000000000000000000000000000000000000000000000000000000815260040161006c90610261565b60405180910390fd5b8160008190555080600160006101000a81548173ffffffffffffffffffffffffffffffffffffffff021916908373ffffffffffffffffffffffffffffffffffffffff16021790555033600260006101000a81548173ffffffffffffffffffffffffffffffffffffffff021916908373ffffffffffffffffffffffffffffffffffffffff1602179055505050610281565b600080fd5b6000819050919050565b61011d8161010a565b811461012857600080fd5b50565b60008151905061013a81610114565b92915050565b600073ffffffffffffffffffffffffffffffffffffffff82169050919050565b600061016b82610140565b9050919050565b61017b81610160565b811461018657600080fd5b50565b60008151905061019881610172565b92915050565b600080604083850312156101b5576101b4610105565b5b60006101c38582860161012b565b92505060206101d485828601610189565b9150509250929050565b600082825260208201905092915050565b7f496e697469616c207072696365206d757374206265206772656174657220746860008201527f616e207a65726f00000000000000000000000000000000000000000000000000602082015250565b600061024b6027836101de565b9150610256826101ef565b604082019050919050565b6000602082019050818103600083015261027a8161023e565b9050919050565b6151f0806102906000396000f3fe608060405234801561001057600080fd5b50600436106101fb5760003560e01c80638b3f863f1161011a578063c0a0117a116100ad578063cf51b45d1161007c578063cf51b45d14610632578063e2842d791461064e578063e3a96cbd1461066c578063eb5dcf3a1461069c578063fc0c546a146106ce576101fb565b8063c0a0117a14610572578063c3c5a547146105a2578063cba72540146105d2578063cde8cd6e14610602576101fb565b8063a87430ba116100e9578063a87430ba146104c3578063b0c6eb0c146104f4578063b1ca72a614610524578063baa15f6f14610542576101fb565b80638b3f863f1461043b5780638da5cb5b1461046b578063955ab452146104895780639e9fa097146104a7576101fb565b806345f870af11610192578063629faf8a11610161578063629faf8a146103d957806365a80981146103f5578063673a7e28146104135780637e8e24821461041d576101fb565b806345f870af146103265780634a63705b1461034257806352cb324f14610372578063564a565d146103a4576101fb565b806332add833116101ce57806332add8331461029a578063354df9cc146102b65780633746c6aa146102d45780633d06a96914610308576101fb565b80630d840813146102005780631479d983146102305780631a68e9431461024e5780631fd4d5781461026a575b600080fd5b61021a600480360381019061021591906133f4565b6106ec565b60405161022791906135a2565b60405180910390f35b6102386107d9565b60405161024591906135d3565b60405180910390f35b6102686004803603810190610263919061363f565b6107df565b005b610284600480360381019061027f91906133f4565b610be5565b6040516102919190613783565b60405180910390f35b6102b460048036038101906102af91906137a5565b610cd2565b005b6102be6112e8565b6040516102cb91906135d3565b60405180910390f35b6102ee60048036038101906102e991906137f8565b6112ee565b6040516102ff959493929190613871565b60405180910390f35b61031061137b565b60405161031d91906135d3565b60405180910390f35b610340600480360381019061033b9190613a0a565b611381565b005b61035c600480360381019061035791906133f4565b611566565b60405161036991906135d3565b60405180910390f35b61038c600480360381019061038791906137f8565b61157e565b60405161039b93929190613a66565b60405180910390f35b6103be60048036038101906103b99190613a9d565b6115d2565b6040516103d096959493929190613b49565b60405180910390f35b6103f360048036038101906103ee91906133f4565b61177b565b005b6103fd61197c565b60405161040a91906135d3565b60405180910390f35b61041b611986565b005b610425611bcb565b60405161043291906135d3565b60405180910390f35b610455600480360381019061045091906133f4565b611bd5565b6040516104629190613c00565b60405180910390f35b610473611cbd565b6040516104809190613c1b565b60405180910390f35b610491611ce3565b60405161049e9190613d6b565b60405180910390f35b6104c160048036038101906104bc9190613db2565b611fd5565b005b6104dd60048036038101906104d891906133f4565b6122ac565b6040516104eb929190613df2565b60405180910390f35b61050e600480360381019061050991906133f4565b6122ea565b60405161051b91906135d3565b60405180910390f35b61052c612302565b6040516105399190613fb7565b60405180910390f35b61055c600480360381019061055791906133f4565b612556565b60405161056991906135d3565b60405180910390f35b61058c600480360381019061058791906133f4565b61256e565b60405161059991906135d3565b60405180910390f35b6105bc60048036038101906105b791906133f4565b612586565b6040516105c99190613fd9565b60405180910390f35b6105ec60048036038101906105e791906133f4565b6125df565b6040516105f991906135d3565b60405180910390f35b61061c600480360381019061061791906133f4565b6125f7565b6040516106299190613d6b565b60405180910390f35b61064c60048036038101906106479190613ff4565b612755565b005b610656612910565b60405161066391906140ff565b60405180910390f35b61068660048036038101906106819190613a9d565b61299e565b60405161069391906141b1565b60405180910390f35b6106b660048036038101906106b191906137f8565b612c16565b6040516106c593929190613a66565b60405180910390f35b6106d6612c6a565b6040516106e39190614232565b60405180910390f35b6060600960008373ffffffffffffffffffffffffffffffffffffffff1673ffffffffffffffffffffffffffffffffffffffff168152602001908152602001600020805480602002602001604051908101604052809291908181526020016000905b828210156107ce578382906000526020600020906003020160405180606001604052908160008201548152602001600182015481526020016002820160009054906101000a900460ff1660038111156107a9576107a8613466565b5b60038111156107bb576107ba613466565b5b815250508152602001906001019061074d565b505050509050919050565b60075481565b600460009054906101000a900460ff161561082f576040517f08c379a000000000000000000000000000000000000000000000000000000000815260040161082690614299565b60405180910390fd5b6001600460006101000a81548160ff021916908315150217905550600c60003373ffffffffffffffffffffffffffffffffffffffff1673ffffffffffffffffffffffffffffffffffffffff16815260200190815260200160002060000160019054906101000a900460ff1680156109195750600160028111156108b5576108b4613466565b5b600c60003373ffffffffffffffffffffffffffffffffffffffff1673ffffffffffffffffffffffffffffffffffffffff16815260200190815260200160002060000160009054906101000a900460ff16600281111561091757610916613466565b5b145b610958576040517f08c379a000000000000000000000000000000000000000000000000000000000815260040161094f9061432b565b60405180910390fd5b6000831161099b576040517f08c379a000000000000000000000000000000000000000000000000000000000815260040161099290614397565b60405180910390fd5b600082116109de576040517f08c379a00000000000000000000000000000000000000000000000000000000081526004016109d590614403565b60405180910390fd5b82600660008282546109f09190614452565b92505081905550600860003373ffffffffffffffffffffffffffffffffffffffff1673ffffffffffffffffffffffffffffffffffffffff1681526020019081526020016000206040518060a001604052803373ffffffffffffffffffffffffffffffffffffffff168152602001858152602001848152602001836003811115610a7c57610a7b613466565b5b815260200160011515815250908060018154018082558091505060019003906000526020600020906004020160009091909190915060008201518160000160006101000a81548173ffffffffffffffffffffffffffffffffffffffff021916908373ffffffffffffffffffffffffffffffffffffffff160217905550602082015181600101556040820151816002015560608201518160030160006101000a81548160ff02191690836003811115610b3757610b36613466565b5b021790555060808201518160030160016101000a81548160ff0219169083151502179055505050610b69338483612c90565b3373ffffffffffffffffffffffffffffffffffffffff167f2f8d01920f10cc9dcd6eb2ba04b84f6345aba87751d7e5a2650bdba1b106860e84600054610bae85612e5b565b604051610bbd93929190614486565b60405180910390a26000600460006101000a81548160ff021916908315150217905550505050565b6060600a60008373ffffffffffffffffffffffffffffffffffffffff1673ffffffffffffffffffffffffffffffffffffffff168152602001908152602001600020805480602002602001604051908101604052809291908181526020016000905b82821015610cc7578382906000526020600020906003020160405180606001604052908160008201548152602001600182015481526020016002820160009054906101000a900460ff166003811115610ca257610ca1613466565b5b6003811115610cb457610cb3613466565b5b8152505081526020019060010190610c46565b505050509050919050565b600460009054906101000a900460ff1615610d22576040517f08c379a0000000000000000000000000000000000000000000000000000000008152600401610d1990614299565b60405180910390fd5b6001600460006101000a81548160ff0219169083151502179055506000600860008573ffffffffffffffffffffffffffffffffffffffff1673ffffffffffffffffffffffffffffffffffffffff1681526020019081526020016000208381548110610d9057610d8f6144c4565b5b906000526020600020906004020190508060030160019054906101000a900460ff16610df1576040517f08c379a0000000000000000000000000000000000000000000000000000000008152600401610de89061453f565b60405180910390fd5b600082118015610e14575080600201548160010154610e10919061455f565b8211155b610e53576040517f08c379a0000000000000000000000000000000000000000000000000000000008152600401610e4a90614613565b60405180910390fd5b600081600201546103e884610e68919061455f565b610e729190614662565b90508160010154811115610ebb576040517f08c379a0000000000000000000000000000000000000000000000000000000008152600401610eb290614705565b60405180910390fd5b82600160009054906101000a900473ffffffffffffffffffffffffffffffffffffffff1673ffffffffffffffffffffffffffffffffffffffff1663dd62ed3e33306040518363ffffffff1660e01b8152600401610f19929190614725565b602060405180830381865afa158015610f36573d6000803e3d6000fd5b505050506040513d601f19601f82011682018060405250810190610f5a9190614763565b1015610f9b576040517f08c379a0000000000000000000000000000000000000000000000000000000008152600401610f92906147dc565b60405180910390fd5b82600160009054906101000a900473ffffffffffffffffffffffffffffffffffffffff1673ffffffffffffffffffffffffffffffffffffffff166370a08231336040518263ffffffff1660e01b8152600401610ff79190613c1b565b602060405180830381865afa158015611014573d6000803e3d6000fd5b505050506040513d601f19601f820116820180604052508101906110389190614763565b1015611079576040517f08c379a000000000000000000000000000000000000000000000000000000000815260040161107090614848565b60405180910390fd5b600160009054906101000a900473ffffffffffffffffffffffffffffffffffffffff1673ffffffffffffffffffffffffffffffffffffffff166323b872dd3387866040518463ffffffff1660e01b81526004016110d893929190614868565b6020604051808303816000875af11580156110f7573d6000803e3d6000fd5b505050506040513d601f19601f8201168201806040525081019061111b91906148cb565b50806006600082825461112e91906148f8565b9250508190555080600760008282546111479190614452565b925050819055508082600101600082825461116291906148f8565b9250508190555060008260010154036111935760008260030160016101000a81548160ff0219169083151502179055505b82600f60008773ffffffffffffffffffffffffffffffffffffffff1673ffffffffffffffffffffffffffffffffffffffff16815260200190815260200160002060008282546111e29190614452565b9250508190555082601060003373ffffffffffffffffffffffffffffffffffffffff1673ffffffffffffffffffffffffffffffffffffffff16815260200190815260200160002060008282546112389190614452565b9250508190555061125b33828460030160009054906101000a900460ff1661303e565b3373ffffffffffffffffffffffffffffffffffffffff168573ffffffffffffffffffffffffffffffffffffffff167f942439e1850cccb8201680164759092629ebc0519531d3aeea6a5d9b3578529d8385600201546040516112be92919061492c565b60405180910390a350506000600460006101000a81548160ff021916908315150217905550505050565b60065481565b6008602052816000526040600020818154811061130a57600080fd5b9060005260206000209060040201600091509150508060000160009054906101000a900473ffffffffffffffffffffffffffffffffffffffff16908060010154908060020154908060030160009054906101000a900460ff16908060030160019054906101000a900460ff16905085565b60005481565b60056040518060c001604052803373ffffffffffffffffffffffffffffffffffffffff1681526020018473ffffffffffffffffffffffffffffffffffffffff16815260200183815260200160405180602001604052806000815250815260200160001515815260200142815250908060018154018082558091505060019003906000526020600020906006020160009091909190915060008201518160000160006101000a81548173ffffffffffffffffffffffffffffffffffffffff021916908373ffffffffffffffffffffffffffffffffffffffff16021790555060208201518160010160006101000a81548173ffffffffffffffffffffffffffffffffffffffff021916908373ffffffffffffffffffffffffffffffffffffffff16021790555060408201518160020190816114ba9190614b57565b5060608201518160030190816114d09190614b57565b5060808201518160040160006101000a81548160ff02191690831515021790555060a0820151816005015550508173ffffffffffffffffffffffffffffffffffffffff163373ffffffffffffffffffffffffffffffffffffffff167fed910a45fad35ddd97267fbd397fde8f27d5c4cc9e5b54803e2c594b1211cab78360405161155a9190614c29565b60405180910390a35050565b600d6020528060005260406000206000915090505481565b600a602052816000526040600020818154811061159a57600080fd5b9060005260206000209060030201600091509150508060000154908060010154908060020160009054906101000a900460ff16905083565b600581815481106115e257600080fd5b90600052602060002090600602016000915090508060000160009054906101000a900473ffffffffffffffffffffffffffffffffffffffff16908060010160009054906101000a900473ffffffffffffffffffffffffffffffffffffffff169080600201805461165190614984565b80601f016020809104026020016040519081016040528092919081815260200182805461167d90614984565b80156116ca5780601f1061169f576101008083540402835291602001916116ca565b820191906000526020600020905b8154815290600101906020018083116116ad57829003601f168201915b5050505050908060030180546116df90614984565b80601f016020809104026020016040519081016040528092919081815260200182805461170b90614984565b80156117585780601f1061172d57610100808354040283529160200191611758565b820191906000526020600020905b81548152906001019060200180831161173b57829003601f168201915b5050505050908060040160009054906101000a900460ff16908060050154905086565b600260009054906101000a900473ffffffffffffffffffffffffffffffffffffffff1673ffffffffffffffffffffffffffffffffffffffff163373ffffffffffffffffffffffffffffffffffffffff161461180b576040517f08c379a000000000000000000000000000000000000000000000000000000000815260040161180290614c97565b60405180910390fd5b600960008273ffffffffffffffffffffffffffffffffffffffff1673ffffffffffffffffffffffffffffffffffffffff16815260200190815260200160002060006118569190613207565b600a60008273ffffffffffffffffffffffffffffffffffffffff1673ffffffffffffffffffffffffffffffffffffffff16815260200190815260200160002060006118a1919061322b565b6000600d60008373ffffffffffffffffffffffffffffffffffffffff1673ffffffffffffffffffffffffffffffffffffffff168152602001908152602001600020819055506000600e60008373ffffffffffffffffffffffffffffffffffffffff1673ffffffffffffffffffffffffffffffffffffffff168152602001908152602001600020819055508073ffffffffffffffffffffffffffffffffffffffff167f65480cbdb2e256d00b7bf08f60e0726e75f27b97559cbfdb74a37e4c80086fcd4260405161197191906135d3565b60405180910390a250565b6000600654905090565b600260009054906101000a900473ffffffffffffffffffffffffffffffffffffffff1673ffffffffffffffffffffffffffffffffffffffff163373ffffffffffffffffffffffffffffffffffffffff1614611a16576040517f08c379a0000000000000000000000000000000000000000000000000000000008152600401611a0d90614c97565b60405180910390fd5b6000600d6000600260009054906101000a900473ffffffffffffffffffffffffffffffffffffffff1673ffffffffffffffffffffffffffffffffffffffff1673ffffffffffffffffffffffffffffffffffffffff1681526020019081526020016000205490506000600e6000600260009054906101000a900473ffffffffffffffffffffffffffffffffffffffff1673ffffffffffffffffffffffffffffffffffffffff1673ffffffffffffffffffffffffffffffffffffffff16815260200190815260200160002054905060008211611b25576040517f08c379a0000000000000000000000000000000000000000000000000000000008152600401611b1c90614d03565b60405180910390fd5b60008111611b68576040517f08c379a0000000000000000000000000000000000000000000000000000000008152600401611b5f90614d6f565b60405180910390fd5b600080549050828183611b7b919061455f565b611b859190614662565b6000819055507f945c1c4e99aa89f648fbfe3df471b916f719e16d960fcec0737d4d56bd69683881600054604051611bbe92919061492c565b60405180910390a1505050565b6000600754905090565b6000600c60008373ffffffffffffffffffffffffffffffffffffffff1673ffffffffffffffffffffffffffffffffffffffff16815260200190815260200160002060000160019054906101000a900460ff16611c66576040517f08c379a0000000000000000000000000000000000000000000000000000000008152600401611c5d90614ddb565b60405180910390fd5b600c60008373ffffffffffffffffffffffffffffffffffffffff1673ffffffffffffffffffffffffffffffffffffffff16815260200190815260200160002060000160009054906101000a900460ff169050919050565b600260009054906101000a900473ffffffffffffffffffffffffffffffffffffffff1681565b60606000805b600380549050811015611d9757600060038281548110611d0c57611d0b6144c4565b5b9060005260206000200160009054906101000a900473ffffffffffffffffffffffffffffffffffffffff169050600860008273ffffffffffffffffffffffffffffffffffffffff1673ffffffffffffffffffffffffffffffffffffffff1681526020019081526020016000208054905083611d879190614452565b9250508080600101915050611ce9565b5060008167ffffffffffffffff811115611db457611db36138df565b5b604051908082528060200260200182016040528015611ded57816020015b611dda61324f565b815260200190600190039081611dd25790505b5090506000805b600380549050811015611fcb57600060038281548110611e1757611e166144c4565b5b9060005260206000200160009054906101000a900473ffffffffffffffffffffffffffffffffffffffff1690506000600860008373ffffffffffffffffffffffffffffffffffffffff1673ffffffffffffffffffffffffffffffffffffffff168152602001908152602001600020905060005b8180549050811015611fbb57818181548110611ea957611ea86144c4565b5b90600052602060002090600402016040518060a00160405290816000820160009054906101000a900473ffffffffffffffffffffffffffffffffffffffff1673ffffffffffffffffffffffffffffffffffffffff1673ffffffffffffffffffffffffffffffffffffffff16815260200160018201548152602001600282015481526020016003820160009054906101000a900460ff166003811115611f5157611f50613466565b5b6003811115611f6357611f62613466565b5b81526020016003820160019054906101000a900460ff161515151581525050868681518110611f9557611f946144c4565b5b60200260200101819052508480611fab90614dfb565b9550508080600101915050611e8a565b5050508080600101915050611df4565b5081935050505090565b600073ffffffffffffffffffffffffffffffffffffffff168273ffffffffffffffffffffffffffffffffffffffff1603612044576040517f08c379a000000000000000000000000000000000000000000000000000000000815260040161203b90614e8f565b60405180910390fd5b6000600281111561205857612057613466565b5b81600281111561206b5761206a613466565b5b036120ab576040517f08c379a00000000000000000000000000000000000000000000000000000000081526004016120a290614efb565b60405180910390fd5b600c60008373ffffffffffffffffffffffffffffffffffffffff1673ffffffffffffffffffffffffffffffffffffffff16815260200190815260200160002060000160019054906101000a900460ff161561213b576040517f08c379a000000000000000000000000000000000000000000000000000000000815260040161213290614f67565b60405180910390fd5b604051806040016040528082600281111561215957612158613466565b5b815260200160011515815250600c60008473ffffffffffffffffffffffffffffffffffffffff1673ffffffffffffffffffffffffffffffffffffffff16815260200190815260200160002060008201518160000160006101000a81548160ff021916908360028111156121cf576121ce613466565b5b021790555060208201518160000160016101000a81548160ff0219169083151502179055509050506003829080600181540180825580915050600190039060005260206000200160009091909190916101000a81548173ffffffffffffffffffffffffffffffffffffffff021916908373ffffffffffffffffffffffffffffffffffffffff1602179055508173ffffffffffffffffffffffffffffffffffffffff167f8e18574f8a7333e6a87112742a55853a643e2f0550f4e1a3a2c3f1bb2994441d826040516122a09190613c00565b60405180910390a25050565b600c6020528060005260406000206000915090508060000160009054906101000a900460ff16908060000160019054906101000a900460ff16905082565b600e6020528060005260406000206000915090505481565b60606005805480602002602001604051908101604052809291908181526020016000905b8282101561254d57838290600052602060002090600602016040518060c00160405290816000820160009054906101000a900473ffffffffffffffffffffffffffffffffffffffff1673ffffffffffffffffffffffffffffffffffffffff1673ffffffffffffffffffffffffffffffffffffffff1681526020016001820160009054906101000a900473ffffffffffffffffffffffffffffffffffffffff1673ffffffffffffffffffffffffffffffffffffffff1673ffffffffffffffffffffffffffffffffffffffff16815260200160028201805461240590614984565b80601f016020809104026020016040519081016040528092919081815260200182805461243190614984565b801561247e5780601f106124535761010080835404028352916020019161247e565b820191906000526020600020905b81548152906001019060200180831161246157829003601f168201915b5050505050815260200160038201805461249790614984565b80601f01602080910402602001604051908101604052809291908181526020018280546124c390614984565b80156125105780601f106124e557610100808354040283529160200191612510565b820191906000526020600020905b8154815290600101906020018083116124f357829003601f168201915b505050505081526020016004820160009054906101000a900460ff1615151515815260200160058201548152505081526020019060010190612326565b50505050905090565b600b6020528060005260406000206000915090505481565b60106020528060005260406000206000915090505481565b6000600c60008373ffffffffffffffffffffffffffffffffffffffff1673ffffffffffffffffffffffffffffffffffffffff16815260200190815260200160002060000160019054906101000a900460ff169050919050565b600f6020528060005260406000206000915090505481565b6060600860008373ffffffffffffffffffffffffffffffffffffffff1673ffffffffffffffffffffffffffffffffffffffff168152602001908152602001600020805480602002602001604051908101604052809291908181526020016000905b8282101561274a57838290600052602060002090600402016040518060a00160405290816000820160009054906101000a900473ffffffffffffffffffffffffffffffffffffffff1673ffffffffffffffffffffffffffffffffffffffff1673ffffffffffffffffffffffffffffffffffffffff16815260200160018201548152602001600282015481526020016003820160009054906101000a900460ff16600381111561270a57612709613466565b5b600381111561271c5761271b613466565b5b81526020016003820160019054906101000a900460ff16151515158152505081526020019060010190612658565b505050509050919050565b600260009054906101000a900473ffffffffffffffffffffffffffffffffffffffff1673ffffffffffffffffffffffffffffffffffffffff163373ffffffffffffffffffffffffffffffffffffffff16146127e5576040517f08c379a00000000000000000000000000000000000000000000000000000000081526004016127dc90614c97565b60405180910390fd5b600580549050821061282c576040517f08c379a000000000000000000000000000000000000000000000000000000000815260040161282390614fd3565b60405180910390fd5b600060058381548110612842576128416144c4565b5b906000526020600020906006020190508060040160009054906101000a900460ff16156128a4576040517f08c379a000000000000000000000000000000000000000000000000000000000815260040161289b9061503f565b60405180910390fd5b818160030190816128b59190614b57565b5060018160040160006101000a81548160ff021916908315150217905550827f831764ac02a33c193cba23a0de34c986e9b50402bf3c9febf6ff2f63d4c0435d836040516129039190614c29565b60405180910390a2505050565b6060600380548060200260200160405190810160405280929190818152602001828054801561299457602002820191906000526020600020905b8160009054906101000a900473ffffffffffffffffffffffffffffffffffffffff1673ffffffffffffffffffffffffffffffffffffffff168152602001906001019080831161294a575b5050505050905090565b6129a66132a8565b60058054905082106129ed576040517f08c379a00000000000000000000000000000000000000000000000000000000081526004016129e490614fd3565b60405180910390fd5b60058281548110612a0157612a006144c4565b5b90600052602060002090600602016040518060c00160405290816000820160009054906101000a900473ffffffffffffffffffffffffffffffffffffffff1673ffffffffffffffffffffffffffffffffffffffff1673ffffffffffffffffffffffffffffffffffffffff1681526020016001820160009054906101000a900473ffffffffffffffffffffffffffffffffffffffff1673ffffffffffffffffffffffffffffffffffffffff1673ffffffffffffffffffffffffffffffffffffffff168152602001600282018054612ad690614984565b80601f0160208091040260200160405190810160405280929190818152602001828054612b0290614984565b8015612b4f5780601f10612b2457610100808354040283529160200191612b4f565b820191906000526020600020905b815481529060010190602001808311612b3257829003601f168201915b50505050508152602001600382018054612b6890614984565b80601f0160208091040260200160405190810160405280929190818152602001828054612b9490614984565b8015612be15780601f10612bb657610100808354040283529160200191612be1565b820191906000526020600020905b815481529060010190602001808311612bc457829003601f168201915b505050505081526020016004820160009054906101000a900460ff161515151581526020016005820154815250509050919050565b60096020528160005260406000208181548110612c3257600080fd5b9060005260206000209060030201600091509150508060000154908060010154908060020160009054906101000a900460ff16905083565b600160009054906101000a900473ffffffffffffffffffffffffffffffffffffffff1681565b60008211612cd3576040517f08c379a0000000000000000000000000000000000000000000000000000000008152600401612cca906150d1565b60405180910390fd5b81600d60008573ffffffffffffffffffffffffffffffffffffffff1673ffffffffffffffffffffffffffffffffffffffff1681526020019081526020016000206000828254612d229190614452565b92505081905550600960008473ffffffffffffffffffffffffffffffffffffffff1673ffffffffffffffffffffffffffffffffffffffff1681526020019081526020016000206040518060600160405280848152602001428152602001836003811115612d9257612d91613466565b5b8152509080600181540180825580915050600190039060005260206000209060030201600090919091909150600082015181600001556020820151816001015560408201518160020160006101000a81548160ff02191690836003811115612dfd57612dfc613466565b5b021790555050508273ffffffffffffffffffffffffffffffffffffffff167f5cfb307666c302e735ed249671512540e5ef8425fb38f73e416e0fcab716eac7838342604051612e4e939291906150f1565b60405180910390a2505050565b606060006003811115612e7157612e70613466565b5b826003811115612e8457612e83613466565b5b03612ec6576040518060400160405280600581526020017f536f6c61720000000000000000000000000000000000000000000000000000008152509050613039565b60016003811115612eda57612ed9613466565b5b826003811115612eed57612eec613466565b5b03612f2f576040518060400160405280600481526020017f57696e64000000000000000000000000000000000000000000000000000000008152509050613039565b60026003811115612f4357612f42613466565b5b826003811115612f5657612f55613466565b5b03612f98576040518060400160405280600781526020017f42696f6d617373000000000000000000000000000000000000000000000000008152509050613039565b600380811115612fab57612faa613466565b5b826003811115612fbe57612fbd613466565b5b03613000576040518060400160405280600581526020017f546964616c0000000000000000000000000000000000000000000000000000008152509050613039565b6040518060400160405280600781526020017f556e6b6e6f776e0000000000000000000000000000000000000000000000000081525090505b919050565b60008211613081576040517f08c379a00000000000000000000000000000000000000000000000000000000081526004016130789061519a565b60405180910390fd5b81600e60008573ffffffffffffffffffffffffffffffffffffffff1673ffffffffffffffffffffffffffffffffffffffff16815260200190815260200160002060008282546130d09190614452565b92505081905550600a60008473ffffffffffffffffffffffffffffffffffffffff1673ffffffffffffffffffffffffffffffffffffffff16815260200190815260200160002060405180606001604052808481526020014281526020018360038111156131405761313f613466565b5b8152509080600181540180825580915050600190039060005260206000209060030201600090919091909150600082015181600001556020820151816001015560408201518160020160006101000a81548160ff021916908360038111156131ab576131aa613466565b5b021790555050508273ffffffffffffffffffffffffffffffffffffffff167fadf60b50812cf8de7ced51caa9256fb7531ef821c63929aa890ab3123387d24683426040516131fa92919061492c565b60405180910390a2505050565b5080546000825560030290600052602060002090810190613228919061330c565b50565b508054600082556003029060005260206000209081019061324c9190613347565b50565b6040518060a00160405280600073ffffffffffffffffffffffffffffffffffffffff16815260200160008152602001600081526020016000600381111561329957613298613466565b5b81526020016000151581525090565b6040518060c00160405280600073ffffffffffffffffffffffffffffffffffffffff168152602001600073ffffffffffffffffffffffffffffffffffffffff1681526020016060815260200160608152602001600015158152602001600081525090565b5b808211156133435760008082016000905560018201600090556002820160006101000a81549060ff02191690555060030161330d565b5090565b5b8082111561337e5760008082016000905560018201600090556002820160006101000a81549060ff021916905550600301613348565b5090565b6000604051905090565b600080fd5b600080fd5b600073ffffffffffffffffffffffffffffffffffffffff82169050919050565b60006133c182613396565b9050919050565b6133d1816133b6565b81146133dc57600080fd5b50565b6000813590506133ee816133c8565b92915050565b60006020828403121561340a5761340961338c565b5b6000613418848285016133df565b91505092915050565b600081519050919050565b600082825260208201905092915050565b6000819050602082019050919050565b6000819050919050565b6134608161344d565b82525050565b7f4e487b7100000000000000000000000000000000000000000000000000000000600052602160045260246000fd5b600481106134a6576134a5613466565b5b50565b60008190506134b782613495565b919050565b60006134c7826134a9565b9050919050565b6134d7816134bc565b82525050565b6060820160008201516134f36000850182613457565b5060208201516135066020850182613457565b50604082015161351960408501826134ce565b50505050565b600061352b83836134dd565b60608301905092915050565b6000602082019050919050565b600061354f82613421565b613559818561342c565b93506135648361343d565b8060005b8381101561359557815161357c888261351f565b975061358783613537565b925050600181019050613568565b5085935050505092915050565b600060208201905081810360008301526135bc8184613544565b905092915050565b6135cd8161344d565b82525050565b60006020820190506135e860008301846135c4565b92915050565b6135f78161344d565b811461360257600080fd5b50565b600081359050613614816135ee565b92915050565b6004811061362757600080fd5b50565b6000813590506136398161361a565b92915050565b6000806000606084860312156136585761365761338c565b5b600061366686828701613605565b935050602061367786828701613605565b92505060406136888682870161362a565b9150509250925092565b600081519050919050565b600082825260208201905092915050565b6000819050602082019050919050565b6060820160008201516136d46000850182613457565b5060208201516136e76020850182613457565b5060408201516136fa60408501826134ce565b50505050565b600061370c83836136be565b60608301905092915050565b6000602082019050919050565b600061373082613692565b61373a818561369d565b9350613745836136ae565b8060005b8381101561377657815161375d8882613700565b975061376883613718565b925050600181019050613749565b5085935050505092915050565b6000602082019050818103600083015261379d8184613725565b905092915050565b6000806000606084860312156137be576137bd61338c565b5b60006137cc868287016133df565b93505060206137dd86828701613605565b92505060406137ee86828701613605565b9150509250925092565b6000806040838503121561380f5761380e61338c565b5b600061381d858286016133df565b925050602061382e85828601613605565b9150509250929050565b613841816133b6565b82525050565b613850816134bc565b82525050565b60008115159050919050565b61386b81613856565b82525050565b600060a0820190506138866000830188613838565b61389360208301876135c4565b6138a060408301866135c4565b6138ad6060830185613847565b6138ba6080830184613862565b9695505050505050565b600080fd5b600080fd5b6000601f19601f8301169050919050565b7f4e487b7100000000000000000000000000000000000000000000000000000000600052604160045260246000fd5b613917826138ce565b810181811067ffffffffffffffff82111715613936576139356138df565b5b80604052505050565b6000613949613382565b9050613955828261390e565b919050565b600067ffffffffffffffff821115613975576139746138df565b5b61397e826138ce565b9050602081019050919050565b82818337600083830152505050565b60006139ad6139a88461395a565b61393f565b9050828152602081018484840111156139c9576139c86138c9565b5b6139d484828561398b565b509392505050565b600082601f8301126139f1576139f06138c4565b5b8135613a0184826020860161399a565b91505092915050565b60008060408385031215613a2157613a2061338c565b5b6000613a2f858286016133df565b925050602083013567ffffffffffffffff811115613a5057613a4f613391565b5b613a5c858286016139dc565b9150509250929050565b6000606082019050613a7b60008301866135c4565b613a8860208301856135c4565b613a956040830184613847565b949350505050565b600060208284031215613ab357613ab261338c565b5b6000613ac184828501613605565b91505092915050565b600081519050919050565b600082825260208201905092915050565b60005b83811015613b04578082015181840152602081019050613ae9565b60008484015250505050565b6000613b1b82613aca565b613b258185613ad5565b9350613b35818560208601613ae6565b613b3e816138ce565b840191505092915050565b600060c082019050613b5e6000830189613838565b613b6b6020830188613838565b8181036040830152613b7d8187613b10565b90508181036060830152613b918186613b10565b9050613ba06080830185613862565b613bad60a08301846135c4565b979650505050505050565b60038110613bc957613bc8613466565b5b50565b6000819050613bda82613bb8565b919050565b6000613bea82613bcc565b9050919050565b613bfa81613bdf565b82525050565b6000602082019050613c156000830184613bf1565b92915050565b6000602082019050613c306000830184613838565b92915050565b600081519050919050565b600082825260208201905092915050565b6000819050602082019050919050565b613c6b816133b6565b82525050565b613c7a81613856565b82525050565b60a082016000820151613c966000850182613c62565b506020820151613ca96020850182613457565b506040820151613cbc6040850182613457565b506060820151613ccf60608501826134ce565b506080820151613ce26080850182613c71565b50505050565b6000613cf48383613c80565b60a08301905092915050565b6000602082019050919050565b6000613d1882613c36565b613d228185613c41565b9350613d2d83613c52565b8060005b83811015613d5e578151613d458882613ce8565b9750613d5083613d00565b925050600181019050613d31565b5085935050505092915050565b60006020820190508181036000830152613d858184613d0d565b905092915050565b60038110613d9a57600080fd5b50565b600081359050613dac81613d8d565b92915050565b60008060408385031215613dc957613dc861338c565b5b6000613dd7858286016133df565b9250506020613de885828601613d9d565b9150509250929050565b6000604082019050613e076000830185613bf1565b613e146020830184613862565b9392505050565b600081519050919050565b600082825260208201905092915050565b6000819050602082019050919050565b600082825260208201905092915050565b6000613e6382613aca565b613e6d8185613e47565b9350613e7d818560208601613ae6565b613e86816138ce565b840191505092915050565b600060c083016000830151613ea96000860182613c62565b506020830151613ebc6020860182613c62565b5060408301518482036040860152613ed48282613e58565b91505060608301518482036060860152613eee8282613e58565b9150506080830151613f036080860182613c71565b5060a0830151613f1660a0860182613457565b508091505092915050565b6000613f2d8383613e91565b905092915050565b6000602082019050919050565b6000613f4d82613e1b565b613f578185613e26565b935083602082028501613f6985613e37565b8060005b85811015613fa55784840389528151613f868582613f21565b9450613f9183613f35565b925060208a01995050600181019050613f6d565b50829750879550505050505092915050565b60006020820190508181036000830152613fd18184613f42565b905092915050565b6000602082019050613fee6000830184613862565b92915050565b6000806040838503121561400b5761400a61338c565b5b600061401985828601613605565b925050602083013567ffffffffffffffff81111561403a57614039613391565b5b614046858286016139dc565b9150509250929050565b600081519050919050565b600082825260208201905092915050565b6000819050602082019050919050565b60006140888383613c62565b60208301905092915050565b6000602082019050919050565b60006140ac82614050565b6140b6818561405b565b93506140c18361406c565b8060005b838110156140f25781516140d9888261407c565b97506140e483614094565b9250506001810190506140c5565b5085935050505092915050565b6000602082019050818103600083015261411981846140a1565b905092915050565b600060c0830160008301516141396000860182613c62565b50602083015161414c6020860182613c62565b50604083015184820360408601526141648282613e58565b9150506060830151848203606086015261417e8282613e58565b91505060808301516141936080860182613c71565b5060a08301516141a660a0860182613457565b508091505092915050565b600060208201905081810360008301526141cb8184614121565b905092915050565b6000819050919050565b60006141f86141f36141ee84613396565b6141d3565b613396565b9050919050565b600061420a826141dd565b9050919050565b600061421c826141ff565b9050919050565b61422c81614211565b82525050565b60006020820190506142476000830184614223565b92915050565b7f5265656e7472616e6379206973206e6f7420616c6c6f77656400000000000000600082015250565b6000614283601983613ad5565b915061428e8261424d565b602082019050919050565b600060208201905081810360008301526142b281614276565b9050919050565b7f4f6e6c7920726567697374657265642070726f6475636572732063616e20706560008201527f72666f726d207468697320616374696f6e000000000000000000000000000000602082015250565b6000614315603183613ad5565b9150614320826142b9565b604082019050919050565b6000602082019050818103600083015261434481614308565b9050919050565b7f416d6f756e74206d7573742062652067726561746572207468616e207a65726f600082015250565b6000614381602083613ad5565b915061438c8261434b565b602082019050919050565b600060208201905081810360008301526143b081614374565b9050919050565b7f5072696365206d7573742062652067726561746572207468616e207a65726f00600082015250565b60006143ed601f83613ad5565b91506143f8826143b7565b602082019050919050565b6000602082019050818103600083015261441c816143e0565b9050919050565b7f4e487b7100000000000000000000000000000000000000000000000000000000600052601160045260246000fd5b600061445d8261344d565b91506144688361344d565b92508282019050808211156144805761447f614423565b5b92915050565b600060608201905061449b60008301866135c4565b6144a860208301856135c4565b81810360408301526144ba8184613b10565b9050949350505050565b7f4e487b7100000000000000000000000000000000000000000000000000000000600052603260045260246000fd5b7f456e65726779206973206e6f7420617661696c61626c6520666f722073616c65600082015250565b6000614529602083613ad5565b9150614534826144f3565b602082019050919050565b600060208201905081810360008301526145588161451c565b9050919050565b600061456a8261344d565b91506145758361344d565b92508282026145838161344d565b9150828204841483151761459a57614599614423565b5b5092915050565b7f496e76616c6964207072696365206f7220657863656564732070726f6475636560008201527f72277320737570706c7900000000000000000000000000000000000000000000602082015250565b60006145fd602a83613ad5565b9150614608826145a1565b604082019050919050565b6000602082019050818103600083015261462c816145f0565b9050919050565b7f4e487b7100000000000000000000000000000000000000000000000000000000600052601260045260246000fd5b600061466d8261344d565b91506146788361344d565b92508261468857614687614633565b5b828204905092915050565b7f50726f647563657220646f6573206e6f74206861766520656e6f75676820656e60008201527f6572677900000000000000000000000000000000000000000000000000000000602082015250565b60006146ef602483613ad5565b91506146fa82614693565b604082019050919050565b6000602082019050818103600083015261471e816146e2565b9050919050565b600060408201905061473a6000830185613838565b6147476020830184613838565b9392505050565b60008151905061475d816135ee565b92915050565b6000602082840312156147795761477861338c565b5b60006147878482850161474e565b91505092915050565b7f416c6c6f77616e636520696e73756666696369656e7400000000000000000000600082015250565b60006147c6601683613ad5565b91506147d182614790565b602082019050919050565b600060208201905081810360008301526147f5816147b9565b9050919050565b7f496e73756666696369656e7420746f6b656e2062616c616e6365000000000000600082015250565b6000614832601a83613ad5565b915061483d826147fc565b602082019050919050565b6000602082019050818103600083015261486181614825565b9050919050565b600060608201905061487d6000830186613838565b61488a6020830185613838565b61489760408301846135c4565b949350505050565b6148a881613856565b81146148b357600080fd5b50565b6000815190506148c58161489f565b92915050565b6000602082840312156148e1576148e061338c565b5b60006148ef848285016148b6565b91505092915050565b60006149038261344d565b915061490e8361344d565b925082820390508181111561492657614925614423565b5b92915050565b600060408201905061494160008301856135c4565b61494e60208301846135c4565b9392505050565b7f4e487b7100000000000000000000000000000000000000000000000000000000600052602260045260246000fd5b6000600282049050600182168061499c57607f821691505b6020821081036149af576149ae614955565b5b50919050565b60008190508160005260206000209050919050565b60006020601f8301049050919050565b600082821b905092915050565b600060088302614a177fffffffffffffffffffffffffffffffffffffffffffffffffffffffffffffffff826149da565b614a2186836149da565b95508019841693508086168417925050509392505050565b6000614a54614a4f614a4a8461344d565b6141d3565b61344d565b9050919050565b6000819050919050565b614a6e83614a39565b614a82614a7a82614a5b565b8484546149e7565b825550505050565b600090565b614a97614a8a565b614aa2818484614a65565b505050565b5b81811015614ac657614abb600082614a8f565b600181019050614aa8565b5050565b601f821115614b0b57614adc816149b5565b614ae5846149ca565b81016020851015614af4578190505b614b08614b00856149ca565b830182614aa7565b50505b505050565b600082821c905092915050565b6000614b2e60001984600802614b10565b1980831691505092915050565b6000614b478383614b1d565b9150826002028217905092915050565b614b6082613aca565b67ffffffffffffffff811115614b7957614b786138df565b5b614b838254614984565b614b8e828285614aca565b600060209050601f831160018114614bc15760008415614baf578287015190505b614bb98582614b3b565b865550614c21565b601f198416614bcf866149b5565b60005b82811015614bf757848901518255600182019150602085019450602081019050614bd2565b86831015614c145784890151614c10601f891682614b1d565b8355505b6001600288020188555050505b505050505050565b60006020820190508181036000830152614c438184613b10565b905092915050565b7f4f6e6c79206f776e65722063616e2063616c6c20746869730000000000000000600082015250565b6000614c81601883613ad5565b9150614c8c82614c4b565b602082019050919050565b60006020820190508181036000830152614cb081614c74565b9050919050565b7f537570706c79206d7573742062652067726561746572207468616e207a65726f600082015250565b6000614ced602083613ad5565b9150614cf882614cb7565b602082019050919050565b60006020820190508181036000830152614d1c81614ce0565b9050919050565b7f44656d616e64206d7573742062652067726561746572207468616e207a65726f600082015250565b6000614d59602083613ad5565b9150614d6482614d23565b602082019050919050565b60006020820190508181036000830152614d8881614d4c565b9050919050565b7f55736572206973206e6f74207265676973746572656400000000000000000000600082015250565b6000614dc5601683613ad5565b9150614dd082614d8f565b602082019050919050565b60006020820190508181036000830152614df481614db8565b9050919050565b6000614e068261344d565b91507fffffffffffffffffffffffffffffffffffffffffffffffffffffffffffffffff8203614e3857614e37614423565b5b600182019050919050565b7f496e76616c696420757365722061646472657373000000000000000000000000600082015250565b6000614e79601483613ad5565b9150614e8482614e43565b602082019050919050565b60006020820190508181036000830152614ea881614e6c565b9050919050565b7f496e76616c696420757365722074797065000000000000000000000000000000600082015250565b6000614ee5601183613ad5565b9150614ef082614eaf565b602082019050919050565b60006020820190508181036000830152614f1481614ed8565b9050919050565b7f5573657220697320616c72656164792072656769737465726564000000000000600082015250565b6000614f51601a83613ad5565b9150614f5c82614f1b565b602082019050919050565b60006020820190508181036000830152614f8081614f44565b9050919050565b7f4469737075746520494420646f6573206e6f7420657869737400000000000000600082015250565b6000614fbd601983613ad5565b9150614fc882614f87565b602082019050919050565b60006020820190508181036000830152614fec81614fb0565b9050919050565b7f4469737075746520616c7265616479207265736f6c7665640000000000000000600082015250565b6000615029601883613ad5565b915061503482614ff3565b602082019050919050565b600060208201905081810360008301526150588161501c565b9050919050565b7f50726f647563656420616d6f756e74206d75737420626520677265617465722060008201527f7468616e207a65726f0000000000000000000000000000000000000000000000602082015250565b60006150bb602983613ad5565b91506150c68261505f565b604082019050919050565b600060208201905081810360008301526150ea816150ae565b9050919050565b600060608201905061510660008301866135c4565b6151136020830185613847565b61512060408301846135c4565b949350505050565b7f436f6e73756d656420616d6f756e74206d75737420626520677265617465722060008201527f7468616e207a65726f0000000000000000000000000000000000000000000000602082015250565b6000615184602983613ad5565b915061518f82615128565b604082019050919050565b600060208201905081810360008301526151b381615177565b905091905056fea2646970667358221220f4d311a30b686725b76c5827ebb84b1210a4bbc5afb1d863a855428e3dbaa66764736f6c634300081a0033",
  "linkReferences": {},
  "deployedLinkReferences": {}
}