{
  "_format": "hh-sol-artifact-1",
  "contractName": "NotificationsAndSecurity",
  "sourceName": "contracts/NotificationsAndSecurity.sol",
  "abi": [
    {
      "inputs": [],
      "stateMutability": "nonpayable",
      "type": "constructor"
    },
    {
      "anonymous": false,
      "inputs": [
        {
          "indexed": true,
          "internalType": "address",
          "name": "auditor",
          "type": "address"
        },
        {
          "indexed": false,
          "internalType": "string",
          "name": "report",
          "type": "string"
        },
        {
          "indexed": false,
          "internalType": "uint256",
          "name": "timestamp",
          "type": "uint256"
        }
      ],
      "name": "AuditLog",
      "type": "event"
    },
    {
      "anonymous": false,
      "inputs": [
        {
          "indexed": true,
          "internalType": "address",
          "name": "initiator",
          "type": "address"
        },
        {
          "indexed": true,
          "internalType": "address",
          "name": "respondent",
          "type": "address"
        },
        {
          "indexed": false,
          "internalType": "string",
          "name": "reason",
          "type": "string"
        },
        {
          "indexed": false,
          "internalType": "uint256",
          "name": "timestamp",
          "type": "uint256"
        }
      ],
      "name": "DisputeInitiated",
      "type": "event"
    },
    {
      "anonymous": false,
      "inputs": [
        {
          "indexed": true,
          "internalType": "uint256",
          "name": "disputeId",
          "type": "uint256"
        },
        {
          "indexed": false,
          "internalType": "string",
          "name": "resolutionDetails",
          "type": "string"
        },
        {
          "indexed": false,
          "internalType": "uint256",
          "name": "timestamp",
          "type": "uint256"
        }
      ],
      "name": "DisputeResolved",
      "type": "event"
    },
    {
      "anonymous": false,
      "inputs": [
        {
          "indexed": true,
          "internalType": "address",
          "name": "user",
          "type": "address"
        },
        {
          "indexed": false,
          "internalType": "uint256",
          "name": "energyUsed",
          "type": "uint256"
        },
        {
          "indexed": false,
          "internalType": "uint256",
          "name": "timestamp",
          "type": "uint256"
        }
      ],
      "name": "EnergyUsageAlert",
      "type": "event"
    },
    {
      "anonymous": false,
      "inputs": [
        {
          "indexed": true,
          "internalType": "address",
          "name": "payer",
          "type": "address"
        },
        {
          "indexed": true,
          "internalType": "address",
          "name": "payee",
          "type": "address"
        },
        {
          "indexed": false,
          "internalType": "uint256",
          "name": "amount",
          "type": "uint256"
        },
        {
          "indexed": false,
          "internalType": "uint256",
          "name": "timestamp",
          "type": "uint256"
        }
      ],
      "name": "PaymentAlert",
      "type": "event"
    },
    {
      "anonymous": false,
      "inputs": [
        {
          "indexed": true,
          "internalType": "address",
          "name": "user",
          "type": "address"
        },
        {
          "indexed": false,
          "internalType": "string",
          "name": "message",
          "type": "string"
        },
        {
          "indexed": false,
          "internalType": "uint256",
          "name": "timestamp",
          "type": "uint256"
        }
      ],
      "name": "TransactionAlert",
      "type": "event"
    },
    {
      "inputs": [
        {
          "internalType": "uint256",
          "name": "",
          "type": "uint256"
        }
      ],
      "name": "disputes",
      "outputs": [
        {
          "internalType": "address",
          "name": "initiator",
          "type": "address"
        },
        {
          "internalType": "address",
          "name": "respondent",
          "type": "address"
        },
        {
          "internalType": "string",
          "name": "reason",
          "type": "string"
        },
        {
          "internalType": "string",
          "name": "resolutionDetails",
          "type": "string"
        },
        {
          "internalType": "bool",
          "name": "resolved",
          "type": "bool"
        },
        {
          "internalType": "uint256",
          "name": "timestamp",
          "type": "uint256"
        }
      ],
      "stateMutability": "view",
      "type": "function"
    },
    {
      "inputs": [
        {
          "internalType": "uint256",
          "name": "disputeId",
          "type": "uint256"
        }
      ],
      "name": "getDispute",
      "outputs": [
        {
          "components": [
            {
              "internalType": "address",
              "name": "initiator",
              "type": "address"
            },
            {
              "internalType": "address",
              "name": "respondent",
              "type": "address"
            },
            {
              "internalType": "string",
              "name": "reason",
              "type": "string"
            },
            {
              "internalType": "string",
              "name": "resolutionDetails",
              "type": "string"
            },
            {
              "internalType": "bool",
              "name": "resolved",
              "type": "bool"
            },
            {
              "internalType": "uint256",
              "name": "timestamp",
              "type": "uint256"
            }
          ],
          "internalType": "struct NotificationsAndSecurity.Dispute",
          "name": "",
          "type": "tuple"
        }
      ],
      "stateMutability": "view",
      "type": "function"
    },
    {
      "inputs": [
        {
          "internalType": "address",
          "name": "respondent",
          "type": "address"
        },
        {
          "internalType": "string",
          "name": "reason",
          "type": "string"
        }
      ],
      "name": "initiateDispute",
      "outputs": [],
      "stateMutability": "nonpayable",
      "type": "function"
    },
    {
      "inputs": [
        {
          "internalType": "string",
          "name": "report",
          "type": "string"
        }
      ],
      "name": "logAudit",
      "outputs": [],
      "stateMutability": "nonpayable",
      "type": "function"
    },
    {
      "inputs": [],
      "name": "owner",
      "outputs": [
        {
          "internalType": "address",
          "name": "",
          "type": "address"
        }
      ],
      "stateMutability": "view",
      "type": "function"
    },
    {
      "inputs": [
        {
          "internalType": "uint256",
          "name": "disputeId",
          "type": "uint256"
        },
        {
          "internalType": "string",
          "name": "resolutionDetails",
          "type": "string"
        }
      ],
      "name": "resolveDispute",
      "outputs": [],
      "stateMutability": "nonpayable",
      "type": "function"
    },
    {
      "inputs": [
        {
          "internalType": "address",
          "name": "user",
          "type": "address"
        },
        {
          "internalType": "uint256",
          "name": "energyUsed",
          "type": "uint256"
        }
      ],
      "name": "sendEnergyUsageAlert",
      "outputs": [],
      "stateMutability": "nonpayable",
      "type": "function"
    },
    {
      "inputs": [
        {
          "internalType": "address",
          "name": "payer",
          "type": "address"
        },
        {
          "internalType": "address",
          "name": "payee",
          "type": "address"
        },
        {
          "internalType": "uint256",
          "name": "amount",
          "type": "uint256"
        }
      ],
      "name": "sendPaymentAlert",
      "outputs": [],
      "stateMutability": "nonpayable",
      "type": "function"
    },
    {
      "inputs": [
        {
          "internalType": "address",
          "name": "user",
          "type": "address"
        },
        {
          "internalType": "string",
          "name": "message",
          "type": "string"
        }
      ],
      "name": "sendTransactionAlert",
      "outputs": [],
      "stateMutability": "nonpayable",
      "type": "function"
    },
    {
      "inputs": [
        {
          "internalType": "address",
          "name": "newOwner",
          "type": "address"
        }
      ],
      "name": "transferOwnership",
      "outputs": [],
      "stateMutability": "nonpayable",
      "type": "function"
    }
  ],
  "bytecode": "0x6080604052348015600f57600080fd5b50336000806101000a81548173ffffffffffffffffffffffffffffffffffffffff021916908373ffffffffffffffffffffffffffffffffffffffff160217905550611af38061005f6000396000f3fe608060405234801561001057600080fd5b506004361061009e5760003560e01c8063c79ed32811610066578063c79ed3281461014a578063cf51b45d14610166578063e3a96cbd14610182578063e72a6867146101b2578063f2fde38b146101ce5761009e565b8063099a33ba146100a357806344e1b09d146100bf57806345f870af146100db578063564a565d146100f75780638da5cb5b1461012c575b600080fd5b6100bd60048036038101906100b8919061106e565b6101ea565b005b6100d960048036038101906100d4919061114b565b6102cb565b005b6100f560048036038101906100f0919061118b565b6103ad565b005b610111600480360381019061010c91906111e7565b610594565b604051610123969594939291906112cc565b60405180910390f35b61013461073d565b604051610141919061133b565b60405180910390f35b610164600480360381019061015f9190611356565b610761565b005b610180600480360381019061017b91906113a9565b61085b565b005b61019c600480360381019061019791906111e7565b610a16565b6040516101a9919061150c565b60405180910390f35b6101cc60048036038101906101c7919061118b565b610c8e565b005b6101e860048036038101906101e3919061152e565b610d70565b005b60008054906101000a900473ffffffffffffffffffffffffffffffffffffffff1673ffffffffffffffffffffffffffffffffffffffff163373ffffffffffffffffffffffffffffffffffffffff1614610278576040517f08c379a000000000000000000000000000000000000000000000000000000000815260040161026f906115cd565b60405180910390fd5b3373ffffffffffffffffffffffffffffffffffffffff167f65e43023644c359b3571c2e814b7b1ee3b033dc6ac36dca578e6e28289f7cc3782426040516102c09291906115ed565b60405180910390a250565b60008054906101000a900473ffffffffffffffffffffffffffffffffffffffff1673ffffffffffffffffffffffffffffffffffffffff163373ffffffffffffffffffffffffffffffffffffffff1614610359576040517f08c379a0000000000000000000000000000000000000000000000000000000008152600401610350906115cd565b60405180910390fd5b8173ffffffffffffffffffffffffffffffffffffffff167f374a6295e1a068bfa8d67da17d27d2304e112f29f721d77f4f9b01786a98e75c82426040516103a192919061161d565b60405180910390a25050565b60016040518060c001604052803373ffffffffffffffffffffffffffffffffffffffff1681526020018473ffffffffffffffffffffffffffffffffffffffff16815260200183815260200160405180602001604052806000815250815260200160001515815260200142815250908060018154018082558091505060019003906000526020600020906006020160009091909190915060008201518160000160006101000a81548173ffffffffffffffffffffffffffffffffffffffff021916908373ffffffffffffffffffffffffffffffffffffffff16021790555060208201518160010160006101000a81548173ffffffffffffffffffffffffffffffffffffffff021916908373ffffffffffffffffffffffffffffffffffffffff16021790555060408201518160020190816104e69190611852565b5060608201518160030190816104fc9190611852565b5060808201518160040160006101000a81548160ff02191690831515021790555060a0820151816005015550508173ffffffffffffffffffffffffffffffffffffffff163373ffffffffffffffffffffffffffffffffffffffff167f6ecf7d4724843bf3e090c6e8120dbedeefa2bb7a436b590b9bf457c2332548d183426040516105889291906115ed565b60405180910390a35050565b600181815481106105a457600080fd5b90600052602060002090600602016000915090508060000160009054906101000a900473ffffffffffffffffffffffffffffffffffffffff16908060010160009054906101000a900473ffffffffffffffffffffffffffffffffffffffff169080600201805461061390611675565b80601f016020809104026020016040519081016040528092919081815260200182805461063f90611675565b801561068c5780601f106106615761010080835404028352916020019161068c565b820191906000526020600020905b81548152906001019060200180831161066f57829003601f168201915b5050505050908060030180546106a190611675565b80601f01602080910402602001604051908101604052809291908181526020018280546106cd90611675565b801561071a5780601f106106ef5761010080835404028352916020019161071a565b820191906000526020600020905b8154815290600101906020018083116106fd57829003601f168201915b5050505050908060040160009054906101000a900460ff16908060050154905086565b60008054906101000a900473ffffffffffffffffffffffffffffffffffffffff1681565b60008054906101000a900473ffffffffffffffffffffffffffffffffffffffff1673ffffffffffffffffffffffffffffffffffffffff163373ffffffffffffffffffffffffffffffffffffffff16146107ef576040517f08c379a00000000000000000000000000000000000000000000000000000000081526004016107e6906115cd565b60405180910390fd5b8173ffffffffffffffffffffffffffffffffffffffff168373ffffffffffffffffffffffffffffffffffffffff167f6b2f609811e3d0fa12ed5e3df4298e1d55a7148aa8ae86714911cdada5453ef1834260405161084e92919061161d565b60405180910390a3505050565b60008054906101000a900473ffffffffffffffffffffffffffffffffffffffff1673ffffffffffffffffffffffffffffffffffffffff163373ffffffffffffffffffffffffffffffffffffffff16146108e9576040517f08c379a00000000000000000000000000000000000000000000000000000000081526004016108e0906115cd565b60405180910390fd5b6001805490508210610930576040517f08c379a000000000000000000000000000000000000000000000000000000000815260040161092790611970565b60405180910390fd5b60006001838154811061094657610945611990565b5b906000526020600020906006020190508060040160009054906101000a900460ff16156109a8576040517f08c379a000000000000000000000000000000000000000000000000000000000815260040161099f90611a0b565b60405180910390fd5b818160030190816109b99190611852565b5060018160040160006101000a81548160ff021916908315150217905550827f619a485783a3870e8a79daa87da1f5dc43342edeb762bd43a859a89c36dc00258342604051610a099291906115ed565b60405180910390a2505050565b610a1e610eb0565b6001805490508210610a65576040517f08c379a0000000000000000000000000000000000000000000000000000000008152600401610a5c90611970565b60405180910390fd5b60018281548110610a7957610a78611990565b5b90600052602060002090600602016040518060c00160405290816000820160009054906101000a900473ffffffffffffffffffffffffffffffffffffffff1673ffffffffffffffffffffffffffffffffffffffff1673ffffffffffffffffffffffffffffffffffffffff1681526020016001820160009054906101000a900473ffffffffffffffffffffffffffffffffffffffff1673ffffffffffffffffffffffffffffffffffffffff1673ffffffffffffffffffffffffffffffffffffffff168152602001600282018054610b4e90611675565b80601f0160208091040260200160405190810160405280929190818152602001828054610b7a90611675565b8015610bc75780601f10610b9c57610100808354040283529160200191610bc7565b820191906000526020600020905b815481529060010190602001808311610baa57829003601f168201915b50505050508152602001600382018054610be090611675565b80601f0160208091040260200160405190810160405280929190818152602001828054610c0c90611675565b8015610c595780601f10610c2e57610100808354040283529160200191610c59565b820191906000526020600020905b815481529060010190602001808311610c3c57829003601f168201915b505050505081526020016004820160009054906101000a900460ff161515151581526020016005820154815250509050919050565b60008054906101000a900473ffffffffffffffffffffffffffffffffffffffff1673ffffffffffffffffffffffffffffffffffffffff163373ffffffffffffffffffffffffffffffffffffffff1614610d1c576040517f08c379a0000000000000000000000000000000000000000000000000000000008152600401610d13906115cd565b60405180910390fd5b8173ffffffffffffffffffffffffffffffffffffffff167f1b9dd9fa5896adb605aebb2d4e6f4a16ce1d666660b513a4d375d0ab51a1eed78242604051610d649291906115ed565b60405180910390a25050565b60008054906101000a900473ffffffffffffffffffffffffffffffffffffffff1673ffffffffffffffffffffffffffffffffffffffff163373ffffffffffffffffffffffffffffffffffffffff1614610dfe576040517f08c379a0000000000000000000000000000000000000000000000000000000008152600401610df5906115cd565b60405180910390fd5b600073ffffffffffffffffffffffffffffffffffffffff168173ffffffffffffffffffffffffffffffffffffffff1603610e6d576040517f08c379a0000000000000000000000000000000000000000000000000000000008152600401610e6490611a9d565b60405180910390fd5b806000806101000a81548173ffffffffffffffffffffffffffffffffffffffff021916908373ffffffffffffffffffffffffffffffffffffffff16021790555050565b6040518060c00160405280600073ffffffffffffffffffffffffffffffffffffffff168152602001600073ffffffffffffffffffffffffffffffffffffffff1681526020016060815260200160608152602001600015158152602001600081525090565b6000604051905090565b600080fd5b600080fd5b600080fd5b600080fd5b6000601f19601f8301169050919050565b7f4e487b7100000000000000000000000000000000000000000000000000000000600052604160045260246000fd5b610f7b82610f32565b810181811067ffffffffffffffff82111715610f9a57610f99610f43565b5b80604052505050565b6000610fad610f14565b9050610fb98282610f72565b919050565b600067ffffffffffffffff821115610fd957610fd8610f43565b5b610fe282610f32565b9050602081019050919050565b82818337600083830152505050565b600061101161100c84610fbe565b610fa3565b90508281526020810184848401111561102d5761102c610f2d565b5b611038848285610fef565b509392505050565b600082601f83011261105557611054610f28565b5b8135611065848260208601610ffe565b91505092915050565b60006020828403121561108457611083610f1e565b5b600082013567ffffffffffffffff8111156110a2576110a1610f23565b5b6110ae84828501611040565b91505092915050565b600073ffffffffffffffffffffffffffffffffffffffff82169050919050565b60006110e2826110b7565b9050919050565b6110f2816110d7565b81146110fd57600080fd5b50565b60008135905061110f816110e9565b92915050565b6000819050919050565b61112881611115565b811461113357600080fd5b50565b6000813590506111458161111f565b92915050565b6000806040838503121561116257611161610f1e565b5b600061117085828601611100565b925050602061118185828601611136565b9150509250929050565b600080604083850312156111a2576111a1610f1e565b5b60006111b085828601611100565b925050602083013567ffffffffffffffff8111156111d1576111d0610f23565b5b6111dd85828601611040565b9150509250929050565b6000602082840312156111fd576111fc610f1e565b5b600061120b84828501611136565b91505092915050565b61121d816110d7565b82525050565b600081519050919050565b600082825260208201905092915050565b60005b8381101561125d578082015181840152602081019050611242565b60008484015250505050565b600061127482611223565b61127e818561122e565b935061128e81856020860161123f565b61129781610f32565b840191505092915050565b60008115159050919050565b6112b7816112a2565b82525050565b6112c681611115565b82525050565b600060c0820190506112e16000830189611214565b6112ee6020830188611214565b81810360408301526113008187611269565b905081810360608301526113148186611269565b905061132360808301856112ae565b61133060a08301846112bd565b979650505050505050565b60006020820190506113506000830184611214565b92915050565b60008060006060848603121561136f5761136e610f1e565b5b600061137d86828701611100565b935050602061138e86828701611100565b925050604061139f86828701611136565b9150509250925092565b600080604083850312156113c0576113bf610f1e565b5b60006113ce85828601611136565b925050602083013567ffffffffffffffff8111156113ef576113ee610f23565b5b6113fb85828601611040565b9150509250929050565b61140e816110d7565b82525050565b600082825260208201905092915050565b600061143082611223565b61143a8185611414565b935061144a81856020860161123f565b61145381610f32565b840191505092915050565b611467816112a2565b82525050565b61147681611115565b82525050565b600060c0830160008301516114946000860182611405565b5060208301516114a76020860182611405565b50604083015184820360408601526114bf8282611425565b915050606083015184820360608601526114d98282611425565b91505060808301516114ee608086018261145e565b5060a083015161150160a086018261146d565b508091505092915050565b60006020820190508181036000830152611526818461147c565b905092915050565b60006020828403121561154457611543610f1e565b5b600061155284828501611100565b91505092915050565b7f4f6e6c79206f776e65722063616e20706572666f726d2074686973206163746960008201527f6f6e000000000000000000000000000000000000000000000000000000000000602082015250565b60006115b760228361122e565b91506115c28261155b565b604082019050919050565b600060208201905081810360008301526115e6816115aa565b9050919050565b600060408201905081810360008301526116078185611269565b905061161660208301846112bd565b9392505050565b600060408201905061163260008301856112bd565b61163f60208301846112bd565b9392505050565b7f4e487b7100000000000000000000000000000000000000000000000000000000600052602260045260246000fd5b6000600282049050600182168061168d57607f821691505b6020821081036116a05761169f611646565b5b50919050565b60008190508160005260206000209050919050565b60006020601f8301049050919050565b600082821b905092915050565b6000600883026117087fffffffffffffffffffffffffffffffffffffffffffffffffffffffffffffffff826116cb565b61171286836116cb565b95508019841693508086168417925050509392505050565b6000819050919050565b600061174f61174a61174584611115565b61172a565b611115565b9050919050565b6000819050919050565b61176983611734565b61177d61177582611756565b8484546116d8565b825550505050565b600090565b611792611785565b61179d818484611760565b505050565b5b818110156117c1576117b660008261178a565b6001810190506117a3565b5050565b601f821115611806576117d7816116a6565b6117e0846116bb565b810160208510156117ef578190505b6118036117fb856116bb565b8301826117a2565b50505b505050565b600082821c905092915050565b60006118296000198460080261180b565b1980831691505092915050565b60006118428383611818565b9150826002028217905092915050565b61185b82611223565b67ffffffffffffffff81111561187457611873610f43565b5b61187e8254611675565b6118898282856117c5565b600060209050601f8311600181146118bc57600084156118aa578287015190505b6118b48582611836565b86555061191c565b601f1984166118ca866116a6565b60005b828110156118f2578489015182556001820191506020850194506020810190506118cd565b8683101561190f578489015161190b601f891682611818565b8355505b6001600288020188555050505b505050505050565b7f4469737075746520494420646f6573206e6f7420657869737400000000000000600082015250565b600061195a60198361122e565b915061196582611924565b602082019050919050565b600060208201905081810360008301526119898161194d565b9050919050565b7f4e487b7100000000000000000000000000000000000000000000000000000000600052603260045260246000fd5b7f4469737075746520616c7265616479207265736f6c7665640000000000000000600082015250565b60006119f560188361122e565b9150611a00826119bf565b602082019050919050565b60006020820190508181036000830152611a24816119e8565b9050919050565b7f4e6577206f776e65722063616e6e6f7420626520746865207a65726f2061646460008201527f7265737300000000000000000000000000000000000000000000000000000000602082015250565b6000611a8760248361122e565b9150611a9282611a2b565b604082019050919050565b60006020820190508181036000830152611ab681611a7a565b905091905056fea264697066735822122090a6856b735d66663f5ce930bfb81d73e242b60a4842c876d576ce7abba6b12664736f6c634300081a0033",
  "linkReferences": {},
  "deployedLinkReferences": {}
}