{
  "_format": "hh-sol-artifact-1",
  "contractName": "CrossGridRes",
  "sourceName": "contracts/CrossGridRes.sol",
  "abi": [
    {
      "inputs": [
        {
          "internalType": "uint256",
          "name": "initialPrice",
          "type": "uint256"
        },
        {
          "internalType": "address",
          "name": "_token",
          "type": "address"
        }
      ],
      "stateMutability": "nonpayable",
      "type": "constructor"
    },
    {
      "anonymous": false,
      "inputs": [
        {
          "indexed": true,
          "internalType": "address",
          "name": "user",
          "type": "address"
        },
        {
          "indexed": false,
          "internalType": "uint256",
          "name": "timestamp",
          "type": "uint256"
        }
      ],
      "name": "DataReset",
      "type": "event"
    },
    {
      "anonymous": false,
      "inputs": [
        {
          "indexed": true,
          "internalType": "address",
          "name": "initiator",
          "type": "address"
        },
        {
          "indexed": true,
          "internalType": "address",
          "name": "respondent",
          "type": "address"
        },
        {
          "indexed": false,
          "internalType": "string",
          "name": "reason",
          "type": "string"
        }
      ],
      "name": "DisputeInitiated",
      "type": "event"
    },
    {
      "anonymous": false,
      "inputs": [
        {
          "indexed": true,
          "internalType": "uint256",
          "name": "disputeId",
          "type": "uint256"
        },
        {
          "indexed": false,
          "internalType": "string",
          "name": "resolutionDetails",
          "type": "string"
        }
      ],
      "name": "DisputeResolved",
      "type": "event"
    },
    {
      "anonymous": false,
      "inputs": [
        {
          "indexed": true,
          "internalType": "address",
          "name": "producer",
          "type": "address"
        },
        {
          "indexed": true,
          "internalType": "address",
          "name": "consumer",
          "type": "address"
        },
        {
          "indexed": false,
          "internalType": "uint256",
          "name": "amount",
          "type": "uint256"
        },
        {
          "indexed": false,
          "internalType": "uint256",
          "name": "price",
          "type": "uint256"
        }
      ],
      "name": "EnergyBought",
      "type": "event"
    },
    {
      "anonymous": false,
      "inputs": [
        {
          "indexed": true,
          "internalType": "address",
          "name": "consumer",
          "type": "address"
        },
        {
          "indexed": false,
          "internalType": "uint256",
          "name": "amount",
          "type": "uint256"
        },
        {
          "indexed": false,
          "internalType": "uint256",
          "name": "timestamp",
          "type": "uint256"
        }
      ],
      "name": "EnergyConsumed",
      "type": "event"
    },
    {
      "anonymous": false,
      "inputs": [
        {
          "indexed": true,
          "internalType": "address",
          "name": "producer",
          "type": "address"
        },
        {
          "indexed": false,
          "internalType": "uint256",
          "name": "amount",
          "type": "uint256"
        },
        {
          "indexed": false,
          "internalType": "uint256",
          "name": "price",
          "type": "uint256"
        },
        {
          "indexed": false,
          "internalType": "string",
          "name": "energyType",
          "type": "string"
        }
      ],
      "name": "EnergyListed",
      "type": "event"
    },
    {
      "anonymous": false,
      "inputs": [
        {
          "indexed": true,
          "internalType": "address",
          "name": "producer",
          "type": "address"
        },
        {
          "indexed": false,
          "internalType": "uint256",
          "name": "amount",
          "type": "uint256"
        },
        {
          "indexed": false,
          "internalType": "enum CrossGridRes.EnergyType",
          "name": "energyType",
          "type": "uint8"
        },
        {
          "indexed": false,
          "internalType": "uint256",
          "name": "timestamp",
          "type": "uint256"
        }
      ],
      "name": "EnergyProduced",
      "type": "event"
    },
    {
      "anonymous": false,
      "inputs": [
        {
          "indexed": true,
          "internalType": "address",
          "name": "user",
          "type": "address"
        },
        {
          "indexed": false,
          "internalType": "string",
          "name": "message",
          "type": "string"
        },
        {
          "indexed": false,
          "internalType": "uint256",
          "name": "timestamp",
          "type": "uint256"
        }
      ],
      "name": "NotificationAdded",
      "type": "event"
    },
    {
      "anonymous": false,
      "inputs": [
        {
          "indexed": true,
          "internalType": "address",
          "name": "user",
          "type": "address"
        },
        {
          "indexed": false,
          "internalType": "string",
          "name": "message",
          "type": "string"
        }
      ],
      "name": "NotificationEmitted",
      "type": "event"
    },
    {
      "anonymous": false,
      "inputs": [
        {
          "indexed": false,
          "internalType": "uint256",
          "name": "oldPrice",
          "type": "uint256"
        },
        {
          "indexed": false,
          "internalType": "uint256",
          "name": "newPrice",
          "type": "uint256"
        }
      ],
      "name": "PriceUpdated",
      "type": "event"
    },
    {
      "anonymous": false,
      "inputs": [
        {
          "indexed": true,
          "internalType": "address",
          "name": "user",
          "type": "address"
        },
        {
          "indexed": false,
          "internalType": "enum CrossGridRes.UserType",
          "name": "userType",
          "type": "uint8"
        }
      ],
      "name": "UserRegistered",
      "type": "event"
    },
    {
      "inputs": [
        {
          "internalType": "address",
          "name": "producer",
          "type": "address"
        },
        {
          "internalType": "uint256",
          "name": "listingIndex",
          "type": "uint256"
        },
        {
          "internalType": "uint256",
          "name": "price",
          "type": "uint256"
        }
      ],
      "name": "buyEnergy",
      "outputs": [],
      "stateMutability": "nonpayable",
      "type": "function"
    },
    {
      "inputs": [],
      "name": "clearNotifications",
      "outputs": [],
      "stateMutability": "nonpayable",
      "type": "function"
    },
    {
      "inputs": [
        {
          "internalType": "address",
          "name": "",
          "type": "address"
        },
        {
          "internalType": "uint256",
          "name": "",
          "type": "uint256"
        }
      ],
      "name": "consumedRecords",
      "outputs": [
        {
          "internalType": "uint256",
          "name": "consumed",
          "type": "uint256"
        },
        {
          "internalType": "uint256",
          "name": "timestamp",
          "type": "uint256"
        },
        {
          "internalType": "enum CrossGridRes.EnergyType",
          "name": "energyType",
          "type": "uint8"
        }
      ],
      "stateMutability": "view",
      "type": "function"
    },
    {
      "inputs": [
        {
          "internalType": "address",
          "name": "",
          "type": "address"
        }
      ],
      "name": "customerDemand",
      "outputs": [
        {
          "internalType": "uint256",
          "name": "",
          "type": "uint256"
        }
      ],
      "stateMutability": "view",
      "type": "function"
    },
    {
      "inputs": [
        {
          "internalType": "uint256",
          "name": "",
          "type": "uint256"
        }
      ],
      "name": "disputes",
      "outputs": [
        {
          "internalType": "address",
          "name": "initiator",
          "type": "address"
        },
        {
          "internalType": "address",
          "name": "respondent",
          "type": "address"
        },
        {
          "internalType": "string",
          "name": "reason",
          "type": "string"
        },
        {
          "internalType": "string",
          "name": "resolutionDetails",
          "type": "string"
        },
        {
          "internalType": "bool",
          "name": "resolved",
          "type": "bool"
        },
        {
          "internalType": "uint256",
          "name": "timestamp",
          "type": "uint256"
        }
      ],
      "stateMutability": "view",
      "type": "function"
    },
    {
      "inputs": [],
      "name": "dynamicPrice",
      "outputs": [
        {
          "internalType": "uint256",
          "name": "",
          "type": "uint256"
        }
      ],
      "stateMutability": "view",
      "type": "function"
    },
    {
      "inputs": [
        {
          "internalType": "address",
          "name": "",
          "type": "address"
        },
        {
          "internalType": "uint256",
          "name": "",
          "type": "uint256"
        }
      ],
      "name": "energyListings",
      "outputs": [
        {
          "internalType": "address",
          "name": "producer",
          "type": "address"
        },
        {
          "internalType": "uint256",
          "name": "amount",
          "type": "uint256"
        },
        {
          "internalType": "uint256",
          "name": "price",
          "type": "uint256"
        },
        {
          "internalType": "enum CrossGridRes.EnergyType",
          "name": "energyType",
          "type": "uint8"
        },
        {
          "internalType": "bool",
          "name": "active",
          "type": "bool"
        }
      ],
      "stateMutability": "view",
      "type": "function"
    },
    {
      "inputs": [],
      "name": "fetchAllEnergyListings",
      "outputs": [
        {
          "components": [
            {
              "internalType": "address",
              "name": "producer",
              "type": "address"
            },
            {
              "internalType": "uint256",
              "name": "amount",
              "type": "uint256"
            },
            {
              "internalType": "uint256",
              "name": "price",
              "type": "uint256"
            },
            {
              "internalType": "enum CrossGridRes.EnergyType",
              "name": "energyType",
              "type": "uint8"
            },
            {
              "internalType": "bool",
              "name": "active",
              "type": "bool"
            }
          ],
          "internalType": "struct CrossGridRes.EnergyListing[]",
          "name": "",
          "type": "tuple[]"
        }
      ],
      "stateMutability": "view",
      "type": "function"
    },
    {
      "inputs": [],
      "name": "getAggregatedDemand",
      "outputs": [
        {
          "internalType": "uint256",
          "name": "",
          "type": "uint256"
        }
      ],
      "stateMutability": "view",
      "type": "function"
    },
    {
      "inputs": [],
      "name": "getAggregatedSupply",
      "outputs": [
        {
          "internalType": "uint256",
          "name": "",
          "type": "uint256"
        }
      ],
      "stateMutability": "view",
      "type": "function"
    },
    {
      "inputs": [],
      "name": "getAllUsers",
      "outputs": [
        {
          "internalType": "address[]",
          "name": "",
          "type": "address[]"
        }
      ],
      "stateMutability": "view",
      "type": "function"
    },
    {
      "inputs": [
        {
          "internalType": "address",
          "name": "user",
          "type": "address"
        }
      ],
      "name": "getConsumedRecords",
      "outputs": [
        {
          "components": [
            {
              "internalType": "uint256",
              "name": "consumed",
              "type": "uint256"
            },
            {
              "internalType": "uint256",
              "name": "timestamp",
              "type": "uint256"
            },
            {
              "internalType": "enum CrossGridRes.EnergyType",
              "name": "energyType",
              "type": "uint8"
            }
          ],
          "internalType": "struct CrossGridRes.EnergyConsumedRecord[]",
          "name": "",
          "type": "tuple[]"
        }
      ],
      "stateMutability": "view",
      "type": "function"
    },
    {
      "inputs": [
        {
          "internalType": "uint256",
          "name": "disputeId",
          "type": "uint256"
        }
      ],
      "name": "getDispute",
      "outputs": [
        {
          "components": [
            {
              "internalType": "address",
              "name": "initiator",
              "type": "address"
            },
            {
              "internalType": "address",
              "name": "respondent",
              "type": "address"
            },
            {
              "internalType": "string",
              "name": "reason",
              "type": "string"
            },
            {
              "internalType": "string",
              "name": "resolutionDetails",
              "type": "string"
            },
            {
              "internalType": "bool",
              "name": "resolved",
              "type": "bool"
            },
            {
              "internalType": "uint256",
              "name": "timestamp",
              "type": "uint256"
            }
          ],
          "internalType": "struct CrossGridRes.Dispute",
          "name": "",
          "type": "tuple"
        }
      ],
      "stateMutability": "view",
      "type": "function"
    },
    {
      "inputs": [],
      "name": "getDisputes",
      "outputs": [
        {
          "components": [
            {
              "internalType": "address",
              "name": "initiator",
              "type": "address"
            },
            {
              "internalType": "address",
              "name": "respondent",
              "type": "address"
            },
            {
              "internalType": "string",
              "name": "reason",
              "type": "string"
            },
            {
              "internalType": "string",
              "name": "resolutionDetails",
              "type": "string"
            },
            {
              "internalType": "bool",
              "name": "resolved",
              "type": "bool"
            },
            {
              "internalType": "uint256",
              "name": "timestamp",
              "type": "uint256"
            }
          ],
          "internalType": "struct CrossGridRes.Dispute[]",
          "name": "",
          "type": "tuple[]"
        }
      ],
      "stateMutability": "view",
      "type": "function"
    },
    {
      "inputs": [
        {
          "internalType": "address",
          "name": "producer",
          "type": "address"
        }
      ],
      "name": "getListings",
      "outputs": [
        {
          "components": [
            {
              "internalType": "address",
              "name": "producer",
              "type": "address"
            },
            {
              "internalType": "uint256",
              "name": "amount",
              "type": "uint256"
            },
            {
              "internalType": "uint256",
              "name": "price",
              "type": "uint256"
            },
            {
              "internalType": "enum CrossGridRes.EnergyType",
              "name": "energyType",
              "type": "uint8"
            },
            {
              "internalType": "bool",
              "name": "active",
              "type": "bool"
            }
          ],
          "internalType": "struct CrossGridRes.EnergyListing[]",
          "name": "",
          "type": "tuple[]"
        }
      ],
      "stateMutability": "view",
      "type": "function"
    },
    {
      "inputs": [
        {
          "internalType": "address",
          "name": "user",
          "type": "address"
        }
      ],
      "name": "getNotifications",
      "outputs": [
        {
          "components": [
            {
              "internalType": "string",
              "name": "message",
              "type": "string"
            },
            {
              "internalType": "uint256",
              "name": "timestamp",
              "type": "uint256"
            }
          ],
          "internalType": "struct CrossGridRes.Notification[]",
          "name": "",
          "type": "tuple[]"
        }
      ],
      "stateMutability": "view",
      "type": "function"
    },
    {
      "inputs": [
        {
          "internalType": "address",
          "name": "user",
          "type": "address"
        }
      ],
      "name": "getProducedRecords",
      "outputs": [
        {
          "components": [
            {
              "internalType": "uint256",
              "name": "produced",
              "type": "uint256"
            },
            {
              "internalType": "uint256",
              "name": "timestamp",
              "type": "uint256"
            },
            {
              "internalType": "enum CrossGridRes.EnergyType",
              "name": "energyType",
              "type": "uint8"
            }
          ],
          "internalType": "struct CrossGridRes.EnergyProducedRecord[]",
          "name": "",
          "type": "tuple[]"
        }
      ],
      "stateMutability": "view",
      "type": "function"
    },
    {
      "inputs": [
        {
          "internalType": "address",
          "name": "user",
          "type": "address"
        }
      ],
      "name": "getUserType",
      "outputs": [
        {
          "internalType": "enum CrossGridRes.UserType",
          "name": "",
          "type": "uint8"
        }
      ],
      "stateMutability": "view",
      "type": "function"
    },
    {
      "inputs": [
        {
          "internalType": "address",
          "name": "respondent",
          "type": "address"
        },
        {
          "internalType": "string",
          "name": "reason",
          "type": "string"
        }
      ],
      "name": "initiateDispute",
      "outputs": [],
      "stateMutability": "nonpayable",
      "type": "function"
    },
    {
      "inputs": [
        {
          "internalType": "address",
          "name": "user",
          "type": "address"
        }
      ],
      "name": "isRegistered",
      "outputs": [
        {
          "internalType": "bool",
          "name": "",
          "type": "bool"
        }
      ],
      "stateMutability": "view",
      "type": "function"
    },
    {
      "inputs": [
        {
          "internalType": "uint256",
          "name": "amount",
          "type": "uint256"
        },
        {
          "internalType": "uint256",
          "name": "price",
          "type": "uint256"
        },
        {
          "internalType": "enum CrossGridRes.EnergyType",
          "name": "energyType",
          "type": "uint8"
        }
      ],
      "name": "listEnergy",
      "outputs": [],
      "stateMutability": "nonpayable",
      "type": "function"
    },
    {
      "inputs": [
        {
          "internalType": "address",
          "name": "",
          "type": "address"
        },
        {
          "internalType": "uint256",
          "name": "",
          "type": "uint256"
        }
      ],
      "name": "notifications",
      "outputs": [
        {
          "internalType": "string",
          "name": "message",
          "type": "string"
        },
        {
          "internalType": "uint256",
          "name": "timestamp",
          "type": "uint256"
        }
      ],
      "stateMutability": "view",
      "type": "function"
    },
    {
      "inputs": [],
      "name": "owner",
      "outputs": [
        {
          "internalType": "address",
          "name": "",
          "type": "address"
        }
      ],
      "stateMutability": "view",
      "type": "function"
    },
    {
      "inputs": [
        {
          "internalType": "address",
          "name": "",
          "type": "address"
        },
        {
          "internalType": "uint256",
          "name": "",
          "type": "uint256"
        }
      ],
      "name": "producedRecords",
      "outputs": [
        {
          "internalType": "uint256",
          "name": "produced",
          "type": "uint256"
        },
        {
          "internalType": "uint256",
          "name": "timestamp",
          "type": "uint256"
        },
        {
          "internalType": "enum CrossGridRes.EnergyType",
          "name": "energyType",
          "type": "uint8"
        }
      ],
      "stateMutability": "view",
      "type": "function"
    },
    {
      "inputs": [
        {
          "internalType": "address",
          "name": "user",
          "type": "address"
        },
        {
          "internalType": "enum CrossGridRes.UserType",
          "name": "userType",
          "type": "uint8"
        }
      ],
      "name": "registerUser",
      "outputs": [],
      "stateMutability": "nonpayable",
      "type": "function"
    },
    {
      "inputs": [
        {
          "internalType": "address",
          "name": "user",
          "type": "address"
        }
      ],
      "name": "resetData",
      "outputs": [],
      "stateMutability": "nonpayable",
      "type": "function"
    },
    {
      "inputs": [
        {
          "internalType": "uint256",
          "name": "disputeId",
          "type": "uint256"
        },
        {
          "internalType": "string",
          "name": "resolutionDetails",
          "type": "string"
        }
      ],
      "name": "resolveDispute",
      "outputs": [],
      "stateMutability": "nonpayable",
      "type": "function"
    },
    {
      "inputs": [],
      "name": "token",
      "outputs": [
        {
          "internalType": "contract IEnergy",
          "name": "",
          "type": "address"
        }
      ],
      "stateMutability": "view",
      "type": "function"
    },
    {
      "inputs": [
        {
          "internalType": "address",
          "name": "",
          "type": "address"
        }
      ],
      "name": "totalConsumed",
      "outputs": [
        {
          "internalType": "uint256",
          "name": "",
          "type": "uint256"
        }
      ],
      "stateMutability": "view",
      "type": "function"
    },
    {
      "inputs": [],
      "name": "totalDemandAggregated",
      "outputs": [
        {
          "internalType": "uint256",
          "name": "",
          "type": "uint256"
        }
      ],
      "stateMutability": "view",
      "type": "function"
    },
    {
      "inputs": [
        {
          "internalType": "address",
          "name": "",
          "type": "address"
        }
      ],
      "name": "totalProduced",
      "outputs": [
        {
          "internalType": "uint256",
          "name": "",
          "type": "uint256"
        }
      ],
      "stateMutability": "view",
      "type": "function"
    },
    {
      "inputs": [],
      "name": "totalSupplyAggregated",
      "outputs": [
        {
          "internalType": "uint256",
          "name": "",
          "type": "uint256"
        }
      ],
      "stateMutability": "view",
      "type": "function"
    },
    {
      "inputs": [],
      "name": "updatePrice",
      "outputs": [],
      "stateMutability": "nonpayable",
      "type": "function"
    },
    {
      "inputs": [
        {
          "internalType": "address",
          "name": "",
          "type": "address"
        }
      ],
      "name": "userEarned",
      "outputs": [
        {
          "internalType": "uint256",
          "name": "",
          "type": "uint256"
        }
      ],
      "stateMutability": "view",
      "type": "function"
    },
    {
      "inputs": [
        {
          "internalType": "address",
          "name": "",
          "type": "address"
        }
      ],
      "name": "userSpent",
      "outputs": [
        {
          "internalType": "uint256",
          "name": "",
          "type": "uint256"
        }
      ],
      "stateMutability": "view",
      "type": "function"
    },
    {
      "inputs": [
        {
          "internalType": "address",
          "name": "",
          "type": "address"
        }
      ],
      "name": "users",
      "outputs": [
        {
          "internalType": "enum CrossGridRes.UserType",
          "name": "userType",
          "type": "uint8"
        },
        {
          "internalType": "bool",
          "name": "registered",
          "type": "bool"
        }
      ],
      "stateMutability": "view",
      "type": "function"
    }
  ],
  "bytecode": "0x608060405234801561001057600080fd5b50604051615b58380380615b588339818101604052810190610032919061019e565b60008211610075576040517f08c379a000000000000000000000000000000000000000000000000000000000815260040161006c90610261565b60405180910390fd5b8160008190555080600160006101000a81548173ffffffffffffffffffffffffffffffffffffffff021916908373ffffffffffffffffffffffffffffffffffffffff16021790555033600360006101000a81548173ffffffffffffffffffffffffffffffffffffffff021916908373ffffffffffffffffffffffffffffffffffffffff1602179055505050610281565b600080fd5b6000819050919050565b61011d8161010a565b811461012857600080fd5b50565b60008151905061013a81610114565b92915050565b600073ffffffffffffffffffffffffffffffffffffffff82169050919050565b600061016b82610140565b9050919050565b61017b81610160565b811461018657600080fd5b50565b60008151905061019881610172565b92915050565b600080604083850312156101b5576101b4610105565b5b60006101c38582860161012b565b92505060206101d485828601610189565b9150509250929050565b600082825260208201905092915050565b7f496e697469616c207072696365206d757374206265206772656174657220746860008201527f616e207a65726f00000000000000000000000000000000000000000000000000602082015250565b600061024b6027836101de565b9150610256826101ef565b604082019050919050565b6000602082019050818103600083015261027a8161023e565b9050919050565b6158c8806102906000396000f3fe608060405234801561001057600080fd5b506004361061021c5760003560e01c80638b3f863f11610125578063c0a0117a116100ad578063cf51b45d1161007c578063cf51b45d146106be578063e2842d79146106da578063e3a96cbd146106f8578063eb5dcf3a14610728578063fc0c546a1461075a5761021c565b8063c0a0117a146105fe578063c3c5a5471461062e578063cba725401461065e578063cde8cd6e1461068e5761021c565b80639e9fa097116100f45780639e9fa09714610533578063a87430ba1461054f578063b0c6eb0c14610580578063b1ca72a6146105b0578063baa15f6f146105ce5761021c565b80638b3f863f146104bd5780638da5cb5b146104ed578063900baf131461050b578063955ab452146105155761021c565b80634a63705b116101a857806365a809811161017757806365a809811461041657806365d0bddd14610434578063673a7e28146104655780637e8e24821461046f5780638a8f63b01461048d5761021c565b80634a63705b1461036357806352cb324f14610393578063564a565d146103c5578063629faf8a146103fa5761021c565b806332add833116101ef57806332add833146102bb578063354df9cc146102d75780633746c6aa146102f55780633d06a9691461032957806345f870af146103475761021c565b80630d840813146102215780631479d983146102515780631a68e9431461026f5780631fd4d5781461028b575b600080fd5b61023b6004803603810190610236919061397b565b610778565b6040516102489190613b29565b60405180910390f35b610259610865565b6040516102669190613b5a565b60405180910390f35b61028960048036038101906102849190613bc6565b61086b565b005b6102a560048036038101906102a0919061397b565b610caf565b6040516102b29190613d0a565b60405180910390f35b6102d560048036038101906102d09190613d2c565b610d9c565b005b6102df6113e3565b6040516102ec9190613b5a565b60405180910390f35b61030f600480360381019061030a9190613d7f565b6113e9565b604051610320959493929190613df8565b60405180910390f35b610331611476565b60405161033e9190613b5a565b60405180910390f35b610361600480360381019061035c9190613f91565b61147c565b005b61037d6004803603810190610378919061397b565b61169f565b60405161038a9190613b5a565b60405180910390f35b6103ad60048036038101906103a89190613d7f565b6116b7565b6040516103bc93929190613fed565b60405180910390f35b6103df60048036038101906103da9190614024565b61170b565b6040516103f1969594939291906140d0565b60405180910390f35b610414600480360381019061040f919061397b565b6118b4565b005b61041e611ab5565b60405161042b9190613b5a565b60405180910390f35b61044e60048036038101906104499190613d7f565b611abf565b60405161045c92919061413f565b60405180910390f35b61046d611b88565b005b610477611dcd565b6040516104849190613b5a565b60405180910390f35b6104a760048036038101906104a2919061397b565b611dd7565b6040516104b491906142b8565b60405180910390f35b6104d760048036038101906104d2919061397b565b611f11565b6040516104e49190614322565b60405180910390f35b6104f5611ff9565b604051610502919061433d565b60405180910390f35b61051361201f565b005b61051d61206c565b60405161052a919061448d565b60405180910390f35b61054d600480360381019061054891906144d4565b61235e565b005b6105696004803603810190610564919061397b565b612635565b604051610577929190614514565b60405180910390f35b61059a6004803603810190610595919061397b565b612673565b6040516105a79190613b5a565b60405180910390f35b6105b861268b565b6040516105c5919061468f565b60405180910390f35b6105e860048036038101906105e3919061397b565b6128df565b6040516105f59190613b5a565b60405180910390f35b6106186004803603810190610613919061397b565b6128f7565b6040516106259190613b5a565b60405180910390f35b6106486004803603810190610643919061397b565b61290f565b60405161065591906146b1565b60405180910390f35b6106786004803603810190610673919061397b565b612968565b6040516106859190613b5a565b60405180910390f35b6106a860048036038101906106a3919061397b565b612980565b6040516106b5919061448d565b60405180910390f35b6106d860048036038101906106d391906146cc565b612ade565b005b6106e2612c99565b6040516106ef91906147d7565b60405180910390f35b610712600480360381019061070d9190614024565b612d27565b60405161071f9190614889565b60405180910390f35b610742600480360381019061073d9190613d7f565b612f9f565b60405161075193929190613fed565b60405180910390f35b610762612ff3565b60405161076f919061490a565b60405180910390f35b6060600a60008373ffffffffffffffffffffffffffffffffffffffff1673ffffffffffffffffffffffffffffffffffffffff168152602001908152602001600020805480602002602001604051908101604052809291908181526020016000905b8282101561085a578382906000526020600020906003020160405180606001604052908160008201548152602001600182015481526020016002820160009054906101000a900460ff166003811115610835576108346139ed565b5b6003811115610847576108466139ed565b5b81525050815260200190600101906107d9565b505050509050919050565b60085481565b600560009054906101000a900460ff16156108bb576040517f08c379a00000000000000000000000000000000000000000000000000000000081526004016108b290614971565b60405180910390fd5b6001600560006101000a81548160ff021916908315150217905550600d60003373ffffffffffffffffffffffffffffffffffffffff1673ffffffffffffffffffffffffffffffffffffffff16815260200190815260200160002060000160019054906101000a900460ff1680156109a5575060016002811115610941576109406139ed565b5b600d60003373ffffffffffffffffffffffffffffffffffffffff1673ffffffffffffffffffffffffffffffffffffffff16815260200190815260200160002060000160009054906101000a900460ff1660028111156109a3576109a26139ed565b5b145b6109e4576040517f08c379a00000000000000000000000000000000000000000000000000000000081526004016109db90614a03565b60405180910390fd5b60008311610a27576040517f08c379a0000000000000000000000000000000000000000000000000000000008152600401610a1e90614a6f565b60405180910390fd5b60008211610a6a576040517f08c379a0000000000000000000000000000000000000000000000000000000008152600401610a6190614adb565b60405180910390fd5b8260076000828254610a7c9190614b2a565b92505081905550600960003373ffffffffffffffffffffffffffffffffffffffff1673ffffffffffffffffffffffffffffffffffffffff1681526020019081526020016000206040518060a001604052803373ffffffffffffffffffffffffffffffffffffffff168152602001858152602001848152602001836003811115610b0857610b076139ed565b5b815260200160011515815250908060018154018082558091505060019003906000526020600020906004020160009091909190915060008201518160000160006101000a81548173ffffffffffffffffffffffffffffffffffffffff021916908373ffffffffffffffffffffffffffffffffffffffff160217905550602082015181600101556040820151816002015560608201518160030160006101000a81548160ff02191690836003811115610bc357610bc26139ed565b5b021790555060808201518160030160016101000a81548160ff0219169083151502179055505050610bf5338483613019565b3373ffffffffffffffffffffffffffffffffffffffff167f2f8d01920f10cc9dcd6eb2ba04b84f6345aba87751d7e5a2650bdba1b106860e84600054610c3a856131e4565b604051610c4993929190614b5e565b60405180910390a2610c8f6040518060400160405280601b81526020017f456e65726779206c6973746564207375636365737366756c6c792e00000000008152506133c7565b6000600560006101000a81548160ff021916908315150217905550505050565b6060600b60008373ffffffffffffffffffffffffffffffffffffffff1673ffffffffffffffffffffffffffffffffffffffff168152602001908152602001600020805480602002602001604051908101604052809291908181526020016000905b82821015610d91578382906000526020600020906003020160405180606001604052908160008201548152602001600182015481526020016002820160009054906101000a900460ff166003811115610d6c57610d6b6139ed565b5b6003811115610d7e57610d7d6139ed565b5b8152505081526020019060010190610d10565b505050509050919050565b600560009054906101000a900460ff1615610dec576040517f08c379a0000000000000000000000000000000000000000000000000000000008152600401610de390614971565b60405180910390fd5b6001600560006101000a81548160ff0219169083151502179055506000600960008573ffffffffffffffffffffffffffffffffffffffff1673ffffffffffffffffffffffffffffffffffffffff1681526020019081526020016000208381548110610e5a57610e59614b9c565b5b906000526020600020906004020190508060030160019054906101000a900460ff16610ebb576040517f08c379a0000000000000000000000000000000000000000000000000000000008152600401610eb290614c17565b60405180910390fd5b600082118015610ede575080600201548160010154610eda9190614c37565b8211155b610f1d576040517f08c379a0000000000000000000000000000000000000000000000000000000008152600401610f1490614ceb565b60405180910390fd5b6000816002015483610f2f9190614d3a565b90508160010154811115610f78576040517f08c379a0000000000000000000000000000000000000000000000000000000008152600401610f6f90614ddd565b60405180910390fd5b82600160009054906101000a900473ffffffffffffffffffffffffffffffffffffffff1673ffffffffffffffffffffffffffffffffffffffff1663dd62ed3e33306040518363ffffffff1660e01b8152600401610fd6929190614dfd565b602060405180830381865afa158015610ff3573d6000803e3d6000fd5b505050506040513d601f19601f820116820180604052508101906110179190614e3b565b1015611058576040517f08c379a000000000000000000000000000000000000000000000000000000000815260040161104f90614eb4565b60405180910390fd5b82600160009054906101000a900473ffffffffffffffffffffffffffffffffffffffff1673ffffffffffffffffffffffffffffffffffffffff166370a08231336040518263ffffffff1660e01b81526004016110b4919061433d565b602060405180830381865afa1580156110d1573d6000803e3d6000fd5b505050506040513d601f19601f820116820180604052508101906110f59190614e3b565b1015611136576040517f08c379a000000000000000000000000000000000000000000000000000000000815260040161112d90614f20565b60405180910390fd5b600160009054906101000a900473ffffffffffffffffffffffffffffffffffffffff1673ffffffffffffffffffffffffffffffffffffffff166323b872dd3387866040518463ffffffff1660e01b815260040161119593929190614f40565b6020604051808303816000875af11580156111b4573d6000803e3d6000fd5b505050506040513d601f19601f820116820180604052508101906111d89190614fa3565b5080600760008282546111eb9190614fd0565b9250508190555080600860008282546112049190614b2a565b925050819055508082600101600082825461121f9190614fd0565b9250508190555060008260010154036112505760008260030160016101000a81548160ff0219169083151502179055505b82601060008773ffffffffffffffffffffffffffffffffffffffff1673ffffffffffffffffffffffffffffffffffffffff168152602001908152602001600020600082825461129f9190614b2a565b9250508190555082601160003373ffffffffffffffffffffffffffffffffffffffff1673ffffffffffffffffffffffffffffffffffffffff16815260200190815260200160002060008282546112f59190614b2a565b9250508190555061131833828460030160009054906101000a900460ff16613422565b3373ffffffffffffffffffffffffffffffffffffffff168573ffffffffffffffffffffffffffffffffffffffff167f942439e1850cccb8201680164759092629ebc0519531d3aeea6a5d9b3578529d83856002015460405161137b929190615004565b60405180910390a36113c16040518060400160405280601e81526020017f456e6572677920707572636861736564207375636365737366756c6c792e00008152506133c7565b50506000600560006101000a81548160ff021916908315150217905550505050565b60075481565b6009602052816000526040600020818154811061140557600080fd5b9060005260206000209060040201600091509150508060000160009054906101000a900473ffffffffffffffffffffffffffffffffffffffff16908060010154908060020154908060030160009054906101000a900460ff16908060030160019054906101000a900460ff16905085565b60005481565b60066040518060c001604052803373ffffffffffffffffffffffffffffffffffffffff1681526020018473ffffffffffffffffffffffffffffffffffffffff16815260200183815260200160405180602001604052806000815250815260200160001515815260200142815250908060018154018082558091505060019003906000526020600020906006020160009091909190915060008201518160000160006101000a81548173ffffffffffffffffffffffffffffffffffffffff021916908373ffffffffffffffffffffffffffffffffffffffff16021790555060208201518160010160006101000a81548173ffffffffffffffffffffffffffffffffffffffff021916908373ffffffffffffffffffffffffffffffffffffffff16021790555060408201518160020190816115b5919061522f565b5060608201518160030190816115cb919061522f565b5060808201518160040160006101000a81548160ff02191690831515021790555060a0820151816005015550508173ffffffffffffffffffffffffffffffffffffffff163373ffffffffffffffffffffffffffffffffffffffff167fed910a45fad35ddd97267fbd397fde8f27d5c4cc9e5b54803e2c594b1211cab7836040516116559190615301565b60405180910390a361169b6040518060400160405280601f81526020017f4469737075746520696e69746961746564207375636365737366756c6c792e008152506133c7565b5050565b600e6020528060005260406000206000915090505481565b600b60205281600052604060002081815481106116d357600080fd5b9060005260206000209060030201600091509150508060000154908060010154908060020160009054906101000a900460ff16905083565b6006818154811061171b57600080fd5b90600052602060002090600602016000915090508060000160009054906101000a900473ffffffffffffffffffffffffffffffffffffffff16908060010160009054906101000a900473ffffffffffffffffffffffffffffffffffffffff169080600201805461178a9061505c565b80601f01602080910402602001604051908101604052809291908181526020018280546117b69061505c565b80156118035780601f106117d857610100808354040283529160200191611803565b820191906000526020600020905b8154815290600101906020018083116117e657829003601f168201915b5050505050908060030180546118189061505c565b80601f01602080910402602001604051908101604052809291908181526020018280546118449061505c565b80156118915780601f1061186657610100808354040283529160200191611891565b820191906000526020600020905b81548152906001019060200180831161187457829003601f168201915b5050505050908060040160009054906101000a900460ff16908060050154905086565b600360009054906101000a900473ffffffffffffffffffffffffffffffffffffffff1673ffffffffffffffffffffffffffffffffffffffff163373ffffffffffffffffffffffffffffffffffffffff1614611944576040517f08c379a000000000000000000000000000000000000000000000000000000000815260040161193b9061536f565b60405180910390fd5b600a60008273ffffffffffffffffffffffffffffffffffffffff1673ffffffffffffffffffffffffffffffffffffffff168152602001908152602001600020600061198f91906136de565b600b60008273ffffffffffffffffffffffffffffffffffffffff1673ffffffffffffffffffffffffffffffffffffffff16815260200190815260200160002060006119da9190613702565b6000600e60008373ffffffffffffffffffffffffffffffffffffffff1673ffffffffffffffffffffffffffffffffffffffff168152602001908152602001600020819055506000600f60008373ffffffffffffffffffffffffffffffffffffffff1673ffffffffffffffffffffffffffffffffffffffff168152602001908152602001600020819055508073ffffffffffffffffffffffffffffffffffffffff167f65480cbdb2e256d00b7bf08f60e0726e75f27b97559cbfdb74a37e4c80086fcd42604051611aaa9190613b5a565b60405180910390a250565b6000600754905090565b60026020528160005260406000208181548110611adb57600080fd5b906000526020600020906002020160009150915050806000018054611aff9061505c565b80601f0160208091040260200160405190810160405280929190818152602001828054611b2b9061505c565b8015611b785780601f10611b4d57610100808354040283529160200191611b78565b820191906000526020600020905b815481529060010190602001808311611b5b57829003601f168201915b5050505050908060010154905082565b600360009054906101000a900473ffffffffffffffffffffffffffffffffffffffff1673ffffffffffffffffffffffffffffffffffffffff163373ffffffffffffffffffffffffffffffffffffffff1614611c18576040517f08c379a0000000000000000000000000000000000000000000000000000000008152600401611c0f9061536f565b60405180910390fd5b6000600e6000600360009054906101000a900473ffffffffffffffffffffffffffffffffffffffff1673ffffffffffffffffffffffffffffffffffffffff1673ffffffffffffffffffffffffffffffffffffffff1681526020019081526020016000205490506000600f6000600360009054906101000a900473ffffffffffffffffffffffffffffffffffffffff1673ffffffffffffffffffffffffffffffffffffffff1673ffffffffffffffffffffffffffffffffffffffff16815260200190815260200160002054905060008211611d27576040517f08c379a0000000000000000000000000000000000000000000000000000000008152600401611d1e906153db565b60405180910390fd5b60008111611d6a576040517f08c379a0000000000000000000000000000000000000000000000000000000008152600401611d6190615447565b60405180910390fd5b600080549050828183611d7d9190614c37565b611d879190614d3a565b6000819055507f945c1c4e99aa89f648fbfe3df471b916f719e16d960fcec0737d4d56bd69683881600054604051611dc0929190615004565b60405180910390a1505050565b6000600854905090565b6060600260008373ffffffffffffffffffffffffffffffffffffffff1673ffffffffffffffffffffffffffffffffffffffff168152602001908152602001600020805480602002602001604051908101604052809291908181526020016000905b82821015611f065783829060005260206000209060020201604051806040016040529081600082018054611e6b9061505c565b80601f0160208091040260200160405190810160405280929190818152602001828054611e979061505c565b8015611ee45780601f10611eb957610100808354040283529160200191611ee4565b820191906000526020600020905b815481529060010190602001808311611ec757829003601f168201915b5050505050815260200160018201548152505081526020019060010190611e38565b505050509050919050565b6000600d60008373ffffffffffffffffffffffffffffffffffffffff1673ffffffffffffffffffffffffffffffffffffffff16815260200190815260200160002060000160019054906101000a900460ff16611fa2576040517f08c379a0000000000000000000000000000000000000000000000000000000008152600401611f99906154b3565b60405180910390fd5b600d60008373ffffffffffffffffffffffffffffffffffffffff1673ffffffffffffffffffffffffffffffffffffffff16815260200190815260200160002060000160009054906101000a900460ff169050919050565b600360009054906101000a900473ffffffffffffffffffffffffffffffffffffffff1681565b600260003373ffffffffffffffffffffffffffffffffffffffff1673ffffffffffffffffffffffffffffffffffffffff168152602001908152602001600020600061206a9190613726565b565b60606000805b6004805490508110156121205760006004828154811061209557612094614b9c565b5b9060005260206000200160009054906101000a900473ffffffffffffffffffffffffffffffffffffffff169050600960008273ffffffffffffffffffffffffffffffffffffffff1673ffffffffffffffffffffffffffffffffffffffff16815260200190815260200160002080549050836121109190614b2a565b9250508080600101915050612072565b5060008167ffffffffffffffff81111561213d5761213c613e66565b5b60405190808252806020026020018201604052801561217657816020015b61216361374a565b81526020019060019003908161215b5790505b5090506000805b600480549050811015612354576000600482815481106121a05761219f614b9c565b5b9060005260206000200160009054906101000a900473ffffffffffffffffffffffffffffffffffffffff1690506000600960008373ffffffffffffffffffffffffffffffffffffffff1673ffffffffffffffffffffffffffffffffffffffff168152602001908152602001600020905060005b81805490508110156123445781818154811061223257612231614b9c565b5b90600052602060002090600402016040518060a00160405290816000820160009054906101000a900473ffffffffffffffffffffffffffffffffffffffff1673ffffffffffffffffffffffffffffffffffffffff1673ffffffffffffffffffffffffffffffffffffffff16815260200160018201548152602001600282015481526020016003820160009054906101000a900460ff1660038111156122da576122d96139ed565b5b60038111156122ec576122eb6139ed565b5b81526020016003820160019054906101000a900460ff16151515158152505086868151811061231e5761231d614b9c565b5b60200260200101819052508480612334906154d3565b9550508080600101915050612213565b505050808060010191505061217d565b5081935050505090565b600073ffffffffffffffffffffffffffffffffffffffff168273ffffffffffffffffffffffffffffffffffffffff16036123cd576040517f08c379a00000000000000000000000000000000000000000000000000000000081526004016123c490615567565b60405180910390fd5b600060028111156123e1576123e06139ed565b5b8160028111156123f4576123f36139ed565b5b03612434576040517f08c379a000000000000000000000000000000000000000000000000000000000815260040161242b906155d3565b60405180910390fd5b600d60008373ffffffffffffffffffffffffffffffffffffffff1673ffffffffffffffffffffffffffffffffffffffff16815260200190815260200160002060000160019054906101000a900460ff16156124c4576040517f08c379a00000000000000000000000000000000000000000000000000000000081526004016124bb9061563f565b60405180910390fd5b60405180604001604052808260028111156124e2576124e16139ed565b5b815260200160011515815250600d60008473ffffffffffffffffffffffffffffffffffffffff1673ffffffffffffffffffffffffffffffffffffffff16815260200190815260200160002060008201518160000160006101000a81548160ff02191690836002811115612558576125576139ed565b5b021790555060208201518160000160016101000a81548160ff0219169083151502179055509050506004829080600181540180825580915050600190039060005260206000200160009091909190916101000a81548173ffffffffffffffffffffffffffffffffffffffff021916908373ffffffffffffffffffffffffffffffffffffffff1602179055508173ffffffffffffffffffffffffffffffffffffffff167f8e18574f8a7333e6a87112742a55853a643e2f0550f4e1a3a2c3f1bb2994441d826040516126299190614322565b60405180910390a25050565b600d6020528060005260406000206000915090508060000160009054906101000a900460ff16908060000160019054906101000a900460ff16905082565b600f6020528060005260406000206000915090505481565b60606006805480602002602001604051908101604052809291908181526020016000905b828210156128d657838290600052602060002090600602016040518060c00160405290816000820160009054906101000a900473ffffffffffffffffffffffffffffffffffffffff1673ffffffffffffffffffffffffffffffffffffffff1673ffffffffffffffffffffffffffffffffffffffff1681526020016001820160009054906101000a900473ffffffffffffffffffffffffffffffffffffffff1673ffffffffffffffffffffffffffffffffffffffff1673ffffffffffffffffffffffffffffffffffffffff16815260200160028201805461278e9061505c565b80601f01602080910402602001604051908101604052809291908181526020018280546127ba9061505c565b80156128075780601f106127dc57610100808354040283529160200191612807565b820191906000526020600020905b8154815290600101906020018083116127ea57829003601f168201915b505050505081526020016003820180546128209061505c565b80601f016020809104026020016040519081016040528092919081815260200182805461284c9061505c565b80156128995780601f1061286e57610100808354040283529160200191612899565b820191906000526020600020905b81548152906001019060200180831161287c57829003601f168201915b505050505081526020016004820160009054906101000a900460ff16151515158152602001600582015481525050815260200190600101906126af565b50505050905090565b600c6020528060005260406000206000915090505481565b60116020528060005260406000206000915090505481565b6000600d60008373ffffffffffffffffffffffffffffffffffffffff1673ffffffffffffffffffffffffffffffffffffffff16815260200190815260200160002060000160019054906101000a900460ff169050919050565b60106020528060005260406000206000915090505481565b6060600960008373ffffffffffffffffffffffffffffffffffffffff1673ffffffffffffffffffffffffffffffffffffffff168152602001908152602001600020805480602002602001604051908101604052809291908181526020016000905b82821015612ad357838290600052602060002090600402016040518060a00160405290816000820160009054906101000a900473ffffffffffffffffffffffffffffffffffffffff1673ffffffffffffffffffffffffffffffffffffffff1673ffffffffffffffffffffffffffffffffffffffff16815260200160018201548152602001600282015481526020016003820160009054906101000a900460ff166003811115612a9357612a926139ed565b5b6003811115612aa557612aa46139ed565b5b81526020016003820160019054906101000a900460ff161515151581525050815260200190600101906129e1565b505050509050919050565b600360009054906101000a900473ffffffffffffffffffffffffffffffffffffffff1673ffffffffffffffffffffffffffffffffffffffff163373ffffffffffffffffffffffffffffffffffffffff1614612b6e576040517f08c379a0000000000000000000000000000000000000000000000000000000008152600401612b659061536f565b60405180910390fd5b6006805490508210612bb5576040517f08c379a0000000000000000000000000000000000000000000000000000000008152600401612bac906156ab565b60405180910390fd5b600060068381548110612bcb57612bca614b9c565b5b906000526020600020906006020190508060040160009054906101000a900460ff1615612c2d576040517f08c379a0000000000000000000000000000000000000000000000000000000008152600401612c2490615717565b60405180910390fd5b81816003019081612c3e919061522f565b5060018160040160006101000a81548160ff021916908315150217905550827f831764ac02a33c193cba23a0de34c986e9b50402bf3c9febf6ff2f63d4c0435d83604051612c8c9190615301565b60405180910390a2505050565b60606004805480602002602001604051908101604052809291908181526020018280548015612d1d57602002820191906000526020600020905b8160009054906101000a900473ffffffffffffffffffffffffffffffffffffffff1673ffffffffffffffffffffffffffffffffffffffff1681526020019060010190808311612cd3575b5050505050905090565b612d2f6137a3565b6006805490508210612d76576040517f08c379a0000000000000000000000000000000000000000000000000000000008152600401612d6d906156ab565b60405180910390fd5b60068281548110612d8a57612d89614b9c565b5b90600052602060002090600602016040518060c00160405290816000820160009054906101000a900473ffffffffffffffffffffffffffffffffffffffff1673ffffffffffffffffffffffffffffffffffffffff1673ffffffffffffffffffffffffffffffffffffffff1681526020016001820160009054906101000a900473ffffffffffffffffffffffffffffffffffffffff1673ffffffffffffffffffffffffffffffffffffffff1673ffffffffffffffffffffffffffffffffffffffff168152602001600282018054612e5f9061505c565b80601f0160208091040260200160405190810160405280929190818152602001828054612e8b9061505c565b8015612ed85780601f10612ead57610100808354040283529160200191612ed8565b820191906000526020600020905b815481529060010190602001808311612ebb57829003601f168201915b50505050508152602001600382018054612ef19061505c565b80601f0160208091040260200160405190810160405280929190818152602001828054612f1d9061505c565b8015612f6a5780601f10612f3f57610100808354040283529160200191612f6a565b820191906000526020600020905b815481529060010190602001808311612f4d57829003601f168201915b505050505081526020016004820160009054906101000a900460ff161515151581526020016005820154815250509050919050565b600a6020528160005260406000208181548110612fbb57600080fd5b9060005260206000209060030201600091509150508060000154908060010154908060020160009054906101000a900460ff16905083565b600160009054906101000a900473ffffffffffffffffffffffffffffffffffffffff1681565b6000821161305c576040517f08c379a0000000000000000000000000000000000000000000000000000000008152600401613053906157a9565b60405180910390fd5b81600e60008573ffffffffffffffffffffffffffffffffffffffff1673ffffffffffffffffffffffffffffffffffffffff16815260200190815260200160002060008282546130ab9190614b2a565b92505081905550600a60008473ffffffffffffffffffffffffffffffffffffffff1673ffffffffffffffffffffffffffffffffffffffff168152602001908152602001600020604051806060016040528084815260200142815260200183600381111561311b5761311a6139ed565b5b8152509080600181540180825580915050600190039060005260206000209060030201600090919091909150600082015181600001556020820151816001015560408201518160020160006101000a81548160ff02191690836003811115613186576131856139ed565b5b021790555050508273ffffffffffffffffffffffffffffffffffffffff167f5cfb307666c302e735ed249671512540e5ef8425fb38f73e416e0fcab716eac78383426040516131d7939291906157c9565b60405180910390a2505050565b6060600060038111156131fa576131f96139ed565b5b82600381111561320d5761320c6139ed565b5b0361324f576040518060400160405280600581526020017f536f6c617200000000000000000000000000000000000000000000000000000081525090506133c2565b60016003811115613263576132626139ed565b5b826003811115613276576132756139ed565b5b036132b8576040518060400160405280600481526020017f57696e640000000000000000000000000000000000000000000000000000000081525090506133c2565b600260038111156132cc576132cb6139ed565b5b8260038111156132df576132de6139ed565b5b03613321576040518060400160405280600781526020017f42696f6d6173730000000000000000000000000000000000000000000000000081525090506133c2565b600380811115613334576133336139ed565b5b826003811115613347576133466139ed565b5b03613389576040518060400160405280600581526020017f546964616c00000000000000000000000000000000000000000000000000000081525090506133c2565b6040518060400160405280600781526020017f556e6b6e6f776e0000000000000000000000000000000000000000000000000081525090505b919050565b6133d133826135eb565b3373ffffffffffffffffffffffffffffffffffffffff167f927ab60303267b1fef363a283046587ecf3d95a11b4efa11a7234104f261a587826040516134179190615301565b60405180910390a250565b60008211613465576040517f08c379a000000000000000000000000000000000000000000000000000000000815260040161345c90615872565b60405180910390fd5b81600f60008573ffffffffffffffffffffffffffffffffffffffff1673ffffffffffffffffffffffffffffffffffffffff16815260200190815260200160002060008282546134b49190614b2a565b92505081905550600b60008473ffffffffffffffffffffffffffffffffffffffff1673ffffffffffffffffffffffffffffffffffffffff1681526020019081526020016000206040518060600160405280848152602001428152602001836003811115613524576135236139ed565b5b8152509080600181540180825580915050600190039060005260206000209060030201600090919091909150600082015181600001556020820151816001015560408201518160020160006101000a81548160ff0219169083600381111561358f5761358e6139ed565b5b021790555050508273ffffffffffffffffffffffffffffffffffffffff167fadf60b50812cf8de7ced51caa9256fb7531ef821c63929aa890ab3123387d24683426040516135de929190615004565b60405180910390a2505050565b600260008373ffffffffffffffffffffffffffffffffffffffff1673ffffffffffffffffffffffffffffffffffffffff1681526020019081526020016000206040518060400160405280838152602001428152509080600181540180825580915050600190039060005260206000209060020201600090919091909150600082015181600001908161367d919061522f565b506020820151816001015550508173ffffffffffffffffffffffffffffffffffffffff167f063b3e1bdf21de17abef88c6601bf357c77ad60ecd1bf6abce40a9c00c9a94db82426040516136d292919061413f565b60405180910390a25050565b50805460008255600302906000526020600020908101906136ff9190613807565b50565b50805460008255600302906000526020600020908101906137239190613842565b50565b5080546000825560020290600052602060002090810190613747919061387d565b50565b6040518060a00160405280600073ffffffffffffffffffffffffffffffffffffffff168152602001600081526020016000815260200160006003811115613794576137936139ed565b5b81526020016000151581525090565b6040518060c00160405280600073ffffffffffffffffffffffffffffffffffffffff168152602001600073ffffffffffffffffffffffffffffffffffffffff1681526020016060815260200160608152602001600015158152602001600081525090565b5b8082111561383e5760008082016000905560018201600090556002820160006101000a81549060ff021916905550600301613808565b5090565b5b808211156138795760008082016000905560018201600090556002820160006101000a81549060ff021916905550600301613843565b5090565b5b808211156138a8576000808201600061389791906138ac565b60018201600090555060020161387e565b5090565b5080546138b89061505c565b6000825580601f106138ca57506138e9565b601f0160209004906000526020600020908101906138e891906138ec565b5b50565b5b808211156139055760008160009055506001016138ed565b5090565b6000604051905090565b600080fd5b600080fd5b600073ffffffffffffffffffffffffffffffffffffffff82169050919050565b60006139488261391d565b9050919050565b6139588161393d565b811461396357600080fd5b50565b6000813590506139758161394f565b92915050565b60006020828403121561399157613990613913565b5b600061399f84828501613966565b91505092915050565b600081519050919050565b600082825260208201905092915050565b6000819050602082019050919050565b6000819050919050565b6139e7816139d4565b82525050565b7f4e487b7100000000000000000000000000000000000000000000000000000000600052602160045260246000fd5b60048110613a2d57613a2c6139ed565b5b50565b6000819050613a3e82613a1c565b919050565b6000613a4e82613a30565b9050919050565b613a5e81613a43565b82525050565b606082016000820151613a7a60008501826139de565b506020820151613a8d60208501826139de565b506040820151613aa06040850182613a55565b50505050565b6000613ab28383613a64565b60608301905092915050565b6000602082019050919050565b6000613ad6826139a8565b613ae081856139b3565b9350613aeb836139c4565b8060005b83811015613b1c578151613b038882613aa6565b9750613b0e83613abe565b925050600181019050613aef565b5085935050505092915050565b60006020820190508181036000830152613b438184613acb565b905092915050565b613b54816139d4565b82525050565b6000602082019050613b6f6000830184613b4b565b92915050565b613b7e816139d4565b8114613b8957600080fd5b50565b600081359050613b9b81613b75565b92915050565b60048110613bae57600080fd5b50565b600081359050613bc081613ba1565b92915050565b600080600060608486031215613bdf57613bde613913565b5b6000613bed86828701613b8c565b9350506020613bfe86828701613b8c565b9250506040613c0f86828701613bb1565b9150509250925092565b600081519050919050565b600082825260208201905092915050565b6000819050602082019050919050565b606082016000820151613c5b60008501826139de565b506020820151613c6e60208501826139de565b506040820151613c816040850182613a55565b50505050565b6000613c938383613c45565b60608301905092915050565b6000602082019050919050565b6000613cb782613c19565b613cc18185613c24565b9350613ccc83613c35565b8060005b83811015613cfd578151613ce48882613c87565b9750613cef83613c9f565b925050600181019050613cd0565b5085935050505092915050565b60006020820190508181036000830152613d248184613cac565b905092915050565b600080600060608486031215613d4557613d44613913565b5b6000613d5386828701613966565b9350506020613d6486828701613b8c565b9250506040613d7586828701613b8c565b9150509250925092565b60008060408385031215613d9657613d95613913565b5b6000613da485828601613966565b9250506020613db585828601613b8c565b9150509250929050565b613dc88161393d565b82525050565b613dd781613a43565b82525050565b60008115159050919050565b613df281613ddd565b82525050565b600060a082019050613e0d6000830188613dbf565b613e1a6020830187613b4b565b613e276040830186613b4b565b613e346060830185613dce565b613e416080830184613de9565b9695505050505050565b600080fd5b600080fd5b6000601f19601f8301169050919050565b7f4e487b7100000000000000000000000000000000000000000000000000000000600052604160045260246000fd5b613e9e82613e55565b810181811067ffffffffffffffff82111715613ebd57613ebc613e66565b5b80604052505050565b6000613ed0613909565b9050613edc8282613e95565b919050565b600067ffffffffffffffff821115613efc57613efb613e66565b5b613f0582613e55565b9050602081019050919050565b82818337600083830152505050565b6000613f34613f2f84613ee1565b613ec6565b905082815260208101848484011115613f5057613f4f613e50565b5b613f5b848285613f12565b509392505050565b600082601f830112613f7857613f77613e4b565b5b8135613f88848260208601613f21565b91505092915050565b60008060408385031215613fa857613fa7613913565b5b6000613fb685828601613966565b925050602083013567ffffffffffffffff811115613fd757613fd6613918565b5b613fe385828601613f63565b9150509250929050565b60006060820190506140026000830186613b4b565b61400f6020830185613b4b565b61401c6040830184613dce565b949350505050565b60006020828403121561403a57614039613913565b5b600061404884828501613b8c565b91505092915050565b600081519050919050565b600082825260208201905092915050565b60005b8381101561408b578082015181840152602081019050614070565b60008484015250505050565b60006140a282614051565b6140ac818561405c565b93506140bc81856020860161406d565b6140c581613e55565b840191505092915050565b600060c0820190506140e56000830189613dbf565b6140f26020830188613dbf565b81810360408301526141048187614097565b905081810360608301526141188186614097565b90506141276080830185613de9565b61413460a0830184613b4b565b979650505050505050565b600060408201905081810360008301526141598185614097565b90506141686020830184613b4b565b9392505050565b600081519050919050565b600082825260208201905092915050565b6000819050602082019050919050565b600082825260208201905092915050565b60006141b782614051565b6141c1818561419b565b93506141d181856020860161406d565b6141da81613e55565b840191505092915050565b6000604083016000830151848203600086015261420282826141ac565b915050602083015161421760208601826139de565b508091505092915050565b600061422e83836141e5565b905092915050565b6000602082019050919050565b600061424e8261416f565b614258818561417a565b93508360208202850161426a8561418b565b8060005b858110156142a657848403895281516142878582614222565b945061429283614236565b925060208a0199505060018101905061426e565b50829750879550505050505092915050565b600060208201905081810360008301526142d28184614243565b905092915050565b600381106142eb576142ea6139ed565b5b50565b60008190506142fc826142da565b919050565b600061430c826142ee565b9050919050565b61431c81614301565b82525050565b60006020820190506143376000830184614313565b92915050565b60006020820190506143526000830184613dbf565b92915050565b600081519050919050565b600082825260208201905092915050565b6000819050602082019050919050565b61438d8161393d565b82525050565b61439c81613ddd565b82525050565b60a0820160008201516143b86000850182614384565b5060208201516143cb60208501826139de565b5060408201516143de60408501826139de565b5060608201516143f16060850182613a55565b5060808201516144046080850182614393565b50505050565b600061441683836143a2565b60a08301905092915050565b6000602082019050919050565b600061443a82614358565b6144448185614363565b935061444f83614374565b8060005b83811015614480578151614467888261440a565b975061447283614422565b925050600181019050614453565b5085935050505092915050565b600060208201905081810360008301526144a7818461442f565b905092915050565b600381106144bc57600080fd5b50565b6000813590506144ce816144af565b92915050565b600080604083850312156144eb576144ea613913565b5b60006144f985828601613966565b925050602061450a858286016144bf565b9150509250929050565b60006040820190506145296000830185614313565b6145366020830184613de9565b9392505050565b600081519050919050565b600082825260208201905092915050565b6000819050602082019050919050565b600060c0830160008301516145816000860182614384565b5060208301516145946020860182614384565b50604083015184820360408601526145ac82826141ac565b915050606083015184820360608601526145c682826141ac565b91505060808301516145db6080860182614393565b5060a08301516145ee60a08601826139de565b508091505092915050565b60006146058383614569565b905092915050565b6000602082019050919050565b60006146258261453d565b61462f8185614548565b93508360208202850161464185614559565b8060005b8581101561467d578484038952815161465e85826145f9565b94506146698361460d565b925060208a01995050600181019050614645565b50829750879550505050505092915050565b600060208201905081810360008301526146a9818461461a565b905092915050565b60006020820190506146c66000830184613de9565b92915050565b600080604083850312156146e3576146e2613913565b5b60006146f185828601613b8c565b925050602083013567ffffffffffffffff81111561471257614711613918565b5b61471e85828601613f63565b9150509250929050565b600081519050919050565b600082825260208201905092915050565b6000819050602082019050919050565b60006147608383614384565b60208301905092915050565b6000602082019050919050565b600061478482614728565b61478e8185614733565b935061479983614744565b8060005b838110156147ca5781516147b18882614754565b97506147bc8361476c565b92505060018101905061479d565b5085935050505092915050565b600060208201905081810360008301526147f18184614779565b905092915050565b600060c0830160008301516148116000860182614384565b5060208301516148246020860182614384565b506040830151848203604086015261483c82826141ac565b9150506060830151848203606086015261485682826141ac565b915050608083015161486b6080860182614393565b5060a083015161487e60a08601826139de565b508091505092915050565b600060208201905081810360008301526148a381846147f9565b905092915050565b6000819050919050565b60006148d06148cb6148c68461391d565b6148ab565b61391d565b9050919050565b60006148e2826148b5565b9050919050565b60006148f4826148d7565b9050919050565b614904816148e9565b82525050565b600060208201905061491f60008301846148fb565b92915050565b7f5265656e7472616e6379206973206e6f7420616c6c6f77656400000000000000600082015250565b600061495b60198361405c565b915061496682614925565b602082019050919050565b6000602082019050818103600083015261498a8161494e565b9050919050565b7f4f6e6c7920726567697374657265642070726f6475636572732063616e20706560008201527f72666f726d207468697320616374696f6e000000000000000000000000000000602082015250565b60006149ed60318361405c565b91506149f882614991565b604082019050919050565b60006020820190508181036000830152614a1c816149e0565b9050919050565b7f416d6f756e74206d7573742062652067726561746572207468616e207a65726f600082015250565b6000614a5960208361405c565b9150614a6482614a23565b602082019050919050565b60006020820190508181036000830152614a8881614a4c565b9050919050565b7f5072696365206d7573742062652067726561746572207468616e207a65726f00600082015250565b6000614ac5601f8361405c565b9150614ad082614a8f565b602082019050919050565b60006020820190508181036000830152614af481614ab8565b9050919050565b7f4e487b7100000000000000000000000000000000000000000000000000000000600052601160045260246000fd5b6000614b35826139d4565b9150614b40836139d4565b9250828201905080821115614b5857614b57614afb565b5b92915050565b6000606082019050614b736000830186613b4b565b614b806020830185613b4b565b8181036040830152614b928184614097565b9050949350505050565b7f4e487b7100000000000000000000000000000000000000000000000000000000600052603260045260246000fd5b7f456e65726779206973206e6f7420617661696c61626c6520666f722073616c65600082015250565b6000614c0160208361405c565b9150614c0c82614bcb565b602082019050919050565b60006020820190508181036000830152614c3081614bf4565b9050919050565b6000614c42826139d4565b9150614c4d836139d4565b9250828202614c5b816139d4565b91508282048414831517614c7257614c71614afb565b5b5092915050565b7f496e76616c6964207072696365206f7220657863656564732070726f6475636560008201527f72277320737570706c7900000000000000000000000000000000000000000000602082015250565b6000614cd5602a8361405c565b9150614ce082614c79565b604082019050919050565b60006020820190508181036000830152614d0481614cc8565b9050919050565b7f4e487b7100000000000000000000000000000000000000000000000000000000600052601260045260246000fd5b6000614d45826139d4565b9150614d50836139d4565b925082614d6057614d5f614d0b565b5b828204905092915050565b7f50726f647563657220646f6573206e6f74206861766520656e6f75676820656e60008201527f6572677900000000000000000000000000000000000000000000000000000000602082015250565b6000614dc760248361405c565b9150614dd282614d6b565b604082019050919050565b60006020820190508181036000830152614df681614dba565b9050919050565b6000604082019050614e126000830185613dbf565b614e1f6020830184613dbf565b9392505050565b600081519050614e3581613b75565b92915050565b600060208284031215614e5157614e50613913565b5b6000614e5f84828501614e26565b91505092915050565b7f416c6c6f77616e636520696e73756666696369656e7400000000000000000000600082015250565b6000614e9e60168361405c565b9150614ea982614e68565b602082019050919050565b60006020820190508181036000830152614ecd81614e91565b9050919050565b7f496e73756666696369656e7420746f6b656e2062616c616e6365000000000000600082015250565b6000614f0a601a8361405c565b9150614f1582614ed4565b602082019050919050565b60006020820190508181036000830152614f3981614efd565b9050919050565b6000606082019050614f556000830186613dbf565b614f626020830185613dbf565b614f6f6040830184613b4b565b949350505050565b614f8081613ddd565b8114614f8b57600080fd5b50565b600081519050614f9d81614f77565b92915050565b600060208284031215614fb957614fb8613913565b5b6000614fc784828501614f8e565b91505092915050565b6000614fdb826139d4565b9150614fe6836139d4565b9250828203905081811115614ffe57614ffd614afb565b5b92915050565b60006040820190506150196000830185613b4b565b6150266020830184613b4b565b9392505050565b7f4e487b7100000000000000000000000000000000000000000000000000000000600052602260045260246000fd5b6000600282049050600182168061507457607f821691505b6020821081036150875761508661502d565b5b50919050565b60008190508160005260206000209050919050565b60006020601f8301049050919050565b600082821b905092915050565b6000600883026150ef7fffffffffffffffffffffffffffffffffffffffffffffffffffffffffffffffff826150b2565b6150f986836150b2565b95508019841693508086168417925050509392505050565b600061512c615127615122846139d4565b6148ab565b6139d4565b9050919050565b6000819050919050565b61514683615111565b61515a61515282615133565b8484546150bf565b825550505050565b600090565b61516f615162565b61517a81848461513d565b505050565b5b8181101561519e57615193600082615167565b600181019050615180565b5050565b601f8211156151e3576151b48161508d565b6151bd846150a2565b810160208510156151cc578190505b6151e06151d8856150a2565b83018261517f565b50505b505050565b600082821c905092915050565b6000615206600019846008026151e8565b1980831691505092915050565b600061521f83836151f5565b9150826002028217905092915050565b61523882614051565b67ffffffffffffffff81111561525157615250613e66565b5b61525b825461505c565b6152668282856151a2565b600060209050601f8311600181146152995760008415615287578287015190505b6152918582615213565b8655506152f9565b601f1984166152a78661508d565b60005b828110156152cf578489015182556001820191506020850194506020810190506152aa565b868310156152ec57848901516152e8601f8916826151f5565b8355505b6001600288020188555050505b505050505050565b6000602082019050818103600083015261531b8184614097565b905092915050565b7f4f6e6c79206f776e65722063616e2063616c6c20746869730000000000000000600082015250565b600061535960188361405c565b915061536482615323565b602082019050919050565b600060208201905081810360008301526153888161534c565b9050919050565b7f537570706c79206d7573742062652067726561746572207468616e207a65726f600082015250565b60006153c560208361405c565b91506153d08261538f565b602082019050919050565b600060208201905081810360008301526153f4816153b8565b9050919050565b7f44656d616e64206d7573742062652067726561746572207468616e207a65726f600082015250565b600061543160208361405c565b915061543c826153fb565b602082019050919050565b6000602082019050818103600083015261546081615424565b9050919050565b7f55736572206973206e6f74207265676973746572656400000000000000000000600082015250565b600061549d60168361405c565b91506154a882615467565b602082019050919050565b600060208201905081810360008301526154cc81615490565b9050919050565b60006154de826139d4565b91507fffffffffffffffffffffffffffffffffffffffffffffffffffffffffffffffff82036155105761550f614afb565b5b600182019050919050565b7f496e76616c696420757365722061646472657373000000000000000000000000600082015250565b600061555160148361405c565b915061555c8261551b565b602082019050919050565b6000602082019050818103600083015261558081615544565b9050919050565b7f496e76616c696420757365722074797065000000000000000000000000000000600082015250565b60006155bd60118361405c565b91506155c882615587565b602082019050919050565b600060208201905081810360008301526155ec816155b0565b9050919050565b7f5573657220697320616c72656164792072656769737465726564000000000000600082015250565b6000615629601a8361405c565b9150615634826155f3565b602082019050919050565b600060208201905081810360008301526156588161561c565b9050919050565b7f4469737075746520494420646f6573206e6f7420657869737400000000000000600082015250565b600061569560198361405c565b91506156a08261565f565b602082019050919050565b600060208201905081810360008301526156c481615688565b9050919050565b7f4469737075746520616c7265616479207265736f6c7665640000000000000000600082015250565b600061570160188361405c565b915061570c826156cb565b602082019050919050565b60006020820190508181036000830152615730816156f4565b9050919050565b7f50726f647563656420616d6f756e74206d75737420626520677265617465722060008201527f7468616e207a65726f0000000000000000000000000000000000000000000000602082015250565b600061579360298361405c565b915061579e82615737565b604082019050919050565b600060208201905081810360008301526157c281615786565b9050919050565b60006060820190506157de6000830186613b4b565b6157eb6020830185613dce565b6157f86040830184613b4b565b949350505050565b7f436f6e73756d656420616d6f756e74206d75737420626520677265617465722060008201527f7468616e207a65726f0000000000000000000000000000000000000000000000602082015250565b600061585c60298361405c565b915061586782615800565b604082019050919050565b6000602082019050818103600083015261588b8161584f565b905091905056fea264697066735822122061a07c84bf2db4b1697de483a00e4b47c41a1b50dfe7420a4eb27d16a30bad3564736f6c634300081a0033",
  "linkReferences": {},
  "deployedLinkReferences": {}
}