{
  "_format": "hh-sol-artifact-1",
  "contractName": "UserManagement",
  "sourceName": "contracts/UserManagement.sol",
  "abi": [
    {
      "anonymous": false,
      "inputs": [
        {
          "indexed": true,
          "internalType": "address",
          "name": "user",
          "type": "address"
        },
        {
          "indexed": false,
          "internalType": "string",
          "name": "newPreferences",
          "type": "string"
        },
        {
          "indexed": false,
          "internalType": "uint256",
          "name": "timestamp",
          "type": "uint256"
        }
      ],
      "name": "PreferencesUpdated",
      "type": "event"
    },
    {
      "anonymous": false,
      "inputs": [
        {
          "indexed": true,
          "internalType": "address",
          "name": "user",
          "type": "address"
        },
        {
          "indexed": false,
          "internalType": "enum UserManagement.UserType",
          "name": "userType",
          "type": "uint8"
        },
        {
          "indexed": false,
          "internalType": "string",
          "name": "name",
          "type": "string"
        },
        {
          "indexed": false,
          "internalType": "uint256",
          "name": "timestamp",
          "type": "uint256"
        }
      ],
      "name": "UserRegistered",
      "type": "event"
    },
    {
      "inputs": [],
      "name": "getAllUsers",
      "outputs": [
        {
          "internalType": "address[]",
          "name": "",
          "type": "address[]"
        }
      ],
      "stateMutability": "view",
      "type": "function"
    },
    {
      "inputs": [
        {
          "internalType": "address",
          "name": "userAddress",
          "type": "address"
        }
      ],
      "name": "getUserProfile",
      "outputs": [
        {
          "components": [
            {
              "internalType": "enum UserManagement.UserType",
              "name": "userType",
              "type": "uint8"
            },
            {
              "internalType": "address",
              "name": "walletAddress",
              "type": "address"
            },
            {
              "internalType": "string",
              "name": "name",
              "type": "string"
            },
            {
              "internalType": "string",
              "name": "preferences",
              "type": "string"
            },
            {
              "internalType": "uint256",
              "name": "createdAt",
              "type": "uint256"
            }
          ],
          "internalType": "struct UserManagement.UserProfile",
          "name": "",
          "type": "tuple"
        }
      ],
      "stateMutability": "view",
      "type": "function"
    },
    {
      "inputs": [
        {
          "internalType": "address",
          "name": "userAddress",
          "type": "address"
        }
      ],
      "name": "getUserType",
      "outputs": [
        {
          "internalType": "enum UserManagement.UserType",
          "name": "",
          "type": "uint8"
        }
      ],
      "stateMutability": "view",
      "type": "function"
    },
    {
      "inputs": [
        {
          "internalType": "address",
          "name": "userAddress",
          "type": "address"
        }
      ],
      "name": "isRegistered",
      "outputs": [
        {
          "internalType": "bool",
          "name": "",
          "type": "bool"
        }
      ],
      "stateMutability": "view",
      "type": "function"
    },
    {
      "inputs": [
        {
          "internalType": "enum UserManagement.UserType",
          "name": "userType",
          "type": "uint8"
        },
        {
          "internalType": "string",
          "name": "name",
          "type": "string"
        },
        {
          "internalType": "string",
          "name": "preferences",
          "type": "string"
        }
      ],
      "name": "registerUser",
      "outputs": [],
      "stateMutability": "nonpayable",
      "type": "function"
    },
    {
      "inputs": [
        {
          "internalType": "string",
          "name": "newPreferences",
          "type": "string"
        }
      ],
      "name": "updatePreferences",
      "outputs": [],
      "stateMutability": "nonpayable",
      "type": "function"
    }
  ],
  "bytecode": "0x6080604052348015600f57600080fd5b506114708061001f6000396000f3fe608060405234801561001057600080fd5b50600436106100625760003560e01c806340df5af9146100675780638b3f863f14610083578063987ee156146100b35780639a772079146100e3578063c3c5a547146100ff578063e2842d791461012f575b600080fd5b610081600480360381019061007c9190610adf565b61014d565b005b61009d60048036038101906100989190610b86565b610237565b6040516100aa9190610c2a565b60405180910390f35b6100cd60048036038101906100c89190610b86565b61031f565b6040516100da9190610d78565b60405180910390f35b6100fd60048036038101906100f89190610dbf565b6105c6565b005b61011960048036038101906101149190610b86565b610806565b6040516101269190610e65565b60405180910390f35b6101376108a0565b6040516101449190610f2f565b60405180910390f35b61015633610806565b610195576040517f08c379a000000000000000000000000000000000000000000000000000000000815260040161018c90610fae565b60405180910390fd5b806000803373ffffffffffffffffffffffffffffffffffffffff1673ffffffffffffffffffffffffffffffffffffffff16815260200190815260200160002060020190816101e391906111da565b503373ffffffffffffffffffffffffffffffffffffffff167ff72c393ac0d9de5f25249bc0768a0f3ba5c9a86918eb644176cc3c96d4faa4dc824260405161022c9291906112f4565b60405180910390a250565b600061024233610806565b610281576040517f08c379a000000000000000000000000000000000000000000000000000000000815260040161027890610fae565b60405180910390fd5b61028a82610806565b6102c9576040517f08c379a00000000000000000000000000000000000000000000000000000000081526004016102c090611370565b60405180910390fd5b6000808373ffffffffffffffffffffffffffffffffffffffff1673ffffffffffffffffffffffffffffffffffffffff16815260200190815260200160002060000160009054906101000a900460ff169050919050565b61032761092e565b61033033610806565b61036f576040517f08c379a000000000000000000000000000000000000000000000000000000000815260040161036690610fae565b60405180910390fd5b61037882610806565b6103b7576040517f08c379a00000000000000000000000000000000000000000000000000000000081526004016103ae90611370565b60405180910390fd5b6000808373ffffffffffffffffffffffffffffffffffffffff1673ffffffffffffffffffffffffffffffffffffffff1681526020019081526020016000206040518060a00160405290816000820160009054906101000a900460ff16600181111561042557610424610bb3565b5b600181111561043757610436610bb3565b5b81526020016000820160019054906101000a900473ffffffffffffffffffffffffffffffffffffffff1673ffffffffffffffffffffffffffffffffffffffff1673ffffffffffffffffffffffffffffffffffffffff1681526020016001820180546104a190610ffd565b80601f01602080910402602001604051908101604052809291908181526020018280546104cd90610ffd565b801561051a5780601f106104ef5761010080835404028352916020019161051a565b820191906000526020600020905b8154815290600101906020018083116104fd57829003601f168201915b5050505050815260200160028201805461053390610ffd565b80601f016020809104026020016040519081016040528092919081815260200182805461055f90610ffd565b80156105ac5780601f10610581576101008083540402835291602001916105ac565b820191906000526020600020905b81548152906001019060200180831161058f57829003601f168201915b505050505081526020016003820154815250509050919050565b6105cf33610806565b1561060f576040517f08c379a0000000000000000000000000000000000000000000000000000000008152600401610606906113dc565b60405180910390fd5b6040518060a0016040528084600181111561062d5761062c610bb3565b5b81526020013373ffffffffffffffffffffffffffffffffffffffff168152602001838152602001828152602001428152506000803373ffffffffffffffffffffffffffffffffffffffff1673ffffffffffffffffffffffffffffffffffffffff16815260200190815260200160002060008201518160000160006101000a81548160ff021916908360018111156106c7576106c6610bb3565b5b021790555060208201518160000160016101000a81548173ffffffffffffffffffffffffffffffffffffffff021916908373ffffffffffffffffffffffffffffffffffffffff160217905550604082015181600101908161072891906111da565b50606082015181600201908161073e91906111da565b50608082015181600301559050506001339080600181540180825580915050600190039060005260206000200160009091909190916101000a81548173ffffffffffffffffffffffffffffffffffffffff021916908373ffffffffffffffffffffffffffffffffffffffff1602179055503373ffffffffffffffffffffffffffffffffffffffff167f726667a5f20e9b31dc33e05c22e9c75635a2b28353c1e1758ef024205927f7028484426040516107f9939291906113fc565b60405180910390a2505050565b60008073ffffffffffffffffffffffffffffffffffffffff166000808473ffffffffffffffffffffffffffffffffffffffff1673ffffffffffffffffffffffffffffffffffffffff16815260200190815260200160002060000160019054906101000a900473ffffffffffffffffffffffffffffffffffffffff1673ffffffffffffffffffffffffffffffffffffffff1614159050919050565b6060600180548060200260200160405190810160405280929190818152602001828054801561092457602002820191906000526020600020905b8160009054906101000a900473ffffffffffffffffffffffffffffffffffffffff1673ffffffffffffffffffffffffffffffffffffffff16815260200190600101908083116108da575b5050505050905090565b6040518060a001604052806000600181111561094d5761094c610bb3565b5b8152602001600073ffffffffffffffffffffffffffffffffffffffff1681526020016060815260200160608152602001600081525090565b6000604051905090565b600080fd5b600080fd5b600080fd5b600080fd5b6000601f19601f8301169050919050565b7f4e487b7100000000000000000000000000000000000000000000000000000000600052604160045260246000fd5b6109ec826109a3565b810181811067ffffffffffffffff82111715610a0b57610a0a6109b4565b5b80604052505050565b6000610a1e610985565b9050610a2a82826109e3565b919050565b600067ffffffffffffffff821115610a4a57610a496109b4565b5b610a53826109a3565b9050602081019050919050565b82818337600083830152505050565b6000610a82610a7d84610a2f565b610a14565b905082815260208101848484011115610a9e57610a9d61099e565b5b610aa9848285610a60565b509392505050565b600082601f830112610ac657610ac5610999565b5b8135610ad6848260208601610a6f565b91505092915050565b600060208284031215610af557610af461098f565b5b600082013567ffffffffffffffff811115610b1357610b12610994565b5b610b1f84828501610ab1565b91505092915050565b600073ffffffffffffffffffffffffffffffffffffffff82169050919050565b6000610b5382610b28565b9050919050565b610b6381610b48565b8114610b6e57600080fd5b50565b600081359050610b8081610b5a565b92915050565b600060208284031215610b9c57610b9b61098f565b5b6000610baa84828501610b71565b91505092915050565b7f4e487b7100000000000000000000000000000000000000000000000000000000600052602160045260246000fd5b60028110610bf357610bf2610bb3565b5b50565b6000819050610c0482610be2565b919050565b6000610c1482610bf6565b9050919050565b610c2481610c09565b82525050565b6000602082019050610c3f6000830184610c1b565b92915050565b610c4e81610c09565b82525050565b610c5d81610b48565b82525050565b600081519050919050565b600082825260208201905092915050565b60005b83811015610c9d578082015181840152602081019050610c82565b60008484015250505050565b6000610cb482610c63565b610cbe8185610c6e565b9350610cce818560208601610c7f565b610cd7816109a3565b840191505092915050565b6000819050919050565b610cf581610ce2565b82525050565b600060a083016000830151610d136000860182610c45565b506020830151610d266020860182610c54565b5060408301518482036040860152610d3e8282610ca9565b91505060608301518482036060860152610d588282610ca9565b9150506080830151610d6d6080860182610cec565b508091505092915050565b60006020820190508181036000830152610d928184610cfb565b905092915050565b60028110610da757600080fd5b50565b600081359050610db981610d9a565b92915050565b600080600060608486031215610dd857610dd761098f565b5b6000610de686828701610daa565b935050602084013567ffffffffffffffff811115610e0757610e06610994565b5b610e1386828701610ab1565b925050604084013567ffffffffffffffff811115610e3457610e33610994565b5b610e4086828701610ab1565b9150509250925092565b60008115159050919050565b610e5f81610e4a565b82525050565b6000602082019050610e7a6000830184610e56565b92915050565b600081519050919050565b600082825260208201905092915050565b6000819050602082019050919050565b6000610eb88383610c54565b60208301905092915050565b6000602082019050919050565b6000610edc82610e80565b610ee68185610e8b565b9350610ef183610e9c565b8060005b83811015610f22578151610f098882610eac565b9750610f1483610ec4565b925050600181019050610ef5565b5085935050505092915050565b60006020820190508181036000830152610f498184610ed1565b905092915050565b600082825260208201905092915050565b7f55736572206973206e6f74207265676973746572656400000000000000000000600082015250565b6000610f98601683610f51565b9150610fa382610f62565b602082019050919050565b60006020820190508181036000830152610fc781610f8b565b9050919050565b7f4e487b7100000000000000000000000000000000000000000000000000000000600052602260045260246000fd5b6000600282049050600182168061101557607f821691505b60208210810361102857611027610fce565b5b50919050565b60008190508160005260206000209050919050565b60006020601f8301049050919050565b600082821b905092915050565b6000600883026110907fffffffffffffffffffffffffffffffffffffffffffffffffffffffffffffffff82611053565b61109a8683611053565b95508019841693508086168417925050509392505050565b6000819050919050565b60006110d76110d26110cd84610ce2565b6110b2565b610ce2565b9050919050565b6000819050919050565b6110f1836110bc565b6111056110fd826110de565b848454611060565b825550505050565b600090565b61111a61110d565b6111258184846110e8565b505050565b5b818110156111495761113e600082611112565b60018101905061112b565b5050565b601f82111561118e5761115f8161102e565b61116884611043565b81016020851015611177578190505b61118b61118385611043565b83018261112a565b50505b505050565b600082821c905092915050565b60006111b160001984600802611193565b1980831691505092915050565b60006111ca83836111a0565b9150826002028217905092915050565b6111e382610c63565b67ffffffffffffffff8111156111fc576111fb6109b4565b5b6112068254610ffd565b61121182828561114d565b600060209050601f8311600181146112445760008415611232578287015190505b61123c85826111be565b8655506112a4565b601f1984166112528661102e565b60005b8281101561127a57848901518255600182019150602085019450602081019050611255565b868310156112975784890151611293601f8916826111a0565b8355505b6001600288020188555050505b505050505050565b60006112b782610c63565b6112c18185610f51565b93506112d1818560208601610c7f565b6112da816109a3565b840191505092915050565b6112ee81610ce2565b82525050565b6000604082019050818103600083015261130e81856112ac565b905061131d60208301846112e5565b9392505050565b7f55736572206e6f7420666f756e64000000000000000000000000000000000000600082015250565b600061135a600e83610f51565b915061136582611324565b602082019050919050565b600060208201905081810360008301526113898161134d565b9050919050565b7f5573657220697320616c72656164792072656769737465726564000000000000600082015250565b60006113c6601a83610f51565b91506113d182611390565b602082019050919050565b600060208201905081810360008301526113f5816113b9565b9050919050565b60006060820190506114116000830186610c1b565b818103602083015261142381856112ac565b905061143260408301846112e5565b94935050505056fea26469706673582212204e998fa2da24f4221d8321ad1ab44d9ba63473401562e23916167a37529565d364736f6c634300081a0033",
  "linkReferences": {},
  "deployedLinkReferences": {}
}